S01200004C4544666C61736865722E7372656358
S21400000020060020B50100004B0200004B02000055
S21400001000000000000000000000000000000000DB
S2140000200000000000000000000000004B0200007E
S21400003000000000000000004B0200004B02000021
S2140000404B0200004B0200004B0200004B02000077
S2140000504B0200004B0200004B0200004B02000067
S2140000604B0200004B0200004B0200004B02000057
S2140000704B0200004B0200004B0200004B02000047
S2140000804B0200004B0200004B0200004B02000037
S2140000904B0200004B0200004B0200004B02000027
S2140000A04B0200004B0200004B0200004B02000017
S2140000B04B0200004B0200004B0200004B02000007
S2140000C04B0200004B0200004B0200004B020000F7
S2140000D04B0200004B0200004B0200004B020000E7
S2140000E04B0200004B0200004B0200004B020000D7
S2140000F04B02000010B540F20004C2F20004237860
S21400010063B940F20003C0F200032BB144F22000B2
S214000110C0F2800000E000BF0123237010BDC0467F
S21400012040F20003C0F2000310B54BB140F20401E8
S21400013044F22000C2F20001C0F2800000E000BFDE
S21400014044F22000C0F28000036803B910BD40F2FC
S2140001500003C0F20003002BF8D09847F6E7C0462D
S21400016080B500AF43F20023C4F200030022DA6633
S2140001704EF20013CEF2000340F280220021995086
S2140001804EF20013CEF2000340F284220021995072
S214000190C046BD4680BD80B500AF40F2ED73C0F2EC
S2140001A00003984740F26113C0F200039847C04628
S2140001B0BD4680BD80B582B000AF41F6AC63C0F2EC
S2140001C000037B6040F20003C2F200033B607A68E3
S2140001D03B689A420FD007E03B681A1D3A607A687F
S2140001E0111D796012681A603A6840F20003C2F284
S2140001F000039A42F0D340F20003C2F200033B60D1
S21400020004E03B681A1D3A6000221A603A6840F221
S2140002102003C2F200039A42F3D340F20003C0F276
S21400022000037B604EF60053CEF200037A687F210F
S2140002308A439A6041F6D133C0F20003984740F6ED
S2140002405713C0F200039847FEE780B500AFFEE7FD
S21400025080B584B000AFF8607A600B23FB180A1CE8
S2140002601A700B23FB181B78FA68DB01D3180833C7
S2140002707A681A60C046BD4604B080BD80B584B0BA
S21400028000AFF8607A600B23FB180A1C1A700B2369
S214000290FB181B78FA68DB01D31804337A681A60F7
S2140002A0C046BD4604B080BD80B584B000AFF860DF
S2140002B07A600B23FB180A1C1A700B23FB181B789A
S2140002C0FA68DB01D31818337A681A60C046BD4650
S2140002D004B080BD80B584B000AFF8607A600B23B0
S2140002E0FB180A1C1A700B23FB181B78FA68DB0134
S2140002F0D31814337A681A60C046BD4604B080BD71
S21400030090B585B000AF78600C0010001900FB1C9B
S214000310221C1A70BB1C021C1A707B1C0A1C1A704A
S214000320FB1C1978BB1C1A780F23FB18786830243E
S214000330C90141188A18121912781A700F23FB186F
S2140003400F22BA1812780F218A431A707B1C1B786A
S2140003500F221340D9B20F23FB180F22BA181278B7
S2140003600A431A70FB1C1A78BB1C1B78796830206D
S214000370D2018A18D3181B180F22BA1812781A70CE
S214000380C046BD4605B090BD90B585B000AF78605C
S2140003900C0010001900FB1C221C1A70BB1C021C4F
S2140003A01A707B1C0A1C1A70FB1C1978BB1C1A7866
S2140003B00F23FB1878683024C90141188A181219CF
S2140003C012781A700F23FB180F22BA1812780F2112
S2140003D00A401A707B1C1B781B01D9B20F23FB182E
S2140003E00F22BA1812780A431A70FB1C1A78BB1C24
S2140003F01B7879683020D2018A18D3181B180F2270
S214000400BA1812781A70C046BD4605B090BD90B5B1
S21400041085B000AF78600C0010001900FB1C221C91
S2140004201A70BB1C021C1A707B1C0A1C1A70FB1C60
S2140004301978BB1C1A780F23FB1878684024C9016A
S21400044041188A18121912781A700F23FB180F22F7
S214000450BA18127801218A431A707B1C19780F2368
S214000460FB180F22BA1812780A431A70FB1C1A7867
S214000470BB1C1B7879684020D2018A18D3181B1839
S2140004800F22BA1812781A70C046BD4605B090BD45
S21400049080B584B000AFF8607A600B23FB180A1CA6
S2140004A01A700B23FB181B78FA68DB01D318283365
S2140004B07A681A60C046BD4604B080BD80B582B07A
S2140004C000AF39601100FB1D021C1A70BB1D0A1C10
S2140004D01A70BB1D1B78012B32D0022B61D003B1E2
S2140004E08EE03A68FB1D1978C023DB05180040F241
S2140004F07D23C0F2000398473B681B041B0C802238
S214000500D2051A43FB1D197843F20003C4F2000318
S214000510180040F29143C0F2000398473B681B0C5A
S214000520C02212061A43FB1D197843F20003C4F2D8
S2140005300003180040F29143C0F2000398475FE0C2
S2140005403A68FB1D1978C023DB05180040F27D23AE
S214000550C0F2000398473B681B041A0C0023C4F241
S21400056002031A43FB1D197843F20003C4F200038A
S214000570180040F29143C0F2000398473B681A0CFB
S2140005800023CCF202031A43FB1D197843F2000342
S214000590C4F20003180040F29143C0F200039847EB
S2140005A02EE03A68FB1D1978C023DB05180040F2E0
S2140005B05123C0F2000398473B681B041B0C8022A3
S2140005C0D2051A43FB1D197843F20003C4F2000358
S2140005D0180040F29143C0F2000398473B681B0C9A
S2140005E0C02212061A43FB1D197843F20003C4F218
S2140005F00003180040F29143C0F200039847C0463B
S214000600C046BD4602B080BD80B582B000AF39603E
S2140006101100FB1D021C1A70BB1D0A1C1A70BB1DA4
S2140006201B785BB13A68FB1D1978C023DB05180000
S21400063040F2A923C0F2000398470AE03A68FB1D7F
S2140006401978C023DB05180040F2D523C0F200035A
S2140006509847C046BD4602B080BD90B585B000AF95
S214000660786039607B685A090F23FB181A707B681C
S214000670DAB20E23FB181F210A401A703B680133BA
S21400068010D10E23FB181A780F23FB18197843F2A3
S2140006900000C4F20000002340F20F44C0F2000441
S2140006A0A0473EE00E23FB181A780F23FB18197894
S2140006B043F20000C4F20000012340F20F44C0F2EF
S2140006C00004A0470E23FB181B7801221340A3B199
S2140006D00E23FB181B785B08DAB23B68DCB20F23EC
S2140006E0FB18197843F20000C4F20000230040F221
S2140006F08934C0F20004A04713E00E23FB181B78D1
S2140007005B08DAB23B68DCB20F23FB18197843F2B9
S2140007100000C4F20000230040F20134C0F20004DE
S214000720A047C046BD4605B090BD80B582B000AFBC
S214000730786039603A687B681100180040F25B63A5
S214000740C0F200039847C046BD4602B080BD80B5E3
S21400075082B000AF0200FB1D1A70BB1D0A1C1A7087
S214000760FB1D1B785B09D8B2FB1D1B781F221340AC
S21400077001229A401100BB1D1B781A0040F2BD43AF
S214000780C0F200039847C046BD4602B080BD80B5A3
S21400079082B000AF0200FB1D1A70BB1D0A1C1A7047
S2140007A0FB1D1B785B09D8B2FB1D1B781F2213406C
S2140007B001229A401100BB1D1B781A0040F2096303
S2140007C0C0F200039847C046BD4602B080BD80B563
S2140007D000AF4EF21003CEF20003180040F62F03CF
S2140007E0C0F200039847C046BD4680BD80B500AF46
S2140007F00021172040F28F73C0F2000398470221B1
S214000800172040F24F73C0F20003984701235B4263
S2140008101900172040F22B73C0F20003984740F2ED
S214000820CF73C0F200039847C046BD4680BD80B572
S21400083082B000AF786040F21C03C2F200037A6810
S2140008401A6040F21C03C2F200031B68180040F650
S2140008508D03C0F200039847C046BD4602B080BD77
S21400086080B582B000AF78604EF21003CEF200037F
S214000870054A5A604EF21003CEF2000305221A60B3
S214000880C046BD4602B080BDFFFFFF0080B582B007
S21400089000AF78607B68180040F66103C0F2000382
S2140008A09847C046BD4602B080BD80B584B000AF54
S2140008B0F8607A600B23FB180A1C1A700B23FB18CF
S2140008C01B78FA68DB01D3181C337A681A60C046B6
S2140008D0BD4604B080BD80B582B000AF020039606E
S2140008E0FB1D1A703A68FB1D1978C023DB0518003B
S2140008F040F6AB03C0F200039847C046BD4602B0C0
S21400090080BD80B582B000AF0200FB1D1A70FB1DD3
S2140009101B785B09D8B2FB1D1B781F2213400122EF
S2140009209A401300190040F6D703C0F20003984718
S214000930C046BD4602B080BD80B500AFC046BD46CD
S21400094080BD80B500AF41F6F923C0F2000398479A
S214000950C046BD4680BD80B500AF40F29713C0F2DA
S2140009600003984740F63913C0F20003984740F654
S2140009704313C0F200039847172040F60313C0F253
S21400098000039847EEE780B584B000AF78600E238A
S214000990FB1820221A700F23FB1800221A7006E09C
S2140009A00F23FB180F22BA18127801321A700F2381
S2140009B0FA180E23FB1812781B789A42F0D3C0461A
S2140009C0BD4604B080BD000080B588B000AF78603A
S2140009D039600023FB6130E0FB699B007A68D3181E
S2140009E0FA69920039688A1812781A70FB699B00B7
S2140009F001337A68D318FA699200013239688A1886
S214000A0012781A70FB699B0002337A68D318FA6969
S214000A109200023239688A1812781A70FB699B00B5
S214000A2003337A68D318FA699200033239688A1851
S214000A3012781A70FB690133FB61FB69072BCBD96F
S214000A400823FB6103E1FB69854A944663449B00E7
S214000A50BB617A68BB69D3181A780C23FB181A7026
S214000A60BB6901337A68D3181A780C23FB185A70BE
S214000A70BB6902337A68D3181A780C23FB189A706D
S214000A80BB6903337A68D3181A780C23FB18DA701C
S214000A90FB6907221340002B5CD11723FB180C229E
S214000AA0BA1812781A700C23FB185A780C23FB1805
S214000AB01A700C23FB189A780C23FB185A700C2318
S214000AC0FB18DA780C23FB189A700C23FB181722F5
S214000AD0BA181278DA700C23FB181B781A0041F645
S214000AE04043C0F200039A5C0C23FB181A700C23D8
S214000AF0FB185B781A0041F64043C0F200039A5C8C
S214000B000C23FB185A700C23FB189B781A0041F62E
S214000B104043C0F200039A5C0C23FB189A700C2327
S214000B20FB18DB781A0041F64043C0F200039A5CDB
S214000B300C23FB18DA700C23FB181A78FB69D9080B
S214000B4041F64063C0F200035B5C5340DAB20C230C
S214000B50FB181A70FB6907221340042B2FD10C23B5
S214000B60FB181B781A0041F64043C0F200039A5C5B
S214000B700C23FB181A700C23FB185B781A0041F63E
S214000B804043C0F200039A5C0C23FB185A700C23F7
S214000B90FB189B781A0041F64043C0F200039A5CAB
S214000BA00C23FB189A700C23FB18DB781A0041F60E
S214000BB04043C0F200039A5C0C23FB18DA70FB6912
S214000BC09B003B61FB694FF6F87CC3F6FF7C6344F1
S214000BD09B00BB617A683B69D3187968BA698A1842
S214000BE011780C22BA1812784A40D2B21A703B69B1
S214000BF001337A68D318BA69013279688A1811788D
S214000C000C22BA1852784A40D2B21A703B690233A4
S214000C107A68D318BA69023279688A1811780C2271
S214000C20BA1892784A40D2B21A703B6903337A688F
S214000C30D318BA69033279688A1811780C22BA1860
S214000C40D2784A40D2B21A70FB690133FB61FB6965
S214000C503B2B00D8F7E6C046BD4608B080BDC04670
S214000C60FFFFFF3F80B582B000AF786039607B68D9
S214000C703A681100180040F6C913C0F200039847FE
S214000C80C046BD4602B080BD90B587B000AFB96023
S214000C907A600F23FB18021C1A701723FB18002219
S214000CA01A703FE01623FB1800221A702EE0172356
S214000CB0FB181A781623FB181B7817217918087862
S214000CC0162179180978BC6880002018405C0F212E
S214000CD0791809788C0017217918097861188C0022
S214000CE016217918097861180C00796809190978AD
S214000CF04140C8B2B96892008A18011CD154162324
S214000D00FB181622BA18127801321A701623FB182E
S214000D101B78032BCBD91723FB181722BA18127887
S214000D2001321A701723FB181B78032BBAD9C0465A
S214000D30BD4607B090BD80B582B000AF0200FB1D77
S214000D401A70FB1D1B785B005AB2FB1D1B78DB0973
S214000D50DBB2191C0B1CDB185B18191CC800191C0D
S214000D60031CCB18DBB25BB253405BB2DBB218009D
S214000D70BD4602B080BDB0B584B000AF7860002339
S214000D80FB6000F0C2FD0B23FB187A68F968890047
S214000D908A5C1A700A23FB187968FA6892008A1827
S214000DA0013212781A700923FB187968FA689200E3
S214000DB08A18023212781A700823FB187968FA68C3
S214000DC092008A18033212781A700B23FB181B78CD
S214000DD0180040F63753C0F2000398470300180087
S214000DE040F63753C0F2000398470300180040F659
S214000DF03753C0F2000398470300180040F63753F5
S214000E00C0F2000398470A23FB181B78180040F628
S214000E103753C0F2000398470300180040F63753D4
S214000E20C0F2000398470A23FB181B78180040F608
S214000E303753C0F2000398470300180040F63753B4
S214000E40C0F2000398470300180040F63753C0F27C
S214000E50000398470300180040F63753C0F200031B
S214000E6098470923FB181B78180040F63753C0F242
S214000E70000398470923FB181B78180040F63753E1
S214000E80C0F2000398470300180040F63753C0F23C
S214000E90000398470300180040F63753C0F20003DB
S214000EA098470300180040F63753C0F200039847EF
S214000EB00823FB181B78180040F63753C0F20003CF
S214000EC098470823FB181B78180040F63753C0F2E3
S214000ED0000398470300180040F63753C0F200039B
S214000EE098470823FB181B78180040F63753C0F2C3
S214000EF0000398470300180040F63753C0F200037B
S214000F0098470300180040F63753C0F2000398478E
S214000F100300180040F63753C0F2000398470B232F
S214000F20FB181B78180040F63753C0F200039847AA
S214000F3003001C000B23FB181B78180040F63753E1
S214000F40C0F2000398470300180040F63753C0F27B
S214000F500003984703006340DCB20B23FB181B78A2
S214000F60180040F63753C0F20003984703001800F5
S214000F7040F63753C0F2000398470300180040F6C7
S214000F803753C0F20003984703006340DCB20A23DD
S214000F90FB181B78180040F63753C0F2000398473A
S214000FA003001A000A23FB181B785340DDB20A23FD
S214000FB0FB181B78180040F63753C0F2000398471A
S214000FC00300180040F63753C0F2000398470300AA
S214000FD0180040F63753C0F20003984703006B40F2
S214000FE0DBB26340DCB20923FB181B78180040F61E
S214000FF03753C0F2000398470300180040F63753F3
S214001000C0F20003984703001A000923FB181B7858
S2140010105340DDB20923FB181B78180040F63753FF
S214001020C0F2000398470300180040F63753C0F29A
S214001030000398470300180040F63753C0F2000339
S214001040984703006B40DBB26340DCB20823FB1812
S2140010501B78180040F63753C0F200039847030089
S214001060180040F63753C0F20003984703001800F4
S21400107040F63753C0F20003984703001A000823CF
S214001080FB181B785340DBB26340D9B27B68FA6822
S2140010909200D1540B23FB181B78180040F63753E8
S2140010A0C0F2000398470B23FB181B78180040F685
S2140010B03753C0F2000398470300180040F6375332
S2140010C0C0F2000398470B23FB181B78180040F665
S2140010D03753C0F2000398470300180040F6375312
S2140010E0C0F2000398470300180040F63753C0F2DA
S2140010F0000398470300180040F63753C0F2000379
S21400110098470A23FB181B78180040F63753C0F29E
S214001110000398470300180040F63753C0F2000358
S21400112098470300180040F63753C0F2000398476C
S2140011300300180040F63753C0F20003984709230F
S214001140FB181B78180040F63753C0F20003984788
S2140011500300180040F63753C0F2000398470923EF
S214001160FB181B78180040F63753C0F20003984768
S2140011700300180040F63753C0F2000398470300F8
S214001180180040F63753C0F20003984703001800D3
S21400119040F63753C0F2000398470823FB181B7825
S2140011A0180040F63753C0F2000398470823FB1890
S2140011B01B78180040F63753C0F200039847030028
S2140011C0180040F63753C0F2000398470300180093
S2140011D040F63753C0F2000398470300180040F665
S2140011E03753C0F2000398470B23FB181B781800F0
S2140011F040F63753C0F2000398470300180040F645
S2140012003753C0F2000398470300180040F63753E0
S214001210C0F20003984703001A000B23FB181B7844
S2140012205340DCB20A23FB181B78180040F63753ED
S214001230C0F20003984703001D000A23FB181B7822
S214001240180040F63753C0F2000398470300180012
S21400125040F63753C0F20003984703006B40DDB2F8
S2140012600A23FB181B78180040F63753C0F2000319
S21400127098470300180040F63753C0F2000398471B
S2140012800300180040F63753C0F2000398470300E7
S2140012906B40DBB26340DCB20923FB181B781800F6
S2140012A040F63753C0F20003984703001A0009239C
S2140012B0FB181B785340DDB20923FB181B78180077
S2140012C040F63753C0F2000398470300180040F674
S2140012D03753C0F2000398470300180040F6375310
S2140012E0C0F20003984703006B40DBB26340DCB2F9
S2140012F00823FB181B78180040F63753C0F200038B
S21400130098470300180040F63753C0F2000398478A
S21400131003001A000823FB181B785340DDB208238D
S214001320FB181B78180040F63753C0F200039847A6
S2140013300300180040F63753C0F200039847030036
S214001340180040F63753C0F20003984703006B407E
S214001350DBB26340D9B27A68FB689B00D3180133CE
S2140013600A1C1A700B23FB181B78180040F637531C
S214001370C0F2000398470B23FB181B78180040F6B2
S2140013803753C0F2000398470300180040F637535F
S214001390C0F2000398470300180040F63753C0F227
S2140013A0000398470300180040F63753C0F20003C6
S2140013B098470A23FB181B78180040F63753C0F2EC
S2140013C0000398470A23FB181B78180040F637538B
S2140013D0C0F2000398470300180040F63753C0F2E7
S2140013E0000398470A23FB181B78180040F637536B
S2140013F0C0F2000398470300180040F63753C0F2C7
S214001400000398470300180040F63753C0F2000365
S21400141098470300180040F63753C0F20003984779
S2140014200923FB181B78180040F63753C0F2000358
S21400143098470300180040F63753C0F20003984759
S2140014400300180040F63753C0F200039847030025
S214001450180040F63753C0F2000398470823FB18DD
S2140014601B78180040F63753C0F200039847030075
S214001470180040F63753C0F2000398470823FB18BD
S2140014801B78180040F63753C0F200039847030055
S214001490180040F63753C0F20003984703001800C0
S2140014A040F63753C0F2000398470300180040F692
S2140014B03753C0F2000398470B23FB181B7818001D
S2140014C040F63753C0F2000398470300180040F672
S2140014D03753C0F20003984703001A000B23FB188B
S2140014E01B785340DCB20B23FB181B78180040F621
S2140014F03753C0F2000398470300180040F63753EE
S214001500C0F2000398470300180040F63753C0F2B5
S2140015100003984703006340DCB20A23FB181B78DD
S214001520180040F63753C0F200039847030018002F
S21400153040F63753C0F2000398470300180040F601
S2140015403753C0F20003984703001A000A23FB181B
S2140015501B785340DBB26340DCB20923FB181B78D0
S214001560180040F63753C0F20003984703001D00EA
S2140015700923FB181B78180040F63753C0F2000307
S21400158098470300180040F63753C0F20003984708
S21400159003006B40DDB20923FB181B78180040F6E9
S2140015A03753C0F2000398470300180040F637533D
S2140015B0C0F2000398470300180040F63753C0F205
S2140015C00003984703006B40DBB26340DCB208239D
S2140015D0FB181B78180040F63753C0F200039847F4
S2140015E003001A000823FB181B785340DDB20823BB
S2140015F0FB181B78180040F63753C0F200039847D4
S2140016000300180040F63753C0F200039847030063
S214001610180040F63753C0F20003984703006B40AB
S214001620DBB26340D9B27A68FB689B00D3180233FA
S2140016300A1C1A700B23FB181B78180040F6375349
S214001640C0F2000398470300180040F63753C0F274
S214001650000398470B23FB181B78180040F63753F7
S214001660C0F2000398470300180040F63753C0F254
S214001670000398470300180040F63753C0F20003F3
S21400168098470300180040F63753C0F20003984707
S2140016900A23FB181B78180040F63753C0F20003E5
S2140016A098470A23FB181B78180040F63753C0F2F9
S2140016B0000398470300180040F63753C0F20003B3
S2140016C098470300180040F63753C0F200039847C7
S2140016D00300180040F63753C0F20003984709236A
S2140016E0FB181B78180040F63753C0F200039847E3
S2140016F00923FB181B78180040F63753C0F2000386
S21400170098470300180040F63753C0F20003984786
S2140017100923FB181B78180040F63753C0F2000365
S21400172098470300180040F63753C0F20003984766
S2140017300300180040F63753C0F200039847030032
S214001740180040F63753C0F2000398470823FB18EA
S2140017501B78180040F63753C0F200039847030082
S214001760180040F63753C0F20003984703001800ED
S21400177040F63753C0F2000398470300180040F6BF
S2140017803753C0F2000398470B23FB181B7818004A
S21400179040F63753C0F20003984703001A000B23A5
S2140017A0FB181B785340DCB20B23FB181B78180081
S2140017B040F63753C0F2000398470300180040F67F
S2140017C03753C0F2000398470300180040F637531B
S2140017D0C0F20003984703006340DCB20A23FB18FC
S2140017E01B78180040F63753C0F2000398470300F2
S2140017F0180040F63753C0F20003984703001A005B
S2140018000A23FB181B785340DDB20A23FB181B780B
S214001810180040F63753C0F200039847030018003C
S21400182040F63753C0F2000398470300180040F60E
S2140018303753C0F20003984703006B40DBB26340A7
S214001840DCB20923FB181B78180040F63753C0F2A9
S214001850000398470300180040F63753C0F2000311
S21400186098470300180040F63753C0F20003984725
S21400187003001A000923FB181B785340DBB26340B1
S214001880DCB20823FB181B78180040F63753C0F26A
S2140018900003984703001D000823FB181B78180058
S2140018A040F63753C0F2000398470300180040F68E
S2140018B03753C0F20003984703006B40DDB208239D
S2140018C0FB181B78180040F63753C0F20003984701
S2140018D00300180040F63753C0F200039847030091
S2140018E0180040F63753C0F20003984703006B40D9
S2140018F0DBB26340D9B27A68FB689B00D318033327
S2140019000A1C1A70FB680133FB60FB68032B01DCC2
S214001910FFF739FAC046BD4604B0B0BD90B585B0F5
S21400192000AF78600F23FB1800221A7032E00E23F7
S214001930FB1800221A7021E00E23FB1818780F23DC
S214001940FB181A780E23FB1819780F23FB181B7840
S2140019507C6889006118CB5C190041F64053C0F2E0
S21400196000035C5C79688300CB18211C99540E2315
S214001970FB180E22BA18127801321A700E23FB18C2
S2140019801B78032BD8D90F23FB180F22BA1812780E
S21400199001321A700F23FB181B78032BC7D9C046D9
S2140019A0BD4605B090BD80B584B000AF78600F230B
S2140019B0FB187A68527B1A707B685A7A7B685A736F
S2140019C07B685A797B685A727B685A787B685A714A
S2140019D07B680F22BA1812785A700F23FB187A68A1
S2140019E092781A707B689A7A7B689A707B680F2266
S2140019F0BA1812789A720F23FB187A6892791A70BE
S214001A007B689A7B7B689A717B680F22BA1812787B
S214001A109A730F23FB187A68D2781A707B68DA7983
S214001A207B68DA707B68DA7A7B68DA717B68DA7BE7
S214001A307B68DA727B680F22BA181278DA73C046AF
S214001A40BD4604B080BD80B584B000AF7860396014
S214001A500F23FB1800221A703A687B6819000E20C4
S214001A6040F68943C0F2000398470F23FB180D2267
S214001A701A707B68180041F6A713C0F20003984757
S214001A807B68180041F61D13C0F2000398473A68B9
S214001A9079680F23FB181B78180040F68943C0F2BC
S214001AA0000398470F23FB181B7873B17B68180058
S214001AB040F67753C0F2000398470F23FB180F2217
S214001AC0BA181278013A1A70D3E7C046C046BD4627
S214001AD004B080BD80B582B000AF786039607A68A7
S214001AE03B681100180041F64723C0F200039847F0
S214001AF0C046BD4602B080BD90B5D1B000AF40F242
S214001B002013FB1841F64C62C0F2000213CA13C33E
S214001B1013CA13C303CA03C340F21013FA1841F6DC
S214001B206C63C0F2000313CB13C21B6813607A1CED
S214001B30FF3241F67C63C0F2000313CB13C21B686E
S214001B40136040F21013FB18180040F68713C0F21B
S214001B500003984740F22013FB18180040F687133E
S214001B60C0F20003984740F22013FA183B00110019
S214001B70180040F66543C0F20003984740F2101381
S214001B80FA183B001100180041F6D523C0F20003F6
S214001B90984740F21013F9187B1CFF3310221800E8
S214001BA041F62143C0F200039847030053B940F2C0
S214001BB01013FB18180040F68713C0F2000398476E
S214001BC0002300E001231800BD4651B090BD000080
S214001BD070B500250E4B0F4CE41AA410A54209D18F
S214001BE0002500F053F90C4C0C4BE41AA410A54247
S214001BF007D170BD064AAB009B181B689847013595
S214001C00ECE7064AAB009B181B6898470135EEE7E1
S214001C10981E0000981E00009C1E0000981E0000E3
S214001C2030B50024A24201D1002005E0035D651C0A
S214001C300C5DA34201D0181B30BD2C00F2E700005B
S214001C40637C777BF26B6FC53001672BFED7AB7674
S214001C50CA82C97DFA5947F0ADD4A2AF9CA472C01F
S214001C60B7FD9326363FF7CC34A5E5F171D831158C
S214001C7004C723C31896059A071280E2EB27B275AD
S214001C8009832C1A1B6E5AA0523BD6B329E32F8425
S214001C9053D100ED20FCB15B6ACBBE394A4C58CF1D
S214001CA0D0EFAAFB434D338545F9027F503C9FA8F1
S214001CB051A3408F929D38F5BCB6DA2110FFF3D2BF
S214001CC0CD0C13EC5F974417C4A77E3D645D197373
S214001CD060814FDC222A908846EEB814DE5E0BDB6D
S214001CE0E0323A0A4906245CC2D3AC629195E479A4
S214001CF0E7C8376D8DD54EA96C56F4EA657AAE08FE
S214001D00BA78252E1CA6B4C6E8DD741F4BBD8B8A98
S214001D10703EB5664803F60E613557B986C11D9EFE
S214001D20E1F8981169D98E949B1E87E9CE5528DF75
S214001D308CA1890DBFE6426841992D0FB054BB16A1
S214001D4052096AD53036A538BF40A39E81F3D7FB2B
S214001D507CE339829B2FFF87348E4344C4DEE9CB75
S214001D60547B9432A6C2233DEE4C950B42FAC34EEA
S214001D70082EA16628D924B2765BA2496D8BD125A0
S214001D8072F8F66486689816D4A45CCC5D65B69244
S214001D906C704850FDEDB9DA5E154657A78D9D84E8
S214001DA090D8AB008CBCD30AF7E45805B8B3450608
S214001DB0D02C1E8FCA3F0F02C1AFBD0301138A6B22
S214001DC03A9111414F67DCEA97F2CFCEF0B4E67352
S214001DD096AC7422E7AD3585E2F937E81C75DF6E00
S214001DE047F11A711D29C5896FB7620EAA18BE1B66
S214001DF0FC563E4BC6D279209ADBC0FE78CD5AF40C
S214001E001FDDA8338807C731B11210592780EC5F51
S214001E1060517FA919B54A0D2DE57A9F93C99CEFAD
S214001E20A0E03B4DAE2AF5B0C8EBBB3C83539961AE
S214001E30172B047EBA77D626E169146355210C7DEC
S214001E408D01020408102040801B3600603DEB1018
S214001E5015CA71BE2B73AEF0857D77811F352C07B2
S214001E603B6108D72D9810A30914DFF4F3EED1BD1B
S214001E70B5D2A03C064B5A7E3DB181F86BC1BEE29E
S214001E802E409F96E93D7E117393172AF8B5C046FB
S214001E90F8BC08BC9E46704721010000F8B5C04655
S210001EA0F8BC08BC9E467047F500000029
S2148040003F438FB0BB180000FF00087F0100000010
S214804010000000000000000000000000000000001B
S804000000FB
