:020000042001D9
:100000009711FF5F938181C897020000938282015C
:100010007390523093021000638402007350107C7E
:100020009702000093824211739052301301000036
:1000300063140100138181CB732540F181421303C6
:100040000040137101FF6385A2001A918502D5BF9C
:10005000970000009380C00763830000829073259F
:1000600040F181450146F9289300000063830000B8
:100070008290970200009382C20073905230032353
:100080000000F5BF000000008280A14673B3063077
:10009000914263C555001376350011CA230005004F
:1000A0000505FD15E347B0FE731003308280232061
:1000B00005001105F115E34EB0FC7310033082808A
:1000C000232003001103E34D73FE82800684970210
:1000D000FFDF938222F3638C02049702FFDF938297
:1000E00062F2F32740F1A14673B006300A8397030A
:1000F000FFDF938323318A9363037300D1376398BF
:1001000057021703FF5F1303E3EF9703FF5F938328
:10011000E339630373006D371703FFE7130383EEBF
:100120009703FFE7938303EE63037300513FA280BD
:1001300082800000F322203473231034F323303400
:10014000D5BF828006849711FF5F938121B493020B
:1001500000006311550E973200009382A2B417037A
:10016000FF5F130323EA9703FF5F93832334638CBA
:100170006200635A730003A5020091022320A300CA
:100180001103E34A73FE97120000938222DC1703E7
:10019000FFE7130323E79703FFE79383A3E6638C4B
:1001A0006200635A730003A5020091022320A3009A
:1001B0001103E34A73FE0F100000971200009382B0
:1001C000E2D81703FF5F1303E3E39703FF5F938313
:1001D00063E3638C6200635A730003A5020091021B
:1001E0002320A3001103E34A73FE0F10000017033E
:1001F000FF5F1303A32B9383818B6357730023202B
:1002000003001103E34D73FE1702FF5F1302022A7E
:1002100011C202961715000013056518EF10A014FF
:10022000EF10001B171500001305C53FEF10A013BA
:10023000EF10E03E3937FD5673B0463073B04634A8
:10024000F3271030372704007D8F09C773B036308D
:1002500073B02630370704007D8F19C373B00618BA
:10026000416713078702F98F89CBF32700300967AD
:10027000D98F7390073073503000F3271030370751
:100280002000F98F99C7F327003093E70720739078
:1002900007300545970500009385052E17060000D9
:1002A0001306C62D3120EF10A00CA2808280828020
:1002B000411106C2F32240F113030000638562007E
:1002C00073005010F5BFEF00B04B924041018280A7
:0802D000E4020120D802012024
:1002D80037050080130505096F206058411126C2B3
:1002E800B704008022C413840409484006C6EF20DE
:1002F80090051C40B725F40013850409DC43938559
:100308000540829708442244B240924441016F203C
:02031800900350
:10031C00603DEB1015CA71BE2B73AEF0857D7781F5
:10032C001F352C073B6108D72D9810A30914DFF457
:10033C0000000000F3EED1BDB5D2A03C064B5A7EB6
:10034C003DB181F8000000006BC1BEE22E409F96CB
:10035C00E93D7E117393172A000000008D01020401
:10036C0008102040801B360052096AD53036A5385B
:10037C00BF40A39E81F3D7FB7CE339829B2FFF8781
:10038C00348E4344C4DEE9CB547B9432A6C2233D65
:10039C00EE4C950B42FAC34E082EA16628D924B216
:1003AC00765BA2496D8BD12572F8F6648668981637
:1003BC00D4A45CCC5D65B6926C704850FDEDB9DA96
:1003CC005E154657A78D9D8490D8AB008CBCD30A84
:1003DC00F7E45805B8B34506D02C1E8FCA3F0F0260
:1003EC00C1AFBD0301138A6B3A9111414F67DCEA2F
:1003FC0097F2CFCEF0B4E67396AC7422E7AD3585A8
:10040C00E2F937E81C75DF6E47F11A711D29C589B1
:10041C006FB7620EAA18BE1BFC563E4BC6D2792093
:10042C009ADBC0FE78CD5AF41FDDA8338807C7319C
:10043C00B11210592780EC5F60517FA919B54A0D94
:10044C002DE57A9F93C99CEFA0E03B4DAE2AF5B009
:10045C00C8EBBB3C83539961172B047EBA77D62625
:10046C00E169146355210C7D637C777BF26B6FC55E
:10047C003001672BFED7AB76CA82C97DFA5947F09B
:10048C00ADD4A2AF9CA472C0B7FD9326363FF7CC77
:10049C0034A5E5F171D8311504C723C31896059A14
:1004AC00071280E2EB27B27509832C1A1B6E5AA037
:1004BC00523BD6B329E32F8453D100ED20FCB15B22
:1004CC006ACBBE394A4C58CFD0EFAAFB434D33858B
:1004DC0045F9027F503C9FA851A3408F929D38F55F
:1004EC00BCB6DA2110FFF3D2CD0C13EC5F97441796
:1004FC00C4A77E3D645D197360814FDC222A90880D
:10050C0046EEB814DE5E0BDBE0323A0A4906245C98
:10051C00C2D3AC629195E479E7C8376D8DD54EA9FD
:10052C006C56F4EA657AAE08BA78252E1CA6B4C6C9
:10053C00E8DD741F4BBD8B8A703EB5664803F60E22
:10054C00613557B986C11D9EE1F8981169D98E9411
:10055C009B1E87E9CE5528DF8CA1890DBFE642682A
:10056C0041992D0FB054BB167C05012000000000F2
:10057C006C6962676C6F7373000000004E1601208B
:10058C002A170120A816012000000000000000001E
:10059C00A8180120C4180120BC160120A4160120A3
:1005AC004E170120A41701200000000000000000DD
:1005BC00000000000000000000000000000000002F
:1005CC000000000000000000241801202216012069
:1005DC00000000000000000000000000000000000F
:1005EC00821A0120941A0120BA1A0120F41B01204E
:1005FC00F01A0120FA1A0120781C0120FE1A0120A1
:10060C00021B0120361B01206A1B01209E1B0120AE
:10061C00D0270120B81B0120CA1B0120D01B0120B0
:10062C00D81B01201A1C0120821C01203A26012013
:10063C0000000000000000000000000000000000AE
:10064C006A26012000000000AC270120B027012001
:10065C00000000000000000000000000000000008E
:10066C00000000000000000000000000000000007E
:10067C007E1A0120000000000000000000000000B5
:10068C00000000000000000066280120B0280120B6
:10069C006C2901200100000020000000001BB700A5
:1006AC0000366E01010000001F0000000300000076
:1006BC003F000000010000002000000000366E0129
:1006CC00006CDC02030000001F00000002000000B0
:1006DC003F0000000100000010000000808D5B0056
:1006EC00001BB700000000001F000000030000000A
:1006FC003F0000000100000010000000001BB700CC
:10070C0000366E01010000001F0000000200000016
:10071C003F000000010000001000000000366E01D8
:10072C00006CDC02030000001F000000020000004F
:10073C001F0000000100000008000000808D5B001D
:10074C00001BB700000000001F00000003000000A9
:10075C001F0000000100000008000000001BB70093
:10076C0000366E01010000001F00000002000000B6
:10077C001F000000010000000800000000366E01A0
:10078C00006CDC02030000001F00000002000000EF
:10079C000F0000000100000004000000808D5B00D1
:1007AC00001BB700000000001F0000000300000049
:1007BC000F0000000100000004000000001BB70047
:1007CC0000366E01010000001F0000000200000056
:1007DC000F000000010000000400000000366E0154
:1007EC00006CDC02030000001F000000020000008F
:1007FC00070000000100000002000000808D5B007B
:10080C00001BB700000000001F00000002000000E9
:10081C000F0000000100000002000000001BB700E8
:10082C0000366E01010000001F00000001000000F6
:10083C000F000000010000000200000000366E01F5
:10084C00006CDC02030000001F000000010000002F
:10085C00070000000200000001000000808D5B001A
:10086C00001BB700000000001F000000010000008A
:10087C00070000000200000001000000001BB70090
:10088C0000366E01010000001F0000000100000096
:10089C0003000000020000000100000000366E01A1
:1008AC00006CDC02030000001F00000003000000CD
:1008BC00FFFFFFFF0400000001000000808D5B00C3
:1008CC00001BB700000000001F0000000300000028
:1008DC00000000000400000001000000001BB70035
:1008EC0000366E01010000001F0000000300000034
:1008FC00FFFFFFFF040000000100000000366E0146
:10090C00006CDC02030000001F000000020000006D
:10091C00FFFFFFFF0600000001000000808D5B0060
:10092C00AAC2A20000000000230000000100000089
:10093C00020000000600000001000000AAC2A20094
:10094C00001BB700000000001700000003000000AF
:10095C00FFFFFFFF0600000001000000001BB700B6
:10096C000024F400010000002F0000000300000030
:10097C00FFFFFFFF06000000010000000024F40050
:10098C0080A8120101000000170000000200000006
:10099C00FFFFFFFF060000000100000080A812010D
:1009AC0055854501020000002300000002000000F4
:1009BC00FFFFFFFF0800000001000000808D5B00BE
:1009CC00001BB700000000001F0000000300000027
:1009DC00FFFFFFFF0800000001000000001BB70034
:1009EC0000366E01010000001F0000000200000034
:1009FC00FFFFFFFF080000000100000000366E0141
:100A0C00006CDC02030000001F000000010000006D
:100A1C00FFFFFFFF0A00000001000000808D5B005B
:100A2C00007C920000000000270000000300000082
:100A3C00FFFFFFFF0A00000001000000007C920095
:100A4C00001BB700000000001300000002000000B3
:100A5C00FFFFFFFF0A00000001000000001BB700B1
:100A6C0000F8240101000000270000000200000033
:100A7C00FFFFFFFF0A0000000100000000F8240146
:100A8C0000366E01010000001300000001000000A0
:100A9C00FFFFFFFF0A0000000100000000366E019E
:100AAC0000F04902030000002700000001000000D4
:100ABC00FFFFFFFF0C00000001000000808D5B00B9
:100ACC0000127A00000000002F000000030000005C
:100ADC00FFFFFFFF0C0000000100000000127A0075
:100AEC00001BB7000000000017000000020000000F
:100AFC00FFFFFFFF0C00000001000000001BB7000F
:100B0C000024F400010000002F000000020000008F
:100B1C00FFFFFFFF0C000000010000000024F400A8
:100B2C0000366E01010000001700000001000000FB
:100B3C00FFFFFFFF0C0000000100000000366E01FB
:100B4C0080C3C901030000002F0000000100000059
:100B5C00FFFFFFFF0C0000000100000080C3C90173
:100B6C000048E801030000002F0000000100000015
:100B7C00FFFFFFFF0E00000001000000808D5B00F6
:100B8C00B6A1680000000000370000000300000060
:100B9C00FFFFFFFF0E00000001000000B7A168007E
:100BAC00001BB700000000001B000000020000004A
:100BBC00FFFFFFFF0E00000001000000001BB7004C
:100BCC006D43D1000100000037000000020000005E
:100BDC00FFFFFFFF0E000000010000006E43D1007C
:100BEC0000366E01010000001B0000000100000037
:100BFC00FFFFFFFF0E0000000100000000366E0139
:100C0C00DB86A20103000000370000000100000099
:100C1C00FFFFFFFF1000000001000000808D5B0053
:100C2C00001BB700000000001F00000002000000C5
:100C3C00FFFFFFFF1000000001000000001BB700C9
:100C4C0000366E01010000001F00000001000000D2
:100C5C00FFFFFFFF1200000001000000808D5B0011
:100C6C00AAC2A20000000000230000000200000045
:100C7C00FFFFFFFF1200000001000000ABC2A2004A
:100C8C00001BB70000000000110000000100000074
:100C9C00FFFFFFFF1200000001000000001BB70067
:100CAC0055854501010000002300000001000000F3
:100CBC00FFFFFFFF1400000001000000808D5B00AF
:100CCC00007C9200000000002700000002000000E1
:100CDC00FFFFFFFF1400000001000000007C9200E9
:100CEC00001BB70000000000130000000100000012
:100CFC00FFFFFFFF1400000001000000001BB70005
:100D0C0000F8240101000000270000000100000091
:100D1C00FFFFFFFF1600000001000000808D5B004C
:100D2C00E82A8500000000002B00000002000000F3
:100D3C00FFFFFFFF1600000001000000E92A8500FC
:100D4C00001BB700000000001500000001000000AF
:100D5C00FFFFFFFF1600000001000000001BB700A2
:100D6C00D1550A01010000002B0000000100000019
:100D7C00FFFFFFFF1800000001000000808D5B00EA
:100D8C0000127A00000000002F000000020000009A
:100D9C00FFFFFFFF180000000100000000127A00A6
:100DAC00001BB7000000000017000000010000004D
:100DBC00FFFFFFFF1800000001000000001BB70040
:100DCC000024F400010000002F00000001000000CE
:100DDC00FFFFFFFF1A00000001000000808D5B0088
:100DEC0027AE70000000000033000000020000007D
:100DFC00FFFFFFFF1A0000000100000028AE70008A
:100E0C00001BB700000000001900000001000000EA
:100E1C00FFFFFFFF1A00000001000000001BB700DD
:100E2C006658E100010000003300000001000000E2
:100E3C00FFFFFFFF1C00000001000000808D5B0025
:100E4C00B6A168000000000037000000020000009E
:100E5C00FFFFFFFF1C00000001000000B7A16800AD
:100E6C00001BB700000000001B0000000100000088
:100E7C00FFFFFFFF1C00000001000000001BB7007B
:100E8C006D43D1000100000037000000010000009C
:100E9C00FFFFFFFF1E00000001000000808D5B00C3
:100EAC0000A86100000000003B00000002000000F0
:100EBC00FFFFFFFF1E0000000100000000A8610002
:100ECC00001BB700000000001D0000000100000026
:100EDC00FFFFFFFF1E00000001000000001BB70019
:100EEC000050C300010000003B00000001000000A6
:100EFC00FFFFFFFF2000000001000000808D5B0061
:100F0C00001BB700000000001F00000001000000E3
:100F1C00FFFFFFFF0000008001030400EA2701200F
:100F2C002C2801202E28012064280120382B012098
:0C0F3C00422B0120002C01204C2C012035
:100F8000411106C6292EFDBF2A881387050283C793
:100F900005002300F50083C71500A300F50083C7F3
:100FA00025002301F50083C73500A301F500910555
:100FB0001105E39EE5FC2145114FB70801209388F8
:100FC0004847B70E0120938E8E36130EC00381A8BA
:100FD000631EE301469703470700C69583C50500D6
:100FE000469603460600C69683C6060003C307005E
:100FF000334767002380E70203C71700B98DA3803A
:10100000B70203C72700398E2381C70203C7370001
:10101000B98EA381D702050511086303C505C287F0
:101020000347C8018345D8010346E8018346F80118
:1010300013737500E31E03F8C69503C305004696B7
:1010400083450600C69603C60600469783460700FA
:10105000135735007697034707003347E30079B706
:1010600082801205130846002A985106329513070C
:10107000C8FFAE8783C6070003460700B18E2380F2
:10108000D70085070507E31707FF91051108E3104F
:10109000A8FE82801357750093173700998F8A072F
:1010A000998F06053D8D1375F50F8280597186D68F
:1010B000A2D4A6D2CAD0CECED2CCD6CADAC8DEC688
:1010C000E2C4E6C2EAC06EDEAA8A2E862ED6AA85C1
:1010D0003945413FB5473ED493870A013ED09387B7
:1010E0004A013ED2B70D0120938D4D3731A0A25752
:1010F000FD1793F7F70F3ED483C7DA0003C79A00B2
:10110000A386EA0003C75A00A384EA0003C71A00B3
:10111000A382EA00A380FA0083C72A0003C7AA00BB
:101120002381EA002385FA0083C76A0003C7EA0027
:101130002383EA002387FA0083C73A0003C77A00B3
:10114000A381EA0003C7BA00A383EA0003C7FA0039
:10115000A385EA00A387FA00D6848256938706FF08
:1011600003C707006E97034707002380E700910736
:10117000E398D7FE85069257E392D7FE3256D6857E
:1011800022542285F93D630D040E03CC040083CB69
:10119000140003CB240003CD34006285E53D2AC44E
:1011A000D53D2A8AC53DAA8C5E85ED352A84DD357C
:1011B0002AC6CD35AA895A85F13D2AC8E13D2ACAF9
:1011C000D13D2A896A85F9352ACCE9352ACED93527
:1011D0002247B3474701B3C7FC00A18FB3C7F9004B
:1011E000D246B58FB347F900A98FB3C7FB00B34709
:1011F000FB00B347FD002380F400B3C78C003246E8
:10120000B18FB3C7F900C245AD8FB347F90072443F
:10121000A18FA98FB347FC00B347FB00B347FD0084
:10122000A380F400B3479A01B3C7F900AD8FB58F1F
:10123000B347F900E246B58FA98FB347FC00B3C7A7
:10124000FB00B347FD002381F400B34C9701B34C7E
:101250009601B3C999013349390133C9260133498C
:10126000240133452501334CAC00B3CB8B01334B08
:101270007B01A381640191048257E398F4F085BD5A
:10128000B650265496540659F649664AD64A464BF5
:10129000B64B264C964C064DF25D656182804D71D1
:1012A00023261114B70701209387C73183A80700AD
:1012B00003A847008847CC47904BD44B984FDC4F4E
:1012C00023201113232201132324A1122326B11258
:1012D0002328C112232AD112232CE112232EF1122A
:1012E000B7070120938707349043D4439847DC47DE
:1012F0002328C110232AD110232CE110232EF11012
:10130000B7070120938747359043D4439847DC477C
:101310002320C1102322D1102324E1102326F11011
:101320000C120A8595318A85080A493341460C0A10
:10133000080239203335A0008320C11471618280F6
:1013400001476314E60001458280B307E500050705
:10135000B386E50083C7070083C6F6FFE383D7FEA5
:101360003385D7408280AA85814601460145C1A0C8
:10137000411122C406C697070000938747132A84A9
:1013800099C381451D22170500000325A5B91C55E9
:1013900091C382972285EF103010411122C426C2DA
:1013A00017F4FFFF130484F397F4FFFF938404F30F
:1013B000058C06C6098411E4B240224492444101DE
:1013C00082807D1493172400A6979C438297E5B7EB
:1013D000411122C426C217F4FFFF1304A4EF97F4AF
:1013E000FFFF938424EF818C4AC006C6898401499B
:1013F0006315990217F4FFFF1304C4ED97F4FFFF80
:10140000938444ED818C89840149631D9900B24025
:10141000224492440249410182801C400509110482
:101420008297F9B71C40050911048297F9BFAA8871
:1014300017F5FE5F130585071C4191EF17F7FE5F57
:101440001307870718C113050000BA8709C51C4197
:101450002324F708BA87D8437D487D556346E804BE
:10146000638D080203A8870863000804131527008A
:10147000429510C10323081005463316E600336376
:10148000C300232068102320D50889466397D8001D
:1014900083264810558E2322C810930617000A078A
:1014A000D4C3BA978CC701458280797156CA5AC88D
:1014B0005EC662C406D622D426D24AD04ECE52CCC4
:1014C00066C22A8BAE8A97FBFE5F938B2BFE054C80
:1014D00083A40B0081CCC04083A984081309F4FFC6
:1014E0000A04338A89002694635F0900B2502254AB
:1014F00092540259F249624AD24A424BB24B224CB0
:10150000924C45618280638C0A00639609007D19C4
:10151000711A7114D1BF8327CA07E39A57FFD840C5
:101520005C407D176318270323A22401EDD383AC0D
:1015300044006388090083A6091033172C01F98E33
:1015400089EE8297D84083A70B00E31397F9E380D5
:10155000F4FCBDBF23220400D1BF83A6491083251C
:10156000CAFF758F01E75A858297E9BF2E8582975A
:10157000D1BF1C41DC57828711E5B707008003A566
:101580008748828001458280732540F18280B707B9
:1015900000809387074B984315EF411122C426C260
:1015A0003704012006C60547B704012098C3938479
:1015B000842D9307042D1304042D63EA9700B24091
:1015C00022449244410182801C4011048297E31D11
:1015D00094FEF5B78280B70700809387C74A984387
:1015E00015EF411122C426C23704012006C6054763
:1015F000B704012098C39384842D9307842D13048A
:10160000842D63EA9700B2402244924441018280D3
:101610001C4011048297E31D94FEF5B7828085BFBC
:101620005DBFB70700809387C74837070002638311
:10163000A70001478E05BA95116793074700AE973B
:101640007D5588C3BA9590C194C30145828001112C
:10165000B707008022CC4AC806CE26CA4EC693875A
:10166000C7482A8401496313F5000949444099E4B5
:10167000B7090080639B240185475CC0F240624447
:10168000D2444249B249056182808D4591C09D4551
:1016900083A7890BA2860146DC4F1385890B85043D
:1016A0008297C9BF7D5582806F001077411106C6B1
:1016B000732540F1D135B240410165BD01112EC6FF
:1016C00032C436C206CE22CC26CAAA84EF00D07419
:1016D0002A84E93FB70700809387C748924622468D
:1016E000B24501486393F4000948854763E98700E0
:1016F0003707008081471307870B63980701F24083
:101700006244D2447D55056182808D4891C39D48D5
:101710006314E500638415018507C5B71C41624465
:10172000F240D244DC4F05618287011106CE2EC6FD
:10173000B53F11C9B24505476367B7001C41F24088
:10174000DC4305618287F2407D550561828001118D
:1017500006CE22CC2EC69DC12A84893FB7070080C1
:101760009387C748B24589466303F400814637072B
:10177000008081471307870B6397D700F2406244CC
:101780007D55056182800D4691C31D466314E500B9
:101790006384C5008507CDB71C416244F240DC5329
:1017A00005618287011106CE22CC2EC69DC12A84F6
:1017B000F53DB70700809387C748B2458946630364
:1017C000F40081463707008081471307870B639732
:1017D000D700F24062447D55056182800D4691C379
:1017E0001D466314E5006384C5008507CDB71C4121
:1017F0006244F2409C5705618287370700801307D7
:10180000C748B70700026303A7008147B166138783
:10181000C6FFE1163E97B697144388430C43E39DF9
:10182000D5FE82804111B707008022C406C6938787
:10183000C748328401476314F500370700028D471B
:101840006389F50463CEB70085476385F502894750
:101850006389F502FD57B24022443E8541018280F2
:101860009147E399F5FE81477DD41C408A07BA97DA
:101870009C43D5B7FD5765D0493708C04CC0814758
:10188000D9BFFD5769D81C408A07BA9723A0070023
:10189000FDB7FD5769D01C408A07BA97054798C322
:1018A0000F0080049C43E1BF011106CE22CC2A84A4
:1018B000E1392AC6700022858945AD37F24062447D
:1018C00005618280011106CE22CC2A8475392AC690
:1018D000700022858D45B937F240624405618280EF
:1018E000AA85F32740F11397270093878181BA9740
:1018F0008843F327203415C53707008093F7F73F57
:10190000130747499387870E631AE500370700805E
:101910008A071307870BBA979C4382878A079C43E1
:101920000290828082800000000000000000000021
:1019300000000000000000000000000000000000A7
:101940000000000000000000000000000000000097
:101950000000000000000000000000000000000087
:101960000000000000000000000000000000000077
:101970000000000000000000000000000000000067
:10198000397106DE16DC1ADA1ED82AD62ED432D2E7
:1019900036D03ACE3ECC42CA46C872C676C47AC267
:1019A0007EC0F32740F11397270093878181BA9770
:1019B000944373262034F3271034F32730347327ED
:1019C00050309DC6B7070080938747496385F6046A
:1019D00081471375F63F635D0606930600086311A1
:1019E000D50403A7073983A5873913050008029793
:1019F000F250E2525253C2533255A25512568256F9
:101A00007247E2475248C248324EA24E124F824FAE
:101A1000216173002030B70700809387870B55BF83
:101A2000AD4663D5A6001377F70311EB6147330783
:101A3000E502BA9703A7070983A587094DBF894621
:101A4000E318D7FA73277030184383A5C70D45B73D
:101A50001307850E0A07BA979C43AA853685829795
:101A600041BF000000000000000000000000000076
:101A70000000000000000000000000000000014520
:101A80008280F32500B8732500B0F32700B8E39AED
:101A9000F5FE828005C1B70700809387474963063A
:101AA000F50001459355F54182803725F400130573
:101AB0000540CDBF01458145828001118147014824
:101AC0003EC4B707008006CE42C693874749639C51
:101AD000A700B707008003A5471F11C51C413000B0
:101AE0008545FC478297F2402245B24505618280D8
:101AF000370500801305C54882801D4582800D454D
:101B000082800111B707008006CE2EC69387474911
:101B10006391A702B707008083A747197D5599C72E
:101B2000984370008D4578473E850297F2400561E5
:101B300082807D55E5BF0111B707008006CE2EC615
:101B4000938747496391A702B707008083A7471986
:101B50007D5599C798437000894578473E8502971F
:101B6000F240056182807D55E5BF0111B707008015
:101B700006CE2EC6938747496391A702B707008018
:101B800083A74719014599C7984370009145784745
:101B90003E850297F240056182800145E5BFB707A7
:101BA0000080938747496384A700014582803705F9
:101BB00000801305850B828083D705000D471145F2
:101BC0008D8B6383E7000945828073251034828002
:101BD00073901534014582800145828041111305BF
:101BE000400606C6EF00D07841111305800C06C6EA
:101BF000EF001078B707008093874749B2862E869A
:101C0000639BA700B707008003A5471F09C51C41B8
:101C10008145BC4B82877D5582805C41A9EF93074B
:101C200005091307053923A0070023A2070023A4F1
:101C30000700E107E399E7FE372701209307053AFC
:101C40009306053D1307C7BD98C39107E39EF6FEB3
:101C500073275030B707012093874713631BF700A2
:101C6000F3275030B727012093870798F19B739093
:101C7000573085475CC18280370500801305C54811
:101C8000828081EDF3275030B72701209387079892
:101C9000F19B739057300145828085477D55E39DC8
:101CA000F5FEF3275030B7370120938707B893E745
:101CB0001700C5B76348A000938781810A053E9548
:101CC0000841828001458280411106C622C47325E5
:101CD00040F1CD372A84D533AE879305A50033B6BE
:101CE000A50022852244B2403E96410121B73971B8
:101CF0002AD61305C01206DE16DC1ADA1ED82ED438
:101D000032D236D03ACE3ECC42CA46C872C676C42B
:101D10007AC27EC0EF00D065397106DE16DC1ADAB1
:101D20001ED82AD62ED432D236D03ACE3ECC42CA93
:101D300046C872C676C47AC27EC0F32740F11397B4
:101D4000270093878181BA9798430DC3B707008016
:101D500093874749631FF702B70700809387870B74
:101D600003A7870D83A5070E0D450297F250E25297
:101D70005253C2533255A255125682567247E24709
:101D80005248C248324EA24E124F824F2161730018
:101D900020308327000E0290397106DE16DC1ADA35
:101DA0001ED82AD62ED432D236D03ACE3ECC42CA13
:101DB00046C872C676C47AC27EC0F32740F1139734
:101DC000270093878181BA9798430DC3B707008096
:101DD00093874749631FF702B70700809387870BF4
:101DE00003A7871383A507141D450297F250E252FB
:101DF0005253C2533255A255125682567247E24789
:101E00005248C248324EA24E124F824F2161730097
:101E10002030832700140290397106DE16DC1ADAAE
:101E20001ED82AD62ED432D236D03ACE3ECC42CA92
:101E300046C872C676C47AC27EC0F32740F11397B3
:101E4000270093878181BA9798430DC3B707008015
:101E500093874749631FF702B70700809387870B73
:101E600003A7072183A5872141450297F250E2523B
:101E70005253C2533255A255125682567247E24708
:101E80005248C248324EA24E124F824F2161730017
:101E90002030832780210290397106DE16DC1ADAA1
:101EA0001ED82AD62ED432D236D03ACE3ECC42CA12
:101EB00046C872C676C47AC27EC0F32740F1139733
:101EC000270093878181BA9798430DC3B707008095
:101ED00093874749631FF702B70700809387870BF3
:101EE00003A7872283A5072345450297F250E252B4
:101EF0005253C2533255A255125682567247E24788
:101F00005248C248324EA24E124F824F2161730096
:101F10002030832700230290397106DE16DC1ADA9E
:101F20001ED82AD62ED432D236D03ACE3ECC42CA91
:101F300046C872C676C47AC27EC0F32740F11397B2
:101F4000270093878181BA9798430DC3B707008014
:101F500093874749631FF702B70700809387870B72
:101F600003A7072483A5872449450297F250E2522C
:101F70005253C2533255A255125682567247E24707
:101F80005248C248324EA24E124F824F2161730016
:101F90002030832780240290397106DE16DC1ADA9D
:101FA0001ED82AD62ED432D236D03ACE3ECC42CA11
:101FB00046C872C676C47AC27EC0F32740F1139732
:101FC000270093878181BA9798430DC3B707008094
:101FD00093874749631FF702B70700809387870BF2
:101FE00003A7872583A507264D450297F250E252A5
:101FF0005253C2533255A255125682567247E24787
:102000005248C248324EA24E124F824F2161730095
:102010002030832700260290397106DE16DC1ADA9A
:102020001ED82AD62ED432D236D03ACE3ECC42CA90
:1020300046C872C676C47AC27EC0F32740F11397B1
:10204000270093878181BA9798430DC3B707008013
:1020500093874749631FF702B70700809387870B71
:1020600003A7072783A5872751450297F250E2521D
:102070005253C2533255A255125682567247E24706
:102080005248C248324EA24E124F824F2161730015
:102090002030832780270290397106DE16DC1ADA99
:1020A0001ED82AD62ED432D236D03ACE3ECC42CA10
:1020B00046C872C676C47AC27EC0F32740F1139731
:1020C000270093878181BA9798430DC3B707008093
:1020D00093874749631FF702B70700809387870BF1
:1020E00003A7872883A5072955450297F250E25296
:1020F0005253C2533255A255125682567247E24786
:102100005248C248324EA24E124F824F2161730094
:102110002030832700290290397106DE16DC1ADA96
:102120001ED82AD62ED432D236D03ACE3ECC42CA8F
:1021300046C872C676C47AC27EC0F32740F11397B0
:10214000270093878181BA9798430DC3B707008012
:1021500093874749631FF702B70700809387870B70
:1021600003A7072A83A5872A59450297F250E2520E
:102170005253C2533255A255125682567247E24705
:102180005248C248324EA24E124F824F2161730014
:1021900020308327802A0290397106DE16DC1ADA95
:1021A0001ED82AD62ED432D236D03ACE3ECC42CA0F
:1021B00046C872C676C47AC27EC0F32740F1139730
:1021C000270093878181BA9798430DC3B707008092
:1021D00093874749631FF702B70700809387870BF0
:1021E00003A7872B83A5072C5D450297F250E25287
:1021F0005253C2533255A255125682567247E24785
:102200005248C248324EA24E124F824F2161730093
:1022100020308327002C0290397106DE16DC1ADA92
:102220001ED82AD62ED432D236D03ACE3ECC42CA8E
:1022300046C872C676C47AC27EC0F32740F11397AF
:10224000270093878181BA9798430DC3B707008011
:1022500093874749631FF702B70700809387870B6F
:1022600003A7072D83A5872D61450297F250E252FF
:102270005253C2533255A255125682567247E24704
:102280005248C248324EA24E124F824F2161730013
:1022900020308327802D0290397106DE16DC1ADA91
:1022A0001ED82AD62ED432D236D03ACE3ECC42CA0E
:1022B00046C872C676C47AC27EC0F32740F113972F
:1022C000270093878181BA9798430DC3B707008091
:1022D00093874749631FF702B70700809387870BEF
:1022E00003A7872E83A5072F65450297F250E25278
:1022F0005253C2533255A255125682567247E24784
:102300005248C248324EA24E124F824F2161730092
:1023100020308327002F0290397106DE16DC1ADA8E
:102320001ED82AD62ED432D236D03ACE3ECC42CA8D
:1023300046C872C676C47AC27EC0F32740F11397AE
:10234000270093878181BA9798430DC3B707008010
:1023500093874749631FF702B70700809387870B6E
:1023600003A7073083A5873069450297F250E252F0
:102370005253C2533255A255125682567247E24703
:102380005248C248324EA24E124F824F2161730012
:102390002030832780300290397106DE16DC1ADA8D
:1023A0001ED82AD62ED432D236D03ACE3ECC42CA0D
:1023B00046C872C676C47AC27EC0F32740F113972E
:1023C000270093878181BA9798430DC3B707008090
:1023D00093874749631FF702B70700809387870BEE
:1023E00003A7873183A507326D450297F250E25269
:1023F0005253C2533255A255125682567247E24783
:102400005248C248324EA24E124F824F2161730091
:102410002030832700320290397106DE16DC1ADA8A
:102420001ED82AD62ED432D236D03ACE3ECC42CA8C
:1024300046C872C676C47AC27EC0F32740F11397AD
:10244000270093878181BA9798430DC3B70700800F
:1024500093874749631FF702B70700809387870B6D
:1024600003A7073383A5873371450297F250E252E1
:102470005253C2533255A255125682567247E24702
:102480005248C248324EA24E124F824F2161730011
:102490002030832780330290397106DE16DC1ADA89
:1024A0001ED82AD62ED432D236D03ACE3ECC42CA0C
:1024B00046C872C676C47AC27EC0F32740F113972D
:1024C000270093878181BA9798430DC3B70700808F
:1024D00093874749631FF702B70700809387870BED
:1024E00003A7873483A5073575450297F250E2525A
:1024F0005253C2533255A255125682567247E24782
:102500005248C248324EA24E124F824F2161730090
:102510002030832700350290397106DE16DC1ADA86
:102520001ED82AD62ED432D236D03ACE3ECC42CA8B
:1025300046C872C676C47AC27EC0F32740F11397AC
:10254000270093878181BA9798430DC3B70700800E
:1025500093874749631FF702B70700809387870B6C
:1025600003A7073683A5873679450297F250E252D2
:102570005253C2533255A255125682567247E24701
:102580005248C248324EA24E124F824F2161730010
:102590002030832780360290397106DE16DC1ADA85
:1025A0001ED82AD62ED432D236D03ACE3ECC42CA0B
:1025B00046C872C676C47AC27EC0F32740F113972C
:1025C000270093878181BA9798430DC3B70700808E
:1025D00093874749631FF702B70700809387870BEC
:1025E00003A7873783A507387D450297F250E2524B
:1025F0005253C2533255A255125682567247E24781
:102600005248C248324EA24E124F824F216173008F
:102610002030832700380290F327503093F7F703D8
:10262000FD17094701456369F700371701201307B4
:1026300047F2BA9703C507008280F9BFFD472A8792
:1026400063C0A7028947014563D0E70285473395F8
:10265000E700C577938787887D8D3335A00082801A
:10266000130505F8133515008280011126CAAA84C6
:102670002E8522CC4AC84EC606CE2E84B289368913
:10268000753FD55701C993070008631BF4086937E4
:10269000CD5735CDF2406244D2444249B2493E85DD
:1026A0000561828023A8343923AC243909A8E14587
:1026B0003304B402269423283409232C24098147A7
:1026C000D1BF7D47D157E34787FC3D47E35487FCA3
:1026D000E1453304B402B7270120938787BE2694CF
:1026E0002328F408232A2409D9BFB7270120938778
:1026F000078E23ACF40C23AE240DD1B7B7270120ED
:10270000938787CC23ACF41223AE24134DBFE39BF5
:1027100009F8B72701209387479223A8F43869B7AF
:10272000E39709F8AD47E305F4FAE3CC87F88D4762
:10273000E30DF4FA9D47E303F4FCD157A1BF11C99F
:102740009D476388F50463E8B7008DC58D47638DA9
:10275000F5027D5605A8AD476380F504938705FF14
:102760003D47E368F7FE8547B395B7000DEEF3B537
:10277000453009A8A14709C6F3A70730014619A0AB
:10278000F3B7073032858280A14719CAF3A74730D3
:10279000F5B793070008D5BF856793870780F5B71E
:1027A000F3B74730C5B7F3A54530C9BF054641BFAC
:1027B000014671B72D47AA877D55634AB70001CA04
:1027C0009385850E8A05BE9590C1014582808280E1
:1027D000B7070080938747496397A70037050080B4
:1027E0001305850BC1BF7D558280B717012083A7D4
:1027F00087F3411122C406C6814513854181829722
:10280000B7070040E98F2A847D5589CF635C0400B7
:1028100037050080130585071374F403B9260504F2
:1028200033558502B2402244410182807DBFB717F3
:10283000012083A787F3411106C691451385418185
:102840008297B7070040E98F91CB63590500B240EA
:102850003705008013050506410101AEB2407D55E4
:1028600041018280E9B7411122C42A84484106C649
:10287000F92CB78700109847C166758F11C7984724
:10288000C176FD16758F98C7378700101C47B706AD
:102890000200B725F400D58F1CC71C402285938504
:1028A0000540DC43829708442244B240410145A4DC
:1028B0004111B717012026C283A487F34AC006C678
:1028C00022C4A1451385418182942A84B145138590
:1028D00041818294C167E18F99EB2244B2409244D6
:1028E000024937050080130545084101BDACB70713
:1028F0000200E18FAA84A5E737050080130545088B
:10290000AD24B7070400E18FA9E79357440085661B
:10291000938606C093F7F703137774008507758CC9
:102920009306F03F0507860763F086043345E5020A
:102930002980B307F50205453314850033C58702A6
:1029400093F7041099E793F4F40385048604335550
:102950009502B240224492440249410182803705E7
:1029600000801305C50669BF7D55E5B7B787001020
:1029700098477971C16622D426D206D64AD04ECE67
:10298000758F2A84AE8411C79847C176FD16758F5E
:1029900098C7B78700109C4737070200F98F8DEF63
:1029A0003705008013054508C9220D473307E502A6
:1029B00091463347D70263C6E4029547B307F50251
:1029C000B3C7D70263CF9700378700101C47B706FD
:1029D0000400D58F1CC739AA370500801305C5062A
:1029E000E1B7B7160120B7050080938606F07D5643
:1029F00093C5F5FF130730047D589C466369F502C3
:102A0000DC4663E6A7029C4283A84600B307F502B2
:102A1000B3D71703638D0701858F93D8F741B3C7E9
:102A2000F800B387174163D4B700BE853A867D1797
:102A30008116E31407FDE309E6F8B787001098470D
:102A40001606619B98C7370701201307076A32975C
:102A5000144B8C479D8ACD8E94C7944793F6F6C04D
:102A600094C7544B9047920693F6063FD18E94C775
:102A700094477D761306F63FF18E94C7144F8C472A
:102A80000566AA06130606C0F18E584FCD8E94C770
:102A900063500708D84713670710D8C7D84713777C
:102AA00007FCD8C7D84713671700D8C7B7860010E8
:102AB0009C463707FCFF7D17F98F370900809CC6BD
:102AC000300085451305C948EFE0DFD5A244B24781
:102AD00093894400B3B49900BE94B24763E7F4000D
:102AE00063959704A24763F2F904378700101C47E7
:102AF000E3DF07FE378700101C47C166228522549A
:102B0000B25092540259F249D58F1CC745614DB35A
:102B1000D4471377F70393F6F6EFD4C7D44793F669
:102B200006FCD4C7D447558F49B7300085451305F7
:102B3000C948EFE03FCF55B7B7870010BE95884131
:102B40008280B7870010BE95328590C18280411186
:102B500022C406C62A8409E4B2402244410182808C
:102B60001C40484082970044FDB71C419C4382872B
:102B70000100FDBF00000000000000000000000098
:102B80006FF0EF966FF0AF966FF06F966FF0CF9893
:102B90006FF0EF956FF0AF956FF06F956FF0CF9F7F
:102BA0006FF0EF946FF0AF946FF06F946FF02F941D
:102BB0006FF0EF936FF0AF936FF06F936FF02F9311
:102BC0006FF08FA56FF04FAD6FF00FB56FF0CFBC0A
:102BD0006FF08FC46FF04FCC6FF00FD46FF0CFDB7E
:102BE0006FF08FE36FF04FEB6FF00FF36FF0CFFAF2
:102BF0006FF09F826FF05F8A6FF01F926FF0DF9926
:102C00003707008013070706AA876307E50237071F
:102C10000080130787076306E50237070080130764
:102C2000C70921656383E702370700801307870A16
:102C3000638DE700014582803725F40013050540C8
:102C4000828037A54A04130505208280370700805B
:102C500013070706AA876307E502370700801307F3
:102C600087076306E502370700801307C709216558
:102C70006383E702370700801307870A638DE70045
:102C8000014582803725F40013050540828037A571
:0E2C90004A04130505208280411106C6D13D7D
:102CA0000000000000000000000000000000000024
:102CB0000000000000000000000000000000000014
:102CC0000000000000000000000000000000000004
:102CD00000000000000000000000000000000000F4
:102CE00000000000000000000000000000000000E4
:102CF00000000000000000000000000000000000D4
:102D0000400F01200000000000000000300F0120F3
:102D10000000000000000000400F01200000000043
:102D200000000000280F012000000000000000004B
:102D3000980601200000000000000000400F012064
:102D40000000000000000000400F01200000000013
:102D5000000000000000000030060120000000001C
:102D60000000000000000000000000000000000063
:102D70000000000000000000000000000000000053
:102D80000000000000000000000000000000000043
:102D90000000000000000000000000000000000033
:1031200000000000000000009404008088050120D9
:1031300000000000EC05012000000000380F012015
:043140009404008073
:0400000520010000D6
:00000001FF
