:1000000020060020910100008D0100008D010000FC
:1000100000000000000000000000000000000000E0
:100020000000000000000000000000008D01000042
:1000300000000000000000008D0100008D010000A4
:100040008D0100008D0100008D0100008D01000078
:100050008D0100008D0100008D0100008D01000068
:100060008D0100008D0100008D0100008D01000058
:100070008D0100008D0100008D0100008D01000048
:100080008D0100008D0100008D0100008D01000038
:100090008D0100008D0100008D0100008D01000028
:1000A0008D0100008D0100008D0100008D01000018
:1000B0008D0100008D0100008D0100008D01000008
:1000C0008D0100008D0100008D0100008D010000F8
:1000D0008D0100008D0100008D0100008D010000E8
:1000E0008D0100008D0100008D0100008D010000D8
:1000F0008D01000010B540F20004C2F20004237824
:1001000063B940F20003C0F200032BB144F22000B7
:10011000C0F2800000E000BF0123237010BDC04684
:1001200040F20003C0F2000310B54BB140F20401ED
:1001300044F22000C2F20001C0F2800000E000BFE3
:1001400044F22000C0F28000036803B910BD40F201
:100150000003C0F20003002BF8D09847F6E7C04632
:1001600010B540F26B23C0F20003984743F200231E
:10017000C4F200030022DA664EF20013CEF200034E
:1001800040F280215A5004315A5010BDFEE7000061
:1001900010B540F67C12C0F2000240F20003C2F239
:1001A00000039A4220D01A0040F20003C2F200037A
:1001B0009A4219D240F20003C2F200030333244AE8
:1001C0009B1A9B0801339B00002240F20001C2F2FF
:1001D0000001511840F67C10C0F2000010180068B1
:1001E000086004329A42F0D140F20002C2F20002EA
:1001F00040F22003C2F200039A4213D240F20002FE
:10020000C2F20002D34340F22001C2F200018C4648
:10021000634403218B43043394466344002102C2A8
:100220009342FCD140F20003C0F200037F229343CB
:100230004EF60052CEF20002936040F2A163C0F28B
:100240000003984740F2ED33C0F200039847FEE701
:100250000400002010B54EF21000CEF2000040F273
:10026000B323C0F20003984710BD10B540F2CB2372
:10027000C0F20003984740F20023C6F20003802238
:1002800012045A619A6043F20023C4F200038022F0
:10029000D2059A628022CCF200029A6257215A5CFF
:1002A000012082435A5440F25523C0F2000398477C
:1002B00010BD10B540F21C03C2F20003186040F2FA
:1002C000D533C0F20003984710BD10B545F20003C6
:1002D000C4F200135A685A60002040F29933C0F209
:1002E0000003984740F25133C0F20003984740F2B0
:1002F0006933C0F20003984740F24333C0F2000371
:10030000984740F29733C0F2000398471F2040F20D
:100310001B33C0F20003984710BDC30710D541F648
:100320000043C4F2000340F20512C0F201021A6257
:1003300041F60042C4F200027D2153681942FCD10B
:10034000704740F60003C4F2000301221A7170479F
:1003500041F20043C4F20003DA6941F600710A4039
:10036000DA6100221A74704741F20003C4F20003FC
:1003700002221A7641F20002C4F20002102113692F
:100380001942FCD041F20003C4F200031A7E80211E
:100390000A431A767047704740F20043C4F20003E4
:1003A0009B7803221340984212D040F20042C4F2DC
:1003B0000002FF239371937803218B430840184375
:1003C000907040F20042C4F200029379002BFCD0FE
:1003D000704700004EF21003CEF20003024A5A604A
:1003E00005221A607047C046FFFFFF0070B540F25B
:1003F0006113C0F20003984740F22F64C0F200047A
:1004000040F20025C6F20005A04780231B04EB61E3
:10041000FAE7F0B5DE4657464E464546E0B50300DE
:100420000E00203602000C7814704D7855708D78CF
:100430009570CD78D57004310432B142F3D12030BB
:100440000400082640F2070C40F2107BC0F2000BBB
:1004500040F61008C0F200081BE0042F04D15F46EC
:10046000BA5C385C795C7D5D4F463F787A4022709B
:100470004A465278504060704A4692785140A17086
:100480004A46D2786A40E2700136043304343C2E86
:1004900014D099461A7F587F997FDD7F6746374091
:1004A000002FDAD15F46385C8246785C795DBD5CAE
:1004B000F2084746BA5C57467A40D5E73CBC9046BE
:1004C0009946A246AB46F0BD70B50D00000112186A
:1004D00010310023EC5CD65C7440EC540133042BE7
:1004E000F8D1043504328D42F3D170BDC3095A00EE
:1004F0009B18DA009B1840005840C0B27047F0B516
:10050000DE4657464E464546E0B587B083460A006C
:1005100005910100002040F2C943C0F20003984752
:10052000012302935B460433039340F21078C0F238
:10053000000810235B440193434604930CE0059AA2
:100540005946029C200040F2C943C0F2000398477C
:1005500023000133DBB202935E465946039D049C9F
:10056000080010300B001A78A25C1A700433834222
:10057000F9D10131A942F3D15B465B785A465279F1
:1005800059464A704A7A4A714A7B4A724B738B7851
:100590008A7A8A708B728B798A7B8A718B73CB781B
:1005A000CA7BCA70CA7ACA73CA79CA72CB71029BF3
:1005B0000E2B2DD040F2ED48C0F2000833789A4659
:1005C000757818006840B478F378994663400093D2
:1005D0001F004740C04753465840784030702B00BA
:1005E00063401800C04745407D4075700098C04783
:1005F00044407C40B47050464B465840C0474B4640
:1006000058404740F7700436019B9E42D6D196E78A
:10061000059A59460E2040F2C943C0F2000398479C
:1006200007B03CBC90469946A246AB46F0BDF0B53B
:10063000D1B048A940F61012C0F2000213000C33EA
:10064000080070CB70C070CB70C030CB30C044ADF0
:1006500013002C332800D0CBD0C01B68036040AC03
:1006600013003C332200C1CBC1C21B681360684633
:1006700040F21343C0F2000398476946200040F25D
:10068000FF43C0F20003984710222100280040F2E7
:10069000F163C0F200039847431E984151B0F0BD8A
:1006A00070B500250E4B0F4CE41AA410A54209D1D9
:1006B000002500F053F90C4C0C4BE41AA410A54291
:1006C00007D170BD064AAB009B181B6898470135DF
:1006D000ECE7064AAB009B181B6898470135EEE72C
:1006E00068090000680900006C0900006809000042
:1006F00030B50024A24201D1002005E0035D651C55
:100700000C5DA34201D0181B30BD2C00F2E70000A5
:10071000637C777BF26B6FC53001672BFED7AB76BE
:10072000CA82C97DFA5947F0ADD4A2AF9CA472C069
:10073000B7FD9326363FF7CC34A5E5F171D83115D6
:1007400004C723C31896059A071280E2EB27B275F7
:1007500009832C1A1B6E5AA0523BD6B329E32F846F
:1007600053D100ED20FCB15B6ACBBE394A4C58CF67
:10077000D0EFAAFB434D338545F9027F503C9FA83B
:1007800051A3408F929D38F5BCB6DA2110FFF3D209
:10079000CD0C13EC5F974417C4A77E3D645D1973BD
:1007A00060814FDC222A908846EEB814DE5E0BDBB7
:1007B000E0323A0A4906245CC2D3AC629195E479EE
:1007C000E7C8376D8DD54EA96C56F4EA657AAE0848
:1007D000BA78252E1CA6B4C6E8DD741F4BBD8B8AE3
:1007E000703EB5664803F60E613557B986C11D9E49
:1007F000E1F8981169D98E949B1E87E9CE5528DFC0
:100800008CA1890DBFE6426841992D0FB054BB16EB
:100810008D01020408102040801B360052096AD561
:100820003036A538BF40A39E81F3D7FB7CE33982E5
:100830009B2FFF87348E4344C4DEE9CB547B943234
:10084000A6C2233DEE4C950B42FAC34E082EA1667C
:1008500028D924B2765BA2496D8BD12572F8F66453
:1008600086689816D4A45CCC5D65B6926C704850CE
:10087000FDEDB9DA5E154657A78D9D8490D8AB0083
:100880008CBCD30AF7E45805B8B34506D02C1E8FAC
:10089000CA3F0F02C1AFBD0301138A6B3A911141E8
:1008A0004F67DCEA97F2CFCEF0B4E67396AC7422D1
:1008B000E7AD3585E2F937E81C75DF6E47F11A714F
:1008C0001D29C5896FB7620EAA18BE1BFC563E4B88
:1008D000C6D279209ADBC0FE78CD5AF41FDDA8334A
:1008E0008807C731B11210592780EC5F60517FA98A
:1008F00019B54A0D2DE57A9F93C99CEFA0E03B4DB9
:10090000AE2AF5B0C8EBBB3C83539961172B047E2C
:10091000BA77D626E169146355210C7D603DEB1052
:1009200015CA71BE2B73AEF0857D77811F352C07FC
:100930003B6108D72D9810A30914DFF4F3EED1BD65
:10094000B5D2A03C064B5A7E3DB181F86BC1BEE2E8
:100950002E409F96E93D7E117393172AF8B5C04645
:10096000F8BC08BC9E46704721010000F8B5C0469F
:10097000F8BC08BC9E467047F50000001FDDA83398
:100980008807C731B11210592780EC5F60517FA9E9
:1009900019B54A0D2DE57A9F93C99CEFA0E03B4D18
:1009A000AE2AF5B0C8EBBB3C83539961172B047E8C
:1009B000BA77D626E169146355210C7D603DEB10B2
:1009C00015CA71BE2B73AEF0857D77811F352C075C
:1009D0003B6108D72D9810A30914DFF4F3EED1BDC5
:1009E000B5D2A03C064B5A7E3DB181F86BC1BEE248
:1009F0002E409F96E93D7E117393172AF8B5C046A5
:100A0000F8BC08BC9E46704721010000F8B5C046FE
:100A1000F8BC08BC9E467047F5000000C6D279209D
:100A20009ADBC0FE78CD5AF41FDDA8338807C731A2
:100A3000B11210592780EC5F60517FA919B54A0D9A
:100A40002DE57A9F93C99CEFA0E03B4DAE2AF5B00F
:100A5000C8EBBB3C83539961172B047EBA77D6262B
:100A6000E169146355210C7D603DEB1015CA71BE20
:100A70002B73AEF0857D77811F352C073B6108D73E
:100A80002D9810A30914DFF4F3EED1BDB5D2A03C2C
:100A9000064B5A7E3DB181F86BC1BEE22E409F9657
:100AA000E93D7E117393172AF8B5C046F8BC08BC1F
:100AB0009E46704721010000F8B5C046F8BC08BC4E
:100AC0009E467047F50000007123C0F2000398476E
:100AD0007B680021180040F63123C0F200039847DC
:100AE000C046BD4602B080BD80B582B000AF786020
:100AF0007B681B691B09012213405A1E9341DBB21C
:100B00001800BD4602B080BD80B582B000AF7860ED
:100B10007B681B7EDBB2802252421343DAB27B68D1
:100B20001A76C046BD4602B080BD80B582B000AF27
:100B300078600A00FB1C1A707B68FA1C12781A761F
:100B4000C046BD4602B080BD80B582B000AF41F264
:100B50000003C4F200037B607B680221180040F6AA
:100B60002B33C0F200039847C0467B68180040F65C
:100B7000E923C0F20003984703001A000123534001
:100B8000DBB2002BF1D17B68180040F60933C0F2CC
:100B900000039847C046BD4602B080BD80B582B014
:100BA00000AF41F20003C4F200037B60BB1C0022D3
:100BB0001A80C046BD4602B080BD80B582B000AF8D
:100BC00078607B689B79DBB21800BD4602B080BDBF
:100BD00080B582B000AF78600A00FB1C1A707B6899
:100BE000FA1C12789A71C046BD4602B080BD80B52D
:100BF00084B000AF78600A00FB1C1A700F23FB184A
:100C00007A6892781A700F23FB18FA1C1B781278F6
:100C10001340DAB20F23FB1803210A401A700F2386
:100C2000FB181B781800BD4604B080BD80B584B0A9
:100C300000AF78600A00FB1C1A700F23FB187A685B
:100C400092781A700F23FB180F22BA18127803211A
:100C50008A431A70FB1C1B7803221340D9B20F235E
:100C6000FB180F22BA1812780A431A707B680F22F9
:100C7000BA1812789A70C046BD4604B080BD80B5DF
:100C800082B000AF0200FB1D1A7040F20043C4F2B4
:100C900000030321180040F6EF33C0F20003984729
:100CA00003001A00FB1D1B78934225D040F200433D
:100CB000C4F20003FF21180040F6D133C0F2000354
:100CC0009847FB1D1A7840F20043C4F2000311005C
:100CD000180040F62D43C0F200039847C04640F28A
:100CE0000043C4F20003180040F6BB33C0F2000317
:100CF00098470300002BF2D0C046BD4602B080BD2D
:100D000080B582B000AF78604EF21003CEF20003DF
:100D1000054A5A604EF21003CEF2000305221A6013
:100D2000C046BD4602B080BDFFFFFF0080B582B067
:100D300000AF78607B68180040F60153C0F20003F2
:100D40009847C046BD4602B080BD80B584B000AFB4
:100D5000F8607A600B23FB180A1C1A700B23FB182F
:100D60001B78FA68DB01D3181C337A681A60C04616
:100D7000BD4604B080BD80B582B000AF02003960CE
:100D8000FB1D1A703A68FB1D197840F20023C6F269
:100D90000003180040F64B53C0F200039847C046CA
:100DA000BD4602B080BD80B582B000AF0200FB1D21
:100DB0001A70FB1D1B785B09D8B2FB1D1B781F2224
:100DC000134001229A401300190040F67753C0F2F5
:100DD00000039847C046BD4602B080BD80B500AF55
:100DE000C046BD4680BD80B500AF41F69D73C0F2E0
:100DF00000039847C046BD4680BD80B500AF40F2B5
:100E00009713C0F20003984740F6DD53C0F2000389
:100E1000984740F6E753C0F200039847172040F682
:100E2000A753C0F200039847EEE780B584B000AF47
:100E300078600E23FB1820221A700F23FB18002263
:100E40001A7006E00F23FB180F22BA18127801322D
:100E50001A700F23FA180E23FB1812781B789A4287
:100E6000F0D3C046BD4604B080BD000080B588B058
:100E700000AF786039600023FB6130E0FB699B00C4
:100E80007A68D318FA69920039688A1812781A7049
:100E9000FB699B0001337A68D318FA69920001322A
:100EA00039688A1812781A70FB699B0002337A68D5
:100EB000D318FA699200023239688A1812781A70C7
:100EC000FB699B0003337A68D318FA6992000332F6
:100ED00039688A1812781A70FB690133FB61FB6963
:100EE000072BCBD90823FB6103E1FB69854A9446B4
:100EF00063449B00BB617A68BB69D3181A780C23E2
:100F0000FB181A70BB6901337A68D3181A780C235E
:100F1000FB185A70BB6902337A68D3181A780C230D
:100F2000FB189A70BB6903337A68D3181A780C23BC
:100F3000FB18DA70FB6907221340002B5CD11723E2
:100F4000FB180C22BA1812781A700C23FB185A7866
:100F50000C23FB181A700C23FB189A780C23FB182F
:100F60005A700C23FB18DA780C23FB189A700C23A8
:100F7000FB181722BA181278DA700C23FB181B78AA
:100F80001A0042F20013C0F200039A5C0C23FB1813
:100F90001A700C23FB185B781A0042F20013C0F29F
:100FA00000039A5C0C23FB185A700C23FB189B78E7
:100FB0001A0042F20013C0F200039A5C0C23FB18E3
:100FC0009A700C23FB18DB781A0042F20013C0F26F
:100FD00000039A5C0C23FB18DA700C23FB181A78B8
:100FE000FB69D90842F20033C0F200035B5C534056
:100FF000DAB20C23FB181A70FB6907221340042B8A
:101000002FD10C23FB181B781A0042F20013C0F2F8
:1010100000039A5C0C23FB181A700C23FB185B78F6
:101020001A0042F20013C0F200039A5C0C23FB1872
:101030005A700C23FB189B781A0042F20013C0F27E
:1010400000039A5C0C23FB189A700C23FB18DB78C6
:101050001A0042F20013C0F200039A5C0C23FB1842
:10106000DA70FB699B003B61FB694FF6F87CC3F6C5
:10107000FF7C63449B00BB617A683B69D318796845
:10108000BA698A1811780C22BA1812784A40D2B27A
:101090001A703B6901337A68D318BA6901327968EA
:1010A0008A1811780C22BA1852784A40D2B21A70B3
:1010B0003B6902337A68D318BA69023279688A18B0
:1010C00011780C22BA1892784A40D2B21A703B6951
:1010D00003337A68D318BA69033279688A181178A9
:1010E0000C22BA18D2784A40D2B21A70FB69013386
:1010F000FB61FB693B2B00D8F7E6C046BD4608B054
:1011000080BDC046FFFFFF3F80B582B000AF786072
:1011100039607B683A681100180040F66D63C0F2D0
:1011200000039847C046BD4602B080BD90B587B069
:1011300000AFB9607A600F23FB18021C1A701723E6
:10114000FB1800221A703FE01623FB1800221A70C9
:101150002EE01723FB181A781623FB181B7817218B
:1011600079180878162179180978BC688000201849
:10117000405C0F21791809788C00172179180978BB
:1011800061188C0016217918097861180C007968AB
:10119000091909784140C8B2B96892008A18011C3F
:1011A000D1541623FB181622BA18127801321A707D
:1011B0001623FB181B78032BCBD91723FB181722F8
:1011C000BA18127801321A701723FB181B78032BF8
:1011D000BAD9C046BD4607B090BD80B582B000AF59
:1011E0000200FB1D1A70FB1D1B785B005AB2FB1D31
:1011F0001B78DB09DBB2191C0B1CDB185B18191CF4
:10120000C800191C031CCB18DBB25BB253405BB2A5
:10121000DBB21800BD4602B080BDB0B584B000AFEF
:1012200078600023FB6000F0C2FD0B23FB187A6896
:10123000F96889008A5C1A700A23FB187968FA68D1
:1012400092008A18013212781A700923FB18796803
:10125000FA6892008A18023212781A700823FB1872
:101260007968FA6892008A18033212781A700B2390
:10127000FB181B78180041F2DB13C0F200039847FB
:101280000300180041F2DB13C0F20003984703008B
:10129000180041F2DB13C0F2000398470300180066
:1012A00041F2DB13C0F2000398470A23FB181B78B6
:1012B000180041F2DB13C0F2000398470300180046
:1012C00041F2DB13C0F2000398470A23FB181B7896
:1012D000180041F2DB13C0F2000398470300180026
:1012E00041F2DB13C0F2000398470300180041F2FB
:1012F000DB13C0F2000398470300180041F2DB1330
:10130000C0F2000398470923FB181B78180041F22C
:10131000DB13C0F2000398470923FB181B78180061
:1013200041F2DB13C0F2000398470300180041F2BA
:10133000DB13C0F2000398470300180041F2DB13EF
:10134000C0F2000398470300180041F2DB13C0F21B
:10135000000398470823FB181B78180041F2DB13A1
:10136000C0F2000398470823FB181B78180041F2CD
:10137000DB13C0F2000398470300180041F2DB13AF
:10138000C0F2000398470823FB181B78180041F2AD
:10139000DB13C0F2000398470300180041F2DB138F
:1013A000C0F2000398470300180041F2DB13C0F2BB
:1013B000000398470300180041F2DB13C0F200035A
:1013C00098470B23FB181B78180041F2DB13C0F27F
:1013D0000003984703001C000B23FB181B78180020
:1013E00041F2DB13C0F2000398470300180041F2FA
:1013F000DB13C0F20003984703006340DCB20B2309
:10140000FB181B78180041F2DB13C0F20003984769
:101410000300180041F2DB13C0F2000398470300F9
:10142000180041F2DB13C0F2000398470300634049
:10143000DCB20A23FB181B78180041F2DB13C0F260
:101440000003984703001A000A23FB181B78534037
:10145000DDB20A23FB181B78180041F2DB13C0F23F
:10146000000398470300180041F2DB13C0F20003A9
:1014700098470300180041F2DB13C0F200039847BD
:1014800003006B40DBB26340DCB20923FB181B781E
:10149000180041F2DB13C0F2000398470300180064
:1014A00041F2DB13C0F20003984703001A0009233E
:1014B000FB181B785340DDB20923FB181B7818007A
:1014C00041F2DB13C0F2000398470300180041F219
:1014D000DB13C0F2000398470300180041F2DB134E
:1014E000C0F20003984703006B40DBB26340DCB2FC
:1014F0000823FB181B78180041F2DB13C0F200032D
:1015000098470300180041F2DB13C0F2000398472C
:101510000300180041F2DB13C0F2000398470300F8
:101520001A000823FB181B785340DBB26340D9B282
:101530007B68FA689200D1540B23FB181B781800C3
:1015400041F2DB13C0F2000398470B23FB181B7812
:10155000180041F2DB13C0F20003984703001800A3
:1015600041F2DB13C0F2000398470B23FB181B78F2
:10157000180041F2DB13C0F2000398470300180083
:1015800041F2DB13C0F2000398470300180041F258
:10159000DB13C0F2000398470300180041F2DB138D
:1015A000C0F2000398470A23FB181B78180041F289
:1015B000DB13C0F2000398470300180041F2DB136D
:1015C000C0F2000398470300180041F2DB13C0F299
:1015D000000398470300180041F2DB13C0F2000338
:1015E00098470923FB181B78180041F2DB13C0F25F
:1015F000000398470300180041F2DB13C0F2000318
:1016000098470923FB181B78180041F2DB13C0F23E
:10161000000398470300180041F2DB13C0F20003F7
:1016200098470300180041F2DB13C0F2000398470B
:101630000300180041F2DB13C0F2000398470823AF
:10164000FB181B78180041F2DB13C0F20003984727
:101650000823FB181B78180041F2DB13C0F20003CB
:1016600098470300180041F2DB13C0F200039847CB
:101670000300180041F2DB13C0F200039847030097
:10168000180041F2DB13C0F2000398470B23FB184C
:101690001B78180041F2DB13C0F2000398470300E7
:1016A000180041F2DB13C0F2000398470300180052
:1016B00041F2DB13C0F20003984703001A000B232A
:1016C000FB181B785340DCB20A23FB181B78180068
:1016D00041F2DB13C0F20003984703001D000A2308
:1016E000FB181B78180041F2DB13C0F20003984787
:1016F0000300180041F2DB13C0F200039847030017
:101700006B40DDB20A23FB181B78180041F2DB1393
:10171000C0F2000398470300180041F2DB13C0F247
:10172000000398470300180041F2DB13C0F20003E6
:10173000984703006B40DBB26340DCB20923FB181F
:101740001B78180041F2DB13C0F200039847030036
:101750001A000923FB181B785340DDB20923FB183C
:101760001B78180041F2DB13C0F200039847030016
:10177000180041F2DB13C0F2000398470300180081
:1017800041F2DB13C0F20003984703006B40DBB269
:101790006340DCB20823FB181B78180041F2DB130E
:1017A000C0F2000398470300180041F2DB13C0F2B7
:1017B0000003984703001A000823FB181B785340C6
:1017C000DDB20823FB181B78180041F2DB13C0F2CE
:1017D000000398470300180041F2DB13C0F2000336
:1017E00098470300180041F2DB13C0F2000398474A
:1017F00003006B40DBB26340D9B27A68FB689B00A0
:10180000D31801330A1C1A700B23FB181B7818001D
:1018100041F2DB13C0F2000398470B23FB181B783F
:10182000180041F2DB13C0F20003984703001800D0
:1018300041F2DB13C0F2000398470300180041F2A5
:10184000DB13C0F2000398470300180041F2DB13DA
:10185000C0F2000398470A23FB181B78180041F2D6
:10186000DB13C0F2000398470A23FB181B7818000B
:1018700041F2DB13C0F2000398470300180041F265
:10188000DB13C0F2000398470A23FB181B781800EB
:1018900041F2DB13C0F2000398470300180041F245
:1018A000DB13C0F2000398470300180041F2DB137A
:1018B000C0F2000398470300180041F2DB13C0F2A6
:1018C000000398470923FB181B78180041F2DB132B
:1018D000C0F2000398470300180041F2DB13C0F286
:1018E000000398470300180041F2DB13C0F2000325
:1018F00098470300180041F2DB13C0F20003984739
:101900000823FB181B78180041F2DB13C0F2000318
:1019100098470300180041F2DB13C0F20003984718
:101920000823FB181B78180041F2DB13C0F20003F8
:1019300098470300180041F2DB13C0F200039847F8
:101940000300180041F2DB13C0F2000398470300C4
:10195000180041F2DB13C0F2000398470B23FB1879
:101960001B78180041F2DB13C0F200039847030014
:10197000180041F2DB13C0F20003984703001A007D
:101980000B23FB181B785340DCB20B23FB181B788E
:10199000180041F2DB13C0F200039847030018005F
:1019A00041F2DB13C0F2000398470300180041F234
:1019B000DB13C0F20003984703006340DCB20A2344
:1019C000FB181B78180041F2DB13C0F200039847A4
:1019D0000300180041F2DB13C0F200039847030034
:1019E000180041F2DB13C0F20003984703001A000D
:1019F0000A23FB181B785340DBB26340DCB2092397
:101A0000FB181B78180041F2DB13C0F20003984763
:101A100003001D000923FB181B78180041F2DB139B
:101A2000C0F2000398470300180041F2DB13C0F234
:101A30000003984703006B40DDB20923FB181B78B5
:101A4000180041F2DB13C0F20003984703001800AE
:101A500041F2DB13C0F2000398470300180041F283
:101A6000DB13C0F20003984703006B40DBB2634016
:101A7000DCB20823FB181B78180041F2DB13C0F21C
:101A80000003984703001A000823FB181B785340F3
:101A9000DDB20823FB181B78180041F2DB13C0F2FB
:101AA000000398470300180041F2DB13C0F2000363
:101AB00098470300180041F2DB13C0F20003984777
:101AC00003006B40DBB26340D9B27A68FB689B00CD
:101AD000D31802330A1C1A700B23FB181B7818004A
:101AE00041F2DB13C0F2000398470300180041F2F3
:101AF000DB13C0F2000398470B23FB181B78180078
:101B000041F2DB13C0F2000398470300180041F2D2
:101B1000DB13C0F2000398470300180041F2DB1307
:101B2000C0F2000398470300180041F2DB13C0F233
:101B3000000398470A23FB181B78180041F2DB13B7
:101B4000C0F2000398470A23FB181B78180041F2E3
:101B5000DB13C0F2000398470300180041F2DB13C7
:101B6000C0F2000398470300180041F2DB13C0F2F3
:101B7000000398470300180041F2DB13C0F2000392
:101B800098470923FB181B78180041F2DB13C0F2B9
:101B9000000398470923FB181B78180041F2DB1358
:101BA000C0F2000398470300180041F2DB13C0F2B3
:101BB000000398470923FB181B78180041F2DB1338
:101BC000C0F2000398470300180041F2DB13C0F293
:101BD000000398470300180041F2DB13C0F2000332
:101BE00098470300180041F2DB13C0F20003984746
:101BF0000823FB181B78180041F2DB13C0F2000326
:101C000098470300180041F2DB13C0F20003984725
:101C10000300180041F2DB13C0F2000398470300F1
:101C2000180041F2DB13C0F2000398470B23FB18A6
:101C30001B78180041F2DB13C0F200039847030041
:101C40001A000B23FB181B785340DCB20B23FB1844
:101C50001B78180041F2DB13C0F200039847030021
:101C6000180041F2DB13C0F200039847030018008C
:101C700041F2DB13C0F20003984703006340DCB27B
:101C80000A23FB181B78180041F2DB13C0F2000393
:101C900098470300180041F2DB13C0F20003984795
:101CA00003001A000A23FB181B785340DDB20A23F5
:101CB000FB181B78180041F2DB13C0F200039847B1
:101CC0000300180041F2DB13C0F200039847030041
:101CD000180041F2DB13C0F20003984703006B4089
:101CE000DBB26340DCB20923FB181B78180041F219
:101CF000DB13C0F2000398470300180041F2DB1326
:101D0000C0F2000398470300180041F2DB13C0F251
:101D10000003984703001A000923FB181B7853405F
:101D2000DBB26340DCB20823FB181B78180041F2D9
:101D3000DB13C0F20003984703001D000823FB18C3
:101D40001B78180041F2DB13C0F200039847030030
:101D5000180041F2DB13C0F20003984703006B4008
:101D6000DDB20823FB181B78180041F2DB13C0F228
:101D7000000398470300180041F2DB13C0F2000390
:101D800098470300180041F2DB13C0F200039847A4
:101D900003006B40DBB26340D9B27A68FB689B00FA
:101DA000D31803330A1C1A70FB680133FB60FB680D
:101DB000032B01DCFFF739FAC046BD4604B0B0BDC5
:101DC00090B585B000AF78600F23FB1800221A7021
:101DD00032E00E23FB1800221A7021E00E23FB18BC
:101DE00018780F23FB181A780E23FB1819780F2385
:101DF000FB181B787C6889006118CB5C190042F2E3
:101E00000023C0F200035C5C79688300CB18211CBE
:101E100099540E23FB180E22BA18127801321A7048
:101E20000E23FB181B78032BD8D90F23FB180F2286
:101E3000BA18127801321A700F23FB181B78032B83
:101E4000C7D9C046BD4605B090BD80B584B000AFCF
:101E500078600F23FB187A68527B1A707B685A7A75
:101E60007B685A737B685A797B685A727B685A78A8
:101E70007B685A717B680F22BA1812785A700F2348
:101E8000FB187A6892781A707B689A7A7B689A70E5
:101E90007B680F22BA1812789A720F23FB187A689F
:101EA00092791A707B689A7B7B689A717B680F22A3
:101EB000BA1812789A730F23FB187A68D2781A70BE
:101EC0007B68DA797B68DA707B68DA7A7B68DA714A
:101ED0007B68DA7B7B68DA727B680F22BA1812782B
:101EE000DA73C046BD4604B080BD80B584B000AF93
:101EF000786039600F23FB1800221A703A687B68FB
:101F000019000E2041F22D13C0F2000398470F2351
:101F1000FB180D221A707B68180041F64B63C0F263
:101F2000000398477B68180041F6C153C0F20003D4
:101F300098473A6879680F23FB181B78180041F21C
:101F40002D13C0F2000398470F23FB181B7873B1C1
:101F50007B68180041F21B23C0F2000398470F234F
:101F6000FB180F22BA181278013A1A70D3E7C0464C
:101F7000C046BD4604B080BD80B582B000AF786079
:101F800039607A683B681100180041F6EB63C0F2D3
:101F900000039847C046BD4602B080BD90B5D1B0A1
:101FA00000AF40F22013FB1842F20C32C0F20002E4
:101FB00013CA13C313CA13C303CA03C340F21013D3
:101FC000FA1842F22C33C0F2000313CB13C21B6881
:101FD00013607A1CFF3242F23C33C0F2000313CB91
:101FE00013C21B68136040F21013FB18180040F670
:101FF0002B63C0F20003984740F22013FB1818002F
:1020000040F62B63C0F20003984740F22013FA1801
:102010003B001100180041F20913C0F20003984779
:1020200040F21013FA183B001100180041F67973C2
:10203000C0F20003984740F21013F9187B1CFF33DD
:102040001022180042F2C503C0F2000398470300B3
:1020500053B940F21013FB18180040F62B63C0F27E
:1020600000039847002300E001231800BD4651B04B
:1020700090BD000070B500250E4B0F4CE41AA41063
:10208000A54209D1002500F061F90C4C0C4BE41A73
:10209000A410A54207D170BD064AAB009B181B686F
:1020A00098470135ECE7064AAB009B181B68984738
:1020B0000135EEE758230000582300005C230000A0
:1020C0005823000030B50024A24201D1002005E0D1
:1020D000035D651C0C5DA34201D0181B30BD2C00B4
:1020E000F2E700002E2E2F68706C2F706F72742F25
:1020F00068706C5F6770696F5F626173652E6800FE
:10210000637C777BF26B6FC53001672BFED7AB76B4
:10211000CA82C97DFA5947F0ADD4A2AF9CA472C05F
:10212000B7FD9326363FF7CC34A5E5F171D83115CC
:1021300004C723C31896059A071280E2EB27B275ED
:1021400009832C1A1B6E5AA0523BD6B329E32F8465
:1021500053D100ED20FCB15B6ACBBE394A4C58CF5D
:10216000D0EFAAFB434D338545F9027F503C9FA831
:1021700051A3408F929D38F5BCB6DA2110FFF3D2FF
:10218000CD0C13EC5F974417C4A77E3D645D1973B3
:1021900060814FDC222A908846EEB814DE5E0BDBAD
:1021A000E0323A0A4906245CC2D3AC629195E479E4
:1021B000E7C8376D8DD54EA96C56F4EA657AAE083E
:1021C000BA78252E1CA6B4C6E8DD741F4BBD8B8AD9
:1021D000703EB5664803F60E613557B986C11D9E3F
:1021E000E1F8981169D98E949B1E87E9CE5528DFB6
:1021F0008CA1890DBFE6426841992D0FB054BB16E2
:1022000052096AD53036A538BF40A39E81F3D7FB6B
:102210007CE339829B2FFF87348E4344C4DEE9CBB5
:10222000547B9432A6C2233DEE4C950B42FAC34E2A
:10223000082EA16628D924B2765BA2496D8BD125E0
:1022400072F8F66486689816D4A45CCC5D65B69284
:102250006C704850FDEDB9DA5E154657A78D9D8428
:1022600090D8AB008CBCD30AF7E45805B8B3450648
:10227000D02C1E8FCA3F0F02C1AFBD0301138A6B62
:102280003A9111414F67DCEA97F2CFCEF0B4E67392
:1022900096AC7422E7AD3585E2F937E81C75DF6E40
:1022A00047F11A711D29C5896FB7620EAA18BE1BA6
:1022B000FC563E4BC6D279209ADBC0FE78CD5AF44C
:1022C0001FDDA8338807C731B11210592780EC5F92
:1022D00060517FA919B54A0D2DE57A9F93C99CEFEE
:1022E000A0E03B4DAE2AF5B0C8EBBB3C83539961EF
:1022F000172B047EBA77D626E169146355210C7D2D
:102300008D01020408102040801B3600603DEB1058
:1023100015CA71BE2B73AEF0857D77811F352C07F2
:102320003B6108D72D9810A30914DFF4F3EED1BD5B
:10233000B5D2A03C064B5A7E3DB181F86BC1BEE2DE
:102340002E409F96E93D7E117393172AF8B5C0463B
:10235000F8BC08BC9E46704721010000F8B5C04695
:10236000F8BC08BC9E467047F5000000FFFFFFFF69
:10237000FFFFFFFFFFFFFFFFFFFFFFFFFFFFFFFF6D
:10238000FFFFFFFFFFFFFFFFFFFFFFFFFFFFFFFF5D
:10239000FFFFFFFFFFFFFFFFFFFFFFFFFFFFFFFF4D
:1023A000FFFFFFFFFFFFFFFFFFFFFFFFFFFFFFFF3D
:020000040040BA
:00000001FF
