S0110000746573745F454344482E73726563E0
S214000000E00700203D0F0000390F0000390F000008
S21400001000000000000000000000000000000000DB
S214000020000000000000000000000000390F000083
S2140000300000000000000000390F0000390F00002B
S214000040390F0000390F0000390F0000390F00008B
S214000050390F0000390F0000390F0000390F00007B
S214000060390F0000390F0000390F0000390F00006B
S214000070390F0000390F0000390F0000390F00005B
S214000080390F0000390F0000390F0000390F00004B
S214000090390F0000390F0000390F0000390F00003B
S2140000A0390F0000390F0000390F0000390F00002B
S2140000B0390F0000390F0000390F0000390F00001B
S2140000C0390F0000390F0000390F0000390F00000B
S2140000D0390F0000390F0000390F0000390F0000FB
S2140000E0390F0000390F0000390F0000390F0000EB
S2140000F0390F000010B540F26404C2F20004237801
S21400010063B940F20003C0F200032BB144F22000B2
S214000110C0F2800000E000BF0123237010BDC0467F
S21400012040F20003C0F2000310B54BB140F2680184
S21400013044F22000C2F20001C0F2800000E000BFDE
S21400014044F22000C0F28000036803B910BD40F2FC
S2140001500003C0F20003002BF8D09847F6E7C0462D
S21400016010B5064B9847002340F28021044AD36618
S214000170044A53500431535010BDC046B90F000016
S2140001800032004000E100E0002310B51C005AB227
S214000190914200DC10BD9A0084500133F7E700223C
S2140001A0130010B554B2A14202DC5842584110BDAB
S2140001B09400045901322343F4E71F234A111940DF
S2140001C01E3B8B40920010581840704703000139C0
S2140001D049B2002904DA013149B2002029B9704732
S2140001E08A00D258002AF2D0F5E7064A8A1892000A
S2140001F0D35823B901394901081800B2EFE75B0864
S2140002000130F6E7FFFFFF3F002330B55CB2A242A5
S21400021000DC30BD9C000D5901330551F6E710B5E2
S214000220013A52B2002A01DA002010BD9300C458E9
S214000230CB589C4203D8F3D201204042F5E7012078
S214000240F3E710B50024890041180B1F814200D83F
S21400025010BD19684A0822431A60CC071900F4E753
S214000260F0B50025AC466CB2A34201DC6046F0BD9A
S214000270AF00CE59D45934196444A64203D0B442D0
S214000280B6417642B446C4510135ECE7F7B50025D1
S214000290AC460193019B6CB2A34201DC6046FEBDF6
S2140002A06346AF00CE59D459341BE41AA64203D095
S2140002B0A642B64173429C46C4510135EAE70000A7
S2140002C030B587B015001300084C0A0001006846D8
S2140002D0A04729000400064B68469847434243411E
S2140002E0601E84416400181B07B030BD8D020000FC
S2140002F09F010000F8B500251E0006AB5D57094FAC
S2140003002B000400B84730B92A0021003000064B05
S2140003109847012805D0210020002B003200034C0E
S214000320A047F8BD610200001F0200008D02000019
S214000330F8B500251E0006AB5D57064F2B000400DF
S214000340B84728B1210020002B003200024CA047FD
S214000350F8BDC0468D02000061020000F0B50D0039
S21400036089B0224E06220400B04729000622183122
S21400037002A8B0471E4F062302AA21002000B84755
S2140003800026AB6901900493EB6902AA05932B6AD9
S214000390210006936B6A20000793062303960296B5
S2140003A0B847019B02AA1B180193AB6A210004936D
S2140003B00293EB6A2000059303930623079606969E
S2140003C0B847019B1D180B4E45B9301D062221006B
S2140003D0094B9847012801D109B0F0BD321D06230C
S2140003E021002000054EB0472D1AECE70902000058
S2140003F061020000A81B00001F0200008D02000022
S214000400F0B585B003920F0002215A5E1F210192BB
S2140004101F32D4170C40A4181C336411029364B224
S21400042001002300029A38000B4DA847012658B950
S214000430019A630106009A4206DA11003800074B5B
S21400044098470600701E86412300029A39000398DA
S214000450A847300005B0F0BD61020000BB010000F7
S214000460F0B585B001911B4F1B4B0500110001989C
S214000470140098473B6813B9002005B0F0BDA300F0
S2140004801E1F02936301181A012300B25B42C34089
S21400049003934023AE190093029928003B689847BF
S2140004A00028E9D03268039B2100134033602800FF
S2140004B00A4B984728B1009B013B0093002BEBD1D9
S2140004C0DAE7220029000198054B98470128F2D167
S2140004D0D3E7C04680000020CD0100009F01000049
S2140004E0C1020000F0B5002403254E1E8C4200DB3E
S2140004F0F0BD331B1F00AF43D7592B40DB00DF4056
S21400050007550134F2E70000F8B503241500D31CA4
S2140005100F00D9172140C91889100C4B49B20600A4
S21400052098476B1E00229C46AA4200DBF8BD634635
S2140005309B1A1900B85C2340DB009840A143711851
S2140005400B68013218430860EEE7C04689010000D8
S214000550036870B5040015000026DB0705D51300F8
S214000560094E0A000100B047060029002000074B8C
S214000570984746B1064BED188023AD0064192268F3
S2140005801B061343236070BD610200004302000097
S214000590FFFFFF3FF0B50D009FB0029019001C0052
S2140005A028003D4B019298473C4E20B1210002980E
S2140005B0B0471FB0F0BD012729002200384D06A81D
S2140005C0A847220001990CA8A847210012A8B04706
S2140005D0210018A81297B0470595039722000CA98A
S2140005E006A8304B984728B9220012A90298059B06
S2140005F09847DEE7069B039A2B4D2C4E134207D1F5
S214000600210006A8A8472200019912A8B047E5E7EE
S2140006100C9B039A0493134206D121000CA8A8470A
S2140006202200019918A8F1E7214F2300002819DDC0
S21400063006A90CAA0800B847210006A8A847220069
S21400064018A912A8174B9847002805DA12A9230004
S214000650019A0800174DA84712A9230018AA0800F7
S214000660B847D0E70CA906AA0800B84721000CA88E
S214000670A847220012A918A80A4B9847002805DAAE
S21400068018A92300019A08000A4DA84718A92300B4
S21400069012AA0800B847C3E79F01000089010000BE
S2140006A0090200001F02000043020000510500007E
S2140006B08D02000061020000F0B5002635008FB004
S2140006C0089009910A9202930196029A73B20B93CC
S2140006D0934211DB5300013B0493012317009B1A3E
S2140006E00C93049B9F423ADB029B089ADB00D318CC
S2140006F0043B1D600FB0F0BDB20094460024B3006A
S2140007000D930A9B039463440C93099AA300D05854
S2140007100C9A5B42D25800232B4F1900B847019B16
S21400072004950593049A059B12184B41012599429E
S21400073003D801D1904200D8002503990134491905
S2140007400B98039161B2019315008842DDDA08998F
S2140007500D981D00039B0A5001360193B5E70C9ACD
S214000760FBB29C180B93019B64B203930023019386
S214000770029B9C4207DB089BBF00FD500B9F039D1E
S21400078001377FB2ADE70A9A3B1B9B009858099A3F
S214000790A3009A5800230C4E1900B047039B0695F9
S2140007A00793069A079B12184B410125994203D8D6
S2140007B001D1904200D800250199013449190191D0
S2140007C064B215000393D3E7AD11000070B51C00AA
S2140007D0002305008CB0E3566846044E8834B047C4
S2140007E023686946280098470CB070BDB90600001B
S2140007F010B51300014C0A00A04710BDCD0700003D
S214000800F0B500269E5793B005000491039331007F
S21400081010004D4B14009847002800D08CE0039A37
S214000820049906A8494B9847494F039B06AA2900F6
S2140008300CA8B84706A90800039A444B98470499A1
S214000840039B08002200B847039A210020003F4B74
S2140008509847039B3F4F0433220029002800009648
S2140008600293B847029B2200210020000096B8475A
S214000870029B220029002000374F0096B847039BB2
S214000880220029002800324FB847029B2A00290080
S2140008902000304F0096B847029B009622002900A1
S2140008A02800B8472C4B05932B68DB0746D5029AE1
S2140008B033002900294F2800B8470700284B31008D
S2140008C028009847274BFF07F3189B00EB181A6879
S2140008D017431F602900039A20001C4B98471E4FA1
S2140008E0029B0CAA210020000096B847029B0CAA87
S2140008F0210020000096B8470CA90800029B2200A1
S2140009000096B84729002800039B0CAA104FB8474A
S21400091006AA029B2900100000960F4FB847280031
S21400092032002100104DA847320004992000A84745
S214000930320006A90498A84713B0F0BD310028007D
S214000940074B9847C6E7C0469F010000F107000026
S214000950CD070000F5020000310300006102000030
S21400096043020000FFFFFF3F09020000F0B58BB016
S2140009700400150003911822002104A8124B984782
S214000980032304930023EB562A00029303992000C6
S2140009900E4B9847029B2F1D009304AA3B00210094
S2140009A020000B4EB0472B00039A21002000094E72
S2140009B0B0472A00029B21000093200064323B00CF
S2140009C0054CA0470BB0F0BD0B140000F10700006B
S2140009D031030000CD070000F5020000F0B5012449
S2140009E08FB00D001A4E01901822002102A8B047C1
S2140009F01822002108A80294B0470026AE5702AA83
S214000A000894291D33001000124CA047310002A89C
S214000A10114B9847013804B2012C06DC320008A9B5
S214000A2001980E4B98470FB0F0BD08A908000C4B74
S214000A302A009847210002A80A4B984728B108A91F
S214000A402B00019A0800084FB847013C24B2E3E7A0
S214000A500B14000061020000CD0100000902000036
S214000A60F1070000BB010000CD070000F0B517003D
S214000A701C0005000E0087B01A00390068460A4BB5
S214000A80984723006A4629002800084DA8472300F7
S214000A903A0069466846A84723006A463100300097
S214000AA0A84707B0F0BDC046F1070000CD0700001C
S214000AB0F0B5002415008DB00393129B04901C57CC
S214000AC01F1D05913B000200290006A80094284E31
S214000AD0B04706A9129A0800264B98470499129B1D
S214000AE006AA0800244EB047129B06AA2900280032
S214000AF0B04703991E4E3B00059A08000094B04785
S214000B00129A039906A81B4B984706A93B00049A1D
S214000B1008000094B04706A93B002A00080000948D
S214000B20B0473B00049A290028000094B047059976
S214000B30129B2A000800104EB0473B0006AA0499F4
S214000B40280000940A4EB0470399129B2A0008001A
S214000B50094EB04703993B00059A08000094044EDE
S214000B60B047220006A92800044B98470DB0F0BDF8
S214000B7031030000F1070000CD0700000902000065
S214000B80F0B50024160099B004931E9B03901C57E2
S214000B901D1D05912B000200310006A800943A4F57
S214000BA0B84706A91E9A0800384B984703991E9B1B
S214000BB006AA0800364FB8471E9B06AA310030002A
S214000BC0B8472B00059A049906A80094314FB847F9
S214000BD004992B00059A08002B4F0094B8472B0069
S214000BE0039A31000CA80094B84705991E9B0CAADE
S214000BF00800274FB8472B00320003990CA8009432
S214000C00244FB8471E9A04993000204B98471E4F31
S214000C102B000CAA310030000094B8472B0032009D
S214000C20039912A80094B84704991E9B12AA0800BC
S214000C30174EB04704992B00059A08000094B84751
S214000C401E9A06A912A8114B984712A92B000CAAA7
S214000C5008000094B8472B00039A12A90CA8009429
S214000C60B8470CA91E9B06AA0800094EB047059A6D
S214000C702B000CA910000094B847220012A9039874
S214000C80054B984719B0F0BD31030000F10700008E
S214000C90CD070000F502000009020000F0B5ADB077
S214000CA01E0032AB0C9200229B5E339D0593002300
S214000CB0EB56634F1A000B901AA806910393B84799
S214000CC0039B00249B000793079A069B9446634465
S214000CD0039A190026A80893B8472C570497002EA5
S214000CE000D17EE0220031000EA8B84722001AA9E3
S214000CF014A8049B9847220026A920A8049B98477E
S214000D00504C2B000EAA26A91AA8A0472B000EAA04
S214000D1026A91AA8EE6FB0472B000EAA20A914A881
S214000D20A047059F0D94023F3FB2002F60DC0C9B4E
S214000D300122196818230F0017405F438A43534364
S214000D4014A8C01914AA0590D21820A8C719099289
S214000D50C318099A3900059800953B4C0A93A0479A
S214000D60039B2E1D009314AA33001AA90EA8374C15
S214000D70A0470EA9364C2B003A000800A0470EA943
S214000D802B00069A0800A0470EA9039B3200080015
S214000D90304EB0470EA92B00089A0800A0470EA9AF
S214000DA02B00059A0800A0473B00059A0A99099867
S214000DB00095294CA0472B000EAA20A914A80D9C2C
S214000DC0A047039A14A90B98049B9847079A0B9B75
S214000DD0944663441800039A20A9049B98472DB0B4
S214000DE0F0BD1E4B21000EA8984701230E937DE709
S214000DF039000C981A4B98470123464246419C1BE3
S214000E0017335C4314AB1B19059320AB1B190993CE
S214000E1018235E4314AB9B190A9320AB9E1933002C
S214000E200A9A09990598084C0095A047013F009535
S214000E30099B059A31000A98074CA0473FB274E711
S214000E40090200006D0A0000810B0000310300005B
S214000E50CD07000095050000B10A000089010000DA
S214000E60BB01000000487047A81B0000F0B5A1B009
S214000E701C000EAB07930023049007200125E356C1
S214000E80059203930222A35E08AE0733DA170240E8
S214000E906557D218214F3000D2100696B8472A0060
S214000EA0049914A8B847049B2A005919039B980074
S214000EB014AB1818B8472300310030000EAA184E9D
S214000EC0B047184B06001F6857B1082104AA8300D4
S214000ED05218D758211D039A3800134B9847D8B19B
S214000EE073425E41638814A901331BB20093B600B7
S214000EF0019406AAB25808003B000C4EB04714AA4C
S214000F00290005980A4B984721780A4B490049B2B0
S214000F1014A898474342584121B0F0BD0905000087
S214000F200104000080000020610400009D0C000009
S214000F30E50400009F010000FEE70000104A114B88
S214000F4010B59A4205D000230F490E4A9A188A42D5
S214000F500ED300210D4B0E4A93420FD37F210D4B2B
S214000F600D4A8B4393600D4B98470D4B9847FEE711
S214000F7003481818006804331060E6E702C3EBE77E
S214000F80941D000000000020640000206400002083
S214000F90E00100200000000000ED00E0A9130000C2
S214000FA07111000010B50248024B984710BDC046AC
S214000FB010E000E0ED0F0000C0238022DB0510B536
S214000FC05A619A60064B074A01219A62C0221206AD
S214000FD09A6247331A788A431A70034B984710BDB3
S214000FE00030004080000040A50F000010B5024B06
S214000FF01860024B984710BD840000203510000092
S214001000044B0200196809B9034919601868821868
S2140010101A60704788000020E00700200120404248
S214001020704742F2000300204B6070470120704773
S21400103000207047024B034A5A6005221A60704728
S21400104010E000E0FFFFFF00F0B5194CB1B0194FFB
S214001050210020226846B847210008AE2031202211
S2140010603000B847210010AD40314022280020ACA7
S214001070B847402210492000B847002369460F4A67
S214001080C95C9A1811700E4AF15C9A1801331170F7
S214001090202BF3D100230B4AE95C9A1811700A4AF8
S2140010A0E15C9A1801331170402BF4D131B0F0BDD9
S2140010B0341C0000F9130000B41C00007801002066
S2140010C0D4000020380100209801002010B5074BFE
S2140010D09847074A030010600649074A0748084C25
S2140010E0A04710B90748084B984710BD650E00008A
S2140010F0D801002078010020F4000020980100208C
S2140011006D0E0000F41C00002516000040220E4B59
S2140011101A600E4B3E3A19689143196019691142DC
S214001120FCD10C201968814308000821014319608E
S2140011300121D87B0143D97319680A431A601A69DA
S2140011409207FCD47047C046B81C0040001000420E
S2140011501F21064B5A791140802252420A435A7187
S214001160042219691142FCD15869704700100042E8
S21400117007B5084B984700230193074B9847074B42
S2140011809847074B9847074B98470190019A064B9C
S2140011901A60FEE7610100000D1100004910000012
S2140011A0CD100000511100003C380020F0B54FF67D
S2140011B0FF75CE4647462C00154099462B00044046
S2140011C0160C80B5070C63437D43774366431C0CBF
S2140011D07619A4199C46A54203D980235B0298463B
S2140011E04744250CEF1963464FF6FF751D404B46E6
S2140011F051434343240464195918C91920000CBCF0
S21400120090469946F0BDC04610B5024900F0ACF8CD
S21400121010BDC046CD190000002310B504000360C1
S2140012204360836081814366C28103614361836159
S214001230190008225C3000F0E8F8054B246263626F
S214001240044BA362044BE362044B236310BDC04609
S2140012505916000081160000B9160000E5160000B9
S21400126070B568254A1E55430E002900743100F0FB
S2140012701FF9040040B100212A00016046600C30CE
S214001280A060683200F0C1F8200070BD836913B515
S214001290040043BB8364C3640365134B134A1B6893
S2140012A082620193984201D101238361200000F0FD
S2140012B01FF86060200000F01BF8A060200000F01F
S2140012C017F80022E06004216068FFF7A5FF0122FE
S2140012D00921A068FFF7A0FF02221221E068FFF7AD
S2140012E09BFF0123A36113BD701D000009120000BF
S2140012F0F8B51C4B07001E68B36913B93000FFF73A
S214001300C5FF4836B4687368013B03D5336833B10C
S2140013103668F7E70C22A55E6DB16834F4E7042161
S2140013203800FFF79DFF30600028F1D10C23040041
S2140013303B602000F8BD012320005B42E3810233BE
S214001340A38165662560A560656025616561A56108
S214001350082229005C3000F058F86563A563A56490
S214001360E564E6E7701D0000F7B5040007000026F8
S214001370019148340CB93000FEBD6368A56800933F
S214001380009B013B009301D52468F3E7AB89012B52
S21400139008D90E22AB5E013304D029003800019B29
S2140013A0984706436835EBE770B500250E4B0F4CA3
S2140013B0E41AA410A54209D1002500F0DBFC0C4C71
S2140013C00C4BE41AA410A54207D170BD064AAB0028
S2140013D09B181B6898470135ECE7064AAB009B183C
S2140013E01B6898470135EEE7801D0000801D000051
S2140013F0841D0000801D0000002310B59A4200D115
S21400140010BDCC5CC4540133F8E703008218934245
S21400141000D1704719700133F9E7000070B5050078
S21400142081B10C1F2368002B00DAE418280000F0B6
S21400143071FB1E4A136811002BB963601460280004
S21400144000F069FB70BDA3420BD92268A018834246
S21400145003D118685B688218226063600C60EEE750
S21400146013005A680AB1A242FAD919685818A0425D
S2140014700BD120680918581819608242DFD110680D
S2140014805268411819605A60D9E7A04202D90C2365
S2140014902B60D4E721686018824203D11068526836
S2140014A04118216062605C60C9E7C0468C0000207D
S2140014B0032370B5CD1C9D43083506000C2D1CD2A9
S2140014C00C25A9421BD8300000F024FB254A1468DE
S2140014D02100C1B9244C23681BB9300000F0ACF8D9
S2140014E020602900300000F0A7F8431C2DD10C2303
S2140014F03000336000F00FFB03E0002DE1DA0C2330
S2140015003360002070BD0B685B1B1BD40B2B03D90C
S2140015100B60CC18256003E08C420FD16368136023
S214001520300000F0F8FA200007220B30231D90430D
S214001530C31A002BE6D05A42E250E3E74B686360DA
S2140015400C00EDE70C004968C3E70323C41C9C436A
S214001550A042DFD0211A300000F06EF8431CD9D12B
S214001560C5E7C0468C0000209000002070B505003E
S2140015700E0018B183690BB9FFF788FEAB69AC683B
S21400158013B92800FFF782FE234B9C420DD16C68EE
S214001590A3891B0701D52369FBB92100280000F0A9
S2140015A00BF9D0B10120404270BD1C4B9C4201D1CA
S2140015B0AC68EDE71A4B9C42EAD1EC68E8E7013BE1
S2140015C00136A360002B04DAA269934216DB0A29CF
S2140015D014D023685A1C226019703178A368002939
S2140015E0EDD1013BA360002B0FDA22000A31280060
S2140015F000F07EF8431CD5D00A20D5E7220028004C
S21400160000F076F8431CE8D1CCE70A2023685A1C81
S21400161022601870C8E7C046301D0000501D00004C
S214001620101D000010B5034B01001868FFF79EFF61
S21400163010BDC04600000020002370B5054C050014
S21400164008002360FFF7DCFC431C02D1236803B1CB
S2140016502B6070BDDC01002070B50C000E25495FC4
S21400166000F05AFA002803DB636D1B18636570BD33
S214001670A389024A1340A381F9E7C046FFEFFFFFA4
S214001680F8B51F008B8905000C001600DB0505D594
S2140016900E23C95E0022022300F0C2F9A389054A80
S2140016A028001340A38132000E23E15E3B0000F0C9
S2140016B071F8F8BDFFEFFFFF70B50C000E25495F0F
S2140016C000F0AEF9A389421C03D1054A1340A3815A
S2140016D070BD41F200021343A3816065F8E7C0467F
S2140016E0FFEFFFFF10B50E23C95E00F0D7F810BD60
S2140016F0F8B505000E00140018B183690BB9FFF7A2
S214001700C5FD214B9C422AD16C68A369A360A389BE
S2140017101B072ED5236963B323682269F7B2981A8C
S2140017206369F6B2984204DB2100280000F04EF907
S21400173028BBA3680130013BA36023685A1C2260C3
S2140017401F706369984204D0A389DB0719D50A2E57
S21400175017D12100280000F039F990B10FE00B4BAB
S2140017609C4201D1AC68D0E7094B9C42CDD1EC68D5
S214001770CBE72100280000F01FF80028CCD0012677
S21400178076423000F8BDC046301D0000501D0000F7
S214001790101D000070B50500080011000022054C61
S2140017A022601A0000F0F6F9431C02D1236803B148
S2140017B02B6070BDDC010020344B70B51D68060040
S2140017C00C0025B1AB6913B92800FFF75FFD304B5D
S2140017D09C420FD16C680C23E25E93B219072CD49E
S2140017E0D90611D409230120336037331343A3816C
S2140017F0404270BD274B9C4201D1AC68EBE7264BBC
S2140018009C42E8D1EC68E6E75B0712D5616B41B114
S21400181023004433994202D03000FFF7FFFD002337
S21400182063632422A3899343A3810023636023690F
S21400183023600823A2891343A38123695BB940F27E
S214001840802140F20022A3890B40934203D021005E
S214001850300000F01FF90123A28913408BB100234A
S214001860A36063695B42A36123690020002BC0D19B
S2140018700C23E25E1306BCD540231343A381013834
S214001880B7E7920700D46369A360EDE70000002085
S214001890301D0000501D0000101D0000002370B514
S2140018A0054C050008002360FFF7B8FB431C02D177
S2140018B0236803B12B6070BDDC010020F7B58A8970
S2140018C005000C0013075ED44B68002B04DC0B6C81
S2140018D0002B01DC0020FEBDE76A002FFAD00023B3
S2140018E02E682B6041F200031A4092B3606DA38904
S2140018F05B0705D56368C01A636B0BB1236CC01A0F
S2140019000200216A00232800E76AB847A189431C21
S21400191006D12B681D2B30D82B4ADA40D3072CD59E
S2140019200023636023692360CB0404D5431C01D1E4
S2140019302B6803B96065616B2E600029CAD023004E
S2140019404433994202D02800FFF768FD0020606308
S214001950C1E70123216A2800B847431CC7D12B687A
S214001960002BC4D01D2B01D0162B01D12E60B1E761
S2140019704023A2891343A381ADE740230B430120F4
S214001980A3814042A7E70F69002FA3D00B680F6022
S214001990DB1B01930023920700D14B69A360019BD8
S2140019A0002B00DC96E7019B3A00216A2800A66A15
S2140019B0B047002803DC4023A2891343DFE7019BDE
S2140019C03F181B1A0193EAE7010040200B6970B527
S2140019D005000C000BB9002070BD18B183690BB967
S2140019E0FFF754FC0B4B9C4209D16C680C22A35E9B
S2140019F0002BF0D021002800FFF760FFECE7064B35
S214001A009C4201D1AC68F1E7044B9C42EED1EC68F5
S214001A10ECE7C046301D0000501D0000101D000001
S214001A2070B50500080011000022054C22601A005F
S214001A30FFF7FEFA431C02D1236803B12B6070BD8A
S214001A40DC01002070B50E001D000E23C95E90B0AC
S214001A501400002907DA00232B60B3891B0611D473
S214001A6040F200430FE001AA00F068F80028F2DB1D
S214001A704FF20002029B1340054A9B185A425341FC
S214001A802B60EDE740230020236010B070BDC046F9
S214001A9000E0FFFFF7B502268B8905000C003342F5
S214001AA006D0230047332360236101236361F7BD1B
S214001AB001AB6A46FFF7C6FF009907002800FFF74C
S214001AC0F7FC40B90C22A35E9A05F0D40322934398
S214001AD01E43A681E5E70E4BAB628023A2892060F9
S214001AE01343A381009B20616361019B63B10E23B6
S214001AF0E15E280000F034F830B10322A389934356
S214001B001A0001231343A381A0893843A081CEE79E
S214001B10091200007047704770B5050008001100F4
S214001B200022054C22601A0000F02AF8431C02D15D
S214001B30236803B12B6070BDDC010020002370B564
S214001B40064C0500080011002360FFF76AFA431CE4
S214001B5002D1236803B12B6070BDC046DC010020B3
S214001B60002370B5054C050008002360FFF75EFAF9
S214001B70431C02D1236803B12B6070BDDC0100203A
S214001B8040F2DC1358220120C2F2000340421A60E1
S214001B907047C04640F2DC1358220120C2F2000310
S214001BA040421A607047C0460618C000FFFFFFFF9D
S214001BB0FFFFFFFFFEFFFFFFFFFFFFFFFFFFFFFF31
S214001BC0FFFFFFFF3128D2B4B1C96B1436F8DE9997
S214001BD0FFFFFFFFFFFFFFFFFFFFFFFF1210FF8269
S214001BE0FD0AFFF40088A143EB20BF7CF69030B0DE
S214001BF00EA88D181148791EA177F973D5CD246BE0
S214001C00ED11106378DAC8FF952B1907B1B946C1F4
S214001C10ECDEB8FE49302472ABE9A70FE7809CE5FE
S214001C201905216401080000DD0900006D090000A7
S214001C305D030000B19A9378FF7E72419C37BC32F8
S214001C405EB43C9B0A8D9F9B5E2780970000000039
S214001C5000000000F038DD9B2CAECE44E2A6DA9DF4
S214001C603B1E86EFA244E16B6E9AD5100000000082
S214001C7000000000BF65D4EEC76A54A3C4A771F87D
S214001C8000103AFC678422872B43BBE442201635BB
S214001C90C82B4F21253E2BD68C9EE322B17631925F
S214001CA092A77F3400000000000000000000000043
S214001CB00000000088CFEF8C1F777F440E3B710F2B
S214001CC0D2216A88661C171D5F4E5B060530ED86BE
S214001CD00693872F4A9CBA5CA8872025740412A80E
S214001CE0AAA6B1CE00000000000000000000000020
S214001CF0000000007368617265645F7365637265F7
S214001D00742829206661696C6564202831290000E2
S214001D1000000000000000000000000000000000BE
S214001D2000000000000000000000000000000000AE
S214001D30000000000000000000000000000000009E
S214001D40000000000000000000000000000000008E
S214001D50000000000000000000000000000000007E
S214001D60000000000000000000000000000000006E
S214001D7004000020F8B5C046F8BC08BC9E46704774
S214001D8021010000F8B5C046F8BC08BC9E46704766
S208001D90F500000055
S214001D940400002000000000301D0000501D00005C
S214001DA4101D0000000000000000000000000000FD
S214001DB4000000000000000000000000000000001A
S214001DC4000000000000000000000000000000000A
S214001DD400000000000000000000000000000000FA
S214001DE400000000000000000000000000000000EA
S208001DF400000000E6
S2148040003F438FB0BB180000FF00087F0100000010
S214804010000000000000000000000000000000001B
S804000000FB
