:020000042001D9
:100000009711FF5F9381012697020000938282017E
:100010007390523093021000638402007350107C7E
:100020009702000093824211739052301301000036
:1000300063140100138101CC732540F18142130345
:100040000040137101FF6385A2001A918502D5BF9C
:10005000970000009380C00763830000829073259F
:1000600040F181450146ED209300000063830000CC
:100070008290970200009382C20073905230032353
:100080000000F5BF000000008280A14673B3063077
:10009000914263C555001376350011CA230005004F
:1000A0000505FD15E347B0FE731003308280232061
:1000B00005001105F115E34EB0FC7310033082808A
:1000C000232003001103E34D73FE82800684970210
:1000D000FFDF938222F3638C02049702FFDF938297
:1000E00062F2F32740F1A14673B006300A8397030A
:1000F000FFDF938323318A9363037300D1376398BF
:1001000057021703FF5F1303E3EF9713FF5F938318
:10011000E397630373006D371703FFE7130383EE61
:100120009703FFE7938303EE63037300513FA280BD
:1001300082800000F322203473231034F323303400
:10014000D5BF411122C6000801003244410182801E
:1001500006849711FF5F9381E11093020000631101
:10016000550E97720000938262821703FF5F13039C
:1001700063E99713FF5F93836391638C6200635A13
:10018000730003A5020091022320A3001103E34A98
:1001900073FE971200009382E2F21703FFE7130346
:1001A00063E69703FFE79383E3E5638C6200635A9A
:1001B000730003A5020091022320A3001103E34A68
:1001C00073FE0F100000971200009382A2EF170336
:1001D000FF5F130323E39703FF5F9383A3E2638C23
:1001E0006200635A730003A5020091022320A3005A
:1001F0001103E34A73FE0F1000001713FF5F130390
:10020000E3889383018C6357730023200300110359
:10021000E34D73FE1712FF5F1302428711C202966D
:10022000176500001305E5DBEF503058EF50905E86
:10023000176500001305A572EF503057EF60A070EE
:100240000937FD5673B0463073B04634F32710308B
:10025000372704007D8F09C773B0363073B026305E
:10026000370704007D8F19C373B006184167130761
:100270008702F98F89CBF32700300967D98F7390F4
:10028000073073503000F327103037072000F98F04
:1002900099C7F327003093E707207390073005458F
:1002A00097150000938545CE17160000130606CE5D
:1002B0003120EF503050A28082808280411106C2EE
:1002C000F32240F1130300006385620073005010B5
:0C02D000F5BFEF00706892404101828091
:0802E000E802012014030120D3
:1002E800011106CE22CC0010EF4080512326A4FE37
:1002F8008327C4FE99C7B7170080138507A5EF4069
:10030800E0580100F240624405618280011106CE86
:1003180022CC0010EF40C04E2326A4FE8325C4FE45
:10032800B7170080138507A5EF5020670100F2403A
:06033800624405618280B1
:10034000637C777BF26B6FC53001672BFED7AB7692
:10035000CA82C97DFA5947F0ADD4A2AF9CA472C03D
:10036000B7FD9326363FF7CC34A5E5F171D83115AA
:1003700004C723C31896059A071280E2EB27B275CB
:1003800009832C1A1B6E5AA0523BD6B329E32F8443
:1003900053D100ED20FCB15B6ACBBE394A4C58CF3B
:1003A000D0EFAAFB434D338545F9027F503C9FA80F
:1003B00051A3408F929D38F5BCB6DA2110FFF3D2DD
:1003C000CD0C13EC5F974417C4A77E3D645D197391
:1003D00060814FDC222A908846EEB814DE5E0BDB8B
:1003E000E0323A0A4906245CC2D3AC629195E479C2
:1003F000E7C8376D8DD54EA96C56F4EA657AAE081C
:10040000BA78252E1CA6B4C6E8DD741F4BBD8B8AB6
:10041000703EB5664803F60E613557B986C11D9E1C
:10042000E1F8981169D98E949B1E87E9CE5528DF93
:100430008CA1890DBFE6426841992D0FB054BB16BF
:100440008D01020408102040801B3600603DEB1037
:1004500015CA71BE2B73AEF0857D77811F352C07D1
:100460003B6108D72D9810A30914DFF4F3EED1BD3A
:10047000B5D2A03C064B5A7E3DB181F86BC1BEE2BD
:100480002E409F96E93D7E117393172ADE1D0120B1
:10049000841F0120681F01200000000000000000F0
:1004A0007C220120B0220120661E0120401F012075
:1004B000DC1F01208E200120000000000000000051
:1004C000000000000000000000000000000000002C
:1004D000000000000000000040210120121D01204A
:1004E000000000000000000000000000000000000C
:1004F0007A340120E0340120E03401208C340120E2
:10050000E0340120E0340120E03401209E34012059
:10051000E0340120E0340120E0340120B034012037
:10052000E0340120E0340120E0340120E0340120F7
:10053000C2340120C2340120C2340120C23401205F
:10054000C2340120C2340120C2340120C23401204F
:10055000C2340120C2340120C2340120C23401203F
:10056000C2340120C2340120C2340120C23401202F
:100570004235012074380120583801200000000065
:1005800000000000000000000000000024360120F0
:1005900000000000043801202E3801200000000077
:1005A000000000000000000000000000000000004B
:1005B000000000000000000000000000C83801201A
:1005C000000000000000000000000000000000002B
:1005D00000000000E4380120543901209A3901203C
:1005E000003A0120763A0120903A0120A43A0120F5
:1005F000BE3A0120D23A0120343B0120963B012033
:10060000F63B0120163C01205C3C01208A3C012085
:10061000A83C0120C83C0120C2400120000000008D
:1006200000000000000000000000000000000000CA
:10063000000000001242012000000000D042012012
:100640001E43012000000000000000009C43012028
:100650006C430120303F0120CE3E0120000000000D
:10066000000000000000000000000000C443012062
:1006700060440120FC44012070450120010000007D
:1006800020000000001BB70000366E0101000000D2
:100690001F000000030000003F00000001000000F8
:1006A0002000000000366E01006CDC020300000038
:1006B0001F000000020000003F00000001000000D9
:1006C00010000000808D5B00001BB70000000000E0
:1006D0001F000000030000003F00000001000000B8
:1006E00010000000001BB70000366E010100000082
:1006F0001F000000020000003F0000000100000099
:100700001000000000366E01006CDC0203000000E7
:100710001F000000020000001F0000000100000098
:1007200008000000808D5B00001BB7000000000087
:100730001F000000030000001F0000000100000077
:1007400008000000001BB70000366E010100000029
:100750001F000000020000001F0000000100000058
:100760000800000000366E01006CDC02030000008F
:100770001F000000020000000F0000000100000048
:1007800004000000808D5B00001BB700000000002B
:100790001F000000030000000F0000000100000027
:1007A00004000000001BB70000366E0101000000CD
:1007B0001F000000020000000F0000000100000008
:1007C0000400000000366E01006CDC020300000033
:1007D0001F000000020000000700000001000000F0
:1007E00002000000808D5B00001BB70000000000CD
:1007F0001F000000020000000F00000001000000C8
:1008000002000000001BB70000366E01010000006E
:100810001F000000010000000F00000001000000A8
:100820000200000000366E01006CDC0203000000D4
:100830001F0000000100000007000000020000008F
:1008400001000000808D5B00001BB700000000006D
:100850001F0000000100000007000000020000006F
:1008600001000000001BB70000366E01010000000F
:100870001F00000001000000030000000200000053
:100880000100000000366E01006CDC020300000075
:100890001F00000003000000FFFFFFFF0400000036
:1008A00001000000808D5B00001BB700000000000D
:1008B0001F00000003000000000000000400000012
:1008C00001000000001BB70000366E0101000000AF
:1008D0001F00000003000000FFFFFFFF04000000F6
:1008E0000100000000366E01006CDC020300000015
:1008F0001F00000002000000FFFFFFFF06000000D5
:1009000001000000808D5B00AAC2A2000000000070
:1009100023000000010000000200000006000000AB
:1009200001000000AAC2A200001BB70000000000E6
:100930001700000003000000FFFFFFFF060000009B
:1009400001000000001BB7000024F40001000000BB
:100950002F00000003000000FFFFFFFF0600000063
:10096000010000000024F40080A812010100000032
:100970001700000002000000FFFFFFFF060000005C
:100980000100000080A81201558545010200000009
:100990002300000002000000FFFFFFFF080000002E
:1009A00001000000808D5B00001BB700000000000C
:1009B0001F00000003000000FFFFFFFF0800000011
:1009C00001000000001BB70000366E0101000000AE
:1009D0001F00000002000000FFFFFFFF08000000F2
:1009E0000100000000366E01006CDC020300000014
:1009F0001F00000001000000FFFFFFFF0A000000D1
:100A000001000000808D5B00007C9200000000006F
:100A10002700000003000000FFFFFFFF0A000000A6
:100A200001000000007C9200001BB70000000000E5
:100A30001300000002000000FFFFFFFF0A0000009B
:100A400001000000001BB70000F8240101000000B5
:100A50002700000002000000FFFFFFFF0A00000067
:100A60000100000000F8240100366E0101000000C2
:100A70001300000001000000FFFFFFFF0A0000005C
:100A80000100000000366E0100F049020300000082
:100A90002700000001000000FFFFFFFF0C00000026
:100AA00001000000808D5B0000127A000000000051
:100AB0002F00000003000000FFFFFFFF0C000000FC
:100AC0000100000000127A00001BB70000000000C7
:100AD0001700000002000000FFFFFFFF0C000000F5
:100AE00001000000001BB7000024F400010000001A
:100AF0002F00000002000000FFFFFFFF0C000000BD
:100B0000010000000024F40000366E010100000026
:100B10001700000001000000FFFFFFFF0C000000B5
:100B20000100000000366E0180C3C901030000000F
:100B30002F00000001000000FFFFFFFF0C0000007D
:100B40000100000080C3C9010048E8010300000063
:100B50002F00000001000000FFFFFFFF0E0000005B
:100B600001000000808D5B00B6A16800000000005D
:100B70003700000003000000FFFFFFFF0E00000031
:100B800001000000B7A16800001BB70000000000D2
:100B90001B00000002000000FFFFFFFF0E0000002E
:100BA00001000000001BB7006D43D10001000000F0
:100BB0003700000002000000FFFFFFFF0E000000F2
:100BC000010000006E43D10000366E0101000000FC
:100BD0001B00000001000000FFFFFFFF0E000000EF
:100BE0000100000000366E01DB86A2010300000058
:100BF0003700000001000000FFFFFFFF10000000B1
:100C000001000000808D5B00001BB70000000000A9
:100C10001F00000002000000FFFFFFFF10000000A7
:100C200001000000001BB70000366E01010000004B
:100C30001F00000001000000FFFFFFFF1200000086
:100C400001000000808D5B00AAC2A200000000002D
:100C50002300000002000000FFFFFFFF1200000061
:100C600001000000ABC2A200001BB70000000000A2
:100C70001100000001000000FFFFFFFF1200000054
:100C800001000000001BB700558545010100000070
:100C90002300000001000000FFFFFFFF1400000020
:100CA00001000000808D5B00007C920000000000CD
:100CB0002700000002000000FFFFFFFF14000000FB
:100CC00001000000007C9200001BB7000000000043
:100CD0001300000001000000FFFFFFFF14000000F0
:100CE00001000000001BB70000F824010100000013
:100CF0002700000001000000FFFFFFFF16000000BA
:100D000001000000808D5B00E82A850000000000E3
:100D10002B00000002000000FFFFFFFF1600000094
:100D200001000000E92A8500001BB7000000000058
:100D30001500000001000000FFFFFFFF160000008B
:100D400001000000001BB700D1550A01010000009E
:100D50002B00000001000000FFFFFFFF1800000053
:100D600001000000808D5B0000127A00000000008E
:100D70002F00000002000000FFFFFFFF180000002E
:100D80000100000000127A00001BB7000000000004
:100D90001700000001000000FFFFFFFF1800000027
:100DA00001000000001BB7000024F4000100000057
:100DB0002F00000001000000FFFFFFFF1A000000ED
:100DC00001000000808D5B0027AE70000000000075
:100DD0003300000002000000FFFFFFFF1A000000C8
:100DE0000100000028AE7000001BB70000000000EA
:100DF0001900000001000000FFFFFFFF1A000000C3
:100E000001000000001BB7006658E100010000006F
:100E10003300000001000000FFFFFFFF1C00000086
:100E200001000000808D5B00B6A16800000000009A
:100E30003700000002000000FFFFFFFF1C00000061
:100E400001000000B7A16800001BB700000000000F
:100E50001B00000001000000FFFFFFFF1C0000005E
:100E600001000000001BB7006D43D100010000002D
:100E70003700000001000000FFFFFFFF1E00000020
:100E800001000000808D5B0000A8610000000000F0
:100E90003B00000002000000FFFFFFFF1E000000FB
:100EA0000100000000A86100001BB7000000000066
:100EB0001D00000001000000FFFFFFFF1E000000FA
:100EC00001000000001BB7000050C300010000003B
:100ED0003B00000001000000FFFFFFFF20000000BA
:100EE00001000000808D5B00001BB70000000000C7
:100EF0001F00000001000000FFFFFFFF94480120D9
:100F000038490120024D0120A05501201E56012024
:100F10003656012052560120A05601208456012049
:100F2000BC560120F2560120E0580120A6570120AE
:100F3000BE570120DA570120285801200C58012003
:100F4000445801207A580120CA5201208A520120B7
:100F5000105301203A53012066530120AC53012065
:100F6000EC5301202C54012072540120B254012072
:100F7000145501205E55012064570120EC580120D2
:100F80000C5901208C0F0120000000006C69626781
:100F90006C6F73730000000000010202030303037F
:100FA00004040404040404040505050505050505F9
:100FB00005050505050505050606060606060606D9
:100FC00006060606060606060606060606060606C1
:100FD00006060606060606060707070707070707A9
:100FE0000707070707070707070707070707070791
:100FF0000707070707070707070707070707070781
:101000000707070707070707070707070707070770
:101010000707070707070707080808080808080858
:101020000808080808080808080808080808080840
:101030000808080808080808080808080808080830
:101040000808080808080808080808080808080820
:101050000808080808080808080808080808080810
:101060000808080808080808080808080808080800
:1010700008080808080808080808080808080808F0
:1010800008080808080808080808080808080808E0
:10109000080808080808080800000080F245012038
:1010A00076460120F246012066470120764E012057
:0C10B000A44E0120705D01208E5D012027
:10110000411122C600080100324441018280411190
:1011100006C622C40008EF0050160100B240224467
:1011200041018280011106CE22CC0010232604FE4C
:1011300001A8F937E93F8327C4FE85072326F4FE7B
:101140000327C4FE9307700CE3F5E7FE81473E8555
:10115000F240624405618280797106D622D400187B
:101160000145EF4030272326A4FE95450325C4FE04
:10117000EF40D01395450325C4FEEF403017954549
:101180000325C4FEEF401021B7170080138587A305
:10119000EF40C07E2324A4FEEF00D01C2322A4FE37
:1011A000014695450325C4FEEF405018A53FEF00CA
:1011B000701B2320A4FE054695450325C4FEEF4081
:1011C000F016032704FE832744FEB307F740232EBF
:1011D000F4FCB70700800327C4FD98C301A0797110
:1011E00022D60018232EA4FC930700022307F4FE46
:1011F000A30704FE31A08347F4FE8507A307F4FE8E
:101200000347F4FE8347E4FEE367F7FE01000100B5
:10121000325445618280397122DE80002326A4FC8D
:101220002324B4FC232604FE61A88327C4FE8A0776
:10123000032784FC3E978327C4FE8A078326C4FCC9
:10124000B697034707002380E7008327C4FE8A0779
:101250008507032784FC3E978327C4FE8A078507FA
:101260008326C4FCB697034707002380E700832743
:10127000C4FE8A078907032784FC3E978327C4FEA0
:101280008A0789078326C4FCB69703470700238093
:10129000E7008327C4FE8A078D07032784FC3E9757
:1012A0008327C4FE8A078D078326C4FCB6970347AD
:1012B00007002380E7008327C4FE85072326F4FE6A
:1012C0000327C4FE9D47E3F2E7F6A1472326F4FE79
:1012D00081A48327C4FEFD178A072324F4FE032775
:1012E000C4FC832784FEBA9783C70700230EF4FC4F
:1012F000832784FE85070327C4FCBA9783C70700AA
:10130000A30EF4FC832784FE89070327C4FCBA9745
:1013100083C70700230FF4FC832784FE8D07032770
:10132000C4FCBA9783C70700A30FF4FC8327C4FE4D
:101330009D8BD5E78347C4FDA303F4FE8347D4FD0B
:10134000230EF4FC8347E4FDA30EF4FC8347F4FD75
:10135000230FF4FC834774FEA30FF4FC8347C4FD02
:101360003E87B707012093870734BA9783C70700E2
:10137000230EF4FC8347D4FD3E87B70701209387F3
:101380000734BA9783C70700A30EF4FC8347E4FD34
:101390003E87B707012093870734BA9783C70700B2
:1013A000230FF4FC8347F4FD3E87B70701209387A2
:1013B0000734BA9783C70700A30FF4FC0347C4FDA3
:1013C0008327C4FE8D83B706012093860644B69713
:1013D00083C70700B98F93F7F70F230EF4FC832719
:1013E000C4FE13F7770091476312F7068347C4FDE5
:1013F0003E87B707012093870734BA9783C7070052
:10140000230EF4FC8347D4FD3E87B7070120938762
:101410000734BA9783C70700A30EF4FC8347E4FDA3
:101420003E87B707012093870734BA9783C7070021
:10143000230FF4FC8347F4FD3E87B7070120938711
:101440000734BA9783C70700A30FF4FC8327C4FEB1
:101450008A072320F4FE8327C4FEE1178A0723248A
:10146000F4FE0327C4FC832784FEBA9783C60700D3
:101470000347C4FD0326C4FC832704FEB297358FBF
:101480001377F70F2380E700832784FE8507032760
:10149000C4FCBA9783C607000347D4FD832704FE24
:1014A00085070326C4FCB297358F1377F70F238087
:1014B000E700832784FE89070327C4FCBA9783C605
:1014C00007000347E4FD832704FE89070326C4FCC5
:1014D000B297358F1377F70F2380E700832784FEB9
:1014E0008D070327C4FCBA9783C607000347F4FDA2
:1014F000832704FE8D070326C4FCB297358F13772C
:10150000F70F2380E7008327C4FE85072326F4FE18
:101510000327C4FE9307B003E3FDE7DA01000100EF
:10152000725421618280011106CE22CC0010232644
:10153000A4FE2324B4FE8327C4FE832584FE3E85B7
:10154000D9390100F240624405618280797122D666
:101550000018AA87232CB4FC232AC4FCA30FF4FC94
:10156000A30704FEB5A8230704FE8DA00347F4FEDD
:101570008347E4FE832684FD0A073697BA9703C69D
:1015800007008347F4FD139727008347F4FEBA97BB
:10159000139727008347E4FEBA973E87832744FDCD
:1015A000BA9703C707008346F4FE8347E4FE318FF2
:1015B0001377F70F032684FD8A06B296B697238029
:1015C000E7008347E4FE85072307F4FE0347E4FEB4
:1015D0008D47E3FDE7F88347F4FE8507A307F4FE94
:1015E0000347F4FE8D47E3F0E7F8010001003254B1
:1015F00045618280797122D60018232EA4FCA307AE
:1016000004FE8DA0230704FEA1A00347E4FE834748
:10161000F4FE8326C4FD0A073697BA9783C70700EE
:101620003E868346E4FE8347F4FE37070120130716
:1016300007343297034707000326C4FD8A06B29693
:10164000B6972380E7008347E4FE85072307F4FE6F
:101650000347E4FE8D47E3FAE7FA8347F4FE850784
:10166000A307F4FE0347F4FE8D47E3FDE7F801000E
:101670000100325445618280797122D60018232EF0
:10168000A4FC8327C4FD83C71700A307F4FE8327A8
:10169000C4FD03C757008327C4FDA380E700832749
:1016A000C4FD03C797008327C4FDA382E7008327F7
:1016B000C4FD03C7D7008327C4FDA384E7008327A5
:1016C000C4FD0347F4FEA386E7008327C4FD83C758
:1016D0002700A307F4FE8327C4FD03C7A7008327C1
:1016E000C4FD2381E7008327C4FD0347F4FE23855F
:1016F000E7008327C4FD83C76700A307F4FE8327A1
:10170000C4FD03C7E7008327C4FD2383E7008327C5
:10171000C4FD0347F4FE2387E7008327C4FD83C786
:101720003700A307F4FE8327C4FD03C7F700832710
:10173000C4FDA381E7008327C4FD03C7B700832747
:10174000C4FDA387E7008327C4FD03C77700832771
:10175000C4FDA385E7008327C4FD0347F4FEA383EC
:10176000E7000100325445618280011122CE001051
:10177000AA87A307F4FE8347F4FE860793968701A2
:10178000E1868347F4FE9D8393F7F70F3E870E07AC
:101790001D8F0A07B307F74093F7F70FE207E187BA
:1017A000B58FE207E18793F7F70F3E857244056135
:1017B0008280797106D622D40018232EA4FCA307B8
:1017C00004FE19A48347F4FE0327C4FD8A07BA97D1
:1017D00083C707002307F4FE8347F4FE0327C4FDF5
:1017E0008A07BA9703C707008347F4FE8326C4FD20
:1017F0008A07B69783C71700B98F13F7F70F834788
:10180000F4FE8326C4FD8A07B69783C72700B98FE5
:1018100013F7F70F8347F4FE8326C4FD8A07B697B4
:1018200083C73700B98FA306F4FE8347F4FE03276E
:10183000C4FD8A07BA9703C707008347F4FE8326CF
:10184000C4FD8A07B69783C71700B98F2306F4FE35
:101850008347C4FE3E85113FAA872306F4FE8347D3
:10186000F4FE0327C4FD8A07BA9783C6070003471F
:10187000C4FE8347D4FEB98F13F7F70F8347F4FEF6
:10188000358F1377F70F8326C4FD8A07B697238019
:10189000E7008347F4FE0327C4FD8A07BA9703C70E
:1018A00017008347F4FE8326C4FD8A07B69783C7D3
:1018B0002700B98F2306F4FE8347C4FE3E857535A5
:1018C000AA872306F4FE8347F4FE0327C4FD8A0794
:1018D000BA9783C617000347C4FE8347D4FEB98F67
:1018E00013F7F70F8347F4FE358F1377F70F83262F
:1018F000C4FD8A07B697A380E7008347F4FE032759
:10190000C4FD8A07BA9703C727008347F4FE8326DE
:10191000C4FD8A07B69783C73700B98F2306F4FE44
:101920008347C4FE3E859135AA872306F4FE83478C
:10193000F4FE0327C4FD8A07BA9783C6270003472E
:10194000C4FE8347D4FEB98F13F7F70F8347F4FE25
:10195000358F1377F70F8326C4FD8A07B697238147
:10196000E7008347F4FE0327C4FD8A07BA9703C73D
:1019700037008347E4FEB98F2306F4FE8347C4FE95
:101980003E85E533AA872306F4FE8347F4FE03274A
:10199000C4FD8A07BA9783C637000347C4FE83474E
:1019A000D4FEB98F13F7F70F8347F4FE358F137703
:1019B000F70F8326C4FD8A07B697A381E700834704
:1019C000F4FE8507A307F4FE0347F4FE8D47E3FB0F
:1019D000E7DE01000100B250225445618280797136
:1019E00006D622D40018232EA4FC232CB4FCA30773
:1019F00004FE032684FD8325C4FD0145813E854701
:101A0000A307F4FE0325C4FDF5360325C4FDAD315F
:101A10000347F4FEB9476303F7020325C4FD513BB6
:101A20008347F4FE032684FD8325C4FD3E85393EAD
:101A30008347F4FE8507A307F4FEE9B701000326F8
:101A400084FD8325C4FD394511360100B25022546E
:101A500045618280011106CE22CC00102326A4FE0F
:101A60002324B4FE8327C4FEBE85032584FE853F60
:101A70000100F2406244056182804D7123261114F9
:101A800023248114800AB70701209387C74483A8C1
:101A9000070003A847008847CC47904BD44B984F8A
:101AA000DC4F232814FD232A04FD232CA4FC232E21
:101AB000B4FC2320C4FE2322D4FE2324E4FE2326E8
:101AC000F4FEB70701209387C7469043D443984755
:101AD000DC472320C4FC2322D4FC2324E4FC23265B
:101AE000F4FCB70701209387C7479043D443984736
:101AF000DC472328C4FA232AD4FA232CE4FA232E21
:101B0000F4FA930704FB3E85EFF06FED930704FDB5
:101B10003E85EFF0CFEC130704FD930704EBBA8585
:101B20003E851134130704FB930704EBBA853E8509
:101B30001537130704FB930704FC4146BA853E851D
:101B4000B920AA8781EB930704FB3E85EFF02FE9CC
:101B5000814711A085473E858320C1140324811449
:101B60007161828001118A8517F5FE5F032505F0FA
:101B700006CE8920FD576309F500924702453E9540
:101B8000A2473E95B2473E95F240056182800147EB
:101B90006314E60001458280B307E5000507B386BC
:101BA000E50083C7070083C6F6FFE383D7FE3385CE
:101BB000D74082802E856F40A036011122CE0010C2
:101BC0002326A4FE0327C4FEB71700809387C7A669
:101BD0006315F700B707000211A081473E857244E4
:101BE00005618280011122CE00102326A4FE032766
:101BF000C4FEB71700809387C7A66314F700894710
:101C000011A081473E85724405618280011122CE78
:101C100000102326A4FE2324B4FE832784FE91E72C
:101C2000B70700809387070921A8032784FE85470B
:101C30006317F700B70700809387070911A0814752
:101C40003E85724405618280011122CE0010232658
:101C5000A4FE2324B4FE832784FE99E38D4709A8BC
:101C6000032784FE85476314F7009D4711A0814731
:101C70003E857244056182805D7186C6A2C4CAC277
:101C8000CEC052DE56DC5ADA5ED862D666D4800800
:101C9000232EA4FA8327C4FB3E8505372326A4FC04
:101CA0000327C4FCB167F117BA979C432324F4FCC3
:101CB0000327C4FCB167E117BA979C432322F4FCC5
:101CC0000327C4FCB167F117BA979C43032784FC30
:101CD000E318F7FC832784FC3E8C814C93190C009D
:101CE0000149832744FC3E8A814A336B4901B3EBA7
:101CF00059015A87DE873A85BE85B6402644164983
:101D00008649725AE25A525BC25B325CA25C6161E4
:101D10008280797106D622D44AD24ED00018232E62
:101D2000A4FC232CB4FC2328C4FC232AD4FC832742
:101D3000C4FD2326F4FE8327C4FE3E85BD3D232437
:101D4000A4FE832784FD8E073E87832784FE3E976B
:101D500091679107BA973E87FD571CC3832784FD7F
:101D60008E073E87832784FE3E979167BA973E870A
:101D7000832704FD1CC3832744FD13D90700814931
:101D8000832784FD8E073E87832784FE3E979167D5
:101D90009107BA974A8798C381473E85B25022542B
:101DA0001259825945618280011106CE22CC001061
:101DB000232604FEF32740F12326F4FE8327C4FEE6
:101DC0003E85EF30304A2324A4FE032584FEEF3005
:101DD0001047AA873E85F2406244056182803971CE
:101DE00006DE22DC80002326A4FC0325C4FCDD3BA8
:101DF0002324A4FE8327C4FC2322F4FE832744FE6D
:101E0000DC43A9EF232604FE81A08325C4FE03251D
:101E1000C4FCED3B2320A4FE8325C4FE0325C4FCA3
:101E20002535232EA4FC832704FE9C43DC4F832608
:101E3000C4FC01468325C4FD032504FE8297832745
:101E4000C4FE85072326F4FE0327C4FE832784FEF1
:101E5000E34DF7FA832744FE0547D8C30100F2504B
:101E6000625421618280397106DE22DC80002326E3
:101E7000A4FC2324B4FC2322C4FC2320D4FCFD575F
:101E80002326F4FEEF1020452320A4FE232404FE85
:101E9000213F232EA4FC0325C4FCA933232CA4FC3E
:101EA000032704FE85476308F700832704FE81C7E4
:101EB0008327C4FE49A0232204FE91A0832544FE6B
:101EC0000325C4FC5133232AA4FC832544FE0325A7
:101ED000C4FC2D3B2324A4FE0327C4FD832784FEDA
:101EE0006318F700032784FC832744FD6300F7028F
:101EF000232404FE832744FE85072322F4FE0327C0
:101F000044FE832784FDE34BF7FA11A001008327E9
:101F100084FE85C3832784FE9C43DC4F832604FC18
:101F2000032644FC832584FC032584FE8297232614
:101F3000A4FE8327C4FE3E85F25062542161828054
:101F4000797122D60018232EA4FC232CB4FC232A5A
:101F5000C4FC2328D4FCFD572326F4FE8327C4FEAB
:101F60003E85325445618280011106CE22CC00109C
:101F70002326A4FEEF102036AA873E85F240624455
:101F800005618280797106D622D40018232EA4FC24
:101F9000232CB4FCFD572326F4FE39352324A4FE5C
:101FA000832784FE95C3032784FD854763E0E7020A
:101FB000832784FE9C43DC43832584FD032584FE24
:101FC00082972326A4FE21A0010011A001008327EF
:101FD000C4FE3E85B250225445618280397106DECE
:101FE00022DC80002326A4FC2324B4FCFD572326F6
:101FF000F4FE832784FCC9C7232404FE7533232001
:10200000A4FE0325C4FCF93E232EA4FC232204FED7
:1020100091A0832544FE0325C4FC3D31232CA4FC60
:10202000832544FE0325C4FCD5362324A4FE0327C0
:1020300004FE832784FE6318F700032784FC8327AC
:1020400084FD6300F702232404FE832744FE8507F2
:102050002322F4FE032744FE8327C4FDE34BF7FA53
:1020600011A00100832784FE81CF832784FE9C4337
:10207000DC53832584FC032584FE82972326A4FE5B
:102080008327C4FE3E85F2506254216182803971FB
:1020900006DE22DC80002326A4FC2324B4FCFD57AA
:1020A0002326F4FE832784FCC9C7232404FEED39CC
:1020B0002320A4FE0325C4FC3536232EA4FC2322B2
:1020C00004FE91A0832544FE0325C4FCB53E232CC9
:1020D000A4FC832544FE0325C4FC0D3E2324A4FE5A
:1020E000032704FE832784FE6318F700032784FC7C
:1020F000832784FD6300F702232404FE832744FE24
:1021000085072322F4FE032744FE8327C4FDE34B07
:10211000F7FA11A00100832784FE81CF832784FE74
:102120009C439C57832584FC032584FE82972326A9
:10213000A4FE8327C4FE3E85F25062542161828052
:10214000797106D622D40018232EA4FC232CB4FCCB
:10215000232AC4FCFD572326F4FE8327C4FD232431
:10216000F4FE0325C4FD913C2322A4FE032784FD35
:1021700091476300F70C032784FD914763C0E70E86
:10218000032784FD8D476305F706032784FD8D47EC
:1021900063C6E70C032784FD85476308F700032720
:1021A00084FD89476302F70255A8832744FDCDCB00
:1021B000032584FED1342A87AE87832644FD98C246
:1021C000DCC2232604FE69A8832744FDC1CF8327F0
:1021D00044FD9C432320F4FE832704FE8A073E87A8
:1021E000832744FEBA9723A00700232604FE9DA858
:1021F000832744FDB5CB832744FD9C432320F4FE75
:10220000832704FE8A073E87832744FEBA973E87CA
:1022100085471CC30F008004832704FE8A073E877E
:10222000832744FEBA979C432326F4FE232604FE0C
:1022300025A8232604FE832744FD8DCB832744FD58
:102240009C432320F4FE832704FE8A073E878327CE
:1022500044FEBA979C432326F4FE09A8010001A876
:10226000010031A0010021A0010011A0010083277D
:10227000C4FE3E85B250225445618280797106D6F3
:1022800022D40018232EA4FC232CB4FCEF307000C1
:10229000AA872326F4FE9307C4FE3E8689450325BC
:1022A000C4FD793DAA873E85B250225445618280A3
:1022B000797106D622D40018232EA4FC232CB4FC5A
:1022C000EF30207DAA872326F4FE9307C4FE3E86C6
:1022D0008D450325C4FDAD35AA873E85B2502254F5
:1022E00045618280011122CE00102326A4FE03271F
:1022F000C4FE938741816314F700814711A0FD5705
:102300003E85724405618280011122CE0010232691
:10231000A4FE0327C4FE938741816317F700B72704
:10232000F4009387074011A081473E857244056100
:102330008280011122CE00102326A4FE0327C4FEB2
:10234000938741816317F700B707008093870709D8
:1023500011A081473E85724405618280011122CE21
:1023600000102326A4FE0327C4FE93874181631433
:10237000F700814711A081473E8572440561828044
:10238000011122CE00102326A4FE8327C4FE634C35
:10239000F000B71700800327C4FE0A07938707A63B
:1023A000BA979C4311A081473E85724405618280A3
:1023B000011122CE0010F32740F12326F4FE8327DB
:1023C000C4FE3E85724405618280011122CE001058
:1023D000A147F3A707302326F4FE010072440561EC
:1023E0008280011122CE0010A147F3B707302326C7
:1023F000F4FE0100724405618280011122CE0010BA
:10240000A147F3A747302326F4FE0100724405617B
:102410008280011122CE0010A147F3B74730232656
:10242000F4FE0100724405618280011122CE001089
:1024300093070008F3A747302326F4FE01007244F7
:1024400005618280011122CE001093070008F3B7C6
:1024500047302326F4FE0100724405618280011199
:1024600022CE0010856793870780F3A74730232685
:10247000F4FE0100724405618280011122CE001039
:10248000856793870780F3B747302326F4FE010062
:10249000724405618280797122D60018232EA4FC33
:1024A0008327C4FD0547B317F7002326F4FE8327CF
:1024B000C4FEF3A747302324F4FE010032544561E3
:1024C0008280797122D60018232EA4FC8327C4FDB4
:1024D0000547B317F7002326F4FE8327C4FEF3B79E
:1024E00047302324F4FE01003254456182800111FB
:1024F00006CE22CC00102326A4FE2324B4FE13050E
:102500004006EF304070011106CE22CC0010232689
:10251000A4FE2324B4FE1305800CEF30C06E5D7161
:1025200086C696C49AC29EC022DE2ADC2EDA32D833
:1025300036D63AD43ED242D046CE72CC76CA7AC88B
:102540007EC680081305C012EF30E06B1D7186CE89
:1025500096CC9ACA9EC8A2C6AAC4AEC2B2C036DE83
:102560003ADC3EDA42D846D672D476D27AD07ECEE3
:1025700080103D3D2A87B71700800A07938707A67A
:10258000BA979C432326F4FA8327C4FA85C7032508
:10259000C4FA45332324A4FA832784FA83A7070EB9
:1025A0002322F4FA832784FA83A7870D832544FA2C
:1025B0000D4582970100F640E6425643C643364435
:1025C000264596450646F2566257D2574258B258AB
:1025D000225E925E025FF24F2561730020307971B6
:1025E00006D622D40018232EA4FC232CB4FCC93315
:1025F0002A87B71700800A07938707A6BA979C43D4
:102600002326F4FEF32720342324F4FE8327C4FE7C
:1026100095C70325C4FE313B2322A4FE832784FEF5
:1026200093F7F73F032744FE9387870E8A07BA97ED
:102630009C438325C4FD0325C4FE82970100B2504C
:102640002254456182801D7186CE96CC9ACA9EC85E
:10265000A2C6AAC4AEC2B2C036DE3ADC3EDA42D866
:1026600046D672D476D27AD07ECE801091332A8725
:10267000B71700800A07938707A6BA979C432326BB
:10268000F4FA8327C4FA85C70325C4FA5D312324ED
:10269000A4FA832784FA83A707142322F4FA832752
:1026A00084FA83A78713832544FA1D458297010086
:1026B000F640E6425643C64336442645964506460E
:1026C000F2566257D2574258B258225E925E025F6B
:1026D000F24F256173002030011122CE0010232615
:1026E000A4FE2324B4FE0100724405618280797146
:1026F00006D622D40018232EA4FC232CB4FC4D397A
:10270000AA873E85B5392326A4FE0325C4FEEF1013
:10271000C0282320A4FE2322B4FE032704FE83271F
:1027200044FE294581453306A70032883338E80046
:10273000B386B700B307D800BE863287B687BA859E
:102740003E860325C4FEEF10A02B0100B250225498
:1027500045618280000000000000000000000000D1
:102760000000000000000000000000000000000069
:102770000000000000000000000000000000000059
:10278000197186DE96DC9ADA9ED8A2D6AAD4AED289
:10279000B2D0B6CEBACCBECAC2C8C6C6F2C4F6C2A1
:1027A000FAC07EDE000129312A87B71700800A07A8
:1027B000938707A6BA979C432326F4FAF32720347D
:1027C0002324F4FAF32710342322F4FAF3273034C5
:1027D0002320F4FAF3275030232EF4F88327C4FA89
:1027E000F5CB0325C4FAB136232CA4F8832784FA49
:1027F00093F7F73F232AF4F8832784FA63DE070A66
:10280000032744F9930700086312F702832784F92A
:1028100083A787392326F4F8832784F983A7073908
:102820008325C4F8032544F982976DA0032744F952
:10283000AD4763D7E7008327C4F993F7F7039DEF0C
:10284000832684F9032744F9BA878607BA978E0747
:10285000B69783A787092326F4F8832684F90327EC
:1028600044F9BA878607BA978E07B69783A70709F0
:102870008325C4F8032544F98297A9A88327C4F9BE
:1028800013F7F70389476317F704F32770302328FA
:10289000F4F8832784F983A7C70D2326F4F8832748
:1028A00004F99C432324F4F8832784F88325C4F88F
:1028B000032544F9829739A8032784F9832744F92B
:1028C0009387870E8A07BA979C43832544F903258B
:1028D000C4FA8297F650E6525653C65336542655DC
:1028E00096550656F6466647D6474648B648264E9B
:1028F000964E064FF25F0961730020300000000021
:1029000000000000000000000000000000000000C7
:1029100000000000000000000000000000000000B7
:1029200000000000000000000000000000000000A7
:102930000000000000000000000000000000000097
:102940000000000000000000000000000000000087
:102950000000000000000000000000000000000077
:102960000000000000000000000000000000000067
:102970000000000000001D7186CE96CC9ACA9EC849
:10298000A2C6AAC4AEC2B2C036DE3ADC3EDA42D833
:1029900046D672D476D27AD07ECE8010EFF05FA188
:1029A0002A87B71700800A07938707A6BA979C4320
:1029B0002326F4FA8327C4FA8DC70325C4FAEFF05F
:1029C0005F972324A4FA832784FA83A787212322ED
:1029D000F4FA832784FA83A70721832544FA414523
:1029E00082970100F640E6425643C64336442645E8
:1029F00096450646F2566257D2574258B258225E62
:102A0000925E025FF24F2561730020301D7186CE09
:102A100096CC9ACA9EC8A2C6AAC4AEC2B2C036DEBE
:102A20003ADC3EDA42D846D672D476D27AD07ECE1E
:102A30008010EFF0FF972A87B71700800A07938767
:102A400007A6BA979C432326F4FA8327C4FA8DC7B6
:102A50000325C4FAEFF0FF8D2324A4FA832784FA18
:102A600083A707232322F4FA832784FA83A78722E4
:102A7000832544FA454582970100F640E6425643D5
:102A8000C6433644264596450646F2566257D25707
:102A90004258B258225E925E025FF24F2561730087
:102AA00020301D7186CE96CC9ACA9EC8A2C6AAC4F2
:102AB000AEC2B2C036DE3ADC3EDA42D846D672D476
:102AC00076D27AD07ECE8010EFF09F8E2A87B7170D
:102AD00000800A07938707A6BA979C432326F4FA37
:102AE0008327C4FA8DC70325C4FAEFF09F842324FB
:102AF000A4FA832784FA83A787242322F4FA83275E
:102B000084FA83A70724832544FA49458297010064
:102B1000F640E6425643C6433644264596450646A9
:102B2000F2566257D2574258B258225E925E025F06
:102B3000F24F2561730020301D7186CE96CC9ACA63
:102B40009EC8A2C6AAC4AEC2B2C036DE3ADC3EDA25
:102B500042D846D672D476D27AD07ECE8010EFF0AC
:102B60003F852A87B71700800A07938707A6BA9779
:102B70009C432326F4FA8327C4FA8DC70325C4FA9D
:102B8000EFF02FFB2324A4FA832784FA83A70726D8
:102B90002322F4FA832784FA83A78725832544FA1E
:102BA0004D4582970100F640E6425643C6433644FF
:102BB000264596450646F2566257D2574258B258B5
:102BC000225E925E025FF24F2561730020301D711C
:102BD00086CE96CC9ACA9EC8A2C6AAC4AEC2B2C0BD
:102BE00036DE3ADC3EDA42D846D672D476D27AD095
:102BF0007ECE8010EFF0CFFB2A87B71700800A0740
:102C0000938707A6BA979C432326F4FA8327C4FA2E
:102C10008DC70325C4FAEFF0CFF12324A4FA83274C
:102C200084FA83A787272322F4FA832784FA83A7C9
:102C30000727832544FA514582970100F640E64272
:102C40005643C6433644264596450646F2566257D5
:102C5000D2574258B258225E925E025FF24F25610F
:102C6000730020301D7186CE96CC9ACA9EC8A2C62B
:102C7000AAC4AEC2B2C036DE3ADC3EDA42D846D68C
:102C800072D476D27AD07ECE8010EFF06FF22A879F
:102C9000B71700800A07938707A6BA979C43232695
:102CA000F4FA8327C4FA8DC70325C4FAEFF06FE85E
:102CB0002324A4FA832784FA83A707292322F4FA7A
:102CC000832784FA83A78728832544FA554582976A
:102CD0000100F640E6425643C64336442645964533
:102CE0000646F2566257D2574258B258225E925E5A
:102CF000025FF24F2561730020301D7186CE96CCA5
:102D00009ACA9EC8A2C6AAC4AEC2B2C036DE3ADC17
:102D10003EDA42D846D672D476D27AD07ECE8010B1
:102D2000EFF00FE92A87B71700800A07938707A6F5
:102D3000BA979C432326F4FA8327C4FA8DC7032548
:102D4000C4FAEFF00FDF2324A4FA832784FA83A7C1
:102D5000872A2322F4FA832784FA83A7072A832564
:102D600044FA594582970100F640E6425643C6436D
:102D70003644264596450646F2566257D257425883
:102D8000B258225E925E025FF24F256173002030DE
:102D90001D7186CE96CC9ACA9EC8A2C6AAC4AEC2DF
:102DA000B2C036DE3ADC3EDA42D846D672D476D2AB
:102DB0007AD07ECE8010EFF0AFDF2A87B717008081
:102DC0000A07938707A6BA979C432326F4FA83271A
:102DD000C4FA8DC70325C4FAEFF0AFD52324A4FAB3
:102DE000832784FA83A7072C2322F4FA832784FA03
:102DF00083A7872B832544FA5D4582970100F6401F
:102E0000E6425643C6433644264596450646F256A4
:102E10006257D2574258B258225E925E025FF24F1A
:102E20002561730020301D7186CE96CC9ACA9EC84B
:102E3000A2C6AAC4AEC2B2C036DE3ADC3EDA42D87E
:102E400046D672D476D27AD07ECE8010EFF04FD6AE
:102E50002A87B71700800A07938707A6BA979C436B
:102E60002326F4FA8327C4FA8DC70325C4FAEFF0AA
:102E70004FCC2324A4FA832784FA83A7872D232207
:102E8000F4FA832784FA83A7072D832544FA614542
:102E900082970100F640E6425643C6433644264533
:102EA00096450646F2566257D2574258B258225EAD
:102EB000925E025FF24F2561730020301D7186CE55
:102EC00096CC9ACA9EC8A2C6AAC4AEC2B2C036DE0A
:102ED0003ADC3EDA42D846D672D476D27AD07ECE6A
:102EE0008010EFF0EFCC2A87B71700800A0793878E
:102EF00007A6BA979C432326F4FA8327C4FA8DC702
:102F00000325C4FAEFF0EFC22324A4FA832784FA3E
:102F100083A7072F2322F4FA832784FA83A7872E17
:102F2000832544FA654582970100F640E642564300
:102F3000C6433644264596450646F2566257D25752
:102F40004258B258225E925E025FF24F25617300D2
:102F500020301D7186CE96CC9ACA9EC8A2C6AAC43D
:102F6000AEC2B2C036DE3ADC3EDA42D846D672D4C1
:102F700076D27AD07ECE8010EFF08FC32A87B71733
:102F800000800A07938707A6BA979C432326F4FA82
:102F90008327C4FA8DC70325C4FAEFF08FB9232421
:102FA000A4FA832784FA83A787302322F4FA83279D
:102FB00084FA83A70730832544FA69458297010084
:102FC000F640E6425643C6433644264596450646F5
:102FD000F2566257D2574258B258225E925E025F52
:102FE000F24F2561730020301D7186CE96CC9ACAAF
:102FF0009EC8A2C6AAC4AEC2B2C036DE3ADC3EDA71
:1030000042D846D672D476D27AD07ECE8010EFF0F7
:103010002FBA2A87B71700800A07938707A6BA979F
:103020009C432326F4FA8327C4FA8DC70325C4FAE8
:10303000EFF02FB02324A4FA832784FA83A7073262
:103040002322F4FA832784FA83A78731832544FA5D
:103050006D4582970100F640E6425643C64336442A
:10306000264596450646F2566257D2574258B25800
:10307000225E925E025FF24F2561730020301D7167
:1030800086CE96CC9ACA9EC8A2C6AAC4AEC2B2C008
:1030900036DE3ADC3EDA42D846D672D476D27AD0E0
:1030A0007ECE8010EFF0CFB02A87B71700800A07D6
:1030B000938707A6BA979C432326F4FA8327C4FA7A
:1030C0008DC70325C4FAEFF0CFA62324A4FA8327E3
:1030D00084FA83A787332322F4FA832784FA83A709
:1030E0000733832544FA714582970100F640E64292
:1030F0005643C6433644264596450646F256625721
:10310000D2574258B258225E925E025FF24F25615A
:10311000730020301D7186CE96CC9ACA9EC8A2C676
:10312000AAC4AEC2B2C036DE3ADC3EDA42D846D6D7
:1031300072D476D27AD07ECE8010EFF06FA72A8735
:10314000B71700800A07938707A6BA979C432326E0
:10315000F4FA8327C4FA8DC70325C4FAEFF06F9DF4
:103160002324A4FA832784FA83A707352322F4FAB9
:10317000832784FA83A78734832544FA7545829789
:103180000100F640E6425643C6433644264596457E
:103190000646F2566257D2574258B258225E925EA5
:1031A000025FF24F2561730020301D7186CE96CCF0
:1031B0009ACA9EC8A2C6AAC4AEC2B2C036DE3ADC63
:1031C0003EDA42D846D672D476D27AD07ECE8010FD
:1031D000EFF00F9E2A87B71700800A07938707A68C
:1031E000BA979C432326F4FA8327C4FA8DC7032594
:1031F000C4FAEFF00F942324A4FA832784FA83A758
:1032000087362322F4FA832784FA83A70736832597
:1032100044FA794582970100F640E6425643C64398
:103220003644264596450646F2566257D2574258CE
:10323000B258225E925E025FF24F25617300203029
:103240001D7186CE96CC9ACA9EC8A2C6AAC4AEC22A
:10325000B2C036DE3ADC3EDA42D846D672D476D2F6
:103260007AD07ECE8010EFF0AF942A87B717008017
:103270000A07938707A6BA979C432326F4FA832765
:10328000C4FA8DC70325C4FAEFF0AF8A2324A4FA49
:10329000832784FA83A707382322F4FA832784FA42
:1032A00083A78737832544FA7D4582970100F6403E
:1032B000E6425643C6433644264596450646F256F0
:1032C0006257D2574258B258225E925E025FF24F66
:1032D000256173002030011122CE0010F3275030F9
:1032E0002326F4FE8327C4FE93F7F7032326F4FE78
:1032F0000327C4FE8D476303F7020327C4FE8D47EF
:1033000063E2E7020327C4FE8547630BF700032748
:10331000C4FE89476318F7008D4731A0914721A06B
:10332000854711A081473E8572440561828079718D
:1033300022D60018232EA4FC232CB4FCF3275030F3
:103340002326F4FE8327C4FE93F707FC2326F4FE0E
:10335000832784FD2324F4FE0327C4FD91476305DE
:10336000F7040327C4FD914763E8E7060327C4FD7C
:103370008D4763E3E7060327C4FD8947637BF700B6
:103380008327C4FDA1C70327C4FD85476309F7024E
:10339000A1A0832784FE739077308327C4FE93E730
:1033A0002700739057300DA8832784FE73907730E1
:1033B0008327C4FE93E737007390573031A88327E3
:1033C00084FE93E717007390573039A0832784FE5B
:1033D000F19B7390573001000100325445618280A7
:1033E000011122CE00102326A4FE0327C4FEFD47B0
:1033F00063C6E7020327C4FE8D476349F7028327AC
:10340000C4FE05473317F700C57793878788F98F80
:10341000B337F00093F7F70F81EB09A80327C4FE39
:10342000930700086314F700854719A0010081473E
:103430003E85724405618280797106D622D40018D7
:10344000232EA4FC232CB4FC232AC4FC232604FE34
:103450008327C4FD99E3FD5749A8032784FDFD4751
:1034600063E0E708832784FD13972700B70701204F
:103470009387074FBA979C438287832744FD81C770
:10348000EFE0BFF48DA0EFE0DFF5B1A8832744FDA6
:1034900081C7EFE09FF681A8EFE0BFF7A9A08327DF
:1034A00044FD81C7EFE07FF83DA8EFE0BFF925A814
:1034B000832744FD81C7EFE09FFA35A0EFE0FFFBD3
:1034C0001DA0832744FD99C7832784FD3E85EFE037
:1034D0009FFC11A8832784FD3E85EFE09FFE21A07D
:1034E000FD572326F4FE8327C4FE3E85B2502254A6
:1034F00045618280797122D60018232EA4FC232CEA
:10350000B4FC232AC4FC8327C4FD2326F4FE03272E
:1035100084FDAD4763C2E702832744FD91CF0327B3
:10352000C4FE832784FD9387870E8A07BA970327F3
:1035300044FD98C3814711A0FD573E853254456133
:103540008280797106D622D40018232EA4FC83270A
:10355000C4FD2322F4FE832744FEDC43DDEF232653
:1035600004FEB9A0832644FE0327C4FEBA8786075B
:10357000BA978E07B69723A80708832644FE032729
:10358000C4FEBA878607BA978E07B69723AA07089C
:10359000832644FE0327C4FEBA878607BA978E07A0
:1035A000B69723AC07088327C4FE85072326F4FEBD
:1035B0000327C4FEFD47E3D7E7FA232404FE1DA03A
:1035C000032744FE832784FE9387870E8A07BA97D2
:1035D000372701201307E74E98C3832784FE85070A
:1035E0002324F4FE032784FEAD47E3DBE7FCF32747
:1035F00050302320F4FEB707012093874713032799
:1036000004FE6318F700B72701209385077801456A
:10361000393B832744FE0547D8C30100B2502254EA
:1036200045618280797106D622D40018232EA4FC2D
:10363000232CB4FC232AC4FC2328D4FC232604FE18
:103640008327C4FD2324F4FE032584FD513BAA8770
:1036500099E3D5575DA2032784FD930700086317FC
:10366000F7009539AA8799C3CD5741AA832744FD0E
:10367000B9CF032784FD93070008631FF700832752
:1036800084FE032744FD23A8E738832784FE03270D
:1036900004FD23ACE73885A2832684FE032784FD3E
:1036A000BA878607BA978E07B697032744FD23A8E3
:1036B000E708832684FE032784FDBA878607BA9726
:1036C0008E07B697032704FD23ACE7082DA2032736
:1036D00084FD930700086301F70C032784FD93071B
:1036E000000863C7E710032784FDFD4763C2E710A6
:1036F000032784FDC1476350F70C032784FDAD47C2
:10370000630BF70A032784FDAD4763C3E70E032766
:1037100084FD8D476308F700032784FD9D47630000
:10372000F704F9A0832684FE032784FDBA87860761
:10373000BA978E07B697372701201307E75D23A8AE
:10374000E708832684FE032784FDBA878607BA9795
:103750008E07B697032704FD23AAE70869A88326E6
:1037600084FE032784FDBA878607BA978E07B6972B
:10377000372701201307E76E23A8E708832684FE76
:10378000032784FDBA878607BA978E07B697032763
:1037900004FD23AAE70885A0832784FE372701209C
:1037A0001307876D23A8E738832784FE032704FDCA
:1037B00023ACE73889A0832684FE032784FDBA87DB
:1037C0008607BA978E07B6973727012013076750E9
:1037D00023A8E708832684FE032784FDBA8786078B
:1037E000BA978E07B697032704FD23AAE70821A0FE
:1037F000D1572326F4FE8327C4FE3E85B2502254BF
:1038000045618280011106CE22CC00102326A4FE41
:103810002324B4FE832784FE0546BE850325C4FE0B
:103820002139AA873E85F2406244056182800111F8
:1038300006CE22CC00102326A4FE2324B4FE832728
:1038400084FE0146BE850325C4FEFD36AA873E855B
:10385000F240624405618280011106CE22CC001044
:103860002326A4FEEFF03FA7AA873E85F2406244DC
:1038700005618280011106CE22CC00102326A4FE11
:103880002324B4FE832784FE99EBB7270120938578
:103890000778032584FEEFF09FA981470DA0032739
:1038A00084FE8547631CF700B7670120938507C82E
:1038B000032584FEEFF0BFA7814711A0FD573E8589
:1038C000F240624405618280011122CE001023265D
:1038D000A4FE2324B4FE2322C4FE81473E85724405
:1038E00005618280397122DE80002326A4FC014517
:1038F00081452324A4FE2326B4FEF32500B8232209
:10390000B4FEF32500B02320B4FEF32500B8232E27
:10391000B4FC032544FE8325C4FDE310B5FE8325D6
:1039200044FE2E888148931708000147832504FE32
:103930002E868146B365C7002324B4FED58F232687
:10394000F4FE032784FE8327C4FE3A85BE857254A5
:1039500021618280797106D622D44AD24ED00018D5
:10396000232EA4FC8327C4FD81E70149814921A8B6
:103970000325C4FDEFE05F992326A4FE8327C4FE40
:103980003E89FD87BE894A87CE873A85BE85B2507B
:1039900022541259825945618280797106D622D407
:1039A0000018232EA4FC814701482320F4FE232283
:1039B00004FF0325C4FDEFE0DF972326A4FE832741
:1039C000C4FE8DC78327C4FE83A7C7132324F4FE38
:1039D000832784FE81CF832784FE9C43F847930787
:1039E00004FE3E868545032584FE0297032704FED8
:1039F000832744FE3A85BE85B250225445618280B9
:103A0000797106D622D426D20018232EA4FC2328AE
:103A1000B4FC232AC4FCFD572326F4FE0325C4FD71
:103A2000EFE03F912324A4FE832784FE8DCF8327DC
:103A300084FE83A7C7132322F4FE832744FE85C791
:103A4000832744FE9C43A44B0325C4FDEFE09F89DC
:103A5000AA87032604FD832644FDBE85032544FE74
:103A600082942326A4FE8327C4FE3E85B2502254AE
:103A7000925445618280011122CE00102326A4FEBB
:103A8000B71700809387C7A63E8572440561828080
:103A9000011122CE00102326A4FE9D473E857244CC
:103AA00005618280011122CE00102326A4FEB717E3
:103AB00000809387C7A63E8572440561828001110C
:103AC00022CE00102326A4FE8D473E857244056158
:103AD0008280797106D622D40018232EA4FC232CD0
:103AE000B4FCFD572326F4FE0325C4FDEFE07F84DC
:103AF0002324A4FE832784FE9DC7832784FE83A7F7
:103B0000C70D2322F4FE832744FE91CF832744FE72
:103B10009C43F847930784FD3E868D45032544FE6C
:103B200002972326A4FE8327C4FE3E85B25022546A
:103B300045618280797106D622D40018232EA4FC18
:103B4000232CB4FCFD572326F4FE0325C4FDEFE02F
:103B50004FFE2324A4FE832784FE9DC7832784FE73
:103B600083A7C70D2322F4FE832744FE91CF83272A
:103B700044FE9C43F847930784FD3E868945032510
:103B800044FE02972326A4FE8327C4FE3E85B2503E
:103B9000225445618280797106D622D40018232EE2
:103BA000A4FC232CB4FC232604FE0325C4FDEFE073
:103BB0004FF82324A4FE832784FE9DC7832784FE19
:103BC00083A7C70D2322F4FE832744FE91CF8327CA
:103BD00044FE9C43F847930784FD3E8691450325A8
:103BE00044FE02972326A4FE8327C4FE3E85B250DE
:103BF000225445618280011106CE22CC001023267A
:103C0000A4FE0325C4FEEFE0CFF2AA873E85F24072
:103C1000624405618280797106D622D40018232E71
:103C2000A4FC232CB4FC232AC4FC0325C4FDEFE030
:103C30004FF02326A4FE8327C4FE99CB032644FD20
:103C4000832584FD0325C4FEEFF0DF8AAA8711A037
:103C5000FD573E85B250225445618280011122CE2B
:103C600000102326A4FE2324B4FE832784FE83D7DA
:103C7000070013F737008D476314F700914711A031
:103C800089473E85724405618280797122D6001889
:103C9000232EA4FCF32710342326F4FE8327C4FE2E
:103CA0003E85325445618280011122CE00102326C8
:103CB000A4FE2324B4FE832784FE73901734814727
:103CC0003E85724405618280011106CE22CC00102F
:103CD0002326A4FE0325C4FEEFE04FE8AA873E8515
:103CE000F240624405618280011122CE0010232639
:103CF000A4FE0327C4FEB707008093870746631519
:103D0000F700B707000C11A081473E85724405619A
:103D10008280011122CE00102326A4FE0327C4FEB8
:103D2000B7070080938707466315F7009307500392
:103D300011A081473E85724405618280011122CE27
:103D400000102326A4FE0327C4FEB7070080938734
:103D500007466314F7009D4711A081473E857244D2
:103D600005618280011122CE00102326A4FE2324A7
:103D7000B4FE832784FE91E7B70700809387070985
:103D800011A081473E85724405618280011122CED7
:103D900000102326A4FE2324B4FE832784FE99E387
:103DA000AD4711A081473E857244056182800111B3
:103DB00022CE00102326A4FE8327C4FE99E3814768
:103DC00011A0FD573E85724405618280797106D647
:103DD00022D40018232EA4FC232CB4FC0325C4FDFC
:103DE00021372326A4FE832784FD1397C70083274A
:103DF000C4FE3E97B70720009107BA979C433E85C3
:103E0000B250225445618280797106D622D40018BE
:103E1000232EA4FC232CB4FC232AC4FC0325C4FDBC
:103E2000E1352326A4FE832784FD1397C70083274B
:103E3000C4FE3E97B70720009107BA973E878327B5
:103E400044FD1CC30100B250225445618280797147
:103E500006D622D40018232EA4FC232CB4FC232A3B
:103E6000C4FC0325C4FD49352326A4FE832784FD15
:103E70001397C7008327C4FE3E97B7072000BA9761
:103E80003E87832744FD1CC381473E85B2502254A0
:103E900045618280797106D622D40018232EA4FCB5
:103EA000232CB4FC0325C4FD81352326A4FE8327DF
:103EB00084FD1397C7008327C4FE3E97B7072000F1
:103EC000BA979C433E85B2502254456182807971F5
:103ED00006D622D40018232EA4FC232CB4FC232ABB
:103EE000C4FC0325C4FD09352326A4FE0325C4FD17
:103EF000B135AA872324F4FE832784FE85C70327D0
:103F000044FD832784FE637FF700832784FD8A07AF
:103F10003E878327C4FEBA973E87832744FD1CC390
:103F2000814711A0FD573E85B250225445618280E1
:103F3000797106D622D40018232EA4FC232CB4FCBD
:103F40000325C4FD55332326A4FE832784FD8A0759
:103F50003E878327C4FEBA979C433E85B2502254C5
:103F600045618280797106D622D40018232EA4FCE4
:103F7000232CB4FC232AC4FC2328D4FC0325C4FD31
:103F8000A5332326A4FE832784FD13977700832778
:103F9000C4FEBA97032744FD15870A073E97896731
:103FA000BA979C432324F4FE832704FD81CF832703
:103FB00044FDFD8B0547B317F7003E87832784FE3A
:103FC000D98F29A8832744FDFD8B0547B317F70038
:103FD00093C7F7FF3E87832784FEF98F032784FD6D
:103FE000931677000327C4FE3697832644FD9586F3
:103FF0008A06BA96096736971CC381473E85B25038
:10400000225445618280011106CE22CC0010232665
:10401000A4FE2324B4FE1305C012EF10D03E797124
:1040200006D622D40018232EA4FC232CB4FC83270C
:1040300084FD2326F4FEEFE0AFB7AA873E85853BDB
:104040002324A4FE832584FE0325C4FE41332322BA
:10405000A4FE0325C4FE7539AA872320F4FE032796
:1040600044FE832704FE6372F7040327C4FE8327FC
:1040700044FE8A07BA979C478DCB0327C4FE83274B
:1040800044FE8A07BA9703A88700032644FE8326C6
:10409000C4FE032744FEBA878607BA978E07B697F1
:1040A00083A7070FBE8532850298032644FE832529
:1040B00084FE0325C4FE893B0100B25022544561B1
:1040C0008280397106DE22DC80002326A4FC83274F
:1040D000C4FC2322F4FE832744FEDC4363960712CC
:1040E000232604FE11AA0325C4FC25312320A4FEA7
:1040F0008325C4FE0325C4FCB531232EA4FC8325EF
:10410000C4FE0325C4FC5931232CA4FC8327C4FD21
:104110009C439C430325C4FD8297232404FE85A869
:104120008146032684FE8325C4FE032544FE1D3DEF
:10413000032784FE832704FE6356F7040146832584
:1041400084FE0325C4FC6133032744FE832784FED9
:104150008A07BA9723A40700832644FE032784FE18
:10416000BA878607BA978E07B69723A6070E8326C7
:1041700044FE032784FEBA878607BA978E07B69750
:1041800023A8070E832784FE85072324F4FE032734
:1041900084FE9307F03FE3D5E7F801468325C4FE8C
:1041A0000325C4FC6D318327C4FD9C43DC4F83266B
:1041B00044FE0146832584FD0325C4FD82978327A1
:1041C000C4FD9C43D84F832644FEB7470120138685
:1041D000E701832584FD0325C4FD02978327C4FDE1
:1041E0009C43DC53832584FD0325C4FD82978327EC
:1041F000C4FE85072326F4FE8327C4FEE355F0EEB4
:10420000832744FE0547D8C30100F2506254216160
:104210008280797106D622D40018232EA4FC232C88
:10422000B4FC232AC4FC2328D4FC8327C4FD232602
:10423000F4FE0325C4FDEFF0DFAD2A87832784FD5C
:1042400063C4E700FD5741A0832744FD95CF09468D
:10425000832584FD0325C4FD9D390327C4FE8327E0
:1042600084FD8A07BA97032744FD98C78326C4FEB6
:10427000032784FDBA878607BA978E07B697032768
:1042800004FD23A8E70E3DA80546832584FD0325EC
:10429000C4FD35390327C4FE832784FD8A07BA97F6
:1042A000374701201307670098C78326C4FE0327FA
:1042B00084FDBA878607BA978E07B697032704FD51
:1042C00023A6E70E81473E85B25022544561828085
:1042D000797106D622D40018232EA4FC232CB4FC1A
:1042E0008327C4FD2326F4FE0325C4FDEFF07FA23F
:1042F0002A87832784FD63C4E700FD5721A8EFE0E8
:104300002F8BAA878546032684FDBE850325C4FE20
:10431000913981473E85B25022544561828079713E
:1043200006D622D40018232EA4FC232CB4FC832709
:10433000C4FD2326F4FE0325C4FDEFF09F9D2A87CC
:10434000832784FD63C4E700FD5721A8EFE04F8673
:10435000AA878146032684FDBE850325C4FE193144
:1043600081473E85B250225445618280011106CEBC
:1043700022CC00102326A4FE2324B4FEEFE04F83BA
:10438000AA87032684FEBE850325C4FEEFF03FAC5A
:10439000AA873E85F240624405618280011106CE03
:1043A00022CC00102326A4FEEFE08F80AA87BE85D2
:1043B0000325C4FEEFF01FAEAA873E85F24062449B
:1043C00005618280797106D622D40018232EA4FCC0
:1043D000232CB4FC232AC4FC232204FE8327C4FD1F
:1043E0002324F4FE0325C4FDEFF0BF922A87832720
:1043F00044FD63C8E700FD572322F4FE832744FEF3
:1044000099A8232604FE99A08327C4FE95C7854654
:10441000032644FD8325C4FE032584FEEFF09FB4EC
:10442000AA8713F717008327C4FE3317F7008327E3
:1044300044FED98F2322F4FE8327C4FE850723265A
:10444000F4FE832784FD8583232CF4FC832784FDDD
:10445000C5FF832744FE3E85B250225445618280C9
:10446000797106D622D40018232EA4FC232CB4FC88
:10447000232AC4FC232204FE8327C4FD2324F4FE44
:104480000325C4FDEFF0FF882A87832744FD63C816
:10449000E700FD572322F4FE832744FE99A8232634
:1044A00004FE99A08327C4FE95C78146032644FDD8
:1044B0008325C4FE032584FEEFF0DFAAAA8713F745
:1044C00017008327C4FE3317F700832744FED98FD4
:1044D0002322F4FE8327C4FE85072326F4FE8327C8
:1044E00084FD8583232CF4FC832784FDC5FF83276B
:1044F00044FE3E85B250225445618280797106D6D1
:1045000022D40018232EA4FC232CB4FC232AC4FCA0
:10451000232404FE232604FE91A08327C4FE8DC716
:10452000032644FD8325C4FE0325C4FDEFF03F921E
:10453000AA8713F717008327C4FE3317F7008327D2
:1045400084FED98F2324F4FE8327C4FE8507232607
:10455000F4FE832784FD8583232CF4FC832784FDCC
:10456000CDFF832784FE3E85B25022544561828070
:10457000011106CE22CC00102326A4FE2324B4FE73
:10458000832584FE0325C4FEEFF0DF9081473E853E
:10459000F240624405618280011122CE0010232680
:1045A000A4FEB70700809387C7063E857244056165
:1045B0008280011122CE00102326A4FE938701825F
:1045C0003E85724405618280011122CE00102326AF
:1045D000A4FE81473E85724405618280411122C656
:1045E0000008B71701209387C70A3E85324441016E
:1045F0008280397106DE22DC80002326A4FC03259C
:10460000C4FC593F2326A4FE0325C4FC753F232484
:10461000A4FE0325C4FC713F2322A4FEC13723203E
:10462000A4FE832704FE9C43832584FE032544FEC9
:104630008297232EA4FC0327C4FDB7070040F98FFF
:1046400099E3FD5725A08327C4FD63C40700FD57E8
:1046500031A80325C4FEEF106032AA873E87832766
:10466000C4FD93F7F7038507B357F7023E85F25071
:10467000625421618280011106CE22CC00102326D3
:10468000A4FE2324B4FE0325C4FEA537AA873E85D5
:10469000F240624405618280011122CE001023267F
:1046A000A4FEB7070080938707063E857244056124
:1046B0008280011122CE00102326A4FE938701825E
:1046C0003E85724405618280011122CE00102326AE
:1046D000A4FE91473E85724405618280411122C645
:1046E0000008B71701209387C70A3E85324441016D
:1046F0008280397106DE22DC80002326A4FC03259B
:10470000C4FC593F2326A4FE0325C4FC753F232483
:10471000A4FE0325C4FC713F2322A4FEC13723203D
:10472000A4FE832704FE9C43832584FE032544FEC8
:104730008297232EA4FC0327C4FDB7070040F98FFE
:1047400099E3FD5721A88327C4FD63C40700FD57E3
:1047500031A00325C4FEEF106022AA873E85F250E7
:10476000625421618280011106CE22CC00102326E2
:10477000A4FE2324B4FE0325C4FEA53FAA873E85DC
:10478000F240624405618280011122CE001023268E
:10479000A4FEB7170080938787A33E857244056106
:1047A0008280011122CE00102326A4FEB7170080BC
:1047B000938747A43E85724405618280011122CE11
:1047C00000102326A4FE938701823E857244056172
:1047D0008280011122CE00102326A4FEB1473E851F
:1047E000724405618280411122C6000893870182CC
:1047F0003E85324441018280411122C60008A14712
:104800003E85324441018280411122C60008B7270B
:10481000F400938707403E85324441018280411174
:1048200022C60008B78700103E85324441018280CD
:10483000411122C60008B71701209387C70A3E8599
:10484000324441018280011122CE00102326A4FEB1
:104850002324B4FE832784FE9C470327C4FE636998
:10486000F700832784FEDC470327C4FE63F4E700D8
:10487000FD5729A8832784FE98438327C4FE330766
:10488000F702832784FEDC43B357F7023E85724468
:1048900005618280397106DE22DC80002326A4FCBB
:1048A0008327C4FC3E85F53D2326A4FEB13F232487
:1048B000A4FE99372322A4FE9D372320A4FE0327BC
:1048C00004FE832744FEBA97232EF4FC8327C4FCFE
:1048D000DC433E85EF1060068327C4FD9843C16723
:1048E000F98F91CB8327C4FD9843C177FD177D8F46
:1048F0008327C4FD98C38327C4FE91CB8327C4FDBF
:104900009843B70702005D8F8327C4FD98C38327B0
:10491000C4FC9C43D8438327C4FC832584FE3E8586
:1049200002978327C4FC9C473E85EF1000010100DD
:10493000F2506254216182801D7186CEA2CC80101B
:104940002326A4FA0325C4FAA93D2326A4FE0325A1
:10495000C4FA1D3D2324A4FE0325C4FA713D23227D
:10496000A4FE0325C4FA41352320A4FE0325C4FA7E
:104970008D35232EA4FC0325C4FA8935232CA4FCF1
:10498000453D232AA4FC832744FD9C43832544FE04
:10499000032504FE82972328A4FC832744FD9C431F
:1049A0008325C4FD032584FD82972326A4FC0327C9
:1049B00004FDC1677D8FC1676378F700032584FE1E
:1049C000EF00D07BAA87E1A8032704FDB707020008
:1049D0007D8FB70702006365F7008327C4FE19A027
:1049E000832784FE3E85EF0070792324A4FC0327EF
:1049F00004FDB70704007D8FB70704006365F70067
:104A0000832784FC69A8832704FD9D8B85072322C7
:104A1000F4FC832704FD93F7073F918385078607FE
:104A20002320F4FC032704FD8567938707C07D8F4F
:104A30009307F03F63E4E700FD5795A0032704FDCB
:104A40008567938707C0F98FA9830547B317F700D8
:104A5000232EF4FA032784FC832744FC3347F70210
:104A6000832704FC3307F7028327C4FBB347F7020D
:104A7000232CF4FA8327C4FC13F707109307F00FD5
:104A800063F5E700832784FB19A8032784FB8327AA
:104A9000C4FC93F7F70385078607B357F7023E85F3
:104AA000F640664425618280397106DE22DC800092
:104AB0002326A4FC2324B4FCFD572326F4FEB707C9
:104AC000008093C7F7FF2324F4FE930730042322CA
:104AD000F4FEADA08326C4FC832744FE1397570041
:104AE000B70701209387C767BA97BE853685A13B74
:104AF0002320A4FE032704FEFD57630CF7020327BF
:104B000004FE832784FC1D8F9357F7413D8FB30725
:104B1000F740232EF4FC0327C4FD832784FE635A49
:104B2000F700832744FE2326F4FE8327C4FD2324B5
:104B3000F4FE832744FEFD172322F4FE832744FE60
:104B4000E3DA07F88327C4FE3E85F2506254216100
:104B50008280797106D622D40018232EA4FC232C3F
:104B6000B4FC232AC4FC8327C4FD9C4313F787FFAE
:104B70008327C4FD98C38327C4FD9843832744FD3E
:104B80009C4B9D8B5D8F8327C4FD98C38327C4FDF9
:104B90009C4313F7F7C08327C4FD98C38327C4FD44
:104BA0009843832744FDDC4B920793F7073F5D8FC3
:104BB0008327C4FD98C38327C4FD9843FD7793875B
:104BC000F73F7D8F8327C4FD98C38327C4FD984397
:104BD000832744FD9C4F9396A7008567938707C062
:104BE000F58F5D8F8327C4FD98C3832744FDDC4F79
:104BF00063DB0702832784FD9C4313E707108327A9
:104C000084FD98C3832784FD9C4313F707FC832707
:104C100084FD98C3832784FD9C4313E717008327F3
:104C200084FD98C32DA8832784FD9C4313F7F7EFD9
:104C3000832784FD98C3832784FD9C4313F707FCD7
:104C4000832784FD98C3832784FD9843832744FDED
:104C5000DC4F93F7F7035D8F832784FD98C3832789
:104C6000C4FD9843B707FCFFFD177D8F8327C4FD64
:104C700098C3930704FE3E868545B71700801385C9
:104C8000C7A6EFD0EFCB032604FE832644FE1145D2
:104C900081453307A6003A883338C800B387B60089
:104CA000B306F800B6872324E4FE2326F4FE19A8F1
:104CB000930704FE3E868545B71700801385C7A677
:104CC000EFD00FC8032704FE832744FE8326C4FECB
:104CD0003E8663ECC6008326C4FE3E86E39AC6FC8D
:104CE000832684FEBA87E3F5F6FC01008327C4FD22
:104CF0009C43E3DD07FE01000100B25022544561F0
:104D000082805D7186C6A2C48008232EA4FA232C5B
:104D1000B4FA0325C4FBEFF0DFA82326A4FE032585
:104D2000C4FBEFF07FA62324A4FE0325C4FBEFF011
:104D3000BFAC2322A4FE0325C4FBEFF09FA92320D0
:104D4000A4FEEFF0DFAD232EA4FC0327C4FD8327D0
:104D500044FEBA97232CF4FC0327C4FD832704FEEA
:104D6000BA97232AF4FC832784FD9843C167F98FFF
:104D700091CB832784FD9843C177FD177D8F8327CF
:104D800084FD98C3832784FD9843B7070200F98FF9
:104D900081C78327C4FE19A0832784FE3E85EF00C8
:104DA000F03D2328A4FC032704FDBA878607BA97A1
:104DB00013D7F7410D8BBA9789873E87832784FBEA
:104DC00063CBE702032704FDBA878A07BA9713D794
:104DD000F7410D8BBA9789873E87832784FB634C05
:104DE000F700832784FD9843B70704005D8F83276E
:104DF00084FD98C3B1A0832584FB032504FD6D3198
:104E00002326A4FC0327C4FCFD576302F702832773
:104E1000C4FC13975700B70701209387C767BA9759
:104E20003E86832544FD032584FD253311A8832771
:104E300084FD9843B70704005D8F832784FD98C3E2
:104E4000832784FD9843C1675D8F832784FD98C3C2
:104E50000325C4FBEFF05FAEAA873E85B64026442B
:104E600061618280411122C60008B78700103E852B
:104E7000324441018280797106D622D40018232E53
:104E8000A4FC232CB4FCF93FAA872326F4FE0327B5
:104E900084FD8327C4FEBA979C433E85B2502254BA
:104EA00045618280797106D622D40018232EA4FC95
:104EB000232CB4FC232AC4FC7537AA872326F4FECE
:104EC000032784FD8327C4FEBA973E87832744FDCA
:104ED0001CC33E85B250225445618280011122CE0E
:104EE00000102326A4FE0327C4FE9387C181631507
:104EF000F700B727011011A081473E857244056174
:104F00008280011122CE00102326A4FE0327C4FEB6
:104F10009387C1816317F700B7070080938707461F
:104F200011A081473E85724405618280011122CE25
:104F300000102326A4FE2324B4FE0327C4FE938777
:104F4000C1816317F700832784FE99E3A14715AE5B
:104F50000327C4FE9387C1816319F700032784FEEA
:104F600085476314F700A54729AE0327C4FE93873E
:104F7000C1816319F700032784FE89476314F70092
:104F8000A94701A60327C4FE9387C1816319F700CF
:104F9000032784FE8D476314F700AD47DDA4032784
:104FA000C4FE9387C1816319F700032784FE9147EC
:104FB0006314F700B147F1A40327C4FE9387C181AE
:104FC0006319F700032784FE95476314F700B5477C
:104FD0004DAC0327C4FE9387C1816319F7000327F3
:104FE00084FE99476314F700B94761AC0327C4FEF8
:104FF0009387C1816319F700032784FE9D476314DB
:10500000F700BD47BDAC0327C4FE9387C181631978
:10501000F700032784FEA1476314F700C14795A456
:105020000327C4FE9387C1816319F700032784FE19
:10503000A5476314F700C547A9A40327C4FE9387B7
:10504000C1816319F700032784FEA9476314F700A1
:10505000C94705AC0327C4FE9387C1816319F700D4
:10506000032784FEAD476314F700CD4719AC03272F
:10507000C4FE9387C1816319F700032784FEB147FB
:105080006314F700D147F5AA0327C4FE9387C181B3
:105090006319F700032784FEB5476314F700D5476B
:1050A000CDA20327C4FE9387C1816319F7000327AC
:1050B00084FEB9476314F700D947E1A20327C4FE71
:1050C0009387C1816319F700032784FEBD476314EA
:1050D000F700DD477DA20327C4FE9387C1816319D2
:1050E000F700032784FEC1476314F700E14751AA84
:1050F0000327C4FE9387C1816319F700032784FE49
:10510000C5476314F700E547ADAA0327C4FE93879C
:10511000C1816319F700032784FEC9476314F700B0
:10512000E94785A20327C4FE9387C1816319F7006D
:10513000032784FECD476314F700ED4799A20327A8
:10514000C4FE9387C1816319F700032784FED1470A
:105150006314F700F14735A20327C4FE9387C1818A
:105160006319F700032784FED5476314F700F5475A
:1051700009AA0327C4FE9387C1816319F700032797
:1051800084FED9476314F700F947E5A80327C4FE56
:105190009387C1816319F700032784FEDD476314F9
:1051A000F700FD47F9A80327C4FE9387C181631A5E
:1051B000F700032784FEE1476315F7009307000219
:1051C000C9A00327C4FE9387C181631AF700032790
:1051D00084FEE5476315F700930710025DA00327DF
:1051E000C4FE9387C181631AF700032784FEE94751
:1051F0006315F7009307200269A00327C4FE938775
:10520000C181631AF700032784FEED476315F70099
:1052100093073002BDA00327C4FE9387C181631AA0
:10522000F700032784FEF1476315F7009307400258
:1052300089A80327C4FE9387C1816319F700032758
:1052400084FEF5476314F700ED4725A80327C4FE45
:105250009387C1816319F700032784FEF94763141C
:10526000F700F14739A80327C4FE9387C18163196A
:10527000F700032784FEFD476314F700F54711A0EC
:1052800081473E85724405618280797106D622D4B9
:105290000018232EA4FC232CB4FC0325C4FDEFF03E
:1052A000FFC3AA872326F4FE8327C4FE91079843F1
:1052B000832784FD8326C4FE9106D98F9CC2814733
:1052C0003E85B250225445618280797106D622D43F
:1052D0000018232EA4FC232CB4FC0325C4FDEFF0FE
:1052E000FFBFAA872326F4FE8327C4FE91079C43B1
:1052F000032784FD1347F7FFBA860327C4FE11076F
:10530000F58F1CC381473E85B2502254456182808F
:10531000797106D622D40018232EA4FC0325C4FDDF
:10532000EFF0DFBBAA872326F4FE8327C4FE9C434D
:105330003E85B250225445618280797106D622D4CE
:105340000018232EA4FC0325C4FDEFF03FB9AA8763
:105350002326F4FE8327C4FEB1079C433E85B2504A
:10536000225445618280797106D622D40018232EFA
:10537000A4FC232CB4FC0325C4FDEFF03FB6AA87A0
:105380002326F4FE8327C4FEA1079C43032784FD44
:105390001347F7FFBA860327C4FE2107F58F1CC306
:1053A00081473E85B250225445618280797106D68C
:1053B00022D40018232EA4FC232CB4FC0325C4FD06
:1053C000EFF0DFB1AA872326F4FE8327C4FEA107EE
:1053D0009843832784FD8326C4FEA106D98F9CC2EF
:1053E00081473E85B250225445618280797106D64C
:1053F00022D40018232EA4FC232CB4FC0325C4FDC6
:10540000EFF0DFADAA872326F4FE8327C4FEB107A1
:105410009843832784FD8326C4FEB106D98F9CC29E
:1054200081473E85B250225445618280797106D60B
:1054300022D40018232EA4FC232CB4FC0325C4FD85
:10544000EFF0DFA9AA872326F4FE8327C4FEB10765
:105450009C43032784FD1347F7FFBA860327C4FE46
:105460003107F58F1CC381473E85B25022544561F8
:105470008280797106D622D40018232EA4FC232C16
:10548000B4FC0325C4FDEFF07FA5AA872326F4FE14
:105490008327C4FEB1079843832784FD8326C4FE77
:1054A000B106B98F9CC281473E85B25022544561F6
:1054B0008280797106D622D40018232EA4FC232CD6
:1054C000B4FC232AC4FC0325C4FDEFF03FA1AA8746
:1054D0002326F4FE8327C4FE9387C70398438327BC
:1054E00084FD8326C4FE9386C603D98F9CC283277E
:1054F000C4FE938787039843832744FD8326C4FE15
:1055000093868603D98F9CC281473E85B250225430
:1055100045618280797106D622D40018232EA4FC1E
:10552000232CB4FC0325C4FDEFF05F9BAA87232640
:10553000F4FE8327C4FE938787039C43032784FDDF
:105540001347F7FFBA860327C4FE13078703F58FB7
:105550001CC381473E85B2502254456182807971D7
:1055600006D622D40018232EA4FC232CB4FC232A14
:10557000C4FC0325C4FDEFF07F96AA872326F4FE22
:10558000032744FD9D4763E9E71C832744FD1397E8
:105590002700B7170120938787F0BA979C4382872B
:1055A0008327C4FEE1079C43032784FD1347F7FFCD
:1055B000BA860327C4FE6107F58F1CC38327C4FE88
:1055C000938707029C43032784FD1347F7FFBA869E
:1055D0000327C4FE13070702F58F1CC38327C4FEED
:1055E000938787029C43032784FD1347F7FFBA86FE
:1055F0000327C4FE13078702F58F1CC38327C4FE4D
:10560000938707039C43032784FD1347F7FFBA865C
:105610000327C4FE13070703F58F1CC335AA83278E
:10562000C4FEE1079843832784FD8326C4FEE10678
:10563000D98F9CC215A28327C4FE93870702984383
:10564000832784FD8326C4FE93860602D98F9CC2DD
:1056500021A28327C4FEE1079843832784FD832684
:10566000C4FEE106D98F9CC28327C4FE938707023C
:105670009843832784FD8326C4FE93860602D98F30
:105680009CC2D9A88327C4FE9387870298438327A7
:1056900084FD8326C4FE93868602D98F9CC26DA8A2
:1056A0008327C4FE938707039843832784FD8326BB
:1056B000C4FE93860603D98F9CC279A88327C4FEB3
:1056C000938787029843832784FD8326C4FE9386AD
:1056D0008602D98F9CC28327C4FE93870703984311
:1056E000832784FD8326C4FE93860603D98F9CC23C
:1056F000A5A08327C4FEE1079843832784FD832662
:10570000C4FEE106D98F9CC28327C4FE938707029B
:105710009843832784FD8326C4FE93860602D98F8F
:105720009CC28327C4FE938787029843832784FD06
:105730008326C4FE93868602D98F9CC28327C4FE2B
:10574000938707039843832784FD8326C4FE9386AB
:105750000603D98F9CC2010081473E85B250225476
:1057600045618280797106D622D40018232EA4FCCC
:10577000232CB4FC232AC4FC0325C4FDEFF00FF650
:10578000AA872326F4FE032744FD9D4763EAE71416
:10579000832744FD13972700B7170120938787F2CB
:1057A000BA979C4382878327C4FEF10798438327D7
:1057B00084FD8326C4FEF106D98F9CC215A28327DF
:1057C000C4FE938747029843832784FD8326C4FE43
:1057D00093864602D98F9CC221A28327C4FEF1077B
:1057E0009843832784FD8326C4FEF106D98F9CC28B
:1057F0008327C4FE938747029843832784FD83262B
:10580000C4FE93864602D98F9CC2D9A88327C4FEC2
:105810009387C7029843832784FD8326C4FE93861B
:10582000C602D98F9CC26DA88327C4FE9387470305
:105830009843832784FD8326C4FE93864603D98F2D
:105840009CC279A88327C4FE9387C7029843832705
:1058500084FD8326C4FE9386C602D98F9CC283270B
:10586000C4FE938747039843832784FD8326C4FEA1
:1058700093864603D98F9CC2A5A08327C4FEF10757
:105880009843832784FD8326C4FEF106D98F9CC2EA
:105890008327C4FE938747029843832784FD83268A
:1058A000C4FE93864602D98F9CC28327C4FE938789
:1058B000C7029843832784FD8326C4FE9386C602CD
:1058C000D98F9CC28327C4FE9387470398438327BD
:1058D00084FD8326C4FE93864603D98F9CC20100B3
:1058E00081473E85B250225445618280011106CE27
:1058F00022CC00102326A4FE0325C4FEEFF06FE0A7
:10590000AA873E85F240624405618280797106D69D
:1059100022D40018232EA4FC232CB4FC832584FD60
:105920000325C4FDEFF08FE02326A4FE8327C4FEE9
:105930003E85B250225445618280797106D622D4C8
:105940000018232EA4FC8327C4FD2326F4FE31A8CF
:105950008327C4FE98438327C4FEDC433E85029719
:105960008327C4FE9C472326F4FE8327C4FEEDF361
:1059700001000100B250225445618280011106CE1F
:1059800022CC00102326A4FE8327C4FE9C439C4304
:105990000325C4FE8297AA873E85F24062440561D2
:1059A0008280797106D622D40018232EA4FC232CE1
:1059B000B4FC8327C4FDDC433E8541378327C4FD07
:1059C0009C43DC43832584FD0325C4FD8297232665
:1059D000A4FE8327C4FD9C473E8585378327C4FEEC
:1059E0003E85B250225445618280011106CE22CC00
:1059F00000102326A4FE8327C4FE9C439C4303255A
:105A0000C4FE82972A87AE873A85BE85F2406244FB
:105A100005618280011106CE22CC00102326A4FE4F
:105A20008327C4FE9C43DC430325C4FE82972A8758
:105A3000AE873A85BE85F2406244056182800111DD
:105A400006CE22CC00102326A4FE8327C4FE9C434E
:105A5000DC570325C4FE8297AA873E85F240624444
:105A600005618280011122CE00102326A4FE832727
:105A7000C4FE99EBB71700800327C4FE0A0793877B
:105A800007A6BA979C4311A081473E8572440561E1
:105A90008280011122CE0010F32740F12326F4FE6C
:105AA0008327C4FE3E85724405618280011106CEC3
:105AB00022CC00102326A4FE2324B4FE8327C4FE98
:105AC00099E3854739A88327C4FE9C4394438327E1
:105AD00084FE0547B317F700BE850325C4FE8296F2
:105AE000AA873E85F240624405618280011106CE9C
:105AF00022CC00102326A4FE2324B4FE8327C4FE58
:105B000099E3854739A88327C4FE9C43D44B832758
:105B100084FE0547B317F700BE850325C4FE8296B1
