S01300004C454420666C61736865722E7372656337
S214000000180F0020112300000D2300000D23000010
S21400001000000000000000000000000000000000DB
S2140000200000000000000000000000000D2300009B
S21400003000000000000000000D2300000D2300005B
S2140000400D2300000D2300000D2300000D230000EB
S2140000500D2300000D2300000D2300000D230000DB
S2140000600D2300000D2300000D2300000D230000CB
S2140000700D2300000D2300000D2300000D230000BB
S2140000800D2300000D2300000D2300000D230000AB
S2140000900D2300000D2300000D2300000D2300009B
S2140000A00D2300000D2300000D2300000D2300008B
S2140000B00D2300000D2300000D2300000D2300007B
S2140000C00D2300000D2300000D2300000D2300006B
S2140000D00D2300000D2300000D2300000D2300005B
S2140000E00D2300000D2300000D2300000D2300004B
S2140000F00D23000010B540F26404C2F20004237819
S21400010063B940F20003C0F200032BB144F22000B2
S214000110C0F2800000E000BF0123237010BDC0467F
S21400012040F20003C0F2000310B54BB140F2680184
S21400013044F22000C2F20001C0F2800000E000BFDE
S21400014044F22000C0F28000036803B910BD40F2FC
S2140001500003C0F20003002BF8D09847F6E7C0462D
S21400016042F29D3310B5C0F20003984743F20023D5
S2140001700022C4F20003DA664EF2001340F2802139
S214000180CEF200035A5004315A5010BD70B54042AA
S214000190002543B14E5D545D7440044074404C5598
S2140001A00135AB42F6D170BD10B54C1E69B113785F
S2140001B051781B0609040B43D1780B43917804321F
S2140001C009020B4308C0013CF1D210BD10B5541E05
S2140001D052B108C91A0E02701A0C42701A0A8270BE
S2140001E0C3700430013CF4D210BDC046F0B5C6461C
S2140001F0068800B51F363611012E19D05342984690
S2140002000224002547F6FF7C76006246075B0B5B00
S214000210DB195B19DD0B134042467B4013407B40E5
S21400022003530234A642F0D1280004BC9046F0BD29
S2140002300025F9E7F0B54D1E002953D02A4B0026BD
S2140002409C4600240127614449004018634223432A
S2140002500288DB0F013B62401A40544032006A407D
S21400026013405E400238013DF0D2FF202100021B01
S2140002705140604008405040C00F210A4342614050
S214000280194061400F220B00551A6B404A4013403C
S2140002906B40DB0F9C4662460B094B4052421340B4
S2140002A04B4003221D00D11A4D405A4015404D4088
S2140002B0ED0F990859406A420A405A4063421C436F
S2140002C06346B91AE40F3601A6195740C0004A40E3
S2140002D0301817409E0080196D0079404019C90FEC
S2140002E04018F0BD0020FCE7FFFFFF7FF0B5574643
S2140002F0DE464E464546E0B589B004931B8802901C
S2140003000F331B11039194469A465F00974200D222
S214000310170040F200080437464640F2000947F648
S214000320FF7B5446B846434693B36346581E039B2A
S21400033000229A465044A246444600210125002346
S214000340B04601949C453DD906783400944021433C
S214000350140008340E2C33DD5C460C400821073AA6
S214000360891ACE4031004E46AA452ED3002E39D0EB
S21400037046466F0034403E00029FF4530135019C10
S214000380013301389C42DDD1230046465446984648
S214000390012240F2010A7308D14496431E434B469D
S2140003A0022BC0D1049B029A1B88300013800123C5
S2140003B0184009B03CBC90469946A246AB46F0BDF4
S2140003C02200DCE700240026C1E7002ED6D14646F0
S2140003D001276442E40F7E40013C3440012666401B
S2140003E0B046CBE7049F6E00F65B371B06972700E8
S2140003F077400597A71B07977E40059F3E40079FBF
S2140004007E40F6170796069E059F74403C4047467A
S2140004107440079EE40F264374423443E40F013CC5
S21400042077403C407440A046A8E7C046F8B547F67B
S214000430FF7C0600002400200125013A10D38B5CC7
S21400044083401C43030008330E2B06DD67466B0013
S21400045027409F53E40BC31F01351800013AEED224
S21400046010B16B009C53013540F23523691EB01C59
S214000470C0F2000398473080F8BDC046F8B516882D
S2140004800F363611A6B14C1E89B100230021012576
S214000490072B07DCAE4204D36F00BF5A01359F40DE
S2140004A0C9190F330155083B090A013CF0D2F8BDC3
S2140004B042F609730A00C0F2000300219847F6E7E7
S2140004C0F0B557464546DE464E46E0B592460A88A3
S2140004D083B00F32131105000F0001934BB35B007E
S2140004E0994640F2000847F6FF7C8144564662462D
S2140004F06B887C885E4316407443E418E40B012046
S2140005000CE06246013041006B5A1C197B5A691890
S2140005107343E318DC0B023913400B80019B8342C4
S214000520EFD84B4640F2010B1C80019BD844434554
S214000530DCD141F261043900C0F200040022280038
S214000540A0470122390042402800A04703B03CBC27
S21400055090469946A246AB46F0BDC046F0B5454625
S2140005605746DE464E469846E0B59DB026AB1192FD
S2140005701A8843460700012003931B8819911F33EE
S2140005801B11591C8143480005000492289A1590B7
S21400059017910020AC46954200D95DE15800040052
S2140005A0059027984B01060066448C4663449A42A1
S2140005B000D358E10B0163449A4200D37FE1CB009D
S2140005C06344934200D87FE18B0063449A4200D391
S2140005D07FE141F2A90341463800C0F20003984784
S2140005E042F6D3632200C0F20003390030001293B3
S2140005F0984702231093013B0C9342F60973039C21
S214000600C0F20003228800213A800F3212115200F5
S214000610B81C1B9398470122238800210F331B1117
S2140006205B00DA5340F6A1232200C0F20003380034
S2140006309847159A2799130002339C461A9313007D
S214000640279A614494460D0006331799634408932D
S2140006500B00013B1A000E930B00033B5B080133B3
S21400066002935B000D930133189300230B930F93B3
S214000670109BE246013B1693062393429B415B4246
S21400068009930B9B002B00DCADE00C981A0083420C
S21400069000DACAE01B1A0B930F98D840169B03404B
S2140006A00693109B07930C9B9846129B40F6DD0B17
S2140006B0A94600245546B24646469846C0F2000B68
S2140006C0049B3A0000933900039B2800D847013466
S2140006D0059A29003800C047B442F1D10C9B564613
S2140006E0AA464D46012B67D0039BB01C1A880021F2
S2140006F032800F3212111B9B52009847179B012B1A
S2140007005AD91A9B52469C462792189B159AB4446F
S2140007105B001397674694465A4640F2010940F23A
S21400072000089A4614924B46069A40465340424664
S214000730594219433B1D9D42524193464246089BEF
S214000740C90F9F4242415B461343099A0139BC1EBA
S21400075089B21A425BD03B0003222B431A4256D181
S2140007600B040B438B460022002019000A96931CAC
S214000770E358AE580B403343AB50029B0130043273
S2140007809842F4D30D9B0E9A0A9E5946934207D080
S21400079052465346A25AF31811401A88114319803C
S2140007A040F2010B079BD94467449945BBD1279B70
S2140007B0139F9A46149B9B4640F28D14049B32006E
S2140007C000933900039B5046D847069B5246584232
S2140007D01843C00F059B3900C0F20004A0470B9BCE
S2140007E0002B00DD51E7119B6BB319990F9B0A781C
S2140007F01B021A43119B0F92013B11930B9B0C9A01
S21400080008339B1A0B934B1C19930B9B44E76246C9
S2140008100220AC46235A355A0B402B433352023043
S2140008208242F7D165469446BAE7119B002BDCD18D
S21400083001339340581E07930F9B90460340069340
S21400084000230B9331E740F2C1433800049A039922
S214000850C0F20003984701201DB03CBC9046994664
S214000860A246AB46F0BD05230C931B33109341F212
S214000870A90303993800C0F200039847159B40F27D
S2140008800209F41842F6D3633900C0F20003059A51
S214000890200040F6DD0812934D4698472100C0F22E
S2140008A00008159B3A00CC18049B20000093039B7D
S2140008B0C047109B013521009D42F2D19DE60423DE
S2140008C00C930C331093D2E703230C930533109349
S2140008D0CDE702230C9302331093C8E7F0B55746D2
S2140008E04E464546DE469946E0B58BB014AB1B88AF
S2140008F0924607934B461B880E001A000F321111C2
S2140009000C0003220380944342F60973A0460C00B1
S2140009104F0005000490089102303A000021C0F212
S21400092000039847002C00D1B8E0AC46BC446346B0
S214000930B446BC44069363460593BB1C9C46002302
S214000940039363460296D44647F6FF760993029BC6
S2140009505F8863465D88049A7D435388ED18079B3D
S21400096035405D4343463540002B00D193E04B466F
S2140009709C1C63460021981C002301919A46210086
S2140009800400100023880A887B439B466A434388FA
S2140009905A449B465A445244D30B324002809A46ED
S2140009A063884A887B439B466A4383885A449B46AF
S2140009B05A445244D30B324042809A46A3888A88CF
S2140009C07B439B466A43C3885A449B465A445244D8
S2140009D0D30B324082809A46E388CA887B439B4684
S2140009E06A4303895A449B465A445244D30B9A4658
S2140009F0019B32400433C28008310830083401932A
S214000A009845BFD8089A190053468A4217D9049ABF
S214000A1049005418099A023193464A46525A608849
S214000A206A4312186046405A02317843824652445E
S214000A30D218D30B3240228002345945EDD1039AA6
S214000A4006999246320053441A40DB0B0393029BEE
S214000A500A80059A023302939A4200D078E7039BF5
S214000A605C42E40F4B4641F26106049D1B884946F2
S214000A702B80C0F2000600222800B0470122424028
S214000A80224349462800B0470BB03CBC90469946E6
S214000A90A246AB46F0BD00210023B9E70024E1E7FB
S214000AA0F0B54E46DE4657464546E0B5168885B054
S214000AB00400894613000192002E00D1D3E00F2EC9
S214000AC000D9D7E00A0046885F88F6033B04324325
S214000AD019001500D61A71405D400D407540ED0FA7
S214000AE0013D1D40561B5D08721B11002800694021
S214000AF0704008405040C00F01380540751B9808EC
S214000B002A1A160001004640694031405140C90F7C
S214000B1001390840281AD908451A2E000A004E4006
S214000B20424032406A40D20F013A1140411A1A0937
S214000B30881A0500160055404E402E404640F60FD7
S214000B40013E32408A1A5E09911B0800350070404B
S214000B50554005404D40ED0F013D2E40961B9D092A
S214000B60721B110028006940704008405040C00FBA
S214000B7001380540751BD8092A1A160001004640A0
S214000B80694031405140C90F01390840281A190AF6
S214000B90451A2E000A004E40424032406A40D20FAC
S214000BA0013A1140411A5A0A881A050016005540A3
S214000BB04E402E404640F60F013E32408A1A9E0AAC
S214000BC0911B080035007040554005404D40ED0F24
S214000BD0013D2E40961BDD0A721B1100280069405D
S214000BE0704008405040C00F01380540751B180B78
S214000BF02A1A160001004640694031405140C90F8C
S214000C0001390840590B0E000A00281A451A6E4092
S214000C10424032406A40D20F013A1140411A980BC6
S214000C200E0002000D1A46406A4032406A40D20F5B
S214000C30013A02408A1ADB0B15001900D01A5D40F3
S214000C40414029404140C90F01390B40D31AD91BF6
S214000C501A0008007A40784002404A40D20F013A13
S214000C601740DB1B638005B03CBC90469946A24605
S214000C70AB46F0BD37000F373B09984642460F2378
S214000C805700C219934612881E4015000292002E85
S214000C9000D1BCE19B1B1D00BB1E9A4682445146F8
S214000CA00393029A0B88AA4033411343009342F6FB
S214000CB0E563811C039AC0F2000304309847494656
S214000CC0618059460B8851460988AB4031410B4339
S214000CD047F6FF71009A0B40D10301981943039B16
S214000CE0C25BC35AAA4033411A43924653461B047A
S214000CF09C4662466046CB1A01274A405840104040
S214000D0058406346C00F784042421A408E1A31005F
S214000D105B0859408B4619005D46F21A514029403F
S214000D204A40D20F7A40D10352421A40B21A634662
S214000D300004084311009E0871408B4631005D4652
S214000D40931B594029405940C90F79408B031843DB
S214000D504B423340D31A6246D6081A007240934676
S214000D6032005D46991B4A402A405140C90F7940DF
S214000D704A0349420E409E1B6346190933004B4006
S214000D809B460B005D461043721A53402B405A4058
S214000D90D20F7A401303034350420840301A62468B
S214000DA0060052095640B34616005D46811A4E406C
S214000DB02E407140C90F7940CE0249421140411A77
S214000DC01E43634608009B095840834618005D464C
S214000DD0CA1A504028404240D20F7A4090025242EF
S214000DE01A408A1A634611003043DE0971408B466A
S214000DF031005D46931B594029404B40DB0F7B403A
S214000E0059025B423340D31A62460143100A1A0065
S214000E104240934602005D461E1A72402A405640E3
S214000E20F60F7E403202764206409E1B63460A4319
S214000E30590A33004B409B460B005D46701A4340F0
S214000E402B405840C00F7840C30140420840301A3B
S214000E50134362460600920A5640B34616005D46A5
S214000E60811A4E402E407140C90F79408E0149428A
S214000E701140411A1E4363460800DB0A5840834669
S214000E8018005D46CA1A504028404240D20F7A40A9
S214000E90500152421A408A1A634611001B0B5940F1
S214000EA08B4619005D463043D61A714029404E40A5
S214000EB0F60F7E40310176423340D31A624608432D
S214000EC0510B1A004A4093460A005D465E1A72406D
S214000ED02A405640F60F7E40F200764231405B1ABA
S214000EE0104362461900920B51408B4611005D4636
S214000EF09E1A714029404E40F60F7E40B100764261
S214000F0032409B1A6246D60B1A0072409446320054
S214000F1065460843991B4A402A404A40D20F7A4009
S214000F2051005242324001434FF6FF76981A53461C
S214000F301E40831B704084465546009A30006A4027
S214000F406546584028405840C00F7840084301384E
S214000F50C30F181853421A4347F6FF73D20F434085
S214000F60013A1A4043460093019B42400226012064
S214000F70002147F6FF7993469C4663469D5B5B4699
S214000F806B435918A35BCA0B98464B461940434619
S214000F905B1AD90F89184A4613402A00ED1A5A40A0
S214000FA0A3536B4013405242D20F90460122524246
S214000FB09246D04442466B40DB0F584010405840A3
S214000FC0009B01370236BB42D7D2029F0A003B0085
S214000FD07E1A4B4072401A4072403E00C91B4E407B
S214000FE01E4040F2ED134E40F60FD20F6146064308
S214000FF0C0F20003200065469643984741F261031D
S214001000320029002000C0F2000398472BE642F683
S214001010E563811CC0F20003BA1E043098474B46B5
S21400102063805B461988019BE803DB5B41189A46A0
S21400103000955BE610B502240200211A4A43A21A64
S21400104051430B004343E31A4B431A004243121B1F
S2140010505343C007C017184047F6FF73184010BD2B
S214001060F0B5C646078800B51F373F11012F19D0C7
S214001070534298460225002647F6FF7C7F006446CA
S214001080425B4B5BD31A9B1BDE0F23404446534008
S2140010902340534043530235AF42F0D1300004BCE6
S2140010A09046F0BD0026F9E7F8B50C8807000F3427
S2140010B024110E0054B140F6A125C0F200053200FE
S2140010C000213800013CA847002CF8D1F8BDC046E6
S2140010D0F0B54546DE4657464E46E0B5C7B00193E6
S2140010E0536805005B045B0E884692469B460029C3
S2140010F047D05B465A465E1E012340F200099B1A03
S21400110002AF0093009B12A8F418534612939B68F4
S21400111098475346509A019912A8DB6898474B4661
S21400112002AA1B0E13704B461B0C53704B461B0A31
S214001130937013004A461900DA705346042212A828
S214001140DB689847534602A91B6912A898475B4676
S2140011506BB14146A04503D809E00134A14205D948
S2140011602B5D3A5D53402B55A642F6D188465B462A
S21400117040F2010CFF1A009B5E44F318E14443451D
S214001180C0D347B03CBC90469946A246AB46F0BD9D
S21400119010B586B00C9C04940B9C03940A9C029495
S2140011A0099C0194089C009441F2D524C0F20004E6
S2140011B0A047040048B141F2D1130100089A0998EB
S2140011C0C0F20003984740420440200006B010BD1D
S2140011D0F0B54E464546DE465746E0B53C4C5368AD
S2140011E0A5440D0006001400116823B963E0013B16
S2140011F00131002B5FD00A78002AF8D040F2FF10A9
S2140012005A1E40F20008824257D89D4255D1EB0044
S214001210012200E002000F3B501C002BFADC40F2DB
S2140012200108434602329A431700530016226A44C6
S2140012309146994416236B44180040F22D432A0029
S214001240C0F20003984705AB988841F23503C0F218
S2140012500003984743460340984640F2ED2B16237A
S21400126082466B442A0031004846C0F2000BD8473D
S214001270434640F2504C034098467B005B42634432
S214001280E268A168029316236B449C4640F25D54C4
S2140012905346BF0067440093019763464846C0F232
S2140012A00004A04740F27D434A4629003000C0F2C1
S2140012B00003984701E040F20008404640F6BC03B1
S2140012C09D443CBC90469946A246AB46F0BDC046FF
S2140012D044F7FFFFF0B54E4657464546DE46E0B5B6
S2140012E0BBB09A46449B80465C680E0091465CB153
S2140012F01868631EC25C82B92BB15A1E815C59B94C
S2140013001300002BF9D1002420003BB03CBC9046D3
S2140013109946A246AB46F0BD1C0073685D046D0E90
S2140013206F00BB1CA342EED802225242D31B489A3F
S2140013309B461B199342E6D3469BA342E3D3A31ACC
S2140013409C4645990393614442F6E5630800489A33
S2140013504799C0F200030590984745986B1C844651
S214001360190006A86144B368069604919847524649
S214001370494606A8F3689847049B06A89A461900AB
S21400138033699847459B039A9C4642F60973781C36
S21400139060445A440021C0F2000398470122059891
S2140013A041F2D107431E1A70459B404601339946C9
S2140013B043461B682A009B6849469847EB43984675
S2140013C0A0444B46320041465046C0F20007009506
S2140013D0B847424653460092290032004846B8476E
S2140013E00023459A13708FE770B51D0040F2A913CD
S2140013F00600140050300A00C0F20003052198478A
S214001400B464F56470BDC04643F6501142F6D3632B
S214001410C0F2000110B5142204000160C0F20003FF
S2140014201C315030984700220023A264E36410BDAC
S21400143010B5040040F2CD130800210005225031FB
S214001440C0F200039847A06CE16C10BDF0B5DE4614
S21400145057464E464546E0B50B68D5B000934B68F8
S214001460020001938B680D009946CB6804A8984645
S2140014700B691021029340F2A913C0F200039847AB
S214001480129B10279A461199059C139B03951F22C1
S2140014900D00BB46210054469A46049E06A85746B1
S2140014A0836975405D4003684C405D40C369816850
S2140014B05C40036A40F2030C4B407B40076846687A
S2140014C07B40D3417440E3440364D541D4419A46FB
S2140014D05B468563C4630C304F2BE0D11F21039D10
S2140014E043AA44A8546B136A634094686340146824
S2140014F004326340CB41D3639042F3D147F699124E
S214001500C5F682229446049B009E63441900029B03
S2140015101B229C463300D3416144CB1840464946C3
S21400152047F69917444641400198C5F68227BC46BF
S21400153001406140C9180223059CD84164444444D4
S214001540A4464C464F4644403440DE417C4064440A
S21400155027000C00B44647F69916D441C5F68226F5
S214001560B046E719069C44444C4426006446444072
S2140015700C40444036193C00D441A619079CD9417A
S214001580A146C144C8468044604664464840384048
S2140015906040404404003000D0418246A24447F6F2
S2140015A09914DF41C5F68224A0463C0008984C40BA
S2140015B034404C4040446044A4465446D441DE4146
S2140015C06044A44684443000544678402040099C39
S2140015D07840A04647F69914C5F68224A146C8442A
S2140015E0414441186046D04141180A985446814605
S2140015F047F69910C5F682208046DC41C144C846AD
S2140016002000B844674670403840704040440700A9
S2140016100800D0418046B8440B9F6046B94647F65E
S2140016209917C5F68227BC46E144D8414F46BE19F5
S214001630070067400F406740F6194746D741D94133
S214001640BE190C9F8A463900574661440C1941461C
S21400165047400F404740E4193700D741BC460D9934
S214001660A4440C0047F699114746C5F682218846E1
S214001670DF414444514620183C004C4034404C4026
S21400168000196446DE41D4412018340061467C408F
S2140016900C400E997C40884647F69911C5F6822183
S2140016A089465146C844414461180400D441A046C6
S2140016B088440F996446894647F69911C5F68221F3
S2140016C08C46E144DC414946CF1921007140014077
S2140016D071407F184146D141CF191099D8418946AB
S2140016E0E144CC460100B444464661403140614086
S2140016F061440E003900D1418C46B444119E4146E7
S214001700B14647F69916C5F68226B046C144D94179
S2140017104E4634190E0046403E404640A4196646E2
S214001720D641B246129EA244DF4134003E004444F5
S214001730201864464E4026404E4080195646D641F4
S214001740B0466646DE41804430005446784020402D
S214001750139C7840A44647F69914C5F68224A14601
S214001760CC44614441184046D04141185046D841C7
S21400177082461498040050464C44E719444670408C
S214001780204070403F180800D04184464046BC4484
S214001790D8415746544647400F406740159CD941AC
S2140017A0A046C8444644BE196746D741BE1907003E
S2140017B064464F402740169C4740A0465446C844BF
S2140017C044443C193700D741B846A044179C6746A6
S2140017D0A14647F69914C5F68224A446E1444C4631
S2140017E0DF4120180C007C4034404C400019444631
S2140017F0D4412018189CDE41A1464EF6A134C6F608
S214001800D964A446E144CC463C008C44414674402E
S2140018104C4021000400D4416144A4468C441999EC
S214001820444689464EF6A131C6F6D9618846C1447B
S2140018304946DC41CF193100614041407F1861467E
S214001840D141CF191A99D8418946C144C8460100EA
S214001850B04466466140714041440E003900D141B3
S2140018608846B0441B9E6146B1464EF6A136C6F683
S214001870D966B446E144D9414E4634190E00464076
S2140018807E40A4194646D64134191C9EDF41B14617
S214001890E144CC463E00844440464E40464030003C
S2140018A02600D6416044B44684441D984646814688
S2140018B04EF6A130C6F6D9608046C144DE414846A1
S2140018C0411830007840604009186046D041411801
S2140018D01E98DC418146C144C8462000B84467468D
S2140018E070407840404407000800D0418046B84425
S2140018F01F9F6046B9464EF6A137C6F6D967BC4666
S214001900E144D8414F46BE19070067404F40F619DC
S2140019104746D741BE19209FD941B946E144CC4637
S2140019200F00A4444446474067403C003700D74178
S2140019306444BC46A444219C4746A1464EF6A134C6
S214001940C6F6D964A046C144DF414C4620183C0088
S2140019504C40744000196446D441DE412018229C55
S214001960B246260054464644711866467C4074408B
S21400197009190400D4414EF6A136A0466446C6F6C0
S214001980D966B446DC4188442399564600916144A2
S214001990CF192100714041407F184146D141CF19EF
S2140019A08021D84104AE71588146614451440E00EE
S2140019B0010040466140414076183900D1418C46CE
S2140019C0B444842604A886594EF6A1304146C6F68D
S2140019D0D9608046D9414644484634190E004640F0
S2140019E07E40A4196646D64134198826DF4104A8ED
S2140019F08659BA46464430003E0067464E407E4012
S214001A00484480192600D641B04680448C2004AF56
S214001A1038584EF6A1376646C6F6D967BC46DE414C
S214001A2060445746411830007840604009184046E8
S214001A30D04141189020DC4104AF3858A14660449C
S214001A405044070020004446704060403F1808009D
S214001A50D0418446BC44942704ACE7594EF6A134E2
S214001A60C6F6D9644046A0464744D841BE194F46FC
S214001A7047404F40F6196746D741BE19982704AC31
S214001A80E759D94147443C0007008A464F40614623
S214001A904C444F40E4193700D741B846A0449C2434
S214001AA004A90C594EF6A131C6F6D96167468C4694
S214001AB06444DF41201854467C4074400019444674
S214001AC0D441DE41A3463C0083444146300040F208
S214001AD0A00C344338400C400443604604A909581F
S214001AE058468C464BF6DC41C8F61B718946514673
S214001AF0CC44614461185C46D441A44644468C44B8
S214001B00DC41310021430140200040F2A40830406F
S214001B1001438A46414604A84158584688466146CD
S214001B20D141C844D841474457448A460100BA4484
S214001B30674621433940270040F2A808074039434A
S214001B408B46414604AF7958574688465146D141A0
S214001B50C844464488466146D9415E44B0440E00B7
S214001B6006433E40070040F2AC0C0F403E43B346EF
S214001B70664604AFBE595746B4464646D641CC44A0
S214001B80DF4164445C44B3463E00A34444460E43EF
S214001B9026400C0040F2B00C3C402643B246664657
S214001BA004ACA4595E46A446D641CC446044B44630
S214001BB04646DE415044844430005C46384320406C
S214001BC03C0040F2B408344020438246404604AC11
S214001BD020585C4680466046D041C844DC414144BB
S214001BE05144824620008A44614630430840310012
S214001BF040F2B808214008438346404604A90958E5
S214001C0050468846D041C844474480466046D8413E
S214001C105F44B8440700514627430F40210040F276
S214001C20BC0C01400F43BB46674604A9C95947464A
S214001C308C465146D741CC44D94166445E44BB46A7
S214001C400F00B344464607433740060040F2C00C38
S214001C500E403743BA46674604AEF6595F46B4466A
S214001C60D741CC446444BC464746DF415444A44470
S214001C703C005E460C4334400E0040F2C4083E4032
S214001C803443A246444604AE34595E46A0466446F3
S214001C90D441C844DE4140445044A2463400824405
S214001CA060463C430440380040F2C80830400443D5
S214001CB0A346444604A8005954468046D441C84426
S214001CC04144A0466446DC415944884421005046BD
S214001CD031430140300040F2CC0C204001438B469B
S214001CE0614604A8415850468C464146D141CC44F2
S214001CF0D84167445F448B460100BB4447462143B6
S214001D003940270040F2D00C074039438A466146E6
S214001D1004AF79585F468C465946D141CC44664458
S214001D208C464146D9415644B4440E0006433E40D4
S214001D30070040F2D4080F403E43B246464604AF82
S214001D40BE595F46B0466646D641C844DF41444465
S214001D505444B2463E00A24464460E4326400C005D
S214001D6040F2D8083C402643B346464604ACA45945
S214001D705646A046D641C8444044B0466646DE4174
S214001D805844804430005446384320403C0040F2DB
S214001D90DC0C344020438346604604AC205854464E
S214001DA084464046D041CC44DC4161445944834695
S214001DB020008B44414630430840310040F2E00C9E
S214001DC0214008438246604604A9095858468C4676
S214001DD0D041CC446744844640465744BC44D8412E
S214001DE02700594640F2E40807430F4001008246A8
S214001DF0404621400F4304A9095860468846C84417
S214001E004644BE1967465946D741D941B846574653
S214001E100F43B04407400E00504606403743E826BE
S214001E2004A8865940464E4434193F194446D441C6
S214001E30A3466446DC410E00BB44270040F2EC0C8F
S214001E4026430F4006403E43674604A8C05904AFE9
S214001E5084465046CC44604430185E46D641B4466C
S214001E608444F02038584CF2D617CCF66227464603
S214001E70B8464044DE41411820005F467040784036
S214001E8009186046D04180468844F42104A840588A
S214001E904CF2D611CCF662218946DF414844310027
S214001EA0041960467940414064184146D1410C19F6
S214001EB06146D941F8208A4604A908584146484454
S214001EC0861950467840484036182000D04184464F
S214001ED04046B444FC26D84104A98E5951464E4487
S214001EE0F71906004E406640BF196646D641F719F8
S214001EF040F20016C846DC4104A98E59A146464465
S214001F0031002600644646406640514489193E002A
S214001F10D641B046884440F2041104AC61584CF2F5
S214001F20D6146646CCF66224A446DE4161444C468E
S214001F30081831006140794040184146D1410818E0
S214001F4040F20811DF4104AC6158BA466144494486
S214001F500C00390047467140794064180100D141B1
S214001F608C46A44440F20C1404AF3C594CF2D617ED
S214001F704146CCF66227B846D94144445746A6198E
S214001F800C007C40444036196446D441A61940F201
S214001F901014D84104AF3C598146444454442700A9
S214001FA0040060464C4044403F193400D441A046EB
S214001FB0B84440F2141704A8C7594CF2D610644629
S214001FC0CCF662208446DC416744484679182700F0
S214001FD047407740C9194746D741791840F2181745
S214001FE0DE4104A8C759B246674438003700464663
S214001FF0674077404844C0190F00D741BC46844428
S21400200040F21C1004AE30584CF2D6164746CCF6BA
S2140020106226B046DF4140445646041938007040F8
S214002020484024186046D041041940F22010D94197
S21400203004AE3058894640445044060008006146C5
S2140020407840484036182000D0418046B04440F2E0
S214002050241604A98E594CF2D6116046CCF662219D
S2140020608C46D84166444946F71906004E406640FD
S214002070BF194646D641F71940F22816DC4104A996
S2140020808E59A246664431002600444646406640C5
S214002090494489193E00D641B4468C4440F22C117E
S2140020A004AC61584CF2D6144646CCF66224A046E0
S2140020B0DE414144544608183100614079404018DA
S2140020C06146D141894640F23011DF4104AC615887
S2140020D08144414451440C003900604671404140FF
S2140020E064184946D1410C196146D9418C4640F2E4
S2140020F0341104A84158484641448E196146794037
S214002100414076182100D1418A4640F23811B24447
S21400211004AE7158D8414144CF19614641406140F0
S2140021207F185146D141CF1940F23C1104AE715888
S2140021302E68DC41B0464CF2D616CCF662264144F8
S214002140B0464144614406008846514666404E40CB
S214002150B4463E004146D64161448A192A60564636
S2140021606A68DE419446AB6867449C46EB68664402
S2140021709C462B6964449C4660446F60AE60EC608D
S214002180286155B03CBC90469946A246AB46F0BD89
S214002190F0B545464E46DE465746E0B53F25836CCD
S2140021A085B0804616001D407AB3042343449A4601
S2140021B050234344029341F24D4342F6D3690F0045
S2140021C040F2400BC0F20003C0F2000903935B46E6
S2140021D05C1BB44200D9340053463900581922001B
S2140021E0C84700230193434600949A6CDB6C009822
S2140021F0019912184B4141462D193F19361B8A6426
S214002200CB64402D08D0002EE1D105B03CBC9046F2
S2140022109946A246AB46F0BD02995046039B9847A6
S2140022200025002ED3D1F0E7F0B5D6464F464646F9
S2140022303F2342F6D36AC0B50700856C96B02B40A4
S21400224006AC1A00C66CC0F2000A8946011D2000C2
S2140022509846D04739001422503101A8D04743464B
S2140022604246581C8023A354382837D8382242F6D2
S2140022700973121A00212018C0F2000341F24D48DB
S2140022809847C0F200086A0FF600164338223C232F
S214002290310EA154310C0132A154310A0132ED0045
S2140022A0A1540132A6542A0EE2542A0C0133E254F9
S2140022B02A0A0133E2540133E55401A92000C0473D
S2140022C040F2CD13052201A94846C0F20003984704
S2140022D016B01CBC90469946A246F0BD402242F677
S2140022E0097541F24D48121AC0F200050021201867
S2140022F0A847C0F2000801A92000C04738220021E4
S2140023002000A847BD6CFE6CBDE7C046FEE7C04691
S21400231043F6AC7140F20000C0F20001C2F20000C9
S21400232010B581420FD040F26403C2F20003984217
S21400233009D2C243D21842F6D36392080132920001
S214002340C0F20003984740F2640040F61813C2F249
S2140023500000C2F2000398420AD2C243D21842F6E4
S21400236009739208013292000021C0F200039847D8
S21400237040F200037F22C0F2000393434EF6005261
S214002380CEF20002936042F69D53C0F200039847D7
S21400239042F60913C0F200039847FEE7C0238022E6
S2140023A0DB0510B55A619A6043F20003C4F20002DE
S2140023B0C4F200039A62C0224721012012069A62E4
S2140023C05A5C82435A544EF2100042F2DD33CEF28B
S2140023D00000C0F20003984710BDC04640F28003DC
S2140023E0C2F2000310B5186042F24943C0F200037F
S2140023F0984710BD40F28403C2F200031A681AB16F
S214002400101818601000704740F61872C2F20002EA
S214002410F6E7C046012040427047C04642F200033D
S21400242000204B607047C046012070470020704770
S214002430010043F2E55343F6801010B5C0F20000E9
S214002440C0F200039847FEE74EF21003034ACEF2AE
S21400245000035A6005221A607047C046FFFFFF005F
S21400246040F2000310B543F6AC1042F68554C2F2B3
S21400247000031B68C0F20000DB6812220121C0F2D4
S2140024800004A04742F6A1130120C0F200039847BB
S21400249040F20003C2F200031B68020043F6C011BC
S2140024A0D86842F68D4310B5C0F20003C0F20001B2
S2140024B0984742F6A1130120C0F200039847000097
S2140024C070B5110005001C00802B10D843F69C1335
S2140024D0C0F2000308C042F6D3632200C0F2000335
S2140024E0984700228423EA500433EC5070BD18004D
S2140024F042F29143C0F200039847C04670B5882365
S214002500040084251600E358625908009B1AB3425B
S2140025100CD342F6D363211D8918C0F200033200A3
S214002520984763599C466644665170BD40F2000366
S21400253043F6E01042F68554C2F200031B682322DD
S214002540DB680121C0F20000C0F20004A04742F69A
S214002550A1130120C0F200039847C046F0B54746D5
S214002560CE4680B5B24C43F60421A54440F2C05492
S214002570002500270020422201266C440994C0F260
S21400258000011300303B0131092B07D9113B052B05
S21400259003D91300613B052B09D80A33002800D164
S2140025A0A8E13A01D31823700135013470400A7847
S2140025B0002AE6D109AF43F608317D6040F2000CF0
S2140025C000250020012607ACBC603132C0F20001B5
S2140025D01300303B0131092B07D9113B052B03D9DA
S2140025E01300613B052B0AD80A33002800D17EE190
S2140025F062461201D31823700135013470400A7800
S214002600002AE5D143F60C31FD60002600200125A6
S21400261030AC4532C0F200011300303B0131092BCB
S21400262007D9113B052B03D91300613B052B08D8AE
S2140026300A33002800D157E13201D31823706840CE
S21400264001340A78002AE7D143F6903100260020AC
S214002650012570AC4332C0F200011300303B01315B
S214002660092B07D9113B052B03D91300613B052B1A
S21400267008D80A33002800D133E13201D31823707A
S214002680684001340A78002AE7D143F61441002650
S21400269000200125B0AC3532C0F200011300303BFB
S2140026A00131092B07D9113B052B03D91300613BD8
S2140026B0052B08D80A33002800D10FE13201D318C1
S2140026C02370684001340A78002AE7D143F698411F
S2140026D0002600200125F0AC3432C0F200011300C1
S2140026E0303B0131092B07D9113B052B03D91300C9
S2140026F0613B052B08D80A33002800D1EBE03201F5
S214002700D3182370684001340A78002AE7D143F6CC
S2140027101C51002600200125FFACC4344232C0F212
S21400272000011300303B0131092B07D9113B052B63
S21400273003D91300613B052B08D80A33002800D1C3
S214002740C6E03201D3182370684001340A78002AA4
S214002750E7D140F2147843F6A051C2F200080026F2
S21400276040F2000C4446002001254432C0F200012D
S2140027701300303B0131092B07D9113B052B03D938
S2140027801300613B052B0AD80A33002800D19CE0D1
S21400279062461201D31823700136013468400A7865
S2140027A0002AE5D140F2946443F6C451002540F275
S2140027B00009002040F2010CC2F200044132C0F2CF
S2140027C000011300303B0131092B07D9113B052BC3
S2140027D003D91300613B052B0BD80A33002800D120
S2140027E06FE04A461201D318237001350134634660
S2140027F058400A78002AE4D140F2944043F6F0525A
S21400280040F200090021312440F2010CC2F200001F
S214002810C0F200022300303B0132092B0BD9113BDA
S214002820052B07D92300613B052B0DD802E0C046D7
S2140028303CF8FFFF0A33002945D04C462401E31834
S21400284003700130634659401478002CE2D1802D85
S21400285053D843F69C13C0F200030D9340F29461E4
S21400286042F6D3632A00C2F200010EA8C0F20003AB
S214002870984734216A4684235218D4506A46043353
S2140028805218D5504346039340F20043029340F259
S214002890940343F6501141F29114C2F200030193DF
S2140028A00496009700230022C0F200010DA8C0F293
S2140028B00004A04740F2C4739D440CBC9046994661
S2140028C0F0BD994693E79946BCE79C46684066E7A4
S2140028D01E0068403AE71E00684015E71E00684084
S2140028E0F1E61E006840CDE61E006840A9E69C465C
S2140028F0704084E61F00704059E642F2914328007B
S214002900C0F200039847C04640F2611310B5C0F20B
S214002910000382B098470023019341F6004340210C
S214002920B822C4F20003995041F200030220C4F218
S21400293000231A683E398A431A601A691042FCD18D
S2140029400C211A6841F200048A4304390A431A60CB
S2140029500122D97BC4F200241143D9731A680243BA
S2140029601A6023699B07FCD442F25D53C0F2000351
S21400297098471F2362791A409F3B1343637141F2C5
S21400298000030422C4F2002319690A42FCD15B69E1
S214002990019343F63C03019AC2F200031A60FEE775
S2140029A0074B10B5040013B1002100E000BF054B33
S2140029B01868836A03B198472000FFF739FDC046C0
S2140029C000000000543F0000F7B58A8905000C009F
S2140029D013075ED44B68002B04DC0B6C002B01DC69
S2140029E00020FEBDE76A002FFAD000232E682B6079
S2140029F041F200031A4092B3606DA3895B0705D5C8
S214002A006368C01A636B0BB1236CC01A0200216A9C
S214002A1000232800E76AB847A189431C06D12B6823
S214002A201D2B30D82B4ADA40D3072CD50023636001
S214002A3023692360CB0404D5431C01D12B6803B95A
S214002A406065616B2E600029CAD02300443399422A
S214002A5002D0280000F060FA00206063C1E701237E
S214002A60216A2800B847431CC7D12B68002BC4D066
S214002A701D2B01D0162B01D12E60B1E74023A28971
S214002A801343A381ADE740230B430120A3814042BB
S214002A90A7E70F69002FA3D00B680F60DB1B01931D
S214002AA00023920700D14B69A360019B002B00DC3A
S214002AB096E7019B3A00216A2800A66AB0470028DC
S214002AC003DC4023A2891343DFE7019B3F181B1A50
S214002AD00193EAE7010040200B6970B505000C0081
S214002AE00BB9002070BD18B183690BB900F060F80F
S214002AF00B4B9C4209D16C680C22A35E002BF0D0D5
S214002B0021002800FFF760FFECE7064B9C4201D14E
S214002B10AC68F1E7044B9C42EED1EC68ECE7C046AB
S214002B20143F0000343F0000F43E000010B5024998
S214002B3000F0BCF810BDC046D92A0000002310B52E
S214002B40040003604360836081814366C281036141
S214002B5043618361190008225C3000F0D5F9054B0B
S214002B6024626362044BA362044BE362044B236358
S214002B7010BDC046353600005D36000095360000B4
S214002B80C136000070B568254A1E55430E00290060
S214002B90743100F00BFA040040B100212A000160F5
S214002BA046600C30A060683200F0AEF9200070BDC0
S214002BB0836913B5040043BB8364C3640365134B86
S214002BC0134A1B6882620193984201D101238361F4
S214002BD0200000F01FF86060200000F01BF8A060E6
S214002BE0200000F017F80022E06004216068FFF77C
S214002BF0A5FF01220921A068FFF7A0FF02221221EB
S214002C00E068FFF79BFF0123A36113BD543F00005C
S214002C102D2B0000F8B51C4B07001E68B36913B9CE
S214002C203000FFF7C5FF4836B4687368013B03D52C
S214002C30336833B13668F7E70C22A55E6DB16834A9
S214002C40F4E704213800FFF79DFF30600028F1D13B
S214002C500C2304003B602000F8BD012320005B42EB
S214002C60E3810233A38165662560A5606560256102
S214002C706561A561082229005C3000F045F96563AE
S214002C80A563A564E564E6E7543F00000EB403B50B
S214002C90010003AB044804CB0068019300F00CFA73
S214002CA002B008BC03B0184700000020F7B50400C7
S214002CB007000026019148340CB93000FEBD636859
S214002CC0A5680093009B013B009301D52468F3E7B9
S214002CD0AB89012B08D90E22AB5E013304D0290044
S214002CE03800019B984706436835EBE7F7B5534332
S214002CF0060001911700089C009318B183690BB970
S214002D00FFF756FF1C4B9C421BD17468A3891B0718
S214002D1021D52369FBB10025009B9D4222D0019B53
S214002D20595DA368013BA360002B04DAA2699342B5
S214002D301BDB0A2919D023685A1C2260197001353A
S214002D40EAE70E4B9C4201D1B468DFE70C4B9C428D
S214002D50DCD1F468DAE72100300000F01BFD002526
S214002D600028D8D0B5FBF7F0FEBD2200300000F0FA
S214002D70ADFC431CE3D1F5E7143F0000343F0000F0
S214002D80F43E000007B5009313000A000100024855
S214002D900068FFF7ABFF0EBD0000002070B50025F1
S214002DA00E4B0F4CE41AA410A54209D1002501F0E1
S214002DB0EDF80C4C0C4BE41AA410A54207D170BDDC
S214002DC0064AAB009B181B6898470135ECE7064A95
S214002DD0AB009B181B6898470135EEE7983F00004C
S214002DE0983F00009C3F0000983F000070B50E0022
S214002DF01D000E23C95E90B01400002907DA0023D8
S214002E002B60B3891B0611D440F200430FE001AAE1
S214002E1000F042FD0028F2DB4FF20002029B134056
S214002E20054A9B185A4253412B60EDE74023002089
S214002E30236010B070BDC04600E0FFFFF7B5022665
S214002E408B8905000C00334206D0230047332360ED
S214002E50236101236361F7BD01AB6A46FFF7C6FF36
S214002E6000990700280000F0A1F840B90C22A35EE4
S214002E709A05F0D4032293431E43A681E5E70E4B42
S214002E80AB628023A28920601343A381009B20614C
S214002E906361019B63B10E23E15E280000F00EFD26
S214002EA030B10322A38993431A0001231343A3815D
S214002EB0A0893843A081CEE72D2B0000C9B2821826
S214002EC0904201D10020704703788B42FBD001303E
S214002ED0F6E7002310B59A4200D110BDCC5CC4546E
S214002EE00133F8E710B5884202D98B18984208D308
S214002EF000239A4207D0CC5CC4540133F9E78B5CBC
S214002F008354013AFBD210BD03008218934200D1CD
S214002F10704719700133F9E770B5050081B10C1FD1
S214002F202368002B00DAE418280000F0E9FC1E4AAB
S214002F30136811002BB963601460280000F0E1FCF0
S214002F4070BDA3420BD92268A018834203D118682B
S214002F505B688218226063600C60EEE713005A68B4
S214002F600AB1A242FAD919685818A0420BD12068B3
S214002F700918581819608242DFD110685268411843
S214002F8019605A60D9E7A04202D90C232B60D4E717
S214002F9021686018824203D1106852684118216087
S214002FA062605C60C9E7C04688000020032370B5F5
S214002FB0CD1C9D43083506000C2D1CD20C25A942BD
S214002FC01BD8300000F09CFC254A14682100C1B9CB
S214002FD0244C23681BB9300000F01CFB206029003D
S214002FE0300000F017FB431C2DD10C23300033605B
S214002FF000F087FC03E0002DE1DA0C2333600020AC
S21400300070BD0B685B1B1BD40B2B03D90B60CC1855
S214003010256003E08C420FD163681360300000F037
S21400302070FC200007220B30231D9043C31A002B90
S214003030E6D05A42E250E3E74B6863600C00EDE7E7
S2140030400C004968C3E70323C41C9C43A042DFD09E
S214003050211A300000F0DEFA431CD9D1C5E7C0467D
S214003060880000208C000020936810B5013B936018
S214003070002B05DA9469A34208DBCBB20A2B05D0F5
S2140030801368581C10601970C8B210BD00F01EFB03
S214003090FBE7F8B506000F001400D518AC4201D1C6
S2140030A0002007E021783A003000FFF7DDFF01340A
S2140030B0431CF3D1F8BD0000F0B59FB002900F009E
S2140030C01600059320B1836904930BB9FFF770FDD2
S2140030D07E4B9F425BD1029B5F68BB891B0762D514
S2140030E03B69002B5FD0002306AD6B6120336B7607
S2140030F01033AB7634002378002B5ED1A31B0493E9
S2140031006BB1A31B320039000298FFF7C2FF431CC5
S21400311000D1CBE06A69049B944663446B612378D4
S214003120002B00D1C2E00122002352426A6002A9AD
S2140031305432521801342B60EB60AB601370AB65F1
S214003140634E052221783000FFF7B8FE621C002887
S21400315037D12968CB0604D5532302AE20309B19FD
S21400316018700B0704D553232B2002AE9B1918703A
S21400317023782A2B2DD000210A200126099B2278AD
S214003180303A092A69D900292BD0099329E0514BF6
S2140031909F4202D1029B9F689FE74F4B9F429CD164
S2140031A0029BDF6899E73900029800F0F3FA0028DE
S2140031B099D0012040421FB0F0BD252B9ED001348F
S2140031C099E70123801B8340296814000B432B607A
S2140031D0B6E7059B181D1B680590002B37DB099387
S2140031E0140023782E2B0BD16378621C2A2B3CD13B
S2140031F0059B02341A1D1B680592002B32DB0793D1
S214003200364E217803223000FFF758FE30B14023B7
S214003210801B83402A68013413432B6021780622E2
S2140032202F48661C2976FFF749FE002844D02D4B10
S21400323083BB2968059B0722C90529D59B1893439C
S214003240083305936B69039A9B186B6152E75B42E0
S214003250EB6002230B432B60C2E7434301349B1809
S21400326031008CE701235B42C9E7002314000A20E3
S2140032701A0001266B6021783039092903D9002B02
S214003280BED00792BCE74243013452183300F2E73F
S2140032900733D4E705AB00933A00134B2900029896
S2140032A000E000BF0390039B0133CBD1BB895B06D4
S2140032B000D57EE70B987EE705AB00933A000A4BF5
S2140032C02900029800F07EF8ECE7C046143F0000A4
S2140032D0583F0000343F0000F43E00005E3F000010
S2140032E0623F00000000000093300000F7B51500B4
S2140032F001938A680B6900900C00934200DA130071
S21400330022002B60433212780AB101332B60236807
S2140033109B0602D52B6802332B60062723681F40C6
S2140033203FB3230043331B785A1E9341226892060C
S21400333030D42200019943320098089EB047431CBF
S21400334025D0062320682A68E16803400025042B60
S21400335003D18D1AEB43DB171D40A3682269934205
S21400336001DD9B1AED180027BD4220D1002010E099
S2140033700137E3682A689B1A9F42D2DA22000123AB
S214003380193201990098089EB047431CF0D10120DD
S2140033904042FEBD3020E1184331087021005A1C1F
S2140033A045310978A218433202331170C1E7220072
S2140033B001231A3201990098089EB047431CE6D0B4
S2140033C00137D1E7F0B50E0089B00593039004925B
S2140033D00A7E0C000E9B43366E2A00D18BE017D86F
S2140033E0632A2CD008D8002A00D195E0582A65D048
S2140033F0250042352A7029E0642A01D0692AF7D1CF
S21400340021681A68080623D5111D1960136825E07F
S214003410732A00D184E008D86F2A27D0702AE7D113
S214003420202209680A43226003E0752A1ED0782A03
S214003430DED12200782145321170684941E00D0046
S2140034401A684235111D196013682B70012374E049
S2140034504906D9D5111D19600023D35E002B02DA68
S2140034602D225B4232705E490A2215E020681968F8
S214003470050603D5081D18600B6805E04006F9D55B
S214003480081D18600B689BB255496F2A31D1673A00
S21400349020000025433005706068A060002872DBBD
S2140034A004252768AF432760002B6ED1350000281F
S2140034B077D025000B7842352B7072E045310A70C4
S2140034C047491A682068151D1D60136805060CD547
S2140034D0C20702D52022104320601022002BD7D12D
S2140034E02020256885432560D2E74506F0D59BB2A7
S2140034F0EEE70A22CCE709681A68080605D5111D0A
S2140035001960136862691A6006E04906F7D5111D4E
S21400351019601368A28A1A800023350023614EE0E2
S2140035201A68111D19601568002162682800FFF7E7
S214003530C5FC08B1401B60606368236100233370DC
S2140035403DE023692A0004990398059DA847431C7B
S2140035503FD0236800259B070FD4079BE06898425E
S21400356039DA180037E0220001231932049903984B
S214003570059EB047431C2CD00135E368079A9B1A7A
S2140035809D42F0DBE9E7002B93D03500B3FBF2F069
S21400359017004743DB1BCB5C013D2B700300002864
S2140035A0F4D1082A09D12368DB0706D563682269A7
S2140035B0934202DC3023013D2B70761B2661059B6F
S2140035C007AA00932100049B0398FFF78FFE431C75
S2140035D0B7D10120404209B0F0BDC0467A3F000096
S2140035E0693F00000FB40A4B13B51C6824B1A369E9
S2140035F013B92000FFF7DCFA05AB049AA168200097
S2140036000193FFF759FD16BC08BC04B01847C04626
S21400361000000020002370B5054C0500080023605C
S214003620FEF7E8FE431C02D1236803B12B6070BD91
S2140036301409002070B50C000E25495F00F062F9F1
S214003640002803DB636D1B18636570BDA389024AFF
S2140036501340A381F9E7C046FFEFFFFFF8B51F0050
S2140036608B8905000C001600DB0505D50E23C95E08
S2140036700022022300F032F9A389054A28001340ED
S214003680A38132000E23E15E3B0000F071F8F8BD26
S214003690FFEFFFFF70B50C000E25495F00F01EF926
S2140036A0A389421C03D1054A1340A38170BD41F291
S2140036B000021343A3816065F8E7C046FFEFFFFFF3
S2140036C010B50E23C95E00F0D7F810BDF8B505009A
S2140036D00E00140018B183690BB9FFF769FA214B85
S2140036E09C422AD16C68A369A360A3891B072ED5C8
S2140036F0236963B323682269F7B2981A6369F6B23E
S214003700984204DB21002800FFF7E6F928BBA368EF
S2140037100130013BA36023685A1C22601F70636956
S214003720984204D0A389DB0719D50A2E17D12100A9
S2140037302800FFF7D1F990B10FE00B4B9C4201D166
S214003740AC68D0E7094B9C42CDD1EC68CBE72100B2
S214003750280000F01FF80028CCD001267642300062
S214003760F8BDC046143F0000343F0000F43E0000A1
S21400377070B50500080011000022054C22601A00F2
S21400378000F0DCF8431C02D1236803B12B6070BD47
S21400379014090020344B70B51D6806000C0025B1D6
S2140037A0AB6913B92800FFF703FA304B9C420FD1E0
S2140037B06C680C23E25E93B219072CD4D90611D498
S2140037C009230120336037331343A381404270BD81
S2140037D0274B9C4201D1AC68EBE7264B9C42E8D1D4
S2140037E0EC68E6E75B0712D5616B41B12300443312
S2140037F0994202D03000FFF78FFB00236363242238
S214003800A3899343A381002363602369236008236D
S214003810A2891343A38123695BB940F2802140F259
S2140038200022A3890B40934203D021003000FFF70B
S21400383005FB0123A28913408BB10023A3606369B3
S2140038405B42A36123690020002BC0D10C23E25EFB
S2140038501306BCD540231343A3810138B7E792076C
S21400386000D46369A360EDE700000020143F000069
S214003870343F0000F43E0000002370B5054C050000
S21400388008002360FEF7C6FD431C02D1236803B17F
S2140038902B6070BD14090020002370B5064C05008F
S2140038A0080011002360FEF7B9FD431C02D123680F
S2140038B003B12B6070BDC04614090020002370B50C
S2140038C0054C050008002360FEF7AEFD431C02D140
S2140038D0236803B12B6070BD1409002070B5050085
S2140038E0080011000022054C22601A00FEF79EFD1B
S2140038F0431C02D1236803B12B6070BD140900205D
S2140039007047704770B50500080011000022054C8E
S21400391022601A0000F008F8431C02D1236803B1A5
S2140039202B6070BD1409002040F6141358220120A5
S214003930C2F2000340421A607047C04640F61413B5
S21400394058220120C2F2000340421A607047C04667
S2140039506800000002140A530914000091210000B8
S2140039602922000031140000E913000001234567F6
S21400397089ABCDEFFEDCBA9876543210F0E1D2C3B4
S21400398045786974696E6720776974682073746116
S2140039907475732025642E0A000000008C00000059
S2140039A0C1240000FD24000061240000756E6578C7
S2140039B0706563746564207570646174650A0000E0
S2140039C07365656420697320746F6F206C6172671D
S2140039D0652028256C75206279746573290A0000B5
S2140039E061736B696E6720666F72206D6F726520FB
S2140039F064617461207468616E20657870656374B4
S214003A0065640A004242463832463039303638322B
S214003A1043453943323333384143324239444138DF
S214003A2037314637333638443037454544343130FD
S214003A303433413434304436423646303734353405
S214003A404635314642384446424141463033354396
S214003A503032414236314541343843454542364698
S214003A6043443438373645443532304436304531B1
S214003A704543343631393731394438413542384296
S214003A80383037464146423845304133444643375E
S214003A90333737323345453642344237443933417B
S214003AA03235383445453641363439443036303987
S214003AB035333734383833344232343534353938A0
S214003AC0333934454530414142313244374236314C
S214003AD04135314635323741394134314636433146
S214003AE03638374645323533373239384341324136
S214003AF0384635393436463845354644303931440B
S214003B004244434200000000313100004545434630
S214003B104145383142314239423343393038383101
S214003B203042313041314235363030313939454214
S214003B3039463434414546344644413439334238B4
S214003B4031413945334438344636333231323445E0
S214003B5046303233364535443145334237453238C0
S214003B6046414537414130343041324435423235A2
S214003B7032313736343539443146333937353431D6
S214003B804241324135384642363539390000000068
S214003B904339374642314630323746343533463677
S214003BA0333431323333454141414431443933357E
S214003BB03346364334324430383836364231443071
S214003BC03541304632303335303238423944383673
S214003BD0393834304234313636364234324539326A
S214003BE04541304441334234333230344235434623
S214003BF0434533333532353234443034313641354B
S214003C00413434314537303041463436313530333F
S214003C1000000000353434393443413633454241E0
S214003C203033333745344532343032334643443606
S214003C3039413541454230374444444330313833C6
S214003C4041344430414339423534423035314632CE
S214003C5042313345443934393039373545414237B6
S214003C6037343134464635394331463736393245AE
S214003C7039413245323032423338464339313041A9
S214003C803437343137344144433933433146363799
S214003C90433938310000000034373145303239308E
S214003CA04646304146303735303335314237463870
S214003CB0373838363443413936314144424433414B
S214003CC03841374539393143354330353536413952
S214003CD03443333134364137463938303346384644
S214003CE03646384145333432453933314644384117
S214003CF0453437413232304431423939413439352E
S214003D003834393830374645333946393234354118
S214003D1039383336444133440000000042303643DD
S214003D2034464441424236333031313938443236F3
S214003D3035424442414539343233423338304632D4
S214003D403731463733343533383835303933303712
S214003D5037464344333945323131394643393836AC
S214003D6033323135344635383833423136374139D7
S214003D70363742463430324234453945324530468D
S214003D803936353645363938454133363636454484
S214003D90464232353739383033394637000000006E
S214003DA0443433364539393536394644333241376B
S214003DB04338413035424243393044333243343954
S214003DC00000000041414644313246363539434111
S214003DD0453633343839423437394535303736444A
S214003DE044454332463036434235384600000000EC
S214003DF03132353345303444433041353339374238
S214003E0042343441374142383745394246324130F0
S214003E1033394133334431453939364643383241F4
S214003E2039344343443330303734433935444637E6
S214003E303633373232303137303639453532363828
S214003E4044413544314330423446383732434636AF
S214003E5035334331314446383233313441363739DD
S214003E603638444645414532384445463034424269
S214003E7036443834423143333144363534413139AF
S214003E803730453537383342443645423936413087
S214003E90323443324341324634413930464539465E
S214003EA0324546354339433134304535424234385D
S214003EB04441393533364144383730304338344658
S214003EC0433931333041444541373445353538443C
S214003ED03531413734444446383544384235304429
S214003EE0453936383338443630363345303935354B
S214003EF000000000000000000000000000000000BD
S214003F0000000000000000000000000000000000AC
S214003F10000000000000000000000000000000009C
S214003F20000000000000000000000000000000008C
S214003F30000000000000000000000000000000007C
S214003F40000000000000000000000000000000006C
S214003F500000000004000020232D302B2000686C99
S214003F604C00656667454647003031323334353697
S214003F7037383941424344454600303132333435D0
S214003F80363738396162636465660000F8B5C04646
S214003F90F8BC08BC9E46704721010000F8B5C04634
S210003FA0F8BC08BC9E467047F500000008
S214003FAC0400002000000000143F0000343F000016
S214003FBCF43E0000000000000000000000000000BE
S214003FCC00000000000000000000000000000000E0
S214003FDC00000000000000000000000000000000D0
S214003FEC00000000000000000000000000000000C0
S214003FFC00000000000000000000000000000000B0
S20800400C00000000AB
S2148040003F438FB0BB180000FF00087F0100000010
S214804010000000000000000000000000000000001B
S804000000FB
