:10000000000700208D010000890100008901000027
:1000100000000000000000000000000000000000E0
:100020000000000000000000000000008901000046
:1000300000000000000000008901000089010000AC
:100040008901000089010000890100008901000088
:100050008901000089010000890100008901000078
:100060008901000089010000890100008901000068
:100070008901000089010000890100008901000058
:100080008901000089010000890100008901000048
:100090008901000089010000890100008901000038
:1000A0008901000089010000890100008901000028
:1000B0008901000089010000890100008901000018
:1000C0008901000089010000890100008901000008
:1000D00089010000890100008901000089010000F8
:1000E00089010000890100008901000089010000E8
:1000F0008901000010B540F26404C2F200042378C4
:1001000063B940F20003C0F200032BB144F22000B7
:10011000C0F2800000E000BF0123237010BDC04684
:1001200040F20003C0F2000310B54BB140F2680189
:1001300044F22000C2F20001C0F2800000E000BFE3
:1001400044F22000C0F28000036803B910BD40F201
:100150000003C0F20003002BF8D09847F6E7C04632
:1001600010B5064B9847002340F28021044AD3661D
:10017000044A53500431535010BDC04609020000D8
:100180000032004000E100E0FEE70000104A114BA1
:1001900010B59A4205D000230F490E4A9A188A4298
:1001A0000ED300210D4B0E4A93420FD37F210D4BEE
:1001B0000D4A8B4393600D4B98470D4B9847FEE7D4
:1001C00003481818006804331060E6E702C3EBE741
:1001D000B41400000000002064000020640000202F
:1001E000000100200000000000ED00E04D0F0000C5
:1001F000D903000010B50248024B984710BDC04615
:1002000010E000E03D020000C0238022DB0510B5B5
:100210005A619A60064B074A01219A62C02212066F
:100220009A6247331A788A431A70034B984710BD75
:100230000030004080000040F501000010B5024B86
:100240001860024B984710BD800000206103000039
:10025000044B0200196809B903491960186882182B
:100260001A6070478400002000070020F0B51F00CE
:100270001300A7B0403305001C931800124B160062
:100280001D919847040029004022104DA8472000E6
:1002900032001D994030A8471EAE6C220C496846BA
:1002A000A84732001C99200000230A4DA8473B00B4
:1002B00007CE07C307CE07C3200006CE06C3064BF2
:1002C0009847380027B0F0BD9D0F0000C50F000013
:1002D00090000020110F0000B10F0000F0B5C5B074
:1002E00014AE1C4F00900191029200214022300078
:1002F00024AD039334ACB847402236212800B847D8
:1003000040225C212000B847019A00993000124F2A
:10031000B8470023F25CE95C5140E954195D4A405A
:100320001A550133402BF5D104AB039A02992800EA
:100330000A4DA84720000CAB202204A9A8474B9CDB
:10034000202C00D9202422000CA94A98B84720006C
:1003500045B0F0BDD70F0000C50F00006D020000D2
:10036000024B034A5A6005221A60704710E000E011
:10037000FFFFFF0040220E4B1A600E4B3E3A1968F9
:100380009143196019691142FCD10C20196881430D
:1003900008000821014319600121D87B0143D9736A
:1003A00019680A431A601A699207FCD47047C0465C
:1003B000B81C0040001000421F21064B5A79114022
:1003C000802252420A435A71042219691142FCD117
:1003D000586970470010004210B50C4B8CB098471C
:1003E000002303930A4B98472023019304AB094A47
:1003F000009310210C230848084CA047084B98474D
:100400000390039A074B1A60FEE7C04661010000A3
:10041000750300005C11000069110000DD0200009E
:10042000B90300003C38002020B1030000226C33E7
:10043000984200D1704702700130F9E70023036051
:10044000436089B9104B8360104BC360104B03614C
:10045000104B4361104B8361104BC361104B03621F
:10046000104B4362816670470F4B83600F4BC36034
:100470000F4B03610F4B43610F4B83610F4BC36104
:100480000F4B03620F4BECE767E6096A85AE67BB6B
:1004900072F36E3C3AF54FA57F520E518C68059B66
:1004A000ABD9831F19CDE05BD89E05C107D57C363B
:1004B00017DD703039590EF7310BC0FF1115586830
:1004C000A78FF964A44FFABE0023F0B5D3B009900A
:1004D000099AD2189268009200980AAA9850043398
:1004E000202BF5D1002012AB0A784C781206240498
:1004F0002243CC7822438C78043124022243C25018
:1005000004304028F0D11C00119A0D9F0792109AD8
:1005100005920C9A01920F9A04920B9A02920E9AEB
:1005200006920A9A0392CB4A0092062206980699EE
:10053000D0410532D141484006990E32D141009A4E
:10054000414012682068029E1518059A04984919BE
:100550005040069A039D1040059A5040079A09188A
:100560008918CA19079202220398D5410B32D0414B
:100570006840039D0932D541039A6840029D1543A6
:10058000019A1540039A16403543009A40194018C5
:1005900052686168049D5118059A079E8918069A49
:1005A0005540079A1540049A554006224919079D5F
:1005B000D6410532D5417540079E0E32D641019A8B
:1005C00075409446060002224D190100D6410B32B7
:1005D000D141714006000932D6417140039E029A12
:1005E000039F0643074016403E43009A8919491964
:1005F000AC449268A56867465619049A069DB618D9
:10060000079A554062461540069A554006227519CC
:100610006646D7410532D6417E4067460E32D74105
:10062000029A7E40AD19AA1804920F0002220E0011
:10063000D7410B32D6417E400F000932D7417E4070
:100640000700039A0F4317400A0002401743F719A7
:100650007A190292009AE568D268079F5519069A9E
:10066000049EAD1862465740049A1740079A5740B7
:100670000622ED19049FD7410532D6417E40049FE2
:100680000E32D741039A7E40AD19AA180692022273
:10069000029F029ED7410B32D6417E40029F093213
:1006A000D7417E40029F029A0F430A4007401743FA
:1006B000F71966467A190392009A25691269069F0E
:1006C0005519079AAD18049A5640069A1640624684
:1006D00056400622AD19069ED7410532D6417E40CE
:1006E000069F0E32D7417E40AD1942190792022271
:1006F000039E0398D6410B32D0417040039E0932CD
:10070000D641039A7040029E029F164317400E4046
:10071000009A3E4386195269606977191518069A3E
:10072000049865445040079A079E1040049A504030
:1007300006222818079DD6410532D5417540079EEF
:100740000E32D641754040190A1805923D0002222A
:100750003900D5410B32D14169403D000932D541C4
:100760006940039D029A039E3D4315403E40354338
:100770004D192A180192009A9269A169059D501895
:10078000049A06998018079A019E5140059A3E40A6
:100790001140069A5140062241180598D54105326C
:1007A000D0416840059D0E32D541029A6840091833
:1007B000521804920222019D0198D5410B32D0417A
:1007C0006840019D0932D5416840019D039A3D432F
:1007D0001540354345196A180292009AE169D269B9
:1007E000049D5018069A07998018059A20345140A4
:1007F000049A1140079A5140062241180498D541A5
:100800000532D0416840049D0E32D541039A6840BC
:100810000918521806920222029D0298D5410B3205
:10082000D0416840029D0932D541029A6840019D3D
:10083000019E154316403D40354345196A18039201
:10084000009A203200920099034A8A4200D06CE656
:1008500004E0C0467C110000BC1100001122996B1D
:100860009C6BD1410232D4419A6B6140940A4C4056
:100870005A6A19685E68501824180722300031003F
:10088000D0410B32D1414140F008414062180892FA
:10089000062206990698D1410532D0414840069972
:1008A0000E32D141059A48400499039C5140069A62
:1008B000029D1140059A5140009A40181268039910
:1008C0008018089A1A648018079A1018C21907929B
:1008D0000222D4410B32D1416140039C0932D44100
:1008E000039A6140029C1443019A1440039A1540F4
:1008F00011222C430C19D96B2718D86BD141023225
:10090000D041DA6B4140900A9A6A9C68B618072277
:1009100048409968D4410B32D1419A686140049DA6
:10092000D408069A614080195540079A4018049CE3
:10093000009915406C404D68059AAC466244111808
:100940000622079E65180799D6410532D1417140AC
:10095000079E0E32D641019A7140944649198C4443
:1009600062463C00059202223E003D00D4410B321B
:10097000D6410932D54166406E40039D029A039CE0
:100980003D433C401540254375196A1801921122D8
:10099000089C0899D4410232D141089A4C40910AEE
:1009A00061409A68DC6ADD68141907220919DC685D
:1009B000D5410B32D441DA686C40D5086C40091936
:1009C000009C049AA4685864A44662445618069D84
:1009D000079A059C5540059A99641540069A55401A
:1009E00006227519059ED4410532D6416640059C04
:1009F0000E32D441029A66407619B218049202224D
:100A0000019C019DD4410B32D5416540019C0932C6
:100A1000D4416540019C039A3C431440019A3A40FA
:100A200014432C19A2190292050011220400D54189
:100A30000232D441800A6C40DA684440186B1D6968
:100A40001018072224181869D5410B32D0411A69B1
:100A50006840D508684024180098069AC068079E28
:100A6000844662441519059A04985640049ADC6439
:100A70001640079A56400622AE19049DD041053211
:100A8000D541454004980E32D041039A4540AD19F6
:100A9000AA18069202220298029ED0410B32D64139
:100AA000464002980932D041029A464001981043CC
:100AB00038408446019A029802406046104330183C
:100AC000421903920D0011220800D5410232D04193
:100AD000890A68401A694140586B5D6910180722FD
:100AE00009185869D5410B32D0415A696840D50878
:100AF0006840049A059D09185540069A06981540C5
:100B0000059A19655540009A12698E18079AB61809
:100B10000622AE19069DD5410532D0416840069D9A
:100B20000E32D5414540AD197A1907920222039F32
:100B3000039ED7410B32D6417E40039F0932D741F5
:100B4000039A7E40029F1743019A02981740039A26
:100B500010400743F7197F19112225002000D541C5
:100B60000232D041A40A68409A6B444058699D699A
:100B70001018072224189869D5410B32D0419A6980
:100B80006840D50868402418069A0498079D50408C
:100B9000079A5C651040049A5040009A5269A61862
:100BA000059AB618062286190798D5410532D04114
:100BB0006840079D0E32D541019A684094468019DD
:100BC000844462463E00059202223D00D6410B322B
:100BD000D54175403E000932D6417540039E029AC8
:100BE0003E431640039A3A401643AD192A18019223
:100BF000080011220E00D0410232D641890A464037
:100C0000DA6B4E409969D869511807227618D9696C
:100C1000D0410B32D141DA694140D008009A4140BD
:100C200092697618B118049A06988918079A059D52
:100C30005040059A9E651040069A019E504006223B
:100C400008180599D5410532D1416940059D0E32FC
:100C5000D541029A6940091852180492022201985B
:100C6000019DD0410B32D541454001980932D04118
:100C7000039A454001983E43164038400643AE195A
:100C800072180292250011222000D5410232D04173
:100C90006840DD69089AAC46196AA40A4440624477
:100CA000A4180D0007220800D5410B32D041079E41
:100CB000059A68405640049AC9081640079A484069
:100CC0005640009A2418D2690498A118069ADC6547
:100CD0008918062276180499D0410532D141414045
:100CE00004980E32D041039A414089195218069255
:100CF00002220298029ED0410B32D6414640029811
:100D00000932D041029A46400198019D1043154096
:100D100038402843301842180392009A203320327A
:100D2000009242AA9A4200D098E5079B0D97119332
:100D3000069B0E93059B1093049B0F93039B0A93B2
:100D4000029B0B93019B0C930023099AD11888688E
:100D50000AAA8446D2580433009262448A60202B47
:100D6000F3D153B0F0BDC046F7B53F23150002687C
:100D70000400134052190E000260954202D94268E5
:100D8000013242608BB14027FF1AAF4219D82200CE
:100D90002832D01831000192114B3A00984701993E
:100DA0002000104B9847F619ED1B2F00E91B711816
:100DB0003F2F0FD83F232A009A433F231D40002393
:100DC000B61835B120002830C0182A003100044B75
:100DD0009847F7BD2000034B9847403FE6E7C046E1
:100DE000C50F0000C904000010B50AB1014B9847B7
:100DF00010BDC046690D000073B56E4602684368B9
:100E00000D00DB00510F0B430400180ED1003070B1
:100E1000180C7070F370180A0B0E33710B0C737191
:100E20000B0AB3713F23B0701A40F171073B372AA8
:100E300000D978239A1A33492000334B9847334B13
:100E40000822694620009847A3681B0E2B70A368F0
:100E50001B0C6B70A3681B0AAB70237AEB70E36802
:100E60001B0E2B71E3681B0C6B71E3681B0AAB71E3
:100E7000237BEB7123691B0E2B7223691B0C6B7296
:100E800023691B0AAB72237CEB7263691B0E2B7305
:100E900063691B0C6B7363691B0AAB73237DEB7374
:100EA000A3691B0E2B74A3691B0C6B74A3691B0A2B
:100EB000AB74237EEB74E3691B0E2B75E3691B0C8B
:100EC0006B75E3691B0AAB75237FEB75236A1B0EF9
:100ED0002B76236A1B0C6B76236A1B0AAB762023C6
:100EE000E3181B78EB76A36E53B9636A1B0E2B775E
:100EF000636A1B0C6B77636A1B0AAB77636AEB77D9
:100F000073BDC0467C120000E90D0000690D0000B1
:100F100070B505000E001400190004A8074B98478F
:100F20003200290004A8064B9847210004A8054B6D
:100F3000984704A8044B984770BDC0463D04000084
:100F4000E90D0000F90D00002904000070B500252E
:100F50000E4B0F4CE41AA410A54209D1002500F055
:100F600099FA0C4C0C4BE41AA410A54207D170BDA1
:100F7000064AAB009B181B6898470135ECE7064A08
:100F8000AB009B181B6898470135EEE7A0140000E2
:100F9000A0140000A4140000A014000010B5034B1E
:100FA0000100186800F06AF810BDC046000000207B
:100FB00010B5034B0100186800F016F810BDC046CC
:100FC00000000020002310B59A4200D110BDCC5C77
:100FD000C4540133F8E703008218934200D17047EC
:100FE00019700133F9E7000070B5050081B10C1FDD
:100FF0002368002B00DAE418280000F0ADF81E4A40
:10100000136811002BB963601460280000F0A5F884
:1010100070BDA3420BD92268A018834203D118687F
:101020005B688218226063600C60EEE713005A6808
:101030000AB1A242FAD919685818A0420BD1206807
:101040000918581819608242DFD110685268411897
:1010500019605A60D9E7A04202D90C232B60D4E76B
:1010600021686018824203D11068526841182160DB
:1010700062605C60C9E7C04688000020032370B549
:10108000CD1C9D43083506000C2D1CD20C25A94211
:101090001BD8300000F060F8254A14682100C1B95F
:1010A000244C23681BB9300000F046F8206029006A
:1010B000300000F041F8431C2DD10C233000336088
:1010C00000F04BF803E0002DE1DA0C233360002040
:1010D00070BD0B685B1B1BD40B2B03D90B60CC18AA
:1010E000256003E08C420FD163681360300000F08C
:1010F00034F8200007220B30231D9043C31A002B25
:10110000E6D05A42E250E3E74B6863600C00EDE73B
:101110000C004968C3E70323C41C9C43A042DFD0F2
:10112000211A300000F008F8431CD9D1C5E7C046A9
:10113000880000208C000020002370B5054C0500BD
:1011400008002360FFF784F8431C02D1236803B131
:101150002B6070BDFC0000207047704748656C6CC8
:101160006F20576F726C64210073757065722D73F8
:1011700065637265742D6B6579000000982F8A4253
:1011800091443771CFFBC0B5A5DBB5E95BC25639D9
:10119000F111F159A4823F92D55E1CAB98AA07D8F1
:1011A000015B8312BE853124C37D0C55745DBE7214
:1011B000FEB1DE80A706DC9B74F19BC1C1699BE494
:1011C0008647BEEFC69DC10FCCA10C246F2CE92D24
:1011D000AA84744ADCA9B05CDA88F97652513E9848
:1011E0006DC631A8C82703B0C77F59BFF30BE0C64F
:1011F0004791A7D55163CA0667292914850AB727DD
:1012000038211B2EFC6D2C4D130D385354730A6579
:10121000BB0A6A762EC9C281852C7292A1E8BFA250
:101220004B661AA8708B4BC2A3516CC719E892D1B8
:10123000240699D685350EF470A06A1016C1A4193B
:10124000086C371E4C774827B5BCB034B30C1C393A
:101250004AAAD84E4FCA9C5BF36F2E68EE828F74F9
:101260006F63A5781478C8840802C78CFAFFBE9013
:10127000EB6C50A4F7A3F9BEF27871C680000000B1
:10128000000000000000000000000000000000005E
:10129000000000000000000000000000000000004E
:1012A000000000000000000000000000000000003E
:1012B000000000000000000000000000030000002B
:1012C00038000000E80300006162630000000000D5
:1012D000000000000000000000000000000000000E
:1012E00000000000000000000000000000000000FE
:1012F00000000000000000000000000000000000EE
:101300000061626364626364656364656664656604
:101310006765666768666768696768696A68696A51
:101320006B696A6B6C6A6B6C6D6B6C6D6E6C6D6E01
:101330006F6D6E6F706E6F707100000000000000C6
:10134000000000000000000000000000000000009D
:10135000000000000000000000000000000000008D
:10136000000000000000000000000000000000007D
:1013700000000023097D223405D8228642A477BDCF
:10138000A255B32AADBCE4BDA0B3F7E36C9DA700A2
:1013900000000075388B16512776CC5DBA5DA1FD33
:1013A000890150B0C6455CB4F58B19525225250011
:1013B00000000020794655980C91D8BBB4C1EA973B
:1013C000618A4BF03F42581948B2EE4EE7AD6700D4
:1013D000000000BA7816BF8F01CFEA414140DE5DC0
:1013E000AE2223B00361A396177A9CB410FF61F27A
:1013F0000015AD248D6A61D20638B8E5C026930C7D
:101400003E6039A33CE45964FF2167F6ECEDD41942
:10141000DB06C1CDC76E5C9914FB9281A1C7E28443
:10142000D73E67F1809A48A497200E046D39CCC747
:10143000112CD0000000000000000000000000009F
:10144000000000000000000000000000000000009C
:10145000000000000000000000000000000000008C
:10146000000000000000000000000000000000007C
:10147000000000000000000000000000000000006C
:10148000000000000000000000000000000000005C
:1014900000000000F8B5C046F8BC08BC9E46704786
:1014A00021010000F8B5C046F8BC08BC9E46704754
:0414B000F500000043
:1014B4000400002000000000541400007414000014
:1014C40034140000000000000000000000000000D0
:1014D4000000000000000000000000000000000008
:1014E40000000000000000000000000000000000F8
:1014F40000000000000000000000000000000000E8
:1015040000000000000000000000000000000000D7
:0415140000000000D3
:0200000400807A
:104000003F438FB0BB180000FF00087F0100000095
:1040100000000000000000000000000000000000A0
:00000001FF
