:020000042001D9
:100000009711FF5F9381012A97020000938282017A
:100010007390523093021000638402007350107C7E
:100020009702000093824211739052301301000036
:100030006314010013810155732540F181421303BC
:100040000040137101FF6385A2001A918502D5BF9C
:10005000970000009380C00763830000829073259F
:1000600040F181450146F9289300000063830000B8
:100070008290970200009382C20073905230032353
:100080000000F5BF000000008280A14673B3063077
:10009000914263C555001376350011CA230005004F
:1000A0000505FD15E347B0FE731003308280232061
:1000B00005001105F115E34EB0FC7310033082808A
:1000C000232003001103E34D73FE82800684970210
:1000D000FFDF938222F3638C02049702FFDF938297
:1000E00062F2F32740F1A14673B006300A8397030A
:1000F000FFDF938323318A9363037300D1376398BF
:1001000057021703FF5F1303E3EF9713FF5F938318
:10011000E39B630373006D371703FFE7130383EE5D
:100120009703FFE7938303EE63037300513FA280BD
:1001300082800000F322203473231034F323303400
:10014000D5BF828006849711FF5F9381A11593022A
:1001500000006311550E977200009382221317035B
:10016000FF5F130323EA9713FF5F93832396638C48
:100170006200635A730003A5020091022320A300CA
:100180001103E34A73FE971200009382224F170374
:10019000FFE7130323E79703FFE79383A3E6638C4B
:1001A0006200635A730003A5020091022320A3009A
:1001B0001103E34A73FE0F100000971200009382B0
:1001C000E24B1703FF5F1303E3E39703FF5F9383A0
:1001D00063E3638C6200635A730003A5020091021B
:1001E0002320A3001103E34A73FE0F10000017132E
:1001F000FF5F1303A38D93830115635773002320BF
:1002000003001103E34D73FE1712FF5F1302028C0C
:1002100011C20296177500001305A5DEEF60F05CB1
:10022000EF6050611775000013054504EF60F05B47
:10023000EF7060033937FD5673B0463073B0463403
:10024000F3271030372704007D8F09C773B036308D
:1002500073B02630370704007D8F19C373B00618BA
:10026000416713078702F98F89CBF32700300967AD
:10027000D98F7390073073503000F3271030370751
:100280002000F98F99C7F327003093E70720739078
:10029000073005459715000093854539171600006E
:1002A000130606393120EF203026A280828082801A
:1002B000411106C2F32240F113030000638562007E
:1002C00073005010F5BFEF10A03B924041018280B7
:0C02D000E8020120DC0201201E030120D6
:1002DC0037050080130505096F60E011411126C236
:1002EC00B704008022C413840409484006C6EF609A
:1002FC00F0231C40B725F40013850409DC439385D7
:10030C000540829708442244B240924441016F60F8
:10031C00F021F1653715008093850520130505A69E
:04032C006F60B074DA
:10033000756E65787065637465642075706461744A
:10034000650A000061736B696E6720666F72206DCD
:100350006F72652064617461207468616E206578D5
:100360007065637465640A0042424638324630392B
:1003700030363832434539433233333841433242E1
:1003800039444138373146373336384430374545BC
:1003900044343130343341343430443642364630DC
:1003A0003734353446353146423844464241414679
:1003B000303335433032414236314541343843459C
:1003C0004542364643443438373645443532304466
:1003D0003630453145433436313937313944384187
:1003E000354238423830374641464238453041334D
:1003F0004446433733373732334545364234423744
:100400004439334132353834454536413634394440
:100410003036303935333734383833344232343586
:10042000343539383339344545304141423132442D
:100430003742363141353146353237413941343131
:100440004636433136383746453235333732393818
:1004500043413241384635393436463845354644CD
:100460003039314442444342000000003131000041
:10047000454543464145383142314239423343399B
:100480003038383130423130413142353630303118
:10049000393945423946343441454634464441347D
:1004A00039334238314139453344383446363332B2
:1004B00031323445463032333645354431453342A6
:1004C0003745323846414537414130343041324476
:1004D00035423235323137363435394431463339A5
:1004E0003735343142413241353846423635393973
:1004F0000000000043393746423146303237463437
:10050000353346363334313233334541414144315A
:10051000443933353346364334324430383836364E
:100520004231443035413046323033353032384252
:10053000394438363938343042343136363642343C
:10054000324539324541304441334234333230341C
:100550004235434643453333353235323444303403
:100560003136413541343431453730304146343607
:1005700031353033000000003534343934434136EE
:1005800033454241303333374534453234303233EA
:10059000464344363941354145423037444444436B
:1005A00030313833413444304143394235344230BC
:1005B00035314632423133454439343930393735B3
:1005C0004541423737343134464635394331463771
:1005D000363932453941324532303242333846437A
:1005E000393130413437343137344144433933437E
:1005F0003146363743393831000000003437314551
:100600003032393046463041463037353033353177
:100610004237463837383836344341393631414429
:100620004244334138413745393931433543303518
:100630003536413934433331343641374639383031
:1006400033463846364638414533343245393331FE
:1006500046443841453437413232304431423939E9
:1006600041343935383439383037464533394639ED
:1006700032343541393833364441334400000000C8
:1006800042303643344644414242363330313139C8
:1006900038443236354244424145393432334233AC
:1006A00038304632373146373334353338383530E1
:1006B000393330373746434433394532313139469F
:1006C00043393836333231353446353838334231B0
:1006D000363741393637424634303242344539456F
:1006E0003245304639363536453639384541333668
:1006F0003636454446423235373938303339463755
:100700000000000044343336453939353639464423
:100710003332413743384130354242433930443334
:1007200032433439000000004141464431324636FC
:100730003539434145363334383942343739453514
:1007400030373644444543324630364342353846E6
:1007500000000000313235334530344443304135F8
:1007600033393742423434413741423837453942D0
:1007700046324130333941333344314539393646D5
:1007800043383241393443434433303037344339CA
:1007900035444637363337323230313730363945E3
:1007A00035323638444135443143304234463837A7
:1007B00032434636353343313144463832333134AF
:1007C0004136373936384446454145323844454646
:1007D0003034424236443834423143333144363582
:1007E0003441313937304535373833424436454264
:1007F0003936413032344332434132463441393064
:10080000464539463245463543394331343045351E
:100810004242343844413935333641443837303038
:100820004338344643393133304144454137344508
:100830003535384435314137344444463835443809
:10084000423530444539363833384436303633450E
:1008500030393535000000004661696C65642074EC
:100860006F206765742074686520737461727420EA
:100870006379636C6520636F756E742E00000000F1
:100880004661696C656420746F20676574207468C4
:100890006520656E64206379636C6520636F756E97
:1008A000742E000046756E6374696F6E20657865FE
:1008B000637574696F6E2074696D653A20252E33F7
:1008C00066206D730A0000000123456789ABCDEFF8
:1008D000FEDCBA9876543210F0E1D2C36800000012
:1008E00002140A537A1801208E2A0120122B0120AB
:1008F00024260120DC2B01208C000000B0180120F0
:1009000010190120F0180120000000000000000074
:1009100000000000000000000000000000000000D7
:1009200000000000000000000000000000000000C7
:1009300000000000000000000000000000000000B7
:1009400000000000000000000000000000000000A7
:100950000000000000000000000000000000000097
:100960000000000000000000232D302B20000000BC
:10097000686C4C006566674546470000303132338D
:10098000343536373839414243444546000000008B
:1009900030313233343536373839616263646566F5
:1009A00000000000D4330000EA330000AA33000046
:1009B000AA330000AA330000AA330000EA33000083
:1009C000AA330000AA330000AA330000AA330000B3
:1009D000403500002834000012350000AA33000022
:1009E000AA33000070350000AA330000283400004C
:1009F000AA330000AA3300001A350000343C00007E
:100A0000E63C00003E3C0000E63C0000D83C000014
:100A1000E63C00003E3C0000343C0000343C00005A
:100A2000D83C00003E3C00001A3C00001A3C00008C
:100A30001A3C0000423C00003240000032400000FE
:100A40004A4000002C4000002C400000D84000002C
:100A50004A4000002C400000D84000002C4000001C
:100A60004A4000002A4000002A4000002A400000BE
:100A7000D84000000001020203030303040404043D
:100A8000040404040505050505050505050505051A
:100A900005050505060606060606060606060606FA
:100AA00006060606060606060606060606060606E6
:100AB00006060606070707070707070707070707CA
:100AC00007070707070707070707070707070707B6
:100AD00007070707070707070707070707070707A6
:100AE0000707070707070707070707070707070796
:100AF000070707070808080808080808080808087A
:100B00000808080808080808080808080808080865
:100B10000808080808080808080808080808080855
:100B20000808080808080808080808080808080845
:100B30000808080808080808080808080808080835
:100B40000808080808080808080808080808080825
:100B50000808080808080808080808080808080815
:100B60000808080808080808080808080808080805
:100B700008080808344D0120144E01208E4D012034
:100B80000000000000000000924F0120B04F012043
:100B9000A64D01208A4D0120384E01208E4E0120A5
:100BA0000000000000000000000000000000000045
:100BB0000000000000000000000000000000000035
:100BC0000E4F0120084D0120000000000000000031
:100BD000000000000000000082510120945101201B
:100BE000BA510120F4520120F0510120FA510120A4
:100BF00078530120FE51012002520120365201207B
:100C00006A5201209E520120D65E0120B852012076
:100C1000CA520120D0520120D85201201A5301207B
:100C200082530120405D0120000000000000000010
:100C30000000000000000000705D012000000000C6
:100C4000B25E0120B65E012000000000000000003E
:100C50000000000000000000000000000000000094
:100C600000000000000000007E5101200000000094
:100C70000000000000000000000000000000000074
:100C80006E61012000000000000000000000000074
:100C90000000000000000000000000003E5F012096
:100CA0000000000046620120826201200000000076
:100CB000000000000C61012086600120165F012009
:100CC000F05E0120000000000000000000000000B5
:100CD00000000000BE62012020630120A26001200C
:100CE000246101200264012050640120106501206C
:100CF0000100000020000000001BB70000366E015C
:100D0000010000001F000000030000003F00000081
:100D1000010000002000000000366E01006CDC02C3
:100D2000030000001F000000020000003F00000060
:100D30000100000010000000808D5B00001BB70068
:100D4000000000001F000000030000003F00000042
:100D50000100000010000000001BB70000366E010B
:100D6000010000001F000000020000003F00000022
:100D7000010000001000000000366E01006CDC0273
:100D8000030000001F000000020000001F00000020
:100D90000100000008000000808D5B00001BB70010
:100DA000000000001F000000030000001F00000002
:100DB0000100000008000000001BB70000366E01B3
:100DC000010000001F000000020000001F000000E2
:100DD000010000000800000000366E01006CDC021B
:100DE000030000001F000000020000000F000000D0
:100DF0000100000004000000808D5B00001BB700B4
:100E0000000000001F000000030000000F000000B1
:100E10000100000004000000001BB70000366E0156
:100E2000010000001F000000020000000F00000091
:100E3000010000000400000000366E01006CDC02BE
:100E4000030000001F000000020000000700000077
:100E50000100000002000000808D5B00001BB70055
:100E6000000000001F000000020000000F00000052
:100E70000100000002000000001BB70000366E01F8
:100E8000010000001F000000010000000F00000032
:100E9000010000000200000000366E01006CDC0260
:100EA000030000001F000000010000000700000018
:100EB0000200000001000000808D5B00001BB700F5
:100EC000000000001F0000000100000007000000FB
:100ED0000200000001000000001BB70000366E0198
:100EE000010000001F0000000100000003000000DE
:100EF000020000000100000000366E01006CDC0200
:100F0000030000001F00000003000000FFFFFFFFC0
:100F10000400000001000000808D5B00001BB70092
:100F2000000000001F00000003000000000000009F
:100F30000400000001000000001BB70000366E0135
:100F4000010000001F00000003000000FFFFFFFF82
:100F5000040000000100000000366E01006CDC029D
:100F6000030000001F00000002000000FFFFFFFF61
:100F70000600000001000000808D5B00AAC2A200F4
:100F8000000000002300000001000000020000003B
:100F90000600000001000000AAC2A200001BB7006A
:100FA000000000001700000003000000FFFFFFFF2B
:100FB0000600000001000000001BB7000024F40040
:100FC000010000002F00000003000000FFFFFFFFF2
:100FD00006000000010000000024F40080A81201B7
:100FE000010000001700000002000000FFFFFFFFEB
:100FF000060000000100000080A81201558545018F
:10100000020000002300000002000000FFFFFFFFBD
:101010000800000001000000808D5B00001BB7008D
:10102000000000001F00000003000000FFFFFFFFA2
:101030000800000001000000001BB70000366E0130
:10104000010000001F00000002000000FFFFFFFF82
:10105000080000000100000000366E01006CDC0298
:10106000030000001F00000001000000FFFFFFFF61
:101070000A00000001000000808D5B00007C9200EF
:10108000000000002700000003000000FFFFFFFF3A
:101090000A00000001000000007C9200001BB70065
:1010A000000000001300000002000000FFFFFFFF2F
:1010B0000A00000001000000001BB70000F8240136
:1010C000010000002700000002000000FFFFFFFFFA
:1010D0000A0000000100000000F8240100366E0143
:1010E000010000001300000001000000FFFFFFFFEF
:1010F0000A0000000100000000366E0100F0490205
:10110000030000002700000001000000FFFFFFFFB8
:101110000C00000001000000808D5B0000127A00CE
:10112000000000002F00000003000000FFFFFFFF91
:101130000C0000000100000000127A00001BB70044
:10114000000000001700000002000000FFFFFFFF8A
:101150000C00000001000000001BB7000024F40098
:10116000010000002F00000002000000FFFFFFFF51
:101170000C000000010000000024F40000366E01A5
:10118000010000001700000001000000FFFFFFFF4A
:101190000C0000000100000000366E0180C3C90190
:1011A000030000002F00000001000000FFFFFFFF10
:1011B0000C0000000100000080C3C9010048E801E4
:1011C000030000002F00000001000000FFFFFFFFF0
:1011D0000E00000001000000808D5B00B6A16800D9
:1011E000000000003700000003000000FFFFFFFFC9
:1011F0000E00000001000000B7A16800001BB7004E
:10120000000000001B00000002000000FFFFFFFFC5
:101210000E00000001000000001BB7006D43D1006C
:10122000010000003700000002000000FFFFFFFF88
:101230000E000000010000006E43D10000366E0178
:10124000010000001B00000001000000FFFFFFFF85
:101250000E0000000100000000366E01DB86A201D6
:10126000030000003700000001000000FFFFFFFF47
:101270001000000001000000808D5B00001BB70023
:10128000000000001F00000002000000FFFFFFFF41
:101290001000000001000000001BB70000366E01C6
:1012A000010000001F00000001000000FFFFFFFF21
:1012B0001200000001000000808D5B00AAC2A200A5
:1012C000000000002300000002000000FFFFFFFFFD
:1012D0001200000001000000ABC2A200001BB7001A
:1012E000000000001100000001000000FFFFFFFFF0
:1012F0001200000001000000001BB70055854501E9
:10130000010000002300000001000000FFFFFFFFBC
:101310001400000001000000808D5B00007C920042
:10132000000000002700000002000000FFFFFFFF98
:101330001400000001000000007C9200001BB700B8
:10134000000000001300000001000000FFFFFFFF8D
:101350001400000001000000001BB70000F8240189
:10136000010000002700000001000000FFFFFFFF58
:101370001600000001000000808D5B00E82A850057
:10138000000000002B00000002000000FFFFFFFF34
:101390001600000001000000E92A8500001BB700CC
:1013A000000000001500000001000000FFFFFFFF2B
:1013B0001600000001000000001BB700D1550A0113
:1013C000010000002B00000001000000FFFFFFFFF4
:1013D0001800000001000000808D5B0000127A0000
:1013E000000000002F00000002000000FFFFFFFFD0
:1013F000180000000100000000127A00001BB70076
:10140000000000001700000001000000FFFFFFFFC8
:101410001800000001000000001BB7000024F400C9
:10142000010000002F00000001000000FFFFFFFF8F
:101430001A00000001000000808D5B0027AE7000E4
:10144000000000003300000002000000FFFFFFFF6B
:101450001A0000000100000028AE7000001BB70059
:10146000000000001900000001000000FFFFFFFF66
:101470001A00000001000000001BB7006658E100E0
:10148000010000003300000001000000FFFFFFFF2B
:101490001C00000001000000808D5B00B6A1680008
:1014A000000000003700000002000000FFFFFFFF07
:1014B0001C00000001000000B7A16800001BB7007D
:1014C000000000001B00000001000000FFFFFFFF04
:1014D0001C00000001000000001BB7006D43D1009C
:1014E000010000003700000001000000FFFFFFFFC7
:1014F0001E00000001000000808D5B0000A861005C
:10150000000000003B00000002000000FFFFFFFFA2
:101510001E0000000100000000A86100001BB700D1
:10152000000000001D00000001000000FFFFFFFFA1
:101530001E00000001000000001BB7000050C300A7
:10154000010000003B00000001000000FFFFFFFF62
:101550002000000001000000808D5B00001BB70030
:10156000000000001F00000001000000FFFFFFFF5F
:101570002E6801204C6801205C680120566801201B
:101580007E68012064680120786801206C68012071
:10159000AA680120BA680120B4680120DC68012033
:1015A000C2680120D6680120CA6801200C670120AA
:1015B000F4660120286701203C6701205067012064
:1015C0006C670120846701209C670120B8670120B7
:1015D000D0670120EE6701200A680120846801209D
:1015E000E4680120FA6801200E6C0120506B012094
:1015F000D86A0120766B0120986B01209C6B01203A
:101600003A6A0120606A0120846A01209A6A0120F6
:10161000AE6A0120C46A0120E86A01200A6B012039
:101620001C6B01203E6B01203016012000000000E1
:101630006C6962676C6F737300000000000000004B
:101640000000000080847E410000000000408F40C8
:10165000000000800103040082630120C6630120B2
:10166000C863012000640120DE660120E8660120D5
:08167000806E0120CC6E012008
:10168000011122CC06CEEF5000738A852A84EF50D8
:10169000207301CD3715012013058585EF10D02368
:1016A000F2406244054505618280EF10E0552C0050
:1016B0002285EF50E07011C537150120130505880C
:1016C000F1BFA24502451247B2473385A540B3B5E5
:1016D000A500998FB385B740EF308045B71701203B
:1016E00003A6076483A64764EF20F02CB7170120F8
:1016F00003A6876483A6C764EF20F07F2A86371588
:101700000120AE861305458AEF10900B01A0B38728
:10171000A540A98D3D8D6D8D3D8D7D818280C165FA
:101720000111FD1506CE22CC26CA4AC84EC652C4A7
:1017300056C2AA8AE93F9304F5FFB3F454012A8AFA
:101740009305F00F2685E13713D48400B307A0403A
:10175000258C7D8CA18CAA89BD4526854D3F13D44F
:101760004400B307A040258C7D8C258C2A898D45AB
:101770002285713FAA8413552400B3079040218D20
:101780007D8D218D85456137B3075041B3E7570102
:10179000FD83AA97120AF2406244D2978E09CE972F
:1017A0000A09CA97139514004249D244B249224A01
:1017B000924A3E9505618280011122CC26CA4AC810
:1017C0004EC652C456C206CE2A843289939405016D
:1017D000014AC149FD5AA2852685153F9347150048
:1017E00033973701B307F040E58FFD19336AEA00FC
:1017F0001D8C8580E39159FF630409002320890033
:10180000F2406244D2444249B249924A5285224A45
:1018100005618280AA860146014801452543954815
:1018200003C7050011E38280930707FD85056378F0
:10183000F3009307F7FB63EFF800930797FC15C2DB
:1018400013174800BA972380F6000505850613464E
:101850001600F9B79307F7F9E3E4F8FC930797FA52
:10186000F9BF3E88EDB72310B500BD0513D645403E
:101870000606814509056F10206A4111B71701203E
:1018800022C406C69387C78DB71501202A841CC1C0
:1018900051469385858C13050505EF1080558147CA
:1018A0000148B2403CC42326040522444101828001
:1018B000411106C622C426C29307000863F5D7006B
:1018C0000545EF106044B71701209387878F2A845E
:1018D000B2851CC136861105B684EF108051B24026
:1018E0002324940823220408224492444101828044
:1018F000B717008083A707AA370501204111CC47FD
:101900001305053306C6EF10E04D0545EF10C03F47
:101910000327450883278508411122C406C626C22D
:10192000998F2A8463F0C702B717008083A707AA9C
:101930003705012013054534CC47EF10A04A054573
:10194000EF10803C2E8593054400BA95B284EF10C9
:10195000404A03264408B240B29423229408224409
:101960009244410182802971232A91124442232CFE
:10197000811223282113A18023263113232441130C
:101980002322511323206113232E7111232C811143
:10199000232E11122A8CAE893284368ABA8A93F4A5
:1019A000F407AE8B0149014B63683B038320C113ED
:1019B0000324811383244113032901138329C112B2
:1019C000032A8112832A4112032B0112832BC11196
:1019D000032C8111316182801C448800A2C082974F
:1019E0005C445686D28588008297935789011317E5
:1019F00009012300F1004183935709012183A300CA
:101A0000F10093178900D98F2311F1005C4411462E
:101A10008A85880082971C488A85880082973307C8
:101A20006C01814763979700269B0509B38B9B4008
:101A3000A5BFE38B77FFB306F1000346070083C61B
:101A4000060085070507B18EA30FD7FEE1BF6D71B4
:101A5000232021112E89232291108324490023243D
:101A60008110E2D54043328C03260111A180CEDFE4
:101A7000DAD9E6D323261110D2DDD6DBDED7EAD1C0
:101A8000EECF2A8BB68CBE89C68593F4F40701C8C5
:101A90001C439306F4FFB69783C70700F9C3939AD4
:101AA000140093872A006360F40CF95BB38B5B41ED
:101AB000B307740163E9C70A6367880AB30DC440BA
:101AC000338DB9016A85EF108040832789000A852C
:101AD0004AC082978327C9006686E2850A85829775
:101AE00083270901138A14004E9AD2850A858297AA
:101AF000850A33867D01814533855901EF10C04148
:101B00008547A30FFDFE83270B00938B19002686C4
:101B10009C47DE855A8593CAF4FF8297A29A26874E
:101B2000DE864A86D68552853D3D5687D2864A86D0
:101B3000A6855E850D3D238009008320C110228586
:101B4000032481108324411003290110FE596E5A89
:101B5000DE5A4E5BBE5B2E5C9E5C0E5DFE4D51619F
:101B6000828036842DB70144C9BF411122C4AA86A0
:101B700006C6014401457D56FD156399C5004536ED
:101B80001204B2402295224441018280139715002D
:101B90003697B307A04003570700C98FFD83FD1791
:101BA000298F7D8F398D3347B400F98F3D8CE9B78C
:101BB000411122C42A84216506C62E96814601471A
:101BC0008547B9487D156394C50299C69396170059
:101BD000A2962390E6008507130524009385F7FF5E
:101BE0006937B2402310A400224441018280034897
:101BF000F6FF3318D800336707011388860063DDCA
:101C000008011398170022983373A7002310680067
:101C10003D83138896FF85077D16C2866DB789467A
:101C2000B387A6403307F5023387E640B307F702D0
:101C30003307F5023387E6403307F702B307E502BF
:101C400005893305A040958FB387E7027D8D460552
:101C5000458182805D714EDE83D90600CAC052DCA8
:101C6000BD0993D9494056DA5AD886C6A2C4A6C23D
:101C70005ED662D466D26AD06ECE939A19002A8B51
:101C80002E873289368A63F3CA00B28AA166910A26
:101C90000144814C3948FD16A1480546B30D270182
:101CA00081478144054C814BA9A0814563F42B01F8
:101CB00083C5FDFF3395F500138D8700C98C6357ED
:101CC000A803138D97FF33F3D400B384A841B3D492
:101CD000950063EE890793171C0063860C02B30519
:101CE000FB00B37764002390F500050C850BFD1D08
:101CF000EA87E3EC5BFB9357140079985D8C63866D
:101D0000CC06854C61BFD29783D707001A853AC6A7
:101D1000BE853EC41AC2E53AA24712432AC03E8598
:101D20009A85F532024EB307A040324733E5C7012A
:101D3000B307A040C98FFD83FD17298C7D8CA16757
:101D4000298C054639489386F7FFA14879BFE39E61
:101D50000CF8B3076040B3E76700FD83FD17134439
:101D600014007D8C1344140049B783570A00B64011
:101D70001375140026442310FB0096440649F259BB
:101D8000625AD25A425BB25B225C925C025DF24DB7
:101D900061618280035706002A883D07118709CBBD
:101DA000AA958147814605451D436317B800828087
:101DB0002E8681456F104016634EF300636BA700BB
:101DC00093181500B29883D808000505B398F80059
:101DD000C696BD07A38FD5FEE117A182FD15F1B709
:101DE00003570500A1682A887D07118706078146E9
:101DF0000145FD183306C04089066393E6008280E2
:101E0000330ED800B387D50003530E0083D70700E5
:101E10009A97AA9713D5F700B3F71701B3C76700CE
:101E2000F18FB3C767002310FE00F9B70357050011
:101E3000A1682A887D071187060781460145FD189C
:101E40003306C04089066393E6008280330ED800D3
:101E5000B387D50003530E0083D70700B307F340C1
:101E6000898F13D5F701B3F71701B3C76700F18F57
:101E7000B3C767002310FE00F1B71D715EDE835B00
:101E8000060086CEA2CCA6CACAC8CEC6D2C4D6C2C6
:101E9000DAC062DC66DA6AD86ED663850B023D4D25
:101EA0002A84AE8CB284636E7D030355250083D5EE
:101EB000240070083E0533659501EFF0FF8FF2476F
:101EC0002311F400F6406644D6444649B649264AF2
:101ED000964A064BF25B625CD25C425DB25D256164
:101EE00082809389FB0093D94900939A1900B30D1E
:101EF00055011386F9FF93FBFB0003DA0D00110572
:101F0000130924000606A69A639B0B0ECA85EF00F0
:101F1000107C2311940183D70D0083DA0A00131576
:101F2000FA003E95528BD6850146EFF0FF887D156D
:101F3000334B5B01935AF5015695B30A6041B3EAFE
:101F40006A01216C93DAFA017D1CFD1AB347850101
:101F5000B3FAFA00B3CAAA00854B014B854C93979C
:101F60001C00A69783D50700850C09093385550306
:101F70002A9B0355E9FF9357FB00337B8B01330505
:101F80006541135BF50133758501231FA9FE33CD30
:101F9000A5003E9BEFF0AFF7B307A041B3E7A70161
:101FA000FD83B34B7501FD17B3F77701B3CBA700E2
:101FB000E3F799FBD2855A85EFF06FF52A89DA8528
:101FC0005285EFF0CFF41347F9FF4A86A685B36B2D
:101FD00075012285B37B7701213522856644F64061
:101FE0004649B649264A964A064B625CD25C425D37
:101FF000B25D5E86A685F25BD644256105BD139C65
:102000001900791C33078401035B0700330D7D4100
:10201000B317AA01335B7B41CA85336BFB003AC619
:10202000EF00F06A32472311940183D70D00035566
:102030000700269C83550C003355754183DA0A004E
:10204000B397A701C98FC607C5831315FB00B3DB80
:102050007541B39AAA015D8DB3EA5B01E9B54111FF
:1020600022C403D4050026C24AC03D0406C62A89FC
:10207000AE84118419E4B2402244924402494101E1
:102080008280268681454A85CD3B7D14E5B703D7FE
:1020900005000111A1683D071187131E170022CC0E
:1020A00006CE2A842A9E0143FD18631EE3000146E2
:1020B00022852EC6A53B1346150022856244B245F3
:1020C000F2400561A5B303552400814E81463305D6
:1020D000C50233751501138F160013181F00B3873F
:1020E000050183D707002298835F0800B387A70202
:1020F000FE97F69793DEF70081CEB3F71701231F03
:10210000F8FEFA86E3E9E6FC2310DE01050371BF61
:102110008546CDBF797156CAAE8A83D506004ECEAC
:1021200022D49389F50093D949402A8426D24AD0F3
:1021300052CC5AC85EC613FBC9FFBA8B06D6328A88
:10214000B684EFF04FF29395190013171B0021632B
:10215000A295DA8F22970149014F7D13631F3F0338
:1021600083D70400A68501462310F40022857D391B
:10217000330920411359F9011346150022852254D1
:10218000B250F249624AD24A424BB24B3366C9005E
:10219000A68502599254456151B9050F93171F0046
:1021A000D69783D6070083572A0003562400228E31
:1021B000B387D70213852400930E2A008142B29779
:1021C000B3F76700B38777030146B3F76700210EC3
:1021D000636F66013A887E850908636A350B169934
:1021E000B37769002390F5001359F90085BF0358B0
:1021F000AEFF835805001106C29203D80E00B388C3
:10220000F8022105A10E3308D8029698C29893D2FD
:10221000F800B3F86800231C1EFF0358A5FF83D8FD
:10222000AEFF3308F802B388D80246988358CEFF31
:10223000469816989352F80033786800231D0EFFD5
:102240008358C5FF03D8CEFFB388F8023308D802FD
:10225000C2980358EEFFC298969893D2F800B3F84C
:102260006800231E1EFF0358E5FF83D8EEFF3308E6
:10227000F802B388D802469883580E0046981698FC
:102280009352F80033786800231F0EFF89B70505C5
:1022900083580800131E15003386C4010356060038
:1022A000529EC69283580E003306F602B388D802B7
:1022B000169646969352F60033766600231FC8FEA4
:1022C00021BFB2963305A0406313D600828003C7B6
:1022D00005008347060005068505B98FE98FB98F8C
:1022E000A38FF5FED5B75D71CAC003D9060052DCD5
:1022F0003E8A7D091359494093071900F99B56DA24
:1023000086C6A2C4A6C24EDE5AD85ED662D466D2B3
:102310006AD06ECE2EC2939A1700636B581BBA8B8D
:10232000130710023387E7022A84328CB68495495A
:102330006375E80245473387E7029149637FE80008
:1023400025473387E7028D496379E8001547B3874E
:10235000E70289496373F8008549A6852285054D02
:102360000609B30C5A01E5396393A9074A86A28589
:102370006685EF00102883D504002285814DEFF09B
:102380008FCE83D7040005472686BD079187860731
:10239000A2972390E70081452285C534014D634D06
:1023A000B00563110C0622855E86A685CD310545F4
:1023B000B640264496440649F259625AD25A425BC4
:1023C000B25B225C925C025DF24D61618280338B74
:1023D0005C014A86A2855A85EF00B021331D3D017C
:1023E000894DDA85569B5E87A68622865A85850D9D
:1023F0001533E318BDFF41B74E8863D03D036E88A7
:10240000630D0C009247220D7D1C03C70700850752
:10241000A10D336DA7014E883EC2FD57B38D0D410E
:10242000339B0701134BFBFF3355BD01337BAB00DF
:1024300081485E87A6862286A285528546C642C40A
:10244000D1394A86D2852285EF00B01AB248224897
:102450008508E3C008FF85476392F902A686668671
:10246000A28552855E877D31330560413365650104
:10247000CA865286A2857D81A93515B783D5040009
:10248000668542C4EFF02FBE2248854733855C0144
:10249000339807018545B346BB003307D040558FBD
:1024A0007D837D1789463306D500B388DC0003564B
:1024B000060003D308008906798E336666002390F0
:1024C000C800E392DAFE85055695E3E605FD79B787
:1024D0000145F9BD1171A2DDD2D540422E8A0C42D0
:1024E000CED7DAD186DFA6DBCAD9D6D3DECFE2CD0E
:1024F0002A8B13010181B28945C003C705009307E8
:10250000F4FF55CB1307F01F636AF70A6318440BF7
:10251000931734000547C517BA840507E34DF0FE4D
:10252000056C180893070C8BBA97FD7B33897701EC
:102530001309E97522864A85EFF08FE7180893079B
:102540000C8BBA97DE9703D507768904F998939A8E
:102550001400CA9A3EC6EFF08FEC137415002AC619
:10256000CA865286DA855685EFF0CFEE03A6C900FB
:1025700083A5890032471308802233089840939737
:102580002400698C0608CA97CA865685A93B5686D8
:10259000D2855A85EFF01F801301017FFE502285FE
:1025A000DE546E544E59BE592E5A9E5A0E5BFE4B47
:1025B0006E4C1161828085053E843DBF0144E9BFB8
:1025C0000111025322CC26CA1AC04AC806CE3A8943
:1025D000BE84EFF0CFC72A8401C9AA854A86268522
:1025E000D53D3305A040698CF24022856244D24437
:1025F0004249056182807D577D166313E600828023
:102600009C419105110593D68701230ED5FE93D6E3
:102610000701A30ED5FE93D68700230FD5FEA30F87
:10262000F5FED9BF411122C42A8415462E85930593
:10263000040506C6C93728446C44B240224441010F
:102640008280FD56FD156393D50082808347060086
:10265000034716001105E2074207D98F03473600EA
:102660001106D98F0347E6FF2207D98F232EF5FEE7
:10267000D1BF0D71232C8114232A9114C045C4416C
:10268000232821152326311503A9050083A98500D8
:1026900023244115232251152A8683AA05012E8A57
:1026A0000A85C145232E1114693F0A870C028A86C8
:1026B0009052DC5AB18F9046B18F90429106B18F03
:1026C00013961700FD83D18FDCDEE393D5FEB7852B
:1026D000825A94080A86938595991355B9019317E0
:1026E0005900C98F0842AE9703284600AA9733C500
:1026F0008900658D218DAA9713D52400FA04C98C11
:1027000033C53401337525012E94D6974294334551
:102710003501229513D8B70113945700336404018F
:102720002A94135529007A093369A90003288600E1
:1027300033C524017D8DAE99C299258D4E951358D0
:10274000B40193195400B3E90901AA99939AE701D6
:1027500013D52700B3EAAA004846B3475901E18FD1
:10276000AE94B3C72701AA94BE9413D5B901939729
:102770005900C98FBE94935724007A04084A5D8C8F
:10278000B3C78A00B3F737012E99B3C757012A9907
:102790003E9913D5B40193975400C98F3E995106C1
:1027A00093D72900FA09B3E9F900E398C6F237F59F
:1027B000D96E8A85130515BA1358B9011316590035
:1027C000B3C7340133660601A18F2A96B297B04988
:1027D0002A94D105B29713D62400FA04D18C33463B
:1027E0003901258E2296A041D69713D8B70122969B
:1027F00013945700336404013294135629007A0964
:102800003369C900F041AA991358B401B29933C68B
:1028100024013D8E4E9693195400B3E90901B299F3
:10282000939AE70113D62700BC45B3EACA00AA94DD
:10283000BE94B3475901A18F13D6B901BE949397A3
:102840005900D18FBE94935724007A045D8CFC45C7
:102850002A9913D6B4013E99B3C78A00B3C737018A
:102860003E9993975400D18F3E9993D72900FA0946
:10287000B3E9F900E392B6F4B7C51B8F0A869385D6
:10288000C5CDB3E7890033F58900E58F8328060AB3
:10289000C98F1358B90113155900336505012E95D9
:1028A0004695AA9713D52400FA04C98C33E5340160
:1028B000B3F8340133752501336515018328460AC1
:1028C0002E94D6974694229593D8B7011394570027
:1028D000336414012A94135529007A093369A90035
:1028E00033E52401B3F824017D8D33651501832878
:1028F000860AAE99939AE701C6994E959358B4010A
:1029000093195400B3E91901AA9913D52700B3EA22
:10291000AA00B367590133755901E18FC98F0325A7
:10292000C60AAE942E99AA94BE9413D5B901939772
:102930005900C98FBE94935724007A045D8CB3E785
:102940008A00B3F7370133F58A00C98F0325060BD8
:1029500051062A993E9913D5B40193975400C98F13
:102960003E9993D72900FA09B3E9F900E39BC6F031
:10297000B7C562CA9385651D1355B9011316590071
:10298000B3C73401498EA18F130507082E96B2975D
:1029900030592E945107B29713D62400FA04D18CE3
:1029A00033463901258E22966059D69713D8B70140
:1029B000229613945700336404013294135629006D
:1029C0007A093369C900305DAE991358B401B299E0
:1029D00033C624013D8E4E9693195400B3E9090184
:1029E000B299939AE70113D627007C5DB3EACA0037
:1029F000AE94BE94B3475901A18F13D6B901BE94CA
:102A000093975900D18FBE94935724007A045D8C1C
:102A10008327C70E2E9913D6B4013E99B3C78A00F7
:102A2000B3C737013E9993975400D18F3E9993D7FE
:102A30002900FA09B3E9F900E390E6F483270A00D4
:102A40008320C1153E9983274A0023202A010329A8
:102A50000115BE9483278A0023229A0083244115FE
:102A6000BE998327CA0023243A018329C1143E94C6
:102A700083270A0123268A0003248115D697232859
:102A8000FA00832A4114032A811435618280797106
:102A90004AD00329850422D44ECE52CC56CA5AC8F5
:102AA0005EC606D626D22A842E8AB2891379F90305
:102AB000930A0004130B4500930B0505639D090061
:102AC000B250225492540259F249624AD24A424BBD
:102AD000B24B45618280B3872A41CE8463F33701CC
:102AE000BE842686D28533052B0121263C447844BA
:102AF0002699269AB3899940BE94B3B7F400BA9741
:102B000024C47CC4E31C59FBDE855A859D360149EB
:102B100075B75971A6D22445A2D4CAD093F4F40350
:102B200026862A842E8993054500081086D6D1244E
:102B300051469305040568006D2C98109387140086
:102B4000BA94130700F82380E4FC130680031810DE
:102B50003305F7006371F608130600041D8E8145E6
:102B6000652E6C000810313613068003814508106D
:102B7000652638447C446C009356D7018E07D58F68
:102B800013D6870193163700230CC10413D607010F
:102B9000A30CC104A30DF10413D6870093D78601BB
:102BA000230EF10493D70601C206C182A1822E072B
:102BB000558F0810230DC104A30EF104231FE10457
:102BC0004D3C6C004A8515463D34B650265496540B
:102BD0000659656182801D8E814559BF411122C40D
:102BE0004AC02A843289130505052E86954526C2DA
:102BF00006C6B684B934B2402324240564C42244F2
:102C0000924402494101828013010182B7050120EB
:102C10001305015D93858536232E117C232C817C41
:102C2000232A917C2328217D2ADAEFE0BFBEB70555
:102C300001202ADC9385C54668102ADEEFE09FBD9F
:102C4000B7050120AAC0938505478809EFE09FBC1E
:102C5000B70501209385454F880BEFE0BFBBB70553
:102C6000012093858557880DEFE0DFBAB705012075
:102C70009385C55F880FEFE0FFB9B7050120938505
:102C800005681305014DEFE0FFB8B70501209385F6
:102C90004570138501F5EFE0FFB7B70501202A84E1
:102CA00093858572138501EDEFE0DFB62ACEB70577
:102CB000012093854575138501CDEFE0BFB5F24640
:102CC000138601EDC8008145EFE09FBEB717008075
:102CD000B715012022C0938801F55818C8001308C1
:102CE0000040938707B7814601469385C58DEFF075
:102CF0003F8D8320C17D0324817D8324417D032971
:102D0000017D1301017E8280411122C406C69747CE
:102D10000000938707402A8481C78145EF40203F08
:102D200017F5FFFF032505931C5591C38297228554
:102D3000EF40C01F011122CC26CA4AC806CE4EC69B
:102D400052C4AA842E89328409C51C4D99E3EF0030
:102D5000407C97E7FFFF938767BD6310F402C04094
:102D60008357C400A18B95CB1C4885CBFD59294ABC
:102D700083450900A1E1014535A097E7FFFF93874F
:102D8000E7BC6314F4008044E1BF97E7FFFF93873B
:102D9000E7B7E317F4FCC044E1B7A2852685192103
:102DA00071D57D55F2406244D2444249B249224A2B
:102DB000056182801C440509FD171CC463D7070008
:102DC000184C63CBE700638945011C40138717004B
:102DD00018C02380B70069BF228626852126E31903
:102DE00035F9C1B72E86AA8517E5FE5F032585CB89
:102DF00091B7B3C7A5008D8BB306C50081E78D479A
:102E000063EEC700AA876371D50603C7050085076F
:102E10008505A38FE7FEE3EAD7FE828013773500AE
:102E2000AA8711CB03C7050085078505A38FE7FE99
:102E300013F73700FDB713F7C6FF3308F740130643
:102E40000002634406032E883E86636BE606138801
:102E5000D7FF0146636607010D071D8F1376C7FF75
:102E6000B297B295E3E3D7FA828083A3050083A2E9
:102E7000450083AF850003AFC50083AE050103AEF7
:102E8000450103A3850183A8C50123A0770023A2E0
:102E9000570003A8050223A4F70123A6E70123A8EE
:102EA000D70123AAC70123AC670023AE170193877C
:102EB00047029385450223AE07FF3308F74051B719
:102EC0008328080011061108232E16FFBDBF63F3E7
:102ED000A504B386C500637FD5029345F6FF8147FD
:102EE000FD176393F50082803387F60003480700DF
:102EF0003307F6002A9723000701DDB73387F50073
:102F0000834607003307F50085072300D700E31742
:102F1000F6FE82808147E5BF3D432A876373C30283
:102F20009377F700BDEFADE5937606FF3D8ABA963D
:102F30000CC34CC30CC74CC74107E36BD7FE11E26F
:102F40008280B306C3408A06970200009696678087
:102F5000A6002307B700A306B7002306B700A30502
:102F6000B7002305B700A304B7002304B700A303E9
:102F7000B7002303B700A302B7002302B700A301E1
:102F8000B7002301B700A300B7002300B700828079
:102F900093F5F50F93968500D58D93960501D58D04
:102FA00061B7939627009702000096968682E78085
:102FB00086FA9680C1171D8F3E96E374C3F8A5B7B5
:102FC0005D7122D406D62A842EDA32DC36DEBAC00F
:102FD000BEC2C2C4C6C617E5FE5F0325A5AC11C5B7
:102FE0001C4D81E72AC6352332450C4554182286EC
:102FF00036CEEF00D017B2502254616182800111A9
:1030000026CA4AC806CE22CC4EC652C4AA842E89ED
:1030100001C51C4D91E3F5299C4C804499E326851C
:10302000CD2997E7FFFF93876790631CF402C040A8
:103030008357C400A18BB1C71C48A1C7FD59294AB9
:103040001C4483450900FD17B1E91CC463DE070673
:103050002286A94526857920FD576308F502294572
:1030600035A097E7FFFF9387678E6314F4008044D1
:10307000C1B797E7FFFF93876789E31BF4FAC04462
:1030800045BFA2852685392A55D97D55F24062442F
:10309000D2444249B249224A056182801CC40509D2
:1030A00063D70700184C63CBE700638945011C40D8
:1030B0001387170018C02380B70059B722862685CA
:1030C0001520E31F35F7D1B71C401387170018C030
:1030D00029472380E70061B7AA8517E5FE5F03252E
:1030E000659C31BF011122CC26CA4AC806CE4EC605
:1030F000AA842E89328401C51C4D91E3192997E7D2
:10310000FFFF9387A7826319F406C0401C4C1CC4C0
:103110008357C400A18BC9C31C48BDCF1C480840BD
:103120009379F90F1379F90F1D8D5C486346F5000B
:10313000A2852685C1242DE51C440505FD171CC468
:103140001C401387170018C0238037015C4863892F
:10315000A7008357C400858B81CBA9476316F9006C
:10316000A2852685412C0DEDF2406244D244B2493D
:103170004A8542490561828097D7FFFF9387077D83
:103180006314F400804459B797D7FFFF93870778FB
:10319000E31EF4F6C0449DBFA285268521203DDDB7
:1031A0007D59D9B7411122C426C24AC006C697E448
:1031B000FE5F83A4248F2A892E8489C49C4C99E3C2
:1031C0002685812E97D7FFFF938747766317F402F2
:1031D000C0408317C4001397070193F6870041830B
:1031E000ADEA9376070195EA25472320E90093E7A6
:1031F00007042316F4007D5571A897D7FFFF938726
:10320000E7746314F4008044E9B797D7FFFF93870E
:10321000E76FE310F4FCC0446DBF118B0DC74C5831
:1032200089C9930744046384F5004A85892B232ABE
:1032300004028357C4002322040093F7B7FD23162A
:10324000F4001C481CC08357C40093E78700231672
:10325000F4001C4881EF8357C4001307002093F744
:1032600007286385E700A2854A859D298317C40046
:103270001397070193F6170041839DC254482324F6
:103280000400B306D04014CC1448014581E61377FE
:10329000070831FFB2402244924402494101828032
:1032A00093762700014691E2504810C4F1BF83D7BE
:1032B000C500011122CC26CA06CE4AC84EC613F755
:1032C0008700AA842E8475E3D8416347E000B841A3
:1032D0006344E000014575A858546DDF856603A975
:1032E0000400F58F23A00400A5CF68488357C400CD
:1032F000918B99C75C401D8D5C5899C33C401D8DD6
:103300005C540C502A86814626858297FD570357C8
:10331000C400631DF5009440F54763E3D708B70781
:1033200040208507B3D7D700858BBDCB1C4823220F
:1033300004001CC085677D8F19C7FD576314F50015
:103340009C4091E368C84C5823A02401C1D5930741
:1033500044046384F50026851D21232A04029DBFB1
:103360000C508546014626850297FD57E310F5F877
:103370009C40ADDF75476385E70059476395E700DB
:1033800023A0240181BF8357C40093E707042316B9
:10339000F400F2406244D2444249B249056182805D
:1033A000136707042316E400EDB783A90501E3833F
:1033B00009F203A905008D8B23A03501330939419A
:1033C000014791E3D84918C4E35620F11C540C502E
:1033D000CA864E8626858297634AA0008357C4001A
:1033E0007D5593E707042316F40065B7AA993309BE
:1033F000A940D9BF9C49B9CF011122CC06CE2A845D
:1034000011C51C4D81E72EC62922B24597D7FFFF73
:103410009387C751639BF5004C408397C50095C7C0
:1034200022856244F240056159B597D7FFFF938723
:10343000E7516394F5000C44CDB797D7FFFF93870E
:10344000E74CE39CF5FC4C44C9BFF24062440145A3
:103450000561828001458280411122C406C62A840A
:103460002316B5002317C5002320050023220500DD
:10347000232405002322050623280500232A05000E
:10348000232C0500214681451305C505EFF0DFA873
:1034900097170000938707B25CD0971700009387B7
:1034A00067B41CD4971700009387A7B85CD497170C
:1034B0000000938767BBB24000D01CD82244410172
:1034C000828097050000938525F381AA411126C2C9
:1034D000130680069384F5FFB384C4024AC02E8984
:1034E00022C406C693854407352E2A8401CD2320A5
:1034F000050023222501310508C413868406814571
:10350000EFF09FA1B240228522449244024941013A
:1035100082801C4DBDE3411122C406C697070000FE
:10352000938767FA1CD52324050423260504232842
:10353000050497E7FFFF83A7E7112A846314F500CA
:1035400085471CCD22851D2848C02285052808C432
:1035500022852D2048C4484001469145F53D084448
:103560000546A545D53D48440946C945F535854735
:10357000B2401CCC2244410182808280411126C28B
:1035800097E4FFFF83A4040D9C4C4AC006C622C4E6
:103590002A8999E32685B53F938484048044DC40DE
:1035A000FD1763D607009C40B9CF8440C5BF031701
:1035B000C40039E7C17785072322040623200400CD
:1035C00023220400232404005CC423280400232AAB
:1035D0000400232C0400214681451305C405EFF0A7
:1035E000BF93232A0402232C040223240404232649
:1035F0000404B2402285224492440249410182805F
:103600001304840671BF91454A85C93588C02A8450
:1036100049FDB1472320F900E9BF797122D44AD08E
:103620004ECE52CC5AC85EC606D626D256CA2A8973
:103630002E8A130485048149054BFD5B0444832ACB
:103640004400FD1A63D00A0200406DF8B2502254C3
:1036500092540259624AD24A424BB24B4E85F249C9
:103660004561828083D7C400637BFB008397E400BD
:1036700063877701A6854A85029AB3E9A9009384F6
:103680008406C1B75971CAD02E898395E500A2D4AA
:10369000A6D286D63284B68463DC05008317C900BF
:1036A00023A0040093F7070895E3930700400DA0BB
:1036B0003000EF00D021E34305FE3247BD67F98FAC
:1036C0007977BA9793B717009CC0C5B793070004E2
:1036D000B6501CC026549654065901456561828037
:1036E00083D7C500011122CC06CE26CA4AC8898BD1
:1036F0002E8489CF930774041CC01CC885475CC8FE
:10370000F2406244D2444249056182807400300034
:103710002A898D3FA245AA844A85292201ED831773
:10372000C40013F7072069FFF19B93E727002316D6
:10373000F400C9B7970700009387E7D82324F9025C
:103740008357C40008C008C893E707082316F4008D
:10375000A2475CC8B24791CF8315E4004A85EF00C9
:10376000301A01C98357C400F19B93E71700231651
:10377000F4000355C400C98C2316940051B7D5C179
:1037800083A7C5FF011122CC06CE1384C5FF63D3E6
:1037900007003E942AC6EF00901E17D7FE5F13075E
:1037A000E7321C43324589EB2322040000C3624404
:1037B000F24005616F00D01C637DF4001040B30639
:1037C000C4006396D7009443DC43B29614C05CC037
:1037D000F1BF3E87DC4399C3E37DF4FE1443330617
:1037E000D700631F86001040B29614C33306D7007B
:1037F000E39FC7FA9043DC43B29614C35CC345BF52
:103800006375C400B1471CC15DB71040B306C40066
:103810006396D7009443DC43B29614C05CC040C3A7
:1038200079B78280011126CA93843500F1984AC87D
:1038300006CE22CC4EC6A104B1472A8963F6F40411
:10384000B14463E5B4044A85EF00701397D6FE5F78
:103850009386C62798423A8429E417D4FE5F13045E
:1038600024271C4089E781454A85192F08C0A68571
:103870004A853927FD59631A3507B1472320F900D6
:103880004A85EF00F00F31A0E3DD04FAB1472320B1
:10389000F9000145F2406244D2444249B24905610F
:1038A00082801C40858F63CF07022D466376F60029
:1038B0001CC03E9404C029A05C40631387029CC2D4
:1038C0004A85EF00F00B1305B4009307440061999B
:1038D0003307F540E300F5FC3A94898F1CC05DBFC7
:1038E0005CC3F9BF2287404085BF1304350071983F
:1038F000E30285FCB305A4404A855925E31C35FB4A
:10390000ADBF1C46FD171CC663DA0700184E63C521
:10391000E700A9476394F5006FF0CFFC1C422E85A9
:103920001387170018C22380B7008280011122CCB0
:1039300026CA4AC84EC652C406CE2A89AE893284E7
:10394000B304D6007D5A63149400014509A8834549
:1039500004004E864A8575370504E31645FFF2409C
:103960006244D2444249B249224A0561828035719B
:1039700022CD26CB4AC94EC706CF52C556C35AC11F
:10398000DEDEE2DCE6DAAA89AE843289368401C55D
:103990001C4D91E3BD3E97D7FFFF938727F9639CAA
:1039A000F40C83A4490083D7C400A18BFDC79C48B5
:1039B000EDC793070002A304F1029307000302D2AC
:1039C0002305F10222C6930B500297DAFFFF938A78
:1039D000EAF9054C294B4A848347040099C3639153
:1039E000770FB30C2441630D2401E6864A86A68531
:1039F0004E852D3FFD576305F51E9257E6973ED243
:103A000083470400638E071CFD571309140002C886
:103A100002CE3ECA02CCA309010482D48345090028
:103A200015465685EF000074C2471304190059E982
:103A300013F7070109C713070002A309E10413F7ED
:103A4000870009C71307B002A309E10483460900F0
:103A50001307A0026380E608F2474A8481462546A0
:103A60000347040093051400130707FD6379E60A72
:103A7000B5CA3ECE85A897D7FFFF938727ED6395FC
:103A8000F40083A4890005B797D7FFFF938707E861
:103A9000E39BF4F083A4C90039B7A6854E85EFF007
:103AA0006FF001D97D55FA406A44DA444A49BA496F
:103AB0002A4A9A4A0A4BF65B665CD65C0D618280A4
:103AC000050419BF330555413315AC00C98F3EC8F5
:103AD0002289A9B7324793064700184336C663497F
:103AE00007023ACE034704009307E002631FF7047E
:103AF000034714009307A002631BF702B2470904AF
:103B0000138747009C433AC663C107023ECA35A8E3
:103B10003307E04093E727003ACE3EC8E1B7B387CA
:103B200067032E848546BA9725BFFD57C5B70504A0
:103B300002CA8146814725460347040093051400C5
:103B4000130707FD6374E606F1F2834504000D4692
:103B500017D5FFFF130505E2312511CD97D7FFFFDC
:103B6000938747E11D8D93070004B397A700424553
:103B700005045D8D2AC883450400194617D5FFFF4B
:103B8000130585DF130914002304B102E12B2DC1B5
:103B90009307000095E74247B2471377071009CF14
:103BA00091073EC69257D2973ED235B5B387670389
:103BB0002E848546BA9749B79D07E19BA107D5B7E3
:103BC0007800970600009386A6D626860C084E85B8
:103BD00097000000E7000000FD572A8AE314F5FC77
:103BE00083D7C40093F70704E39E07EA125565BD27
:103BF0007800970600009386A6D326860C084E858B
:103C0000012AD9BF797152CC9C493A8A984522D46D
:103C100026D24ECE56CA06D64AD05AC85EC6AA8901
:103C20002E84B284B68A63D3E700BA879CC0034768
:103C3000340419C385079CC01C4093F7070281C751
:103C40009C4089079CC00329040013796900631A0A
:103C50000900130B9401FD5B5C449840998F634C01
:103C6000F90483473404B336F0001C4093F707028D
:103C7000A5EB13063404D6854E85029AFD576303DF
:103C8000F5041C4011469840998B54448144639735
:103C9000C700B384E64063D3040081441C44184841
:103CA0006354F700998FBE94014969047D5B639862
:103CB0002405014509A885465A86D6854E85029A6F
:103CC000631E75017D55B250225492540259F24937
:103CD000624AD24A424BB24B456182800509ADBF70
:103CE0003307D40013060003A301C7040347540499
:103CF00093871600A2978906A381E7049DBF854696
:103D00002286D6854E85029AE30E65FB050945B7E6
:103D1000797122D426D24AD04ECE06D652CC56CA7B
:103D20005AC803C8850193078007AA842E84328964
:103D3000B68963EE0701930720069386350463ED89
:103D400007016305081C93078005630AF812930AAC
:103D500024042301040515A89307D8F993F7F70F56
:103D60005546E366F6FE17D6FFFF1306E6C38A073D
:103D7000B2979C43B29782871C43938A250493860B
:103D800047009C4314C32381F50485475DA29C41F1
:103D9000084313F60708930545000DC21C410CC3E8
:103DA00063D807001307D002B307F040A301E4046F
:103DB00017D6FFFF1306C6BC2948A1A013F60704B7
:103DC0001C410CC371DEC207C187D9BF90411C439F
:103DD000137506089385470001C50CC39C4339A0A1
:103DE000137606040CC37DDA83D707001307F006A9
:103DF00017D6FFFF1306C6B86304E80E2948A301CF
:103E00000404584018C4634507000C40ED990CC0E9
:103E100099E3B68A19CFB68A33F70703FD1A3297AA
:103E2000034707002380EA003E87B3D70703E37503
:103E300007FFA147631EF8001C40858B91CB5840BB
:103E40001C4863C7E70093070003A38FFAFEFD1A1F
:103E5000B386564114C84E87CA867000A28526854F
:103E600055337D5A631B450D7D55B25022549254F3
:103E70000259F249624AD24A424B45618280A3828A
:103E8000050517D6FFFF1306A6AF0C40084313F82D
:103E900005081C411105630D080208C313F715003E
:103EA00001C793E505020CC04148B1FB18401377E8
:103EB000F7FD18C0A9B79C4193E707029CC193077F
:103EC0008007A302F40417D6FFFF1306A6AC75BF44
:103ED00013F8050408C3E30308FCC207C1837DBFD0
:103EE000214831BF90411C43CC4913780608138503
:103EF00047006306080008C39C438CC301A808C39D
:103F0000137606049C4375DA2390B7002328040037
:103F1000B68A91B71C43D04181459386470014C3AC
:103F200083AA070056853D2C01C53305554148C07D
:103F30005C401CC8A301040439BF14485686CA85D6
:103F400026858299E30245F31C40898B8DE7B247B1
:103F50004844E35CF5F03E8509BF85465686CA8530
:103F600026858299E30265F1050A5C443247998F00
:103F7000E345FAFEE9BF014A930A94017D5BF5B778
:103F8000411122C42A842E8597D7FE5F23A407B44B
:103F900006C6EF20507EFD576318F50097D7FE5FE9
:103FA00083A747B391C31CC0B24022444101828021
:103FB000411122C42E848395E50006C6D9226349A7
:103FC00005007C48AA977CC8B24022444101828007
:103FD0008357C4007D777D17F98F2316F400EDB762
:103FE00083D7C500011122CC26CA4AC84EC606CEC8
:103FF00093F70710AA842E843289B68991C78395D6
:10400000E500894601462D228357C4007D777D1740
:10401000F98F8315E4002316F4006244F240CE8643
:104020004A86B24942492685D24405613DA84111DC
:1040300022C42E848395E50006C6DD28FD5703576C
:10404000C400631BF500FD77FD17F98F2316F400FC
:10405000B2402244410182808567D98F2316F40043
:1040600068C8FDB78395E5001DA8411122C42A84C4
:104070002E85B285368697D7FE5F23AD07A406C688
:10408000EF201073FD576318F50097D7FE5F83A7E5
:1040900067A491C31CC0B2402244410182804111F7
:1040A00022C42A842E8597D7FE5F23A507A206C6C1
:1040B000EF209066FD576318F50097D7FE5F83A742
:1040C00067A191C31CC0B2402244410182804111CA
:1040D00022C42A842E85B28597D7FE5F23AC079E23
:1040E00006C6EF201065FD576318F50097D7FE5FF1
:1040F00083A7479E91C31CC0B240224441018280E5
:10410000411122C42A842E8597D7FE5F23A4079CE1
:1041100006C6EF205063FD576318F50097D7FE5F82
:1041200083A7479B91C31CC0B240224441018280B7
:10413000411122C42A842E85B285368697D7FE5F28
:1041400023AA079806C6EF209060FD576318F50074
:1041500097D7FE5F83A7079891C31CC0B240224443
:104160004101828093F5F50F2A966314C50001453D
:10417000828083470500E38DB7FE0505FDB7828089
:104180008280411122C42A842E85B285368697D733
:10419000FE5F23A1079406C6EF20B05CFD576318AD
:1041A000F50097D7FE5F83A7E79291C31CC0B2408A
:1041B00022444101828079714AD013D9450126D227
:1041C0004ECE52CC5AC862C49394C50006D622D4AF
:1041D00056CA5EC61379F97F2A8A328B368CB18033
:1041E00093D9F501630409089307F07F630AF90C7A
:1041F000935AD5018E04B3E49A00B70A8000B3EA5B
:10420000540113143500130919C0814B1315CC0048
:104210009354C50013554C019375F57F135CFC0155
:10422000F9C19307F07F638BF51013953400935712
:10423000DB015D8DB7048000C98C931F3B001385A3
:1042400015C0814713972B005D8F7D173946B3C684
:104250008901B305A9406365E61017C6FFFF130681
:10426000267A0A073297184332970287B3EAA400E6
:1042700063820A069DC82685EF005025930755FFE7
:1042800071476349F702F54A130485FFB38AFA4080
:10429000B3948400B35A5A01B3EA9A0033148A00E3
:1042A0009305D0C03389A5408DB7EF0030221305A8
:1042B0000502E9B7930485FDB31A9A000144CDB70E
:1042C000B3EAA400638C0A002A84A68A1309F07F4B
:1042D0008D4B2DBF01440149854B0DBF014413098E
:1042E000F07F894B25B7B3EF640163820F069DC849
:1042F0002685EF00B01DAA85938755FF7147634956
:10430000F702F546938F85FF9D8E3395F401B356E2
:10431000DB00B3E4A600B31FFB019306D0C03385D6
:10432000B64005B75A85EF00701A93050502E9B744
:10433000138585FDB314AB00814FC5B7B3EF64019E
:10434000638B0F00DA8F1305F07F8D47E5BD814445
:1043500001458547C5BD81441305F07F8947DDB51B
:1043600063E6540163969A2A6364F42B1396FA0168
:10437000135714009317F40193DA1A003364E6001C
:104380001395840093D88F01B3E8A800418133DEF0
:10439000AA02939E080193DE0E01135704011393A2
:1043A0008F00B3FAAA0272863388CE03C20A33673B
:1043B0005701637C070146971306FEFF63671701E9
:1043C000637507011306EEFF469733070741335E17
:1043D000A702420441803377A702F2823388CE03DA
:1043E0004207418F637C070146979302FEFF636794
:1043F0001701637507019302EEFF469733040741E7
:1044000042064168B3625600130EF8FF13D602014C
:1044100033F7C201135F0301337EC301B303EE021E
:10442000B304C6033307EF02B30FE6033306970066
:1044300013D70301329763739700C29F1356070186
:104440007E96C16FFD1F3378F7014208B3F3F30185
:104450001E986367C4009684631EC40263FC07034E
:104460009A9733B7670046973A949384F2FF63E6CE
:1044700088006391880263EF67006366C400631B72
:10448000860063F907019A9733B7670046979384CC
:10449000E2FF3A9433880741118CB3B707011D8CB2
:1044A000FD5F6387880EB35FA4021357080133745E
:1044B000A4027E86B387FE034204598C637CF40019
:1044C00046941386FFFF636714016375F400138637
:1044D000EFFF46941D8C3357A4024208135808017D
:1044E0003374A402BA87B38EEE02420433648800A8
:1044F000637CD40146949307F7FF636714016375E7
:10450000D4019307E7FF469442065D8E9317060198
:10451000C183135706013308EF023304D441330F2C
:10452000FF02B38EC703330EC70393D70E01729FEA
:10453000FA9763F4C70141673A9813D70701429786
:1045400041687D1833F507014205B3FE0E017695EB
:104550006366E400631FE418B28F1DC94694930F8D
:10456000F6FF636114036366E4006313E418637D7C
:10457000A3009317130033B367009A98930FE6FFD5
:1045800046943E836314E4006304650093EF1F00C8
:104590009387F53F635BF00A13F77F0001CF13F7B2
:1045A000FF0011466308C70013864F00B33FF601B2
:1045B000FE94B28F37070001658F19C7B70700FF58
:1045C000FD17FD8C938705401307E07F6342F706D4
:1045D00093DF3F001397D4013367F70113D53400FD
:1045E000D2073706F07F3205B2502254F18F318165
:1045F0005D8DFE06B367D50092540259F249624AB6
:10460000D24A424BB24B224C3A85BE8545618280EC
:10461000FD158147B5B3CE86D684A28FDE870D47C0
:10462000638AE70A0547638EE70A0947E392E7F6DC
:10463000014501479307F07F65B7E286CDB7B70420
:104640000800814F81468D47D9BF05451D8D130751
:1046500080036348A7087D476349A7049385E54124
:10466000B397B40033D7AF00B395BF00D98FB3353C
:10467000B000CD8F33D5A40013F7770001CF13F727
:10468000F70011466308C70013874700B337F700E8
:104690003E95BA8737078000698F39E71317D50130
:1046A0008D835D8F0D81814725BF0557B307F74087
:1046B00013060002B3D7F40001476306C500138751
:1046C000E5433397E4003367F7013337E000D98FD0
:1046D00001455DB73705080001479307F07F814624
:1046E00001B701450147C1B7014501478547CDBD28
:1046F0007E86B28F61BD79714ECE93D9450122D4A9
:1047000026D252CC56CA5EC69394C50006D64AD06D
:104710005AC893F9F97F2A84B28BB68AB18013DA2A
:10472000F501638109089307F07F6383F90C9357C0
:10473000D5018E04DD8CB7078000DD8C13193500A0
:10474000938919C0014B13D54A011394CA001375FC
:10475000F57F318093DAFA0155CD9307F07F63013D
:10476000F51093D7DB010E045D8CB70780005D8CDC
:10477000130515C093973B00014793162B00D98E64
:104780004E95FD16394833465A0193051500636A64
:10479000D80E17C5FFFF1305652A8A06AA9694420C
:1047A000AA96828633E9A400630D090485C826858C
:1047B000312B130755FFF14763C6E702F54713098D
:1047C00085FF998FB3942401B357F400DD8C33191E
:1047D00024019309D0C0B389A940ADB7C5291305F9
:1047E0000502C1BF930485FDB31494000149D5B7F8
:1047F00033E9A400630B09002A899309F07F0D4B6C
:1048000099B781448149054B3DBF81449309F07FAD
:10481000094B15BFB3677401A1CF05C822857D215F
:10482000930655FFF14763C7D7027547930785FF86
:10483000158F3314F40033D7EB00598CB397FB007A
:104840001307D0C03305A74005BF5E85412113057E
:104850000502F9B7130485FD33948B008147CDB76A
:10486000B367740191CBDE871305F07F0D4731B735
:1048700001440145054711B701441305F07F09477D
:10488000EDBD416F930EFFFF1357090193D8070148
:104890003379D901B3F7D70133882803B306F90276
:1048A000B30FF7023303F80113D806011A98330E39
:1048B00017036373F8017A9E935308013378D80184
:1048C000B3F6D601135F0401B372D40142083698DF
:1048D000B30E5702B306590233092F033303D9012C
:1048E00013D906011A993307E7036374D9014163A9
:1048F0001A97935E0901C169BA9E1387F9FF33794C
:10490000E900F98E13D404014209F98C3387970228
:104910003699CA933303F402B3869802B3878802A8
:10492000B388660093560701C69663F36600CE9778
:1049300093D80601C169B38FF8009387F9FFB38854
:104940009202FD8E7D8FC206BA96B3075402B3045D
:104950009F0233038F02BE9413D40801A29463F321
:10496000F4004E93C167FD1733F7F400B3F8F80075
:1049700042071E9E469733392E017697330427014E
:10498000369EB336DE00B308F401338FD8003337D8
:10499000D70133342401598CC180B3B8F801B33640
:1049A000DF002694B3E6D80036941A9493577F011B
:1049B00026045D8C93179E00B3E70701B337F00020
:1049C000135E7E0113179F00B3E7C701D98F370726
:1049D0000001618F4DCB13D71700858BD98F13172B
:1049E000F401D98F05809386F53F6350D00A13F701
:1049F000770001CF13F7F70011456308A70013876D
:104A00004700B337F7003E94BA8737070001618F3C
:104A100019C7370700FF7D17798C93860540130768
:104A2000E07F634ED70E13D737009317D401D98F89
:104A30000D80139746013204B706F07F758F3180E1
:104A4000598C7E06B2503367C400225492540259E6
:104A5000F249624AD24A424BB24B3E85BA85456121
:104A6000828052862684CA875A8789466309D70A74
:104A70008D46630FD7088546E317D7F60144814773
:104A80009DA05686DDB7AA85B9BF0545158D1307CC
:104A90008003E345A7FE7D476349A7049385E5416D
:104AA0003317B400B3D6A700B397B700558FB33709
:104AB000F000D98F3354A40013F7770001CF13F718
:104AC000F70091466308D70013874700B337F70014
:104AD0003E94BA8737078000618F39E71317D401F6
:104AE0008D83D98F0D808146A9B70557158F13087F
:104AF00000023357E4008146630605019385E543D0
:104B0000B316B400D58FB337F000D98F01446DB719
:104B10003704080081479306F07F014619BF01441E
:104B200081479306F07F31B701448147854611B72D
:104B3000011106CE22CC26CA4AC84EC652C4B3675B
:104B4000B500638707122A842E89AE84ADC12E85F5
:104B5000B52AAA89130AE043330A3A41930730433E
:104B600063C147072D47A287635337031307A0028A
:104B7000634337059304B002138759FFB38434416C
:104B8000B3549400B315E900CD8CB317E400F240A0
:104B900062449395C400520AB1813367BA00D2448B
:104BA0004249B249224A3E85BA8505618280392A46
:104BB0009309050245B7938559FDB314B4008147A5
:104BC000F9B79307604363D34703138689032285AC
:104BD000CA85C1284D8D2146B334A000CA852285DF
:104BE00033063641512833E4A4002E892147A28799
:104BF000CA85635437031307700263453707138769
:104C000089FFB315E900130980023309394133598B
:104C10002401B365B900B317E400370780FF7D179F
:104C2000F98D13F7770001CF13F7F700914663086A
:104C3000D70013874700B337F700BE95BA87370709
:104C400080006D8F09CB370780FF7D17130AF04373
:104C5000F98D330A3A418D831395D501C98F93D4C9
:104C6000350035B7938589FDB315B400814775B715
:104C700081448147014A21BF01CE93070002918FF1
:104C80006349F000130506FE014733D5A500BA8538
:104C9000828033D7C5003355C500B395F5004D8DDF
:104CA000FDB701CE93070002918F6349F000930591
:104CB00006FE0147B315B5003A8582803317C5005B
:104CC000B395C5003355F500C98DFDB7C16763764F
:104CD000F5029307F00FB3B7A7008E071307000282
:104CE0001D8F3355F50097C7FFFF9387E7D83E9593
:104CF000034505003305A740828037070001C147FF
:104D0000E36EE5FCE147D9BFB7170080938747AA58
:104D1000370700026383A70001478E05BA95116724
:104D200093074700AE977D5588C3BA9590C194C349
:104D3000014582800111B717008022CC4AC806CEF7
:104D400026CA4EC6938747AA2A8401496313F500F1
:104D50000949444099E4B7090080639B24018547D1
:104D60005CC0F2406244D2444249B249056182804B
:104D70008D4591C09D4583A7890BA2860146DC4FD6
:104D80001385890B85048297C9BF7D5582806F008A
:104D90001079411106C6732540F1EF200001B240A1
:104DA00041016F20200001112EC632C436C206CE4A
:104DB00022CC26CAAA84EF0090762A84D93FB7175E
:104DC0000080938747AA92462246B24501486393E2
:104DD000F4000948854763E9870037070080814769
:104DE0001307870B63980701F2406244D2447D5554
:104DF000056182808D4891C39D486314E5006384FA
:104E000015018507C5B71C416244F240D244DC4F0E
:104E100005618287011106CE2EC6A53F11C9B24594
:104E200005476367B7001C41F240DC430561828798
:104E3000F2407D5505618280011106CE22CC2EC63E
:104E40009DC12A84B937B7170080938747AAB24516
:104E500089466303F40081463707008081471307C2
:104E6000870B6397D700F24062447D5505618280CD
:104E70000D4691C31D466314E5006384C500850794
:104E8000CDB71C416244F240DC53056182870111B9
:104E900006CE22CC2EC69DC12A84E53DB7170080E0
:104EA000938747AAB24589466303F40081463707D2
:104EB000008081471307870B6397D700F240624455
:104EC0007D55056182800D4691C31D466314E50042
:104ED0006384C5008507CDB71C416244F2409C57EE
:104EE0000561828737170080130747AAB7070002BA
:104EF0006303A7008147B1661387C6FFE1163E979B
:104F0000B697144388430C43E39DD5FE828041113C
:104F1000B717008022C406C6938747AA3284014788
:104F20006314F500370700028D476389F50463CEEB
:104F3000B70085476385F50289476389F502FD5708
:104F4000B24022443E85410182809147E399F5FEBB
:104F500081477DD41C408A07BA979C43D5B7FD573B
:104F600065D0493708C04CC08147D9BFFD5769D8C3
:104F70001C408A07BA9723A00700FDB7FD5769D0E8
:104F80001C408A07BA97054798C30F0080049C43CA
:104F9000E1BF011106CE22CC2A84EF10D0612AC6CF
:104FA000700022858945A537F24062440561828000
:104FB000011106CE22CC2A84EF10F05F2AC67000C1
:104FC00022858D45A937F240624405618280AA8519
:104FD000F32740F1139727009387C181BA9788433D
:104FE000F327203415C53717008093F7F73F1307D1
:104FF000C7AA9387870E631AE500370700808A07E0
:105000001307870BBA979C4382878A079C430290B9
:10501000828082800000000000000000000000008C
:105020000000000000000000000000000000000080
:105030000000000000000000000000000000000070
:105040000000000000000000000000000000000060
:105050000000000000000000000000000000000050
:105060000000000000000000000000000000000040
:105070000000000000000000000000000000000030
:10508000397106DE16DC1ADA1ED82AD62ED432D2B0
:1050900036D03ACE3ECC42CA46C872C676C47AC230
:1050A0007EC0F32740F1139727009387C181BA97F9
:1050B000944373262034F3271034F32730347327B6
:1050C00050309DC6B71700809387C7AA6385F60442
:1050D00081471375F63F635D06069306000863116A
:1050E000D50403A7073983A587391305000802975C
:1050F000F250E2525253C2533255A25512568256C2
:105100007247E2475248C248324EA24E124F824F77
:10511000216173002030B70700809387870B55BF4C
:10512000AD4663D5A6001377F70311EB614733074C
:10513000E502BA9703A7070983A587094DBF8946EA
:10514000E318D7FA73277030184383A5C70D45B706
:105150001307850E0A07BA979C43AA85368582975E
:1051600041BF00000000000000000000000000003F
:1051700000000000000000000000000000000145E9
:105180008280F32500B8732500B0F32700B8E39AB6
:10519000F5FE828005C1B71700809387C7AA630612
:1051A000F50001459355F54182803725F40013053C
:1051B0000540CDBF014581458280011181470148ED
:1051C0003EC4B717008006CE42C69387C7AA639C29
:1051D000A700B707008003A5471F11C51C41300079
:1051E0008545FC478297F2402245B24505618280A1
:1051F00037150080130545AA82801D4582800D4524
:1052000082800111B717008006CE2EC69387C7AAE9
:105210006391A702B707008083A747197D5599C7F7
:10522000984370008D4578473E850297F2400561AE
:1052300082807D55E5BF0111B717008006CE2EC6CE
:105240009387C7AA6391A702B707008083A747196E
:105250007D5599C798437000894578473E850297E8
:10526000F240056182807D55E5BF0111B7170080CE
:1052700006CE2EC69387C7AA6391A702B707008000
:1052800083A74719014599C798437000914578470E
:105290003E850297F240056182800145E5BFB71760
:1052A00000809387C7AA6384A700014582803705E1
:1052B00000801305850B828083D705000D471145BB
:1052C0008D8B6383E70009458280732510348280CB
:1052D0007390153401458280014582804111130588
:1052E000400606C6EF10902D41111305800C06C62E
:1052F000EF10D02CB71700809387C7AAB2862E86EE
:10530000639BA700B707008003A5471F09C51C4181
:105310008145BC4B82877D5582805C41A9EF930714
:1053200005091307053923A0070023A2070023A4BA
:105330000700E107E399E7FE375701209307053A95
:105340009306053D1307C72D98C39107E39EF6FE0C
:1053500073275030B707012093874713631BF7006B
:10536000F3275030B757012093870708F19B7390BC
:10537000573085475CC1828037150080130545AAE8
:10538000828081EDF3275030B757012093870708BB
:10539000F19B739057300145828085477D55E39D91
:1053A000F5FEF3275030B7770120938707E093E7A6
:1053B0001700C5B76348A0009387C1810A053E95D1
:1053C0000841828001458280411106C622C47325AE
:1053D00040F1CD372A84D533AE879305A50033B687
:1053E000A50022852244B2403E96410121B7732593
:1053F00040F1828039712AD61305C01206DE16DC10
:105400001ADA1ED82ED432D236D03ACE3ECC42CA88
:1054100046C872C676C47AC27EC0EF10301A39719F
:1054200006DE16DC1ADA1ED82AD62ED432D236D0B0
:105430003ACE3ECC42CA46C872C676C47AC27EC054
:10544000F32740F1139727009387C181BA979843B8
:105450000DC3B71700809387C7AA631FF702B7076A
:1054600000809387870B03A7870D83A5070E0D4543
:105470000297F250E2525253C2533255A25512567D
:1054800082567247E2475248C248324EA24E124FED
:10549000824F2161730020308327000E0290397102
:1054A00006DE16DC1ADA1ED82AD62ED432D236D030
:1054B0003ACE3ECC42CA46C872C676C47AC27EC0D4
:1054C000F32740F1139727009387C181BA97984338
:1054D0000DC3B71700809387C7AA631FF702B707EA
:1054E00000809387870B03A7871383A507141D45A7
:1054F0000297F250E2525253C2533255A2551256FD
:1055000082567247E2475248C248324EA24E124F6C
:10551000824F21617300203083270014029039717B
:1055200006DE16DC1ADA1ED82AD62ED432D236D0AF
:105530003ACE3ECC42CA46C872C676C47AC27EC053
:10554000F32740F1139727009387C181BA979843B7
:105550000DC3B71700809387C7AA631FF702B70769
:1055600000809387870B03A7072183A587214145E7
:105570000297F250E2525253C2533255A25512567C
:1055800082567247E2475248C248324EA24E124FEC
:10559000824F21617300203083278021029039716E
:1055A00006DE16DC1ADA1ED82AD62ED432D236D02F
:1055B0003ACE3ECC42CA46C872C676C47AC27EC0D3
:1055C000F32740F1139727009387C181BA97984337
:1055D0000DC3B71700809387C7AA631FF702B707E9
:1055E00000809387870B03A7872283A50723454560
:1055F0000297F250E2525253C2533255A2551256FC
:1056000082567247E2475248C248324EA24E124F6B
:10561000824F21617300203083270023029039716B
:1056200006DE16DC1ADA1ED82AD62ED432D236D0AE
:105630003ACE3ECC42CA46C872C676C47AC27EC052
:10564000F32740F1139727009387C181BA979843B6
:105650000DC3B71700809387C7AA631FF702B70768
:1056600000809387870B03A7072483A587244945D8
:105670000297F250E2525253C2533255A25512567B
:1056800082567247E2475248C248324EA24E124FEB
:10569000824F21617300203083278024029039716A
:1056A00006DE16DC1ADA1ED82AD62ED432D236D02E
:1056B0003ACE3ECC42CA46C872C676C47AC27EC0D2
:1056C000F32740F1139727009387C181BA97984336
:1056D0000DC3B71700809387C7AA631FF702B707E8
:1056E00000809387870B03A7872583A507264D4551
:1056F0000297F250E2525253C2533255A2551256FB
:1057000082567247E2475248C248324EA24E124F6A
:10571000824F216173002030832700260290397167
:1057200006DE16DC1ADA1ED82AD62ED432D236D0AD
:105730003ACE3ECC42CA46C872C676C47AC27EC051
:10574000F32740F1139727009387C181BA979843B5
:105750000DC3B71700809387C7AA631FF702B70767
:1057600000809387870B03A7072783A587275145C9
:105770000297F250E2525253C2533255A25512567A
:1057800082567247E2475248C248324EA24E124FEA
:10579000824F216173002030832780270290397166
:1057A00006DE16DC1ADA1ED82AD62ED432D236D02D
:1057B0003ACE3ECC42CA46C872C676C47AC27EC0D1
:1057C000F32740F1139727009387C181BA97984335
:1057D0000DC3B71700809387C7AA631FF702B707E7
:1057E00000809387870B03A7872883A50729554542
:1057F0000297F250E2525253C2533255A2551256FA
:1058000082567247E2475248C248324EA24E124F69
:10581000824F216173002030832700290290397163
:1058200006DE16DC1ADA1ED82AD62ED432D236D0AC
:105830003ACE3ECC42CA46C872C676C47AC27EC050
:10584000F32740F1139727009387C181BA979843B4
:105850000DC3B71700809387C7AA631FF702B70766
:1058600000809387870B03A7072A83A5872A5945BA
:105870000297F250E2525253C2533255A255125679
:1058800082567247E2475248C248324EA24E124FE9
:10589000824F2161730020308327802A0290397162
:1058A00006DE16DC1ADA1ED82AD62ED432D236D02C
:1058B0003ACE3ECC42CA46C872C676C47AC27EC0D0
:1058C000F32740F1139727009387C181BA97984334
:1058D0000DC3B71700809387C7AA631FF702B707E6
:1058E00000809387870B03A7872B83A5072C5D4533
:1058F0000297F250E2525253C2533255A2551256F9
:1059000082567247E2475248C248324EA24E124F68
:10591000824F2161730020308327002C029039715F
:1059200006DE16DC1ADA1ED82AD62ED432D236D0AB
:105930003ACE3ECC42CA46C872C676C47AC27EC04F
:10594000F32740F1139727009387C181BA979843B3
:105950000DC3B71700809387C7AA631FF702B70765
:1059600000809387870B03A7072D83A5872D6145AB
:105970000297F250E2525253C2533255A255125678
:1059800082567247E2475248C248324EA24E124FE8
:10599000824F2161730020308327802D029039715E
:1059A00006DE16DC1ADA1ED82AD62ED432D236D02B
:1059B0003ACE3ECC42CA46C872C676C47AC27EC0CF
:1059C000F32740F1139727009387C181BA97984333
:1059D0000DC3B71700809387C7AA631FF702B707E5
:1059E00000809387870B03A7872E83A5072F654524
:1059F0000297F250E2525253C2533255A2551256F8
:105A000082567247E2475248C248324EA24E124F67
:105A1000824F2161730020308327002F029039715B
:105A200006DE16DC1ADA1ED82AD62ED432D236D0AA
:105A30003ACE3ECC42CA46C872C676C47AC27EC04E
:105A4000F32740F1139727009387C181BA979843B2
:105A50000DC3B71700809387C7AA631FF702B70764
:105A600000809387870B03A7073083A5873069459C
:105A70000297F250E2525253C2533255A255125677
:105A800082567247E2475248C248324EA24E124FE7
:105A9000824F21617300203083278030029039715A
:105AA00006DE16DC1ADA1ED82AD62ED432D236D02A
:105AB0003ACE3ECC42CA46C872C676C47AC27EC0CE
:105AC000F32740F1139727009387C181BA97984332
:105AD0000DC3B71700809387C7AA631FF702B707E4
