S011000055534152545F4C45442E7372656350
S214000000A806002095010000910100009101000063
S21400001000000000000000000000000000000000DB
S2140000200000000000000000000000009101000039
S2140000300000000000000000910100009101000097
S2140000409101000091010000910100009101000063
S2140000509101000091010000910100009101000053
S2140000609101000091010000910100009101000043
S2140000709101000091010000910100009101000033
S2140000809101000091010000910100009101000023
S2140000909101000091010000910100009101000013
S2140000A09101000091010000910100009101000003
S2140000B091010000910100009101000091010000F3
S2140000C091010000910100009101000091010000E3
S2140000D091010000910100009101000091010000D3
S2140000E091010000910100009101000091010000C3
S2140000F09101000010B540F26404C2F200042378B7
S21400010063B940F20003C0F200032BB144F22000B2
S214000110C0F2800000E000BF0123237010BDC0467F
S21400012040F20003C0F2000310B54BB140F2680184
S21400013044F22000C2F20001C0F2800000E000BFDE
S21400014044F22000C0F28000036803B910BD40F2FC
S2140001500003C0F20003002BF8D09847F6E7C0462D
S21400016010B5074B9847002340F28021054AD36616
S214000170054A535004315350044B984710BDC046AF
S2140001809D0200000032004000E100E0150700007C
S214000190FEE70000104A114B10B59A4205D0002326
S2140001A00F490E4A9A188A420ED300210D4B0E4A6A
S2140001B093420FD37F210D4B0D4A8B4393600D4B1B
S2140001C098470D4B9847FEE7034818180068043315
S2140001D01060E6E702C3EBE7B0180000000000205E
S2140001E06400002064000020A8000020000000003A
S2140001F000ED00E035070000210600000D4B01224F
S214000200180030B5583001780F249143114301701F
S214000210190003203C310D785933A5432843087054
S2140002201878904302431A700B781C4030232343FF
S2140002300B7030BD00320040064B40211A00B4322D
S21400024011604322A8331A600823034AD1690B437E
S214000250D3617047001C00400008004010B5054BF5
S214000260984700220449054B05489847054B984790
S21400027010BDC04639020000000C0042A903000071
S21400028098000020FD01000010B50248024B984778
S21400029010BDC04610E000E0E502000010B50B4BB4
S2140002A098470B4B984780220A4B01215A619A6067
S2140002B0094B0A4A9A62C02212069A6247331A7893
S2140002C08A431A70064B984710BDC04619040000B2
S2140002D05D02000000020060003200408000004026
S2140002E08902000010B5024B1860024B984710BDFB
S2140002F080000020CD050000044B10B51C68044BA0
S2140003009847044B01002000984710BD800000204D
S21400031011040000E105000010B50368984710BD01
S21400032010B54368984710BDF7B504000F0001925A
S2140003302500083528000C4EB0470028F8D00024C9
S214000340395D2800094B98472800B0470028FBD0A5
S214000350019B01349C42F3D32800054B98470028A4
S214000360FAD02000FEBDC046AD0500009D05000089
S214000370B7050000F7B507000E00002401923D0007
S21400038008352800064B98470028F8D0054B28006B
S2140003909847019B305501349C42F0D32000FEBDA7
S2140003A0C1050000A505000010B5054B0400083087
S2140003B0984718B9034B6360034B236010BDC046D3
S2140003C075050000750300002903000010B508300D
S2140003D0014B9847002010BD85050000044B020025
S2140003E0196809B903491960186882181A607047B5
S2140003F084000020A806002001204042704742F2F8
S214000400000300204B6070470120704700207047B3
S21400041040F6A0735843704710B5094B00205A6841
S2140004205A60084B9847084B9847084B9847084B24
S2140004309847084B98471F20074B984710BDC04663
S21400044000500041BD040000850400009D0400002B
S21400045079040000B90400005D040000C30706D557
S214000460034A044B1A627D2259681142FCD1704738
S21400047005010100001C00400122014B1A71704763
S2140004800008004041F60071034BDA690A40DA6161
S21400049000221A747047C046001400400222054B22
S2140004A01A760E3219691142FCD080211A7E0A4350
S2140004B01A76704700100040704700000321084B72
S2140004C09A780A40904209D0FF229A719A7808409A
S2140004D08A43104398709A79002AFCD07047C04629
S2140004E000040040C3691942FCD17047022210B5CF
S2140004F00368032193430360014B984710BDC04631
S214000500E504000070B5C3690400154DDB0710D480
S21400051002260321A8472368334205D02000114B4A
S214000520984731002000A8470523032123602000B8
S214000530A84720000121A8470B4B20002360032179
S214000540A847C0239B02636020000F21A847002015
S214000550064BA360064BA381A0733034207070BD99
S214000560E5040000ED0400000400314002007000C5
S214000570098AFFFF10B5024B01600800984710BDBE
S21400058005050000022310B5006803210268134326
S2140005900360014B984710BDE5040000036889B26C
S2140005A0198570470368188DC0B270470368187EB7
S2140005B00123184070470368187E8007C00F7047F5
S2140005C00368187E4007C00F70470000024B034ABE
S2140005D05A6005221A60704710E000E0FFFFFF0037
S2140005E070B580250B0E0C4A0C4CD8B26D02013843
S2140005F0C0B2FF280AD118061B1A5918802351606A
S2140006005B02916011681942FCD070BD5460946022
S21400061016682E42FCD0EAE710E000E0FFFFFF007D
S21400062010B50A4B98470A480A4B984780240A4B4D
S2140006300A481988013189B21980094B9847094B35
S21400064040F2F410DC61084B9847F0E761010000C7
S214000650D41700007D08000088000020F317000073
S2140006609507000000020060F902000010B50B00BC
S21400067028B918001100034B9847002801DA01201A
S214000680404210BDD5060000013810B50C00022807
S21400069005D811002000034B9847002801DA0120F6
S2140006A0404210BDF506000070B50600064D074C2A
S2140006B02B6800219868A0472B6800215868A0473F
S2140006C0034B1E6070BDC04600000020910800006D
S2140006D08C000020054B10B51B68040018001BB1E9
S2140006E08AB2034B2100984710BDC0468C000020FC
S2140006F021030000054B10B51B68040018001BB151
S2140007008AB2034B2100984710BDC0468C000020DB
S2140007101903000010B5044C044B20009847200035
S214000720034B984710BDC04698000020CD0300003C
S214000730A906000070B500250E4B0F4CE41AA41055
S214000740A54209D1002501F0A3F80C4C0C4BE41A85
S214000750A410A54207D170BD064AAB009B181B68C3
S21400076098470135ECE7064AAB009B181B6898478C
S2140007700135EEE79C1800009C180000A018000049
S2140007809C18000003008218934200D1704719702D
S2140007900133F9E70FB40A4B13B51C6824B1A369FB
S2140007A013B9200000F0DEFA05AB049AA168200019
S2140007B0019300F0A7FC16BC08BC04B01847C0465E
S2140007C00000002070B505000E0018B183690BB953
S2140007D000F0C8FAAB69AC6813B9280000F0C2FA9A
S2140007E0234B9C420DD16C68A3891B0701D5236956
S2140007F0FBB92100280000F04FF9D0B1012040429B
S21400080070BD1C4B9C4201D1AC68EDE71A4B9C4274
S214000810EAD1EC68E8E7013B0136A360002B04DA76
S214000820A269934216DB0A2914D023685A1C226058
S21400083019703178A3680029EDD1013BA360002B25
S2140008400FDA22000A31280000F0D4F8431CD5D075
S2140008500A20D5E72200280000F0CCF8431CE8D197
S214000860CCE70A2023685A1C22601870C8E7C046E6
S2140008701C1800003C180000FC17000010B5034BC5
S21400088001001868FFF79EFF10BDC046000000205C
S2140008904A424A4110B5520040F2004300F002F8C6
S2140008A010BD0000F0B51D004D4B85B01E6804005D
S2140008B00F00009226B1B36913B9300000F052FA67
S2140008C0484B9C424FD17468009B022B05D0012BED
S2140008D000D982E0002D00DA7FE02100300000F031
S2140008E0D5F9616B41B123004433994202D0300000
S2140008F000F038FB002363630023A3616360A389D1
S2140009001B0603D52169300000F02CFBA389364A6C
S2140009101340A381009B022B59D003AB02AA2100EF
S214000920300000F0ADFAA3891843A0812DBB029DCC
S214000930280000F00DFB01950700002841D1029B1E
S2140009400193AB4237D1012040420223A2891343D0
S214000950A3810023A3602300473323602361012380
S214000960636105B0F0BD214B9C4201D1B468ABE792
S2140009701F4B9C42A8D1F468A6E7002FD8D0B369D5
S21400098013B9300000F0EEF9009B012B03D1A389C8
S214000990009A1A43A2810820A3892760184027617D
S2140009A06561C0B101201840002390B16D42A3607C
S2140009B0A5611800D5E7019800F0CAFA07000028DC
S2140009C0C1D08023A289019D1343A381D7E70020CD
S2140009D0BBE7A560C5E7A060C3E701204042C0E7CB
S2140009E0000000201C1800005CF3FFFF3C1800000D
S2140009F0FC170000F8B505000E00140018B1836956
S214000A000BB900F0AFF9214B9C422AD16C68A36960
S214000A10A360A3891B072ED5236963B323682269C5
S214000A20F7B2981A6369F6B2984204DB21002800F0
S214000A3000F02CF928BBA3680130013BA3602368B3
S214000A405A1C22601F706369984204D0A389DB0792
S214000A5019D50A2E17D12100280000F017F990B1F9
S214000A600FE00B4B9C4201D1AC68D0E7094B9C428F
S214000A70CDD1EC68CBE72100280000F00DF8002867
S214000A80CCD0012676423000F8BDC0461C180000C7
S214000A903C180000FC170000344B70B51D680600BB
S214000AA00C0025B1AB6913B9280000F05BF9304B98
S214000AB09C420FD16C680C23E25E93B219072CD4CB
S214000AC0D90611D409230120336037331343A38199
S214000AD0404270BD274B9C4201D1AC68EBE7264BE9
S214000AE09C42E8D1EC68E6E75B0712D5616B41B142
S214000AF023004433994202D0300000F033FA00233A
S214000B0063632422A3899343A3810023636023693C
S214000B1023600823A2891343A38123695BB940F2AB
S214000B20802140F20022A3890B40934203D021008B
S214000B30300000F0CDF90123A28913408BB10023C9
S214000B40A36063695B42A36123690020002BC0D1C8
S214000B500C23E25E1306BCD540231343A381013861
S214000B60B7E7920700D46369A360EDE700000020B2
S214000B701C1800003C180000FC170000F7B58A8916
S214000B8005000C0013075ED44B68002B04DC0B6CCE
S214000B90002B01DC0020FEBDE76A002FFAD0002300
S214000BA02E682B6041F200031A4092B3606DA38951
S214000BB05B0705D56368C01A636B0BB1236CC01A5C
S214000BC00200216A00232800E76AB847A189431C6F
S214000BD006D12B681D2B30D82B4ADA40D3072CD5EC
S214000BE00023636023692360CB0404D5431C01D132
S214000BF02B6803B96065616B2E600029CAD023009C
S214000C004433994202D0280000F0ACF9002060631B
S214000C10C1E70123216A2800B847431CC7D12B68C7
S214000C20002BC4D01D2B01D0162B01D12E60B1E7AE
S214000C304023A2891343A381ADE740230B43012041
S214000C40A3814042A7E70F69002FA3D00B680F606F
S214000C50DB1B01930023920700D14B69A360019B25
S214000C60002B00DC96E7019B3A00216A2800A66A62
S214000C70B047002803DC4023A2891343DFE7019B2B
S214000C803F181B1A0193EAE7010040200B6970B574
S214000C9005000C000BB9002070BD18B183690BB9B4
S214000CA000F060F80B4B9C4209D16C680C22A35EE6
S214000CB0002BF0D021002800FFF760FFECE7064B82
S214000CC09C4201D1AC68F1E7044B9C42EED1EC6843
S214000CD0ECE7C0461C1800003C180000FC1700009B
S214000CE010B5024900F0ACF810BDC0468D0C0000EF
S214000CF0002310B50400036043608360818143666F
S214000D00C281036143618361190008225C30FFF7EA
S214000D1039FD054B24626362044BA362044BE36215
S214000D20044B236310BDC046511600007916000020
S214000D30B1160000DD16000070B568254A1E554342
S214000D400E002900743100F057F9040040B100216C
S214000D502A00016046600C30A0606832FFF712FD82
S214000D60200070BD836913B5040043BB8364C3646D
S214000D700365134B134A1B6882620193984201D1A4
S214000D8001238361200000F01FF86060200000F05F
S214000D901BF8A060200000F017F80022E060042195
S214000DA06068FFF7A5FF01220921A068FFF7A0FFF2
S214000DB002221221E068FFF79BFF0123A36113BD07
S214000DC0F8170000E10C0000F8B51C4B07001E6881
S214000DD0B36913B93000FFF7C5FF4836B4687368C7
S214000DE0013B03D5336833B13668F7E70C22A55EBE
S214000DF06DB16834F4E704213800FFF79DFF3060DA
S214000E000028F1D10C2304003B602000F8BD01232C
S214000E1020005B42E3810233A38165662560A560FE
S214000E20656025616561A561082229005C30FFF7D1
S214000E30A9FC6563A563A564E564E6E7F81700000A
S214000E40F7B5040007000026019148340CB93000BD
S214000E50FEBD6368A5680093009B013B009301D527
S214000E602468F3E7AB89012B08D90E22AB5E013369
S214000E7004D029003800019B984706436835EBE705
S214000E8070B50E001D000E23C95E90B01400002938
S214000E9007DA00232B60B3891B0611D440F2004307
S214000EA00FE001AA00F042FC0028F2DB4FF200023D
S214000EB0029B1340054A9B185A4253412B60EDE7AC
S214000EC040230020236010B070BDC04600E0FFFF46
S214000ED0F7B502268B8905000C00334206D02300A6
S214000EE047332360236101236361F7BD01AB6A4684
S214000EF0FFF7C6FF00990700280000F07DF840B90C
S214000F000C22A35E9A05F0D4032293431E43A681C7
S214000F10E5E70E4BAB628023A28920601343A381D2
S214000F20009B20616361019B63B10E23E15E280094
S214000F3000F00EFC30B10322A38993431A0001236C
S214000F401343A381A0893843A081CEE7E10C0000BB
S214000F5010B5034B0100186800F04EF810BDC046EF
S214000F600000002070B5050081B10C1F2368002B1F
S214000F7000DAE418280000F018FC1E4A1368110076
S214000F802BB963601460280000F010FC70BDA3420B
S214000F900BD92268A018834203D118685B688218B0
S214000FA0226063600C60EEE713005A680AB1A24242
S214000FB0FAD919685818A0420BD120680918581891
S214000FC019608242DFD110685268411819605A6071
S214000FD0D9E7A04202D90C232B60D4E72168601819
S214000FE0824203D1106852684118216062605C60DA
S214000FF0C9E7C04690000020032370B5CD1C9D4372
S214001000083506000C2D1CD20C25A9421BD8300032
S21400101000F0CBFB254A14682100C1B9244C236894
S2140010201BB9300000F004FB20602900300000F0FF
S214001030FFFA431C2DD10C233000336000F0B6FBC2
S21400104003E0002DE1DA0C233360002070BD0B684E
S2140010505B1B1BD40B2B03D90B60CC18256003E05D
S2140010608C420FD163681360300000F09FFB2000B5
S21400107007220B30231D9043C31A002BE6D05A429A
S214001080E250E3E74B6863600C00EDE70C0049684C
S214001090C3E70323C41C9C43A042DFD0211A3000C0
S2140010A000F0C6FA431CD9D1C5E7C0469000002020
S2140010B094000020936810B5013B9360002B05DA7E
S2140010C09469A34208DBCBB20A2B05D01368581CE0
S2140010D010601970C8B210BDFFF78CFCFBE7F8B5BE
S2140010E006000F001400D518AC4201D1002007E01E
S2140010F021783A003000FFF7DDFF0134431CF3D1BE
S214001100F8BD0000F0B59FB002900F0016000593E2
S21400111020B1836904930BB9FFF724FE7E4B9F42F0
S2140011205BD1029B5F68BB891B0762D53B69002BBE
S2140011305FD0002306AD6B6120336B761033AB7641
S21400114034002378002B5ED1A31B04936BB1A31B42
S214001150320039000298FFF7C2FF431C00D1CBE0F3
S2140011606A69049B944663446B612378002B00D124
S214001170C2E00122002352426A6002A95432521889
S21400118001342B60EB60AB601370AB65634E0522D9
S2140011902178300000F0FEFA621C002837D129685A
S2140011A0CB0604D5532302AE20309B1918700B07CC
S2140011B004D553232B2002AE9B19187023782A2BB4
S2140011C02DD000210A200126099B2278303A092AD0
S2140011D069D900292BD0099329E0514B9F4202D1AF
S2140011E0029B9F689FE74F4B9F429CD1029BDF6804
S2140011F099E739000298FFF74FFC002899D00120A4
S21400120040421FB0F0BD252B9ED0013499E7012344
S214001210801B8340296814000B432B60B6E7059BB0
S214001220181D1B680590002B37DB099314002378E4
S2140012302E2B0BD16378621C2A2B3CD1059B0234E3
S2140012401A1D1B680592002B32DB0793364E217859
S2140012500322300000F09EFA30B14023801B83400A
S2140012602A68013413432B60217806222F48661C17
S214001270297600F08FFA002844D02D4B83BB2968CE
S214001280059B0722C90529D59B1893430833059368
S2140012906B69039A9B186B6152E75B42EB60022313
S2140012A00B432B60C2E7434301349B1831008CE7A5
S2140012B001235B42C9E7002314000A201A00012616
S2140012C06B6021783039092903D9002BBED00792EC
S2140012D0BCE74243013452183300F2E70733D4E741
S2140012E005AB00933A00134B2900029800E000BFBC
S2140012F00390039B0133CBD1BB895B0600D57EE709
S2140013000B987EE705AB00933A000A4B290002983B
S21400131000F07EF8ECE7C0461C1800005C180000E1
S2140013203C180000FC170000621800006618000059
S21400133000000000DF100000F7B5150001938A6872
S2140013400B6900900C00934200DA130022002B6019
S214001350433212780AB101332B6023689B0602D50C
S2140013602B6802332B60062723681F403FB32300F9
S21400137043331B785A1E93412268920630D42200CB
S214001380019943320098089EB047431C25D0062397
S21400139020682A68E16803400025042B03D18D1AD3
S2140013A0EB43DB171D40A3682269934201DD9B1ABD
S2140013B0ED180027BD4220D1002010E00137E36879
S2140013C02A689B1A9F42D2DA220001231932019919
S2140013D00098089EB047431CF0D101204042FEBD55
S2140013E03020E1184331087021005A1C4531097835
S2140013F0A218433202331170C1E7220001231A32C9
S21400140001990098089EB047431CE6D00137D1E703
S214001410F0B50E0089B00593039004920A7E0C0086
S2140014200E9B43366E2A00D18BE017D8632A2CD049
S21400143008D8002A00D195E0582A65D02500423504
S2140014402A7029E0642A01D0692AF7D121681A682F
S214001450080623D5111D1960136825E0732A00D1EC
S21400146084E008D86F2A27D0702AE7D1202209689E
S2140014700A43226003E0752A1ED0782ADED12200B5
S214001480782145321170684941E00D001A684235EE
S214001490111D196013682B70012374E04906D9D515
S2140014A0111D19600023D35E002B02DA2D225B4249
S2140014B032705E490A2215E020681968050603D5D1
S2140014C0081D18600B6805E04006F9D5081D186071
S2140014D00B689BB255496F2A31D1673A2000002528
S2140014E0433005706068A060002872DB042527681A
S2140014F0AF432760002B6ED13500002877D025003B
S2140015000B7842352B7072E045310A7047491A68ED
S2140015102068151D1D60136805060CD5C20702D588
S2140015202022104320601022002BD7D120202568CF
S21400153085432560D2E74506F0D59BB2EEE70A2242
S214001540CCE709681A68080605D5111D19601368E6
S21400155062691A6006E04906F7D5111D196013681E
S214001560A28A1A800023350023614EE01A68111DF6
S2140015701960156800216268280000F00BF908B1B0
S214001580401B606063682361002333703DE023697D
S2140015902A0004990398059DA847431C3FD023685A
S2140015A000259B070FD4079BE068984239DA18009D
S2140015B037E022000123193204990398059EB047AC
S2140015C0431C2CD00135E368079A9B1A9D42F0DB3A
S2140015D0E9E7002B93D03500B3FBF2F01700474342
S2140015E0DB1BCB5C013D2B7003000028F4D1082ADE
S2140015F009D12368DB0706D563682269934202DCBB
S2140016003023013D2B70761B2661059B07AA0093AD
S2140016102100049B0398FFF78FFE431CB7D10120DF
S214001620404209B0F0BDC0467E1800006D180000AC
S214001630002370B5054C050008002360FEF7CEFEBB
S214001640431C02D1236803B12B6070BDA4000020A8
S21400165070B50C000E25495F00F0AAF8002803DBE1
S214001660636D1B18636570BDA389024A1340A3818E
S214001670F9E7C046FFEFFFFFF8B51F008B890500AE
S2140016800C001600DB0505D50E23C95E00220223DA
S21400169000F06EF8A389054A28001340A3813200A3
S2140016A00E23E15E3B0000F01FF8F8BDFFEFFFFFE2
S2140016B070B50C000E25495F00F05AF8A389421C4D
S2140016C003D1054A1340A38170BD41F200021343C3
S2140016D0A3816065F8E7C046FFEFFFFF10B50E2355
S2140016E0C95E00F013F810BD70B5050008001100C3
S2140016F00022054C22601A00FEF7C6FF431C02D1EA
S214001700236803B12B6070BDA4000020002370B5D1
S214001710054C050008002360FEF76EFE431C02D150
S214001720236803B12B6070BDA4000020002370B5B1
S214001730064C0500080011002360FEF760FE431CFF
S21400174002D1236803B12B6070BDC046A400002000
S214001750002370B5054C050008002360FEF754FE14
S214001760431C02D1236803B12B6070BDA400002087
S21400177070B50500080011000022054C22601A0012
S214001780FEF744FE431C02D1236803B12B6070BDF4
S214001790A4000020C9B28218904201D100207047F0
S2140017A003788B42FBD00130F6E7704770470000A5
S2140017B070B50500080011000022054C22601A00D2
S2140017C0FEF754FF431C02D1236803B12B6070BDA3
S2140017D0A400002048656C6C6F20776F726C6420E4
S2140017E0696E20555341525420636F6E736F6C655B
S2140017F02E0D0025640D0A000400002000000000E5
S21400180000000000000000000000000000000000D3
S21400181000000000000000000000000000000000C3
S21400182000000000000000000000000000000000B3
S21400183000000000000000000000000000000000A3
S2140018400000000000000000000000000000000093
S214001850000000000000000000000000232D302BD8
S2140018602000686C4C00656667454647003031329C
S21400187033343536373839414243444546003031F3
S2140018803233343536373839616263646566000052
S214001890F8B5C046F8BC08BC9E467047210100005B
S2140018A0F8B5C046F8BC08BC9E467047F500000078
S2140018B004000020000000001C1800003C18000077
S2140018C0FC17000000000000000000000000000000
S2140018D00000000000000000000000000000000003
S2140018E000000000000000000000000000000000F3
S2140018F000000000000000000000000000000000E3
S21400190000000000000000000000000000000000D2
S20800191000000000CE
S2148040003F438FB0BB180000FF00087F0100000010
S214804010000000000000000000000000000000001B
S804000000FB
