S01200004C4544666C61736865722E7372656358
S21400000020060020B50100004B0200004B02000055
S21400001000000000000000000000000000000000DB
S2140000200000000000000000000000004B0200007E
S21400003000000000000000004B0200004B02000021
S2140000404B0200004B0200004B0200004B02000077
S2140000504B0200004B0200004B0200004B02000067
S2140000604B0200004B0200004B0200004B02000057
S2140000704B0200004B0200004B0200004B02000047
S2140000804B0200004B0200004B0200004B02000037
S2140000904B0200004B0200004B0200004B02000027
S2140000A04B0200004B0200004B0200004B02000017
S2140000B04B0200004B0200004B0200004B02000007
S2140000C04B0200004B0200004B0200004B020000F7
S2140000D04B0200004B0200004B0200004B020000E7
S2140000E04B0200004B0200004B0200004B020000D7
S2140000F04B02000010B540F20004C2F20004237860
S21400010063B940F20003C0F200032BB144F22000B2
S214000110C0F2800000E000BF0123237010BDC0467F
S21400012040F20003C0F2000310B54BB140F20401E8
S21400013044F22000C2F20001C0F2800000E000BFDE
S21400014044F22000C0F28000036803B910BD40F2FC
S2140001500003C0F20003002BF8D09847F6E7C0462D
S21400016080B500AF43F20023C4F200030022DA6633
S2140001704EF20013CEF2000340F280220021995086
S2140001804EF20013CEF2000340F284220021995072
S214000190C046BD4680BD80B500AF40F62F03C0F216
S2140001A00003984740F26113C0F200039847C04628
S2140001B0BD4680BD80B582B000AF41F64453C0F264
S2140001C000037B6040F20003C2F200033B607A68E3
S2140001D03B689A420FD007E03B681A1D3A607A687F
S2140001E0111D796012681A603A6840F20003C2F284
S2140001F000039A42F0D340F20003C2F200033B60D1
S21400020004E03B681A1D3A6000221A603A6840F221
S2140002102003C2F200039A42F3D340F20003C0F276
S21400022000037B604EF60053CEF200037A687F210F
S2140002308A439A6041F60523C0F20003984741F2CC
S214000240BD03C0F200039847FEE780B500AFFEE7A7
S21400025080B584B000AFF8607A600B23FB180A1CE8
S2140002601A700B23FB181B78FA68DB01D3180833C7
S2140002707A681A60C046BD4604B080BD80B584B0BA
S21400028000AFF8607A600B23FB180A1C1A700B2369
S214000290FB181B78FA68DB01D31804337A681A60F7
S2140002A0C046BD4604B080BD80B584B000AFF860DF
S2140002B07A600B23FB180A1C1A700B23FB181B789A
S2140002C0FA68DB01D31818337A681A60C046BD4650
S2140002D004B080BD80B584B000AFF8607A600B23B0
S2140002E0FB180A1C1A700B23FB181B78FA68DB0134
S2140002F0D31814337A681A60C046BD4604B080BD71
S21400030090B585B000AF78600C0010001900FB1C9B
S214000310221C1A70BB1C021C1A707B1C0A1C1A704A
S214000320FB1C1978BB1C1A780F23FB18786830243E
S214000330C90141188A18121912781A700F23FB186F
S2140003400F22BA1812780F218A431A707B1C1B786A
S2140003500F221340D9B20F23FB180F22BA181278B7
S2140003600A431A70FB1C1A78BB1C1B78796830206D
S214000370D2018A18D3181B180F22BA1812781A70CE
S214000380C046BD4605B090BD90B585B000AF78605C
S2140003900C0010001900FB1C221C1A70BB1C021C4F
S2140003A01A707B1C0A1C1A70FB1C1978BB1C1A7866
S2140003B00F23FB1878683024C90141188A181219CF
S2140003C012781A700F23FB180F22BA1812780F2112
S2140003D00A401A707B1C1B781B01D9B20F23FB182E
S2140003E00F22BA1812780A431A70FB1C1A78BB1C24
S2140003F01B7879683020D2018A18D3181B180F2270
S214000400BA1812781A70C046BD4605B090BD90B5B1
S21400041085B000AF78600C0010001900FB1C221C91
S2140004201A70BB1C021C1A707B1C0A1C1A70FB1C60
S2140004301978BB1C1A780F23FB1878684024C9016A
S21400044041188A18121912781A700F23FB180F22F7
S214000450BA18127801218A431A707B1C19780F2368
S214000460FB180F22BA1812780A431A70FB1C1A7867
S214000470BB1C1B7879684020D2018A18D3181B1839
S2140004800F22BA1812781A70C046BD4605B090BD45
S21400049080B584B000AFF8607A600B23FB180A1CA6
S2140004A01A700B23FB181B78FA68DB01D318283365
S2140004B07A681A60C046BD4604B080BD80B582B07A
S2140004C000AF39601100FB1D021C1A70BB1D0A1C10
S2140004D01A70BB1D1B78012B35D0022B66D0002B63
S2140004E000D094E03A68FB1D197840F20023C6F26B
S2140004F00003180040F27D23C0F2000398473B68D3
S2140005001B041B0C8022D2051A43FB1D197843F2EC
S2140005100023C4F20003180040F29143C0F2000327
S21400052098473B681B0CC02212061A43FB1D19781D
S21400053043F20023C4F20003180040F29143C0F2D5
S214000540000398476FE03A68FB1D197840F20023D5
S214000550C6F20003180040F27D23C0F2000398475D
S2140005603B681B041A0C0023C4F202031A43FB1D4B
S214000570197843F20023C4F20003180040F29143B6
S214000580C0F2000398473B681A0C0023CCF2020323
S2140005901A43FB1D197843F20023C4F20003180027
S2140005A040F29143C0F2000398473CE03A68FB1DD6
S2140005B0197840F20023C6F20003180040F25123D7
S2140005C0C0F2000398473B681B041B0C8022D20530
S2140005D01A43FB1D197843F20023C4F200031800E7
S2140005E040F29143C0F2000398473B681B0CC022C0
S2140005F012061A43FB1D197843F20023C4F20003C7
S214000600180040F29143C0F2000398470BE041F611
S2140006107423C0F200034D221900002040F6EB03BD
S214000620C0F200039847C046BD4602B080BD80B504
S21400063082B000AF39601100FB1D021C1A70BB1D92
S2140006400A1C1A70BB1D1B786BB13A68FB1D197823
S21400065040F20023C6F20003180040F2A923C0F2BD
S214000660000398470CE03A68FB1D197840F2002317
S214000670C6F20003180040F2D523C0F200039847E4
S214000680C046BD4602B080BD90B585B000AF78606C
S21400069039607B685A090F23FB181A707B68DAB238
S2140006A00E23FB181F210A401A703B68013310D135
S2140006B00E23FB181A780F23FB18197843F2002034
S2140006C0C4F20000002340F20F44C0F20004A0472A
S2140006D03EE00E23FB181A780F23FB18197843F216
S2140006E00020C4F20000012340F20F44C0F20004D0
S2140006F0A0470E23FB181B7801221340A3B10E233C
S214000700FB181B785B08DAB23B68DCB20F23FB18D9
S214000710197843F20020C4F20000230040F2893426
S214000720C0F20004A04713E00E23FB181B785B08FA
S214000730DAB23B68DCB20F23FB18197843F20020CC
S214000740C4F20000230040F20134C0F20004A047C7
S214000750C046BD4605B090BD80B582B000AF78609B
S21400076039603A687B681100180040F28963C0F26D
S21400077000039847C046BD4602B080BD80B582B033
S21400078000AF0200FB1D1A70BB1D0A1C1A70FB1D71
S2140007901B785B09D8B2FB1D1B781F221340012271
S2140007A09A401100BB1D1B781A0040F2BD43C0F2F0
S2140007B000039847C046BD4602B080BD80B582B0F3
S2140007C000AF0200FB1D1A70BB1D0A1C1A70FB1D31
S2140007D01B785B09D8B2FB1D1B781F221340012231
S2140007E09A401100BB1D1B781A0040F22F63C0F21E
S2140007F000039847C046BD4602B080BD80B500AF36
S21400080040F61533C0F200039847C046BD4680BD8B
S21400081080B500AF4EF21003CEF20003180040F68B
S2140008207B03C0F200039847C046BD4680BD80B536
S21400083000AF40F2FD73C0F2000398470021172076
S21400084040F2BD73C0F2000398470221172040F221
S2140008507D73C0F20003984701235B4219001720FE
S21400086040F25973C0F20003984740F61103C0F2F5
S21400087000039847C046BD4680BD80B582B000AF35
S214000880786040F21C03C2F200037A681A6040F2F5
S2140008901C03C2F200031B68180040F64973C0F23E
S2140008A000039847C046BD4602B080BD90B583B0F1
S2140008B000AF0200BB1D1A8040F21C03C2F2000308
S2140008C01C68BB1D1B88180040F6C123C0F200033D
S2140008D0984703001900200040F66973C0F2000331
S2140008E09847C046BD4603B090BD80B584B000AF03
S2140008F0B9607A600F23FB18021C1A700F23FB18CE
S2140009001B7801225340DBB203B100BEC046BD4691
S21400091004B080BD80B582B000AF39601100BB1D49
S214000920021C1A807B1D0A1C1A707B1D1B78043B58
S214000930042B4FD89A002F4BD3181B689F46BB1D1D
S21400094019883A6848F2A063C0F20103B2FBF3F3D9
S2140009504B43013B0A22B3FBF2F3013346E0BB1DD7
S21400096019883B6842F21072B3FBF2F34B43013B2B
S2140009706422B3FBF2F3013338E0BB1D19883B68F1
S21400098040F2E832B3FBF2F34B43013B40F2E8326D
S214000990B3FBF2F3013329E0BB1D19883B686422E0
S2140009A0B3FBF2F34B43013B42F21072B3FBF2F39C
S2140009B001331BE0BB1D19883B680A22B3FBF2F328
S2140009C04B435A1E48F2A063C0F20103B2FBF3F396
S2140009D001330BE0BB1D1B883A6853435A1E44F292
S2140009E04023C0F20F03B2FBF3F301331800BD46F9
S2140009F002B080BDB01A000080B582B000AF39608A
S214000A001100BB1D021C1A807B1D0A1C1A707B1D60
S214000A101B78043B042B42D89A00284BD3181B683B
S214000A209F46BB1D19883A6848F2A063C0F20103CE
S214000A30B2FBF3F34B43642253433AE0BB1D1988E1
S214000A403B6842F21072B3FBF2F34B431A001300FA
S214000A509B009B185B002CE0BB1D19883B6840F28E
S214000A60E832B3FBF2F34B4323E0BB1D19883B6827
S214000A706422B3FBF2F34B43013B0A22B3FBF2F3CF
S214000A80013316E0BB1D19883B680A22B3FBF2F35C
S214000A904B43013B6422B3FBF2F3013309E0BB1D79
S214000AA01B883A685343013B40F2E832B3FBF2F34B
S214000AB001331800BD4602B080BDC046C41A00000F
S214000AC080B582B000AF0200BB1D1A8040F600134E
S214000AD0C0F23D03BA1D10880722190040F6F9132C
S214000AE0C0F20003984703001800BD4602B080BD60
S214000AF080B582B000AF786039607B685A683B6822
S214000B005B001E210B401A437B685A60C046BD46F8
S214000B1002B080BD80B500AF45F20003C4F20013FA
S214000B200021180040F6F123C0F200039847002089
S214000B3040F69963C0F20003984740F6A343C0F21C
S214000B400003984740F66353C0F20003984740F608
S214000B502343C0F20003984740F6B753C0F20003A1
S214000B6098471F2040F6CF33C0F200039847C04690
S214000B70BD4680BD80B582B000AF78603960C046A3
S214000B807B685B683A681340002BF9D1C046BD46C7
S214000B9002B080BD80B584B000AFF8607A600B23E9
S214000BA0FB180A1C1A700B23FB181A78FB6808320D
S214000BB092007968D150FB687D21180040F67533A5
S214000BC0C0F200039847C046BD4604B080BD80B55D
S214000BD082B000AF78607B680122134073B140F2A8
S214000BE00512C0F2010241F60043C4F200030021E0
S214000BF0180040F69533C0F200039847C046BD463D
S214000C0002B080BD80B582B000AF78600A00FB1CE1
S214000C101A707B68FA1C12781A71C046BD4602B07C
S214000C2080BD80B582B000AF40F60003C4F200037A
S214000C307B607B680121180040F60543C0F2000384
S214000C409847C046BD4602B080BD80B582B000AFB2
S214000C5078600A00FB1C1A707B68FA1C12781A74FB
S214000C60C046BD4602B080BD80B584B000AF786097
S214000C707B68DB69FB60FB681B0A1F221340FB6076
S214000C80FB681800BD4604B080BD80B582B000AFDA
S214000C90786039607B683A68DA61C046BD4602B063
S214000CA080BD80B582B000AF41F20043C4F20003BD
S214000CB07B60BB1C00221A807B68180040F66943E4
S214000CC0C0F2000398470200BB1C1A80BB1C1B889E
S214000CD01B021A0041F600731A407B6811001800C8
S214000CE040F68B43C0F2000398477B68002118004B
S214000CF040F64B43C0F200039847C046BD4602B0DC
S214000D0080BD80B582B000AF78607B681B691B0928
S214000D10012213405A1E9341DBB21800BD4602B0B2
S214000D2080BD80B582B000AF78607B681B7EDBB28A
S214000D30802252421343DAB27B681A76C046BD461A
S214000D4002B080BD80B582B000AF78600A00FB1CA0
S214000D501A707B68FA1C12781A76C046BD4602B036
S214000D6080BD80B582B000AF41F20003C4F200033C
S214000D707B607B680221180040F64553C0F20003F2
S214000D809847C0467B68180040F60353C0F200033D
S214000D90984703001A0001235340DBB2002BF1D121
S214000DA07B68180040F62353C0F200039847C046FD
S214000DB0BD4602B080BD80B582B000AF41F20003F0
S214000DC0C4F200037B60BB1C00221A80C046BD46EE
S214000DD002B080BD80B582B000AF78607B689B793A
S214000DE0DBB21800BD4602B080BD80B582B000AF51
S214000DF078600A00FB1C1A707B68FA1C12789A71DD
S214000E00C046BD4602B080BD80B584B000AF7860F5
S214000E100A00FB1C1A700F23FB187A6892781A7067
S214000E200F23FB18FA1C1B7812781340DAB20F2334
S214000E30FB1803210A401A700F23FB181B781800B2
S214000E40BD4604B080BD80B584B000AF78600A00AF
S214000E50FB1C1A700F23FB187A6892781A700F23FF
S214000E60FB180F22BA18127803218A431A70FB1C4B
S214000E701B7803221340D9B20F23FB180F22BA188F
S214000E8012780A431A707B680F22BA1812789A7082
S214000E90C046BD4604B080BD80B582B000AF02003B
S214000EA0FB1D1A7040F20043C4F200030321180031
S214000EB040F60963C0F20003984703001A00FB1DC2
S214000EC01B78934225D040F20043C4F20003FF2172
S214000ED0180040F6EB53C0F200039847FB1D1A7843
S214000EE040F20043C4F200031100180040F64763C6
S214000EF0C0F200039847C04640F20043C4F2000325
S214000F00180040F6D553C0F2000398470300002BA4
S214000F10F2D0C046BD4602B080BD000080B582B0AB
S214000F2000AF78604EF21003CEF20003054A5A6016
S214000F304EF21003CEF2000305221A60C046BD46EC
S214000F4002B080BDFFFFFF0080B582B000AF7860C2
S214000F507B68180040F61D73C0F200039847C04631
S214000F60BD4602B080BD000080B584B000AF78609A
S214000F7039603B681A0E0F23FB181A703B68BB607B
S214000F801DE04EF21003CEF200031F4A5A604EF2E6
S214000F901003CEF200031C4A9A60C0464EF21003BD
S214000FA0CEF200031A6880235B021340002BF5D0B4
S214000FB0BB6840F2010CCFF6007C6344BB600F2395
S214000FC0FB181B780F22BA18591E1170002BD8D1A7
S214000FD04EF21003CEF20003BA685A604EF21003C7
S214000FE0CEF20003BA689A60C0464EF21003CEF204
S214000FF000031A6880235B021340002BF5D0C0461E
S214001000BD4604B080BDC046FFFFFF0080B584B07B
S21400101000AFF8607A600B23FB180A1C1A700B23CB
S214001020FB181B78FA68DB01D3181C337A681A6041
S214001030C046BD4604B080BD80B582B000AF020099
S2140010403960FB1D1A703A68FB1D197840F20023C0
S214001050C6F20003180041F20D03C0F200039847E1
S214001060C046BD4602B080BD80B582B000AF02006B
S214001070FB1D1A70FB1D1B785B09D8B2FB1D1B7885
S2140010801F22134001229A401300190041F239032F
S214001090C0F200039847C046BD4602B080BD80B58A
S2140010A000AFC046BD4680BD80B500AF41F63513E3
S2140010B0C0F200039847C046BD4680BD80B500AF6D
S2140010C040F29713C0F20003984740F2E83040F62B
S2140010D0AD03C0F20003984741F29F03C0F200033D
S2140010E0984741F2A903C0F200039847172041F23F
S2140010F06903C0F200039847E7E780B584B000AF05
S21400110078600E23FB1820221A700F23FB1800228B
S2140011101A7006E00F23FB180F22BA181278013255
S2140011201A700F23FA180E23FB1812781B789A42AF
S214001130F0D3C046BD4604B080BD000080B588B080
S21400114000AF786039600023FB6130E0FB699B00EC
S2140011507A68D318FA69920039688A1812781A7071
S214001160FB699B0001337A68D318FA699200013252
S21400117039688A1812781A70FB699B0002337A68FD
S214001180D318FA699200023239688A1812781A70EF
S214001190FB699B0003337A68D318FA69920003321E
S2140011A039688A1812781A70FB690133FB61FB698B
S2140011B0072BCBD90823FB6103E1FB69854A9446DC
S2140011C063449B00BB617A68BB69D3181A780C230A
S2140011D0FB181A70BB6901337A68D3181A780C2387
S2140011E0FB185A70BB6902337A68D3181A780C2336
S2140011F0FB189A70BB6903337A68D3181A780C23E5
S214001200FB18DA70FB6907221340002B5CD117230A
S214001210FB180C22BA1812781A700C23FB185A788E
S2140012200C23FB181A700C23FB189A780C23FB1857
S2140012305A700C23FB18DA780C23FB189A700C23D0
S214001240FB181722BA181278DA700C23FB181B78D2
S2140012501A0041F6D823C0F200039A5C0C23FB1850
S2140012601A700C23FB185B781A0041F6D823C0F2DC
S21400127000039A5C0C23FB185A700C23FB189B780F
S2140012801A0041F6D823C0F200039A5C0C23FB1820
S2140012909A700C23FB18DB781A0041F6D823C0F2AC
S2140012A000039A5C0C23FB18DA700C23FB181A78E0
S2140012B0FB69D90841F6D843C0F200035B5C534093
S2140012C0DAB20C23FB181A70FB6907221340042BB2
S2140012D02FD10C23FB181B781A0041F6D823C0F236
S2140012E000039A5C0C23FB181A700C23FB185B781F
S2140012F01A0041F6D823C0F200039A5C0C23FB18B0
S2140013005A700C23FB189B781A0041F6D823C0F2BB
S21400131000039A5C0C23FB189A700C23FB18DB78EE
S2140013201A0041F6D823C0F200039A5C0C23FB187F
S214001330DA70FB699B003B61FB694FF6F87CC3F6ED
S214001340FF7C63449B00BB617A683B69D31879686D
S214001350BA698A1811780C22BA1812784A40D2B2A2
S2140013601A703B6901337A68D318BA690132796812
S2140013708A1811780C22BA1852784A40D2B21A70DB
S2140013803B6902337A68D318BA69023279688A18D8
S21400139011780C22BA1892784A40D2B21A703B6979
S2140013A003337A68D318BA69033279688A181178D1
S2140013B00C22BA18D2784A40D2B21A70FB690133AE
S2140013C0FB61FB693B2B00D8F7E6C046BD4608B07C
S2140013D080BDC046FFFFFF3F80B582B000AF78609B
S2140013E039607B683A681100180041F23D13C0F27C
S2140013F000039847C046BD4602B080BD90B587B092
S21400140000AFB9607A600F23FB18021C1A7017230E
S214001410FB1800221A703FE01623FB1800221A70F1
S2140014202EE01723FB181A781623FB181B781721B3
S21400143079180878162179180978BC688000201871
S214001440405C0F21791809788C00172179180978E3
S21400145061188C0016217918097861180C007968D3
S214001460091909784140C8B2B96892008A18011C67
S214001470D1541623FB181622BA18127801321A70A5
S2140014801623FB181B78032BCBD91723FB18172220
S214001490BA18127801321A701723FB181B78032B20
S2140014A0BAD9C046BD4607B090BD90B585B000AF6E
S2140014B078600F23FB1800221A7032E00E23FB1808
S2140014C000221A7021E00E23FB1818780F23FB1851
S2140014D01A780E23FB1819780F23FB181B787C68E4
S2140014E089006118CB5C190041F6D823C0F20003CE
S2140014F05C5C79688300CB18211C99540E23FB187A
S2140015000E22BA18127801321A700E23FB181B78B6
S214001510032BD8D90F23FB180F22BA1812780132E2
S2140015201A700F23FB181B78032BC7D9C046BD467D
S21400153005B090BD80B584B000AF78600F23FB186F
S2140015407A6852781A707B685A797B685A707B681A
S2140015505A7A7B685A717B685A7B7B685A727B68BA
S2140015600F22BA1812785A730F23FB187A689278EB
S2140015701A707B689A7A7B689A707B680F22BA1812
S21400158012789A720F23FB187A6892791A707B6821
S2140015909A7B7B689A717B680F22BA1812789A73C6
S2140015A00F23FB187A68D2781A707B68DA7B7B6820
S2140015B0DA707B68DA7A7B68DA737B68DA797B685C
S2140015C0DA727B680F22BA181278DA71C046BD4606
S2140015D004B080BD80B582B000AF0200FB1D1A705B
S2140015E0FB1D1B785B005AB2FB1D1B78DB09DBB2C8
S2140015F0191C0B1CDB185B18191CC800191C031CD3
S214001600CB18DBB25BB253405BB2DBB21800BD4610
S21400161002B080BD90B585B000AF78600F23FB1890
S21400162000221A7019E10F23FB1819780E23FB18F5
S2140016307A6889008A5C1A700F23FB181A787B6810
S2140016409200D25C0F23FB181B7879689B00CB189E
S21400165001331B785340DAB20F23FB181B787968E6
S2140016609B00CB1802331B785340D9B20F23FB18CC
S2140016701B787A689B00D31803331A780D23FB185F
S2140016804A401A700F23FB181A787B689200D15CC8
S2140016900F23FB181B787A689B00D31801331A783F
S2140016A00C23FB184A401A700C23FC180C23FB185A
S2140016B01B78180041F2D553C0F200039847030088
S2140016C023700F23FB181A780F23FB1819787B68F2
S2140016D08900C95C0C23F8180D23FB1800781B78CA
S2140016E04340DBB24B40D9B27B689200D1540F2303
S2140016F0FB181B787A689B00D318013319780F23E0
S214001700FB181B787A689B00D31802331A780C23D0
S214001710FB184A401A700C23FC180C23FB181B7885
S214001720180041F2D553C0F2000398470300237017
S2140017300F23FB181B780F22BA18127879689200CC
S2140017408A18013211780C22B8180D22BA180078BF
S21400175012784240D2B24A40D1B27A689B00D3187F
S21400176001330A1C1A700F23FB181B787A689B003B
S214001770D318023319780F23FB181B787A689B005E
S214001780D31803331A780C23FB184A401A700C231C
S214001790FC180C23FB181B78180041F2D553C0F236
S2140017A000039847030023700F23FB181B780F22B3
S2140017B0BA181278796892008A18023211780C22C8
S2140017C0B8180D22BA18007812784240D2B24A40B1
S2140017D0D1B27A689B00D31802330A1C1A700F2302
S2140017E0FB181B787A689B00D318033319780C23F0
S2140017F0FB180E22BA1812784A401A700C23FC18EE
S2140018000C23FB181B78180041F2D553C0F20003D6
S2140018109847030023700F23FB181B780F22BA1873
S2140018201278796892008A18033211780C22B81858
S2140018300D22BA18007812784240D2B24A40D1B28D
S2140018407A689B00D31803330A1C1A700F23FB1800
S2140018500F22BA18127801321A700F23FB181B7861
S214001860032B00D8DFE6C046BD4605B090BD80B568
S21400187084B000AF786039600F23FB1800221A701E
S2140018803A687B681900002041F2FD33C0F200037D
S21400189098470F23FB1801221A707B68180041F244
S2140018A0AB43C0F2000398477B68180041F23553FB
S2140018B0C0F2000398470F23FB181B780E2B19D095
S2140018C07B68180041F21563C0F2000398473A6837
S2140018D079680F23FB181B78180041F2FD33C0F21D
S2140018E0000398470F23FB180F22BA18127801320C
S2140018F01A70D2E7C0463A687B6819000E2041F29B
S214001900FD33C0F200039847C046BD4604B080BD14
S21400191080B582B000AF786039607A683B681100A5
S214001920180041F66F03C0F200039847C046BD4654
S21400193002B080BD90B5D1B000AF40F22013FB18C6
S21400194041F6E442C0F2000213CA13C313CA13C31B
S21400195003CA03C340F21013FA1841F60453C0F248
S214001960000313CB13C21B6813607A1CFF3241F6C8
S2140019701453C0F2000313CB13C21B6813607B1C06
S214001980FF33180041F2FB03C0F20003984740F211
S2140019902013FB18180041F2FB03C0F2000398471F
S2140019A040F22013FA183B001100180041F2D93318
S2140019B0C0F2000398477A1CFF323B001100180063
S2140019C041F61113C0F200039847791CFF3140F22C
S2140019D01013FB181022180041F65523C0F200031E
S2140019E0984703004BB97B1CFF33180041F2FB03FA
S2140019F0C0F200039847002300E001231800BD460C
S214001A0051B090BD70B500250E4B0F4CE41AA410D3
S214001A10A54209D1002500F085F90C4C0C4BE41AC0
S214001A20A410A54207D170BD064AAB009B181B68E0
S214001A3098470135ECE7064AAB009B181B689847A9
S214001A400135EEE7301D0000301D0000341D00009B
S214001A50301D000030B50024A24201D1002005E070
S214001A60035D651C0C5DA34201D0181B30BD2C0025
S214001A70F2E700002E2E2F68706C2F706F72742F96
S214001A8068706C5F6770696F5F626173652E68006F
S214001A902E2E2F68706C2F636F72652F68706C5FC8
S214001AA0636F72655F6D32335F626173652E6300CC
S214001AB0B4090000980900007A0900005E090000D9
S214001AC03E090000840A00006A0A0000580A000066
S214001AD03C0A0000220A0000637C777BF26B6FC52D
S214001AE03001672BFED7AB76CA82C97DFA5947F01C
S214001AF0ADD4A2AF9CA472C0B7FD9326363FF7CCF8
S214001B0034A5E5F171D8311504C723C31896059A94
S214001B10071280E2EB27B27509832C1A1B6E5AA0B7
S214001B20523BD6B329E32F8453D100ED20FCB15BA2
S214001B306ACBBE394A4C58CFD0EFAAFB434D33850B
S214001B4045F9027F503C9FA851A3408F929D38F5DF
S214001B50BCB6DA2110FFF3D2CD0C13EC5F97441716
S214001B60C4A77E3D645D197360814FDC222A90888D
S214001B7046EEB814DE5E0BDBE0323A0A4906245C19
S214001B80C2D3AC629195E479E7C8376D8DD54EA97E
S214001B906C56F4EA657AAE08BA78252E1CA6B4C64A
S214001BA0E8DD741F4BBD8B8A703EB5664803F60EA3
S214001BB0613557B986C11D9EE1F8981169D98E9492
S214001BC09B1E87E9CE5528DF8CA1890DBFE64268AB
S214001BD041992D0FB054BB1652096AD53036A53838
S214001BE0BF40A39E81F3D7FB7CE339829B2FFF8700
S214001BF0348E4344C4DEE9CB547B9432A6C2233DE4
S214001C00EE4C950B42FAC34E082EA16628D924B294
S214001C10765BA2496D8BD12572F8F66486689816B5
S214001C20D4A45CCC5D65B6926C704850FDEDB9DA14
S214001C305E154657A78D9D8490D8AB008CBCD30A02
S214001C40F7E45805B8B34506D02C1E8FCA3F0F02DE
S214001C50C1AFBD0301138A6B3A9111414F67DCEAAD
S214001C6097F2CFCEF0B4E67396AC7422E7AD358526
S214001C70E2F937E81C75DF6E47F11A711D29C58930
S214001C806FB7620EAA18BE1BFC563E4BC6D2792012
S214001C909ADBC0FE78CD5AF41FDDA8338807C7311B
S214001CA0B11210592780EC5F60517FA919B54A0D13
S214001CB02DE57A9F93C99CEFA0E03B4DAE2AF5B088
S214001CC0C8EBBB3C83539961172B047EBA77D626A4
S214001CD0E169146355210C7D8D0102040810204033
S214001CE0801B3600603DEB1015CA71BE2B73AEF03C
S214001CF0857D77811F352C073B6108D72D9810A36B
S214001D000914DFF4F3EED1BDB5D2A03C064B5A7EE3
S214001D103DB181F86BC1BEE22E409F96E93D7E1133
S214001D207393172AF8B5C046F8BC08BC9E467047A1
S214001D3021010000F8B5C046F8BC08BC9E467047B6
S208001D40F5000000A5
S2148040003F438FB0BB180000FF00087F0100000010
S214804010000000000000000000000000000000001B
S804000000FB
