:10000000E0290020610600005D0600005D0600009A
:1000100000000000000000000000000000000000E0
:100020000000000000000000000000005D0600006D
:1000300000000000000000005D0600005D060000FA
:100040005D0600005D0600005D0600005D06000024
:100050005D0600005D0600005D0600005D06000014
:100060005D0600005D0600005D0600005D06000004
:100070005D0600005D0600005D0600005D060000F4
:100080005D0600005D0600005D0600005D060000E4
:100090005D0600005D0600005D0600005D060000D4
:1000A0005D0600005D0600005D0600005D060000C4
:1000B0005D0600005D0600005D0600005D060000B4
:1000C0005D0600005D0600005D0600005D060000A4
:1000D0005D0600005D0600005D0600005D06000094
:1000E0005D0600005D0600005D0600005D06000084
:1000F0005D06000010B540F26804C2F200042378E7
:1001000063B940F20003C0F200032BB144F22000B7
:10011000C0F2800000E000BF0123237010BDC04684
:1001200040F20003C0F2000310B54BB140F26C0185
:1001300044F22000C2F20001C0F2800000E000BFE3
:1001400044F22000C0F28000036803B910BD40F201
:100150000003C0F20003002BF8D09847F6E7C04632
:10016000030010B5044C021D1978615C197001334D
:100170009342F9D110BDC0466A13000037B50400A0
:1001800001AD010004222800054B98476B78200040
:100190002370AB786370EB78A3702B78E3703EBD6F
:1001A000C5110000F0B50E001C0087B09700019249
:1001B0000100234D30003A000134A8472301029387
:1001C000F3193E0000930395029B9E4201DB07B0AA
:1001D000F0BD009B05AD191F04222800039B984722
:1001E00096FBF7F47C43341B0CBB164B2800984756
:1001F000154B9847019B154A96FBF3F39B18615DDD
:100200001A5D4A4062550134042CF8D10023009A4B
:1002100005A9D01B5C5CC25C6240009CE2540133C7
:10022000042BF7D12300043304360093CCE7019B61
:10023000062BEBD9102CE9D12800034B9847E5E7B2
:10024000C51100007D010000610100006A1400007A
:1002500030B5074C011D0200030010321D78655DAA
:100260001D7004339342F9D101308842F3D130BD7F
:100270006A130000F7B50123032701AD1A1D944648
:100280001A00EE1AC418110039408900615CB1549B
:1002900001326245F7D10022AE5C91000132665412
:1002A000042AF9D10133042BE8D1F7BD73B500223C
:1002B0001B2501AC2170A35CA1185B00DBB24B7065
:1002C000A65C7F2E01D96B404B700132032AF2D11C
:1002D000002301211A0005001D410D4201D0E55CFB
:1002E0006A400133042BF6D1100076BDF0B504004E
:1002F0008BB01A4906AD1A4B10222C3128009847B2
:1003000023001033019305AE039500252378337045
:1003100063787370A378B370E378F370039AAB00DB
:10032000D318029300231F000093029BB95DD85D90
:100330000C4B9847009B01375840C3B20093042FE1
:10034000F3D16B461B7863550135042DE6D1019B33
:100350000434A342D9D10BB0F0BDC0466A150000E9
:10036000C5110000AD020000002270B51500130099
:100370001035C45CCE5C7440C45404339D42F8D143
:100380000132042AF2D170BDF0B587B000AFFA6037
:100390003022BA1812789B00BA606A463B61073374
:1003A000DB08DB00D31A9D4679603A690100134EE1
:1003B00068467B61124DB047F9686846A84700243B
:1003C000BB689C4206DB3A6979697868B047BD46EC
:1003D00007B0F0BD78690B4B98470B4B786998478D
:1003E000BB68013B9C4202D07869084B98470134B6
:1003F000FB68210159187869A847E1E7C511000099
:10040000690300005102000075020000ED020000C7
:10041000F7B50D4B0600B0200D00170098470A23D2
:100420000400010004223800084FB8470A232900BD
:10043000009322003000063B054EB0472000054BDC
:1004400098472800FEBDC0469D110000A501000090
:1004500089030000B111000010B5064B9847002336
:1004600040F28021044AD366044A53500431535069
:1004700010BDC046DD0600000032004000E100E093
:1004800070B50500054C064B20009847054B290028
:100490001A682000044B984770BDC046C022002057
:1004A000210B000000000020350B0000F0B58FB0DC
:1004B000174F01900C0006AD0021160002A8102273
:1004C000B847102200212800B84787230AAF390017
:1004D000EB73019A0F4B02A8984739000E4B20008E
:1004E00098473B780C4F7F2B04D92A00210020002D
:1004F0000A4B984721003000B84723787F2B04D956
:100500002A0031003000054B98470FB0F0BDC046BF
:10051000D71100001104000045060000310600005C
:10052000F0B591B000AF394D060010200C00FA6014
:10053000BB60A847B8611020A847354B786102001E
:10054000B969B86898470F2323402509002B46D086
:1005500001355A425341DBB23B612B01FB616B46D3
:10056000FA6900219B1A9D462A4D68467B60A84780
:100570003100294B220068469847F8693B691038DA
:10058000264E002B3FD16C4480337A692370684437
:100590000100B047202310220021F818A847B868AE
:1005A0001F4B9847FD697C68103D6519A5421BD11A
:1005B0002023FA18103BD0182900B047202110231F
:1005C0007918C918FA68174B17489847174CB86933
:1005D000A0477869A047BD46F86811B0F0BD002D6E
:1005E000B7D13D610125B8E72023FA18103BD01898
:1005F0002100B0472023FA18103BD1180A48094BB4
:1006000098471034D2E76844BA69C1E79D110000E9
:10061000AD040000D7110000C51100003106000034
:1006200081040000F90C0000C0220020B11100007C
:10063000002330B5CC5CD55C6C40C4540133102B26
:10064000F8D130BD0F23002210B5CC5C64002243EA
:10065000C254CA5CD209013BF7D210BDFEE70000CC
:10066000104A114B10B59A4205D000230F490E4A8B
:100670009A188A420ED300210D4B0E4A93420FD393
:100680007F210D4B0D4A8B4393600D4B98470D4BCB
:100690009847FEE703481818006804331060E6E73F
:1006A00002C3EBE7441800000000002068000020AF
:1006B00068000020DC2300200000000000ED00E0C6
:1006C0004D1100009108000010B50248024B9847F8
:1006D00010BDC04610E000E01D07000010B50A4B39
:1006E00098478022094B12045A619A6080220121A6
:1006F000074BD2059A62074A9A6257331A788A439F
:100700001A70054B984710BD4D07000000020060AD
:1007100000320040800000C0C906000010B5024B46
:100720001860024B984710BD840000201908000093
:10073000044B0200196809B9034919601868821846
:100740001A60704788000020E029002010B5094B8E
:1007500000205A685A60084B9847084B9847084B46
:100760009847084B9847084B98471F20074B9847D6
:1007700010BDC04600500041F1070000B90700005D
:10078000D1070000AD070000ED0700009107000051
:10079000C30706D5034A044B1A627D2259681142E9
:1007A000FCD1704705010100001C00400122014BF3
:1007B0001A7170470008004041F60071034BDA6976
:1007C0000A40DA6100221A747047C04600140040E3
:1007D0000222054B1A760E3219691142FCD0802193
:1007E0001A7E0A431A7670470010004070470000D6
:1007F0000321084B9A780A40904209D0FF229A714F
:100800009A7808408A43104398709A79002AFCD05D
:100810007047C04600040040024B034A5A6005225C
:100820001A60704710E000E0FFFFFF0040220E4B0F
:100830001A600E4B3E3A19689143196019691142CA
:10084000FCD10C201968814308000821014319607C
:100850000121D87B0143D97319680A431A601A69C8
:100860009207FCD47047C046B81C004000100042FC
:100870001F21064B5A791140802252420A435A7175
:10088000042219691142FCD15869704700100042D6
:1008900010B5114C114BA5449847114C1022114929
:1008A00001A8A04740F2FC120F4909A8A047002365
:1008B00000930E4B98470E4B09A898470D4C411CCE
:1008C00005AA01AB09A8A0470B4B98470090009AD6
:1008D0000A4B1A60FEE7C046E0FDFFFF5904000026
:1008E000C5110000B6150000C61500002D08000057
:1008F0005913000021050000710800003C38002059
:10090000F0B57C4C0123A544002180241B258A00DE
:1009100006A81350FFA89A001C3011501800204060
:100920005A0000B12800534040F200124340013108
:10093000DBB29142EBD10022012380241B256E48BB
:1009400013505900234003B12B004B40FF210432C8
:100950000B40282AF4D16323674A002428321370FD
:10096000664A0126100040F2001C8B30FFAF047075
:1009700002921C370493B300DB5906AACB1A9B00E2
:10098000D358DC115D0025430D40E8116C00044391
:100990000C40E21160001043084042000193130034
:1009A000C2111A430392049B019A5A401300039AFE
:1009B0006B4063400A40434053404F4A2832B3548F
:1009C000029A2832D65401366645D4D1002240F22C
:1009D000180C14000825BB6B01937B6A03937B6B97
:1009E0000493FB6A05931B26434B2833E15C4BB20F
:1009F000DB1748001E404640FF200B0206400F0454
:100A00007B4071407340090659403D4B0E0028332E
:100A1000D1506346DE413B4B2833D6500E001023A5
:100A2000DE41E941384B2833D650384B2833D1507A
:100A3000029B28331B5D002B58D0FFAE1C3699005B
:100A40008959019E761896FBF0F74743F61BB600CE
:100A500006AFF659039FC91991FBF0F77843081ABE
:100A6000800006A9405800027040002173B1FFAE1B
:100A70001C3699008959049E7118FF2691FBF6F7E0
:100A80007E438E1BB60006A9715809044840002118
:100A900073B1FFA91C319B005B580599CB18FF214E
:100AA00093FBF1F67143591A890006ABC958090640
:100AB000174B48402833D05001006346D941154BAD
:100AC00001342833D15001001023D941E841124BA1
:100AD0002833D150114B2833D05040F20013043248
:100AE0009C4280D140F61C039D44F0BD1E001800BE
:100AF000BAE7C046E4F7FFFF8C0000208C0100201D
:100B00008C0200208C0600208C0A00208C0E002015
:100B10008C1200208C1600208C1A00208C1E0020C5
:100B200010B540F218120021014B984710BDC04685
:100B3000D7110000F8B505000E001400C02A09D036
:100B400040F200139A424BD0F63B802A03D020207B
:100B5000404244E00C23654F2B60BB6A1BB9644BD9
:100B600098470123BB622B00083331001800640949
:100B7000A4006B6034198C4234D12A680C2A3ED010
:100B80000E2A00D16BE000200A2A28D1594EFF25F9
:100B9000340028348200D96892591F6801307A40A5
:100BA0000F0A2F40E75D7A400F0EE75D3F047A4061
:100BB0000F002F40E75D3F067A400F0C2F40E75DA6
:100BC0003F027A405F681A617A409F685A617A40B2
:100BD0009A614A40DA6110330A28DBD10020F8BD5F
:100BE0000E23B8E74A788E781202360432430E7824
:100BF0003243CE7804313606324304C0BBE73D4E63
:100C000000203400FF2528348200925959691F685A
:100C100001307A400F0A2F40E75D7A400F0EE75D02
:100C20003F047A400F002F40E75D3F067A400F0CEB
:100C30002F40E75D3F027A405F689A617A409F6883
:100C4000DA617A40DF681A627A401F695A627A4034
:100C50009A624A40DA6218330828D5D1BEE70025E7
:100C6000FF2424492831D869224EAA00070A925944
:100C700027401E68CF5D72407A40070ECF5D5E68E8
:100C80003F047A4007002740CF5D01353F067A4098
:100C9000070C2740CF5D3F027A401A6272409E687F
:100CA0005A627240DE689A6272401700DA62274028
:100CB000CF5D1E697E40170ECF5D3F067740160A56
:100CC0002640120C8E5D22408A5C36027E40120461
:100CD00072405E691A6372409E695A6372409A63F9
:100CE0004240DA632033072DBDD177E78C22002004
:100CF000010900008C000020F0B585B04C7800920E
:100D00000A78240214438A78436812041443CA7888
:100D10000E7A120622431C684F7B5440A4464C793D
:100D20000A79240214438A790D7B12041443CA7988
:100D30003F02120622435C682F4362404C7A8D7B4F
:100D4000240234438E7A2D0436043443CE7AC97B90
:100D5000360626439C683D43664009061C00DB6856
:100D600029435940036810345B10013B0393FF2370
:100D70000398002800DDF2E06046EF4D1840800047
:100D80004019EE4F0D0EAD00ED19AD6A806AEC4FC3
:100D9000684025686840150A1D40AD00ED19AD6A30
:100DA000E84F6840350C1D40AD00ED19AD6AE34FCA
:100DB000684001901000E04D1840800040196546E1
:100DC0002D0EAD00ED19AD6A806ADD4F6840656893
:100DD0006840350A1D40AD00ED19AD6AD94F684035
:100DE0000D0C1D40AD00ED19AD6AD44F68403500C3
:100DF00002901D40D048AD002D18100E8000C01983
:100E0000806AAD6ACE4F4540A068360E4540080A5C
:100E100018408000C019806ACA4F45406046000CE7
:100E200018408000C019806A19404540C2488900B6
:100E30000918C248B6003618896AB66AC0484E40DA
:100E4000E168120C4E406146090A19401A408900B7
:100E500009189200896AD219926A4E405640019947
:100E6000B94A19402832505C21694840310E515C22
:100E7000090648400299090A1940515C0902484094
:100E8000290C1940515C0904484002991940575CEB
:100E900061694F400199090E515C090679402F0A9A
:100EA0001F40D75D3F027940370C1F40D75D3F049C
:100EB00079402F001F40D75D0391A169E469794013
:100EC0008C4602992D0E0F0E6146D75D3F064F40AE
:100ED000310A1940515C1E40090279408C46019943
:100EE000965D0F0C61461F40D75D66403F04545D20
:100EF0004F400199240666400C0A1C40145D02997B
:100F0000240266400C0C2340D45C009B009A1870AD
:100F1000030A5370030C000E9370D07013006A46DE
:100F20000020127B24041A71039B009A1B0A537140
:100F3000039B74401B0C9371039B1772190E3B0AA1
:100F400053723B0C9372230A3F0E14735373230C9A
:100F5000240ED171D7729373D47305B0F0BD60467F
:100F6000754D184080004019744F0D0EAD00ED19FD
:100F7000AD6A806A724F684025686840150A1D4056
:100F8000AD00ED19AD6A6F4F6840350C1D40AD00E6
:100F9000ED19AD6A694F6840150001901D40664823
:100FA000AD002D186046000E8000C019806AAF6A3F
:100FB000634D474060684740300A18408000401940
:100FC000806A604D4740080C184080004019806AD4
:100FD000594D474030001840800002974019574F44
:100FE000150EAD00ED19AD6A806A554F6840A568D1
:100FF000360E68400D0A1D40AD00ED19AD6A514F27
:10100000684065462D0C1D40AD00ED19AD6A1940D4
:101010006840494D89004919484DB6007619B56AAE
:10102000896A474E6940E568120C694065462D0A99
:101030001D40AD001A40AD199200AD6AD219926AF6
:1010400069405140039A3C4D013A0392019A3B4E4C
:101050001A40920052190D0EAD00AD19AD6A926A98
:10106000374E6A4025696A40029D2D0A1D40AD0039
:10107000AD19AD6A314E6A40050C1D40AD00ED1949
:10108000AD6A6A409446029A2B4D1A40920052195A
:10109000019D926A2D0EAD00AD19AD6A284E6A40D1
:1010A00065696A40050A1D40AD00AD190600AD6ACC
:1010B0001E406A400D0C1D40AD00ED19AD6AB60032
:1010C0006A401D4D1D4F7619029DB66A2D0EAD006A
:1010D000ED19AD6A1A4F6E40A569000E6E400D0AFB
:1010E0001D40AD00ED19AD6A164F6E40019D1940CF
:1010F0002D0C1D40AD00ED19AD6A89006E400E4DFE
:10110000800049190D4D896A4019806A0C4D414093
:10111000E069203441400198000A184080004019DD
:10112000806A41400298070C1F400648BF003F18E4
:10113000B86A41401CE6C0468C0200208C0E00209C
:101140008C0600208C0A00208C00002070B5002541
:101150000E4B0F4CE41AA410A54209D1002500F053
:1011600061FB0C4C0C4BE41AA410A54207D170BDD6
:10117000064AAB009B181B6898470135ECE7064A06
:10118000AB009B181B6898470135EEE7301800004C
:1011900030180000341800003018000010B5034B60
:1011A0000100186800F06AF810BDC0460400002075
:1011B00010B5034B0100186800F016F810BDC046CA
:1011C00004000020002310B59A4200D110BDCC5C71
:1011D000C4540133F8E703008218934200D17047EA
:1011E00019700133F9E7000070B5050081B10C1FDB
:1011F0002368002B00DAE418280000F0B4F81E4A37
:10120000136811002BB963601460280000F0ACF87B
:1012100070BDA3420BD92268A018834203D118687D
:101220005B688218226063600C60EEE713005A6806
:101230000AB1A242FAD919685818A0420BD1206805
:101240000918581819608242DFD110685268411895
:1012500019605A60D9E7A04202D90C232B60D4E769
:1012600021686018824203D11068526841182160D9
:1012700062605C60C9E7C046B8220020032370B5F5
:10128000CD1C9D43083506000C2D1CD20C25A9420F
:101290001BD8300000F067F8254A14682100C1B956
:1012A000244C23681BB9300000F046F82060290068
:1012B000300000F041F8431C2DD10C233000336086
:1012C00000F052F803E0002DE1DA0C233360002037
:1012D00070BD0B685B1B1BD40B2B03D90B60CC18A8
:1012E000256003E08C420FD163681360300000F08A
:1012F0003BF8200007220B30231D9043C31A002B1C
:10130000E6D05A42E250E3E74B6863600C00EDE739
:101310000C004968C3E70323C41C9C43A042DFD0F0
:10132000211A300000F008F8431CD9D1C5E7C046A7
:10133000B8220020BC220020002370B5054C050017
:1013400008002360FFF7F4F9431C02D1236803B1BE
:101350002B6070BDD82300200023C25C0133002A1B
:10136000FBD1581E704770477047637C777BF26BE8
:101370006FC53001672BFED7AB76CA82C97DFA599B
:1013800047F0ADD4A2AF9CA472C0B7FD9326363F00
:10139000F7CC34A5E5F171D8311504C723C31896ED
:1013A000059A071280E2EB27B27509832C1A1B6E8F
:1013B0005AA0523BD6B329E32F8453D100ED20FC31
:1013C000B15B6ACBBE394A4C58CFD0EFAAFB434D34
:1013D000338545F9027F503C9FA851A3408F929DD1
:1013E00038F5BCB6DA2110FFF3D2CD0C13EC5F97C1
:1013F0004417C4A77E3D645D197360814FDC222AC7
:10140000908846EEB814DE5E0BDBE0323A0A4906FD
:10141000245CC2D3AC629195E479E7C8376D8DD571
:101420004EA96C56F4EA657AAE08BA78252E1CA649
:10143000B4C6E8DD741F4BBD8B8A703EB5664803A9
:10144000F60E613557B986C11D9EE1F8981169D92C
:101450008E949B1E87E9CE5528DF8CA1890DBFE6AF
:10146000426841992D0FB054BB16000000000100E6
:10147000000002000000040000000800000010004E
:1014800000002000000040000000800000001B0061
:1014900000003600000052096AD53036A538BF403A
:1014A000A39E81F3D7FB7CE339829B2FFF87348E89
:1014B0004344C4DEE9CB547B9432A6C2233DEE4CB8
:1014C000950B42FAC34E082EA16628D924B2765B4A
:1014D000A2496D8BD12572F8F66486689816D4A45B
:1014E0005CCC5D65B6926C704850FDEDB9DA5E1566
:1014F0004657A78D9D8490D8AB008CBCD30AF7E4E7
:101500005805B8B34506D02C1E8FCA3F0F02C1AF95
:10151000BD0301138A6B3A9111414F67DCEA97F2E0
:10152000CFCEF0B4E67396AC7422E7AD3585E2F920
:1015300037E81C75DF6E47F11A711D29C5896FB731
:10154000620EAA18BE1BFC563E4BC6D279209ADB0F
:10155000C0FE78CD5AF41FDDA8338807C731B11219
:1015600010592780EC5F60517FA919B54A0D2DE510
:101570007A9F93C99CEFA0E03B4DAE2AF5B0C8EB33
:10158000BB3C83539961172B047EBA77D626E16959
:10159000146355210C7D02030101010203010101C5
:1015A0000203030101020E0B0D09090E0B0D0D09BB
:1015B0000E0B0B0D090E31501047170000000000F4
:1015C000000000000000496E666F726D6174696F03
:1015D0006E20536563757269747920697320612088
:1015E0006D756C74696469736369706C696E61723E
:1015F000792061726561206F66207374756479204B
:10160000616E642070726F66657373696F6E616C72
:1016100020616374697669747920776869636820EA
:10162000697320636F6E6365726E65642077697499
:10163000682074686520646576656C6F706D656E92
:101640007420616E6420696D706C656D656E746187
:1016500074696F6E206F6620736563757269747943
:10166000206D656368616E69736D73206F662061BC
:101670006C6C20617661696C61626C652074797054
:1016800065732028746563686E6963616C2C206FD4
:101690007267616E697A6174696F6E616C2C206823
:1016A000756D616E2D6F7269656E74656420616E13
:1016B00064206C6567616C2920746F206B656570B0
:1016C00020696E666F726D6174696F6E20696E203D
:1016D000616C6C20697473206C6F636174696F6EE8
:1016E00073202877697468696E20616E64206F7555
:1016F000747369646520746865206F7267616E69D0
:101700007A6174696F6E277320706572696D657494
:1017100065722920616E642C20636F6E736571752C
:10172000656E746C792C20696E666F726D61746978
:101730006F6E2073797374656D732C207768657292
:101740006520696E666F726D6174696F6E20697372
:1017500020637265617465642C2070726F636573B9
:101760007365642C2073746F7265642C20747261CD
:101770006E736D697474656420616E642064657352
:1017800074726F7965642C20667265652066726F6D
:101790006D20746872656174732E205468697320BB
:1017A00070726F6A6563742069732066696E69730D
:1017B0006865642062792047554F52554920585535
:1017C0002E000000000000000000000000000000EB
:1017D0000000000000000000000000000000000009
:1017E00000000000000000000000000000000000F9
:1017F00000000000000000000000000000000000E9
:1018000000000000000000000000000000000000D8
:1018100000000000000000000000000000000000C8
:1018200000000000F8B5C046F8BC08BC9E467047F2
:1018300021010000F8B5C046F8BC08BC9E467047C0
:04184000F5000000AF
:10184400800000000800002000000000E4170000F1
:1018540004180000C417000000000000000000008D
:101864000000000000000000000000000000000074
:101874000000000000000000000000000000000064
:101884000000000000000000000000000000000054
:101894000000000000000000000000000000000044
:0818A40000000000000000003C
:0200000400807A
:104000003F438FB0BB180000FF00087F0100000095
:1040100000000000000000000000000000000000A0
:00000001FF
