:020000042001D9
:100000009711FF5F9381012697020000938282017E
:100010007390523093021000638402007350107C7E
:100020009702000093824211739052301301000036
:1000300063140100138101CC732540F18142130345
:100040000040137101FF6385A2001A918502D5BF9C
:10005000970000009380C00763830000829073259F
:1000600040F181450146ED209300000063830000CC
:100070008290970200009382C20073905230032353
:100080000000F5BF000000008280A14673B3063077
:10009000914263C555001376350011CA230005004F
:1000A0000505FD15E347B0FE731003308280232061
:1000B00005001105F115E34EB0FC7310033082808A
:1000C000232003001103E34D73FE82800684970210
:1000D000FFDF938222F3638C02049702FFDF938297
:1000E00062F2F32740F1A14673B006300A8397030A
:1000F000FFDF938323318A9363037300D1376398BF
:1001000057021703FF5F1303E3EF9713FF5F938318
:10011000E397630373006D371703FFE7130383EE61
:100120009703FFE7938303EE63037300513FA280BD
:1001300082800000F322203473231034F323303400
:10014000D5BF411122C6000801003244410182801E
:1001500006849711FF5F9381E11093020000631101
:10016000550E976200009382E2C91703FF5F1303E5
:1001700063E99713FF5F93836391638C6200635A13
:10018000730003A5020091022320A3001103E34A98
:1001900073FE97120000938262DE1703FFE71303DA
:1001A00063E69703FFE79383E3E5638C6200635A9A
:1001B000730003A5020091022320A3001103E34A68
:1001C00073FE0F10000097120000938222DB1703CA
:1001D000FF5F130323E39703FF5F9383A3E2638C23
:1001E0006200635A730003A5020091022320A3005A
:1001F0001103E34A73FE0F1000001713FF5F130390
:10020000E3889383018C6357730023200300110359
:10021000E34D73FE1712FF5F1302428711C202966D
:100220001755000013056523EF50A01FEF5000265F
:1002300017650000130525BAEF50A01EEF503038A7
:100240000937FD5673B0463073B04634F32710308B
:10025000372704007D8F09C773B0363073B026305E
:10026000370704007D8F19C373B006184167130761
:100270008702F98F89CBF32700300967D98F7390F4
:10028000073073503000F327103037072000F98F04
:1002900099C7F327003093E707207390073005458F
:1002A00097150000938585B917160000130646B907
:1002B0003120EF50A017A28082808280411106C2B7
:1002C000F32240F1130300006385620073005010B5
:0C02D000F5BFEF00104F9240410182800A
:0802E000E802012014030120D3
:1002E800011106CE22CC0010EF3010312326A4FED7
:1002F8008327C4FE99C7B7170080138507A5EF3079
:1003080070380100F240624405618280011106CE16
:1003180022CC0010EF30502E2326A4FE8325C4FEE5
:10032800B7170080138507A5EF40B0460100F240DB
:06033800624405618280B1
:10034000BE130120641501204815012000000000A3
:10035000000000005C1801209018012046140120C4
:1003600020150120BC1501206E16012000000000A0
:10037000000000000000000000000000000000007D
:100380000000000000000000000000002017012015
:10039000F212012000000000000000000000000038
:1003A000000000007A2A0120E02A0120E02A012032
:1003B0008C2A0120E02A0120E02A0120E02A0120E5
:1003C0009E2A0120E02A0120E02A0120E02A0120C3
:1003D000B02A0120E02A0120E02A0120E02A0120A1
:1003E000E02A0120C22A0120C22A0120C22A0120BB
:1003F000C22A0120C22A0120C22A0120C22A0120C9
:10040000C22A0120C22A0120C22A0120C22A0120B8
:10041000C22A0120C22A0120C22A0120C22A0120A8
:10042000C22A0120422B0120722E0120582E0120C9
:1004300000000000000000000000000000000000BC
:10044000242C012000000000042E01202E2E01206B
:10045000000000000000000000000000000000009C
:10046000000000000000000000000000000000008C
:10047000C22E01200000000000000000000000006B
:100480000000000000000000DE2E01204E2F0120A1
:10049000942F0120FA2F0120703001208A30012092
:1004A0009E300120B8300120CC3001202E310120B7
:1004B00090310120F031012010320120563201200C
:1004C00084320120A2320120C2320120BC36012038
:1004D000000000000000000000000000000000001C
:1004E00000000000000000000C38012000000000A7
:1004F000CA38012018390120000000000000000067
:1005000096390120663901202A350120C83401209E
:1005100000000000000000000000000000000000DB
:10052000BE390120583A0120F43A0120683B0120ED
:100530000100000020000000001BB70000366E0123
:10054000010000001F000000030000003F00000049
:10055000010000002000000000366E01006CDC028B
:10056000030000001F000000020000003F00000028
:100570000100000010000000808D5B00001BB70030
:10058000000000001F000000030000003F0000000A
:100590000100000010000000001BB70000366E01D3
:1005A000010000001F000000020000003F000000EA
:1005B000010000001000000000366E01006CDC023B
:1005C000030000001F000000020000001F000000E8
:1005D0000100000008000000808D5B00001BB700D8
:1005E000000000001F000000030000001F000000CA
:1005F0000100000008000000001BB70000366E017B
:10060000010000001F000000020000001F000000A9
:10061000010000000800000000366E01006CDC02E2
:10062000030000001F000000020000000F00000097
:100630000100000004000000808D5B00001BB7007B
:10064000000000001F000000030000000F00000079
:100650000100000004000000001BB70000366E011E
:10066000010000001F000000020000000F00000059
:10067000010000000400000000366E01006CDC0286
:10068000030000001F00000002000000070000003F
:100690000100000002000000808D5B00001BB7001D
:1006A000000000001F000000020000000F0000001A
:1006B0000100000002000000001BB70000366E01C0
:1006C000010000001F000000010000000F000000FA
:1006D000010000000200000000366E01006CDC0228
:1006E000030000001F0000000100000007000000E0
:1006F0000200000001000000808D5B00001BB700BD
:10070000000000001F0000000100000007000000C2
:100710000200000001000000001BB70000366E015F
:10072000010000001F0000000100000003000000A5
:10073000020000000100000000366E01006CDC02C7
:10074000030000001F00000003000000FFFFFFFF88
:100750000400000001000000808D5B00001BB7005A
:10076000000000001F000000030000000000000067
:100770000400000001000000001BB70000366E01FD
:10078000010000001F00000003000000FFFFFFFF4A
:10079000040000000100000000366E01006CDC0265
:1007A000030000001F00000002000000FFFFFFFF29
:1007B0000600000001000000808D5B00AAC2A200BC
:1007C0000000000023000000010000000200000003
:1007D0000600000001000000AAC2A200001BB70032
:1007E000000000001700000003000000FFFFFFFFF3
:1007F0000600000001000000001BB7000024F40008
:10080000010000002F00000003000000FFFFFFFFB9
:1008100006000000010000000024F40080A812017E
:10082000010000001700000002000000FFFFFFFFB2
:10083000060000000100000080A812015585450156
:10084000020000002300000002000000FFFFFFFF85
:100850000800000001000000808D5B00001BB70055
:10086000000000001F00000003000000FFFFFFFF6A
:100870000800000001000000001BB70000366E01F8
:10088000010000001F00000002000000FFFFFFFF4A
:10089000080000000100000000366E01006CDC0260
:1008A000030000001F00000001000000FFFFFFFF29
:1008B0000A00000001000000808D5B00007C9200B7
:1008C000000000002700000003000000FFFFFFFF02
:1008D0000A00000001000000007C9200001BB7002D
:1008E000000000001300000002000000FFFFFFFFF7
:1008F0000A00000001000000001BB70000F82401FE
:10090000010000002700000002000000FFFFFFFFC1
:100910000A0000000100000000F8240100366E010A
:10092000010000001300000001000000FFFFFFFFB6
:100930000A0000000100000000366E0100F04902CC
:10094000030000002700000001000000FFFFFFFF80
:100950000C00000001000000808D5B0000127A0096
:10096000000000002F00000003000000FFFFFFFF59
:100970000C0000000100000000127A00001BB7000C
:10098000000000001700000002000000FFFFFFFF52
:100990000C00000001000000001BB7000024F40060
:1009A000010000002F00000002000000FFFFFFFF19
:1009B0000C000000010000000024F40000366E016D
:1009C000010000001700000001000000FFFFFFFF12
:1009D0000C0000000100000000366E0180C3C90158
:1009E000030000002F00000001000000FFFFFFFFD8
:1009F0000C0000000100000080C3C9010048E801AC
:100A0000030000002F00000001000000FFFFFFFFB7
:100A10000E00000001000000808D5B00B6A16800A0
:100A2000000000003700000003000000FFFFFFFF90
:100A30000E00000001000000B7A16800001BB70015
:100A4000000000001B00000002000000FFFFFFFF8D
:100A50000E00000001000000001BB7006D43D10034
:100A6000010000003700000002000000FFFFFFFF50
:100A70000E000000010000006E43D10000366E0140
:100A8000010000001B00000001000000FFFFFFFF4D
:100A90000E0000000100000000366E01DB86A2019E
:100AA000030000003700000001000000FFFFFFFF0F
:100AB0001000000001000000808D5B00001BB700EB
:100AC000000000001F00000002000000FFFFFFFF09
:100AD0001000000001000000001BB70000366E018E
:100AE000010000001F00000001000000FFFFFFFFE9
:100AF0001200000001000000808D5B00AAC2A2006D
:100B0000000000002300000002000000FFFFFFFFC4
:100B10001200000001000000ABC2A200001BB700E1
:100B2000000000001100000001000000FFFFFFFFB7
:100B30001200000001000000001BB70055854501B0
:100B4000010000002300000001000000FFFFFFFF84
:100B50001400000001000000808D5B00007C92000A
:100B6000000000002700000002000000FFFFFFFF60
:100B70001400000001000000007C9200001BB70080
:100B8000000000001300000001000000FFFFFFFF55
:100B90001400000001000000001BB70000F8240151
:100BA000010000002700000001000000FFFFFFFF20
:100BB0001600000001000000808D5B00E82A85001F
:100BC000000000002B00000002000000FFFFFFFFFC
:100BD0001600000001000000E92A8500001BB70094
:100BE000000000001500000001000000FFFFFFFFF3
:100BF0001600000001000000001BB700D1550A01DB
:100C0000010000002B00000001000000FFFFFFFFBB
:100C10001800000001000000808D5B0000127A00C7
:100C2000000000002F00000002000000FFFFFFFF97
:100C3000180000000100000000127A00001BB7003D
:100C4000000000001700000001000000FFFFFFFF90
:100C50001800000001000000001BB7000024F40091
:100C6000010000002F00000001000000FFFFFFFF57
:100C70001A00000001000000808D5B0027AE7000AC
:100C8000000000003300000002000000FFFFFFFF33
:100C90001A0000000100000028AE7000001BB70021
:100CA000000000001900000001000000FFFFFFFF2E
:100CB0001A00000001000000001BB7006658E100A8
:100CC000010000003300000001000000FFFFFFFFF3
:100CD0001C00000001000000808D5B00B6A16800D0
:100CE000000000003700000002000000FFFFFFFFCF
:100CF0001C00000001000000B7A16800001BB70045
:100D0000000000001B00000001000000FFFFFFFFCB
:100D10001C00000001000000001BB7006D43D10063
:100D2000010000003700000001000000FFFFFFFF8E
:100D30001E00000001000000808D5B0000A8610023
:100D4000000000003B00000002000000FFFFFFFF6A
:100D50001E0000000100000000A86100001BB70099
:100D6000000000001D00000001000000FFFFFFFF69
:100D70001E00000001000000001BB7000050C3006F
:100D8000010000003B00000001000000FFFFFFFF2A
:100D90002000000001000000808D5B00001BB700F8
:100DA000000000001F00000001000000FFFFFFFF27
:100DB0008C3E0120303F0120FA420120984B012057
:100DC000164C01202E4C01204A4C0120984C012049
:100DD0007C4C0120B44C0120EA4C0120D84E01206B
:100DE0009E4D0120B64D0120D24D0120204E012004
:100DF000044E01203C4E0120724E0120C2480120C9
:100E00008248012008490120324901205E49012021
:100E1000A4490120E4490120244A01206A4A012012
:100E2000AA4A01200C4B0120564B01205C4D0120A9
:100E3000E44E0120044F0120400E0120000000007C
:100E40006C6962676C6F737300000000000102023E
:100E50000303030304040404040404040505050552
:100E6000050505050505050505050505060606062E
:100E70000606060606060606060606060606060612
:100E800006060606060606060606060607070707FE
:100E900007070707070707070707070707070707E2
:100EA00007070707070707070707070707070707D2
:100EB00007070707070707070707070707070707C2
:100EC00007070707070707070707070708080808AE
:100ED0000808080808080808080808080808080892
:100EE0000808080808080808080808080808080882
:100EF0000808080808080808080808080808080872
:100F00000808080808080808080808080808080861
:100F10000808080808080808080808080808080851
:100F20000808080808080808080808080808080841
:100F30000808080808080808080808080808080831
:100F40000808080808080808080808080000000041
:100F500000000080EA3B01206E3C0120EA3C0120B9
:100F60005E3D01206E4401209C440120F05101208F
:040F70000E520120FC
:100F8000797106D622D40018232EA4FC0327C4FDB1
:100F9000BA878A07BA9786072326F4FE9528232462
:100FA000A4FE0100B520AA860327C4FE832784FE81
:100FB000BA97E3E9F6FE01000100B2502254456100
:100FC0008280011106CE22CC00100145712A232611
:100FD000A4FE95450325C4FEA52095450325C4FE22
:100FE000452095450325C4FE8122014695450325EC
:100FF000C4FEF9209567138507E2593705469545E4
:101000000325C4FE75289567138507E2953FF1BF58
:1010100001118A851705FF5F0325C5A406CE312877
:10102000FD576309F500924702453E95A2473E955C
:10103000B2473E95F240056182802E856F40C035F3
:10104000011106CE22CC00102326A4FE2324B4FED8
:101050008327C4FE99E3854739A88327C4FE9C43B0
:101060009443832784FE0547B317F700BE85032505
:10107000C4FE8296AA873E85F24062440561828062
:10108000011106CE22CC00102326A4FE2324B4FE98
:101090008327C4FE99E3854739A88327C4FE9C4370
:1010A000D44B832784FE0547B317F700BE8503257D
:1010B000C4FE8296AA873E85F24062440561828022
:1010C000011106CE22CC00102326A4FE2324B4FE58
:1010D0002322C4FE8327C4FE99E3854789A0832782
:1010E00044FE85E38327C4FE9C43D44F832784FEBC
:1010F0000547B317F700BE850325C4FE8296AA876D
:1011000039A88327C4FE9C43944F832784FE054758
:10111000B317F700BE850325C4FE8296AA873E85D5
:10112000F240624405618280011106CE22CC00109B
:101130002326A4FE2324B4FE8327C4FE99E3854717
:1011400039A88327C4FE9C439457832784FE054710
:10115000B317F700BE850325C4FE8296AA873E8595
:10116000F240624405618280011122CE00102326E4
:10117000A4FE0327C4FE854763F4E700814711A856
:10118000B71700800327C4FE0A07938787A6BA977C
:101190009C433E85724405618280011122CE00107D
:1011A0002326A4FE0327C4FEB71700809387C7A693
:1011B0006315F700B707000211A081473E8572440E
:1011C00005618280011122CE00102326A4FE032790
:1011D000C4FEB71700809387C7A66314F70089473A
:1011E00011A081473E85724405618280011122CEA3
:1011F00000102326A4FE2324B4FE832784FE91E757
:10120000B70700809387070921A8032784FE854735
:101210006317F700B70700809387070911A081477C
:101220003E85724405618280011122CE0010232682
:10123000A4FE2324B4FE832784FE99E38D4709A8E6
:10124000032784FE85476314F7009D4711A081475B
:101250003E857244056182805D7186C6A2C4CAC2A1
:10126000CEC052DE56DC5ADA5ED862D666D480082A
:10127000232EA4FA8327C4FB3E8505372326A4FC2E
:101280000327C4FCB167F117BA979C432324F4FCED
:101290000327C4FCB167E117BA979C432322F4FCEF
:1012A0000327C4FCB167F117BA979C43032784FC5A
:1012B000E318F7FC832784FC3E8C814C93190C00C7
:1012C0000149832744FC3E8A814A336B4901B3EBD1
:1012D00059015A87DE873A85BE85B64026441649AD
:1012E0008649725AE25A525BC25B325CA25C61610F
:1012F0008280797106D622D44AD24ED00018232E8D
:10130000A4FC232CB4FC2328C4FC232AD4FC83276C
:10131000C4FD2326F4FE8327C4FE3E85BD3D232461
:10132000A4FE832784FD8E073E87832784FE3E9795
:1013300091679107BA973E87FD571CC3832784FDA9
:101340008E073E87832784FE3E979167BA973E8734
:10135000832704FD1CC3832744FD13D9070081495B
:10136000832784FD8E073E87832784FE3E979167FF
:101370009107BA974A8798C381473E85B250225455
:101380001259825945618280011106CE22CC00108B
:10139000232604FEF32740F12326F4FE8327C4FE10
:1013A0003E85EF30B04B2324A4FE032584FEEF30AE
:1013B0009048AA873E85F240624405618280397177
:1013C00006DE22DC80002326A4FC0325C4FCDD3BD2
:1013D0002324A4FE8327C4FC2322F4FE832744FE97
:1013E000DC43A9EF232604FE81A08325C4FE032548
:1013F000C4FCED3B2320A4FE8325C4FE0325C4FCCE
:101400002535232EA4FC832704FE9C43DC4F832632
:10141000C4FC01468325C4FD032504FE829783276F
:10142000C4FE85072326F4FE0327C4FE832784FE1B
:10143000E34DF7FA832744FE0547D8C30100F25075
:10144000625421618280397106DE22DC800023260D
:10145000A4FC2324B4FC2322C4FC2320D4FCFD5789
:101460002326F4FEEF1020472320A4FE232404FEAD
:10147000213F232EA4FC0325C4FCA933232CA4FC68
:10148000032704FE85476308F700832704FE81C70E
:101490008327C4FE49A0232204FE91A0832544FE95
:1014A0000325C4FC5133232AA4FC832544FE0325D1
:1014B000C4FC2D3B2324A4FE0327C4FD832784FE04
:1014C0006318F700032784FC832744FD6300F702B9
:1014D000232404FE832744FE85072322F4FE0327EA
:1014E00044FE832784FDE34BF7FA11A00100832714
:1014F00084FE85C3832784FE9C43DC4F832604FC43
:10150000032644FC832584FC032584FE829723263E
:10151000A4FE8327C4FE3E85F2506254216182807E
:10152000797122D60018232EA4FC232CB4FC232A84
:10153000C4FC2328D4FCFD572326F4FE8327C4FED5
:101540003E85325445618280011106CE22CC0010C6
:101550002326A4FEEF102038AA873E85F24062447D
:1015600005618280797106D622D40018232EA4FC4E
:10157000232CB4FCFD572326F4FE39352324A4FE86
:10158000832784FE95C3032784FD854763E0E70234
:10159000832784FE9C43DC43832584FD032584FE4E
:1015A00082972326A4FE21A0010011A00100832719
:1015B000C4FE3E85B250225445618280397106DEF8
:1015C00022DC80002326A4FC2324B4FCFD57232620
:1015D000F4FE832784FCC9C7232404FE753323202B
:1015E000A4FE0325C4FCF93E232EA4FC232204FE02
:1015F00091A0832544FE0325C4FC3D31232CA4FC8B
:10160000832544FE0325C4FCD5362324A4FE0327EA
:1016100004FE832784FE6318F700032784FC8327D6
:1016200084FD6300F702232404FE832744FE85071C
:101630002322F4FE032744FE8327C4FDE34BF7FA7D
:1016400011A00100832784FE81CF832784FE9C4361
:10165000DC53832584FC032584FE82972326A4FE85
:101660008327C4FE3E85F250625421618280397125
:1016700006DE22DC80002326A4FC2324B4FCFD57D4
:101680002326F4FE832784FCC9C7232404FEED39F6
:101690002320A4FE0325C4FC3536232EA4FC2322DC
:1016A00004FE91A0832544FE0325C4FCB53E232CF3
:1016B000A4FC832544FE0325C4FC0D3E2324A4FE84
:1016C000032704FE832784FE6318F700032784FCA6
:1016D000832784FD6300F702232404FE832744FE4E
:1016E00085072322F4FE032744FE8327C4FDE34B32
:1016F000F7FA11A00100832784FE81CF832784FE9F
:101700009C439C57832584FC032584FE82972326D3
:10171000A4FE8327C4FE3E85F2506254216182807C
:10172000797106D622D40018232EA4FC232CB4FCF5
:10173000232AC4FCFD572326F4FE8327C4FD23245B
:10174000F4FE0325C4FD913C2322A4FE032784FD5F
:1017500091476300F70C032784FD914763C0E70EB0
:10176000032784FD8D476305F706032784FD8D4716
:1017700063C6E70C032784FD85476308F70003274A
:1017800084FD89476302F70255A8832744FDCDCB2A
:10179000032584FED1342A87AE87832644FD98C270
:1017A000DCC2232604FE69A8832744FDC1CF83271A
:1017B00044FD9C432320F4FE832704FE8A073E87D2
:1017C000832744FEBA9723A00700232604FE9DA882
:1017D000832744FDB5CB832744FD9C432320F4FE9F
:1017E000832704FE8A073E87832744FEBA973E87F5
:1017F00085471CC30F008004832704FE8A073E87A9
:10180000832744FEBA979C432326F4FE232604FE36
:1018100025A8232604FE832744FD8DCB832744FD82
:101820009C432320F4FE832704FE8A073E878327F8
:1018300044FEBA979C432326F4FE09A8010001A8A0
:10184000010031A0010021A0010011A001008327A7
:10185000C4FE3E85B250225445618280797106D61D
:1018600022D40018232EA4FC232CB4FCEF30F0016A
:10187000AA872326F4FE9307C4FE3E8689450325E6
:10188000C4FD793DAA873E85B250225445618280CD
:10189000797106D622D40018232EA4FC232CB4FC84
:1018A000EF30A07EAA872326F4FE9307C4FE3E866F
:1018B0008D450325C4FDAD35AA873E85B25022541F
:1018C00045618280011122CE00102326A4FE032749
:1018D000C4FE938741816314F700814711A0FD572F
:1018E0003E85724405618280011122CE00102326BC
:1018F000A4FE0327C4FE938741816317F700B7272F
:10190000F4009387074011A081473E85724405612A
:101910008280011122CE00102326A4FE0327C4FEDC
:10192000938741816317F700B70700809387070902
:1019300011A081473E85724405618280011122CE4B
:1019400000102326A4FE0327C4FE9387418163145D
:10195000F700814711A081473E857244056182806E
:10196000011122CE00102326A4FE8327C4FE634C5F
:10197000F000B71700800327C4FE0A07938747A625
:10198000BA979C4311A081473E85724405618280CD
:10199000011122CE0010F32740F12326F4FE832705
:1019A000C4FE3E85724405618280011122CE001082
:1019B000A147F3A707302326F4FE01007244056116
:1019C0008280011122CE0010A147F3B707302326F1
:1019D000F4FE0100724405618280011122CE0010E4
:1019E000A147F3A747302326F4FE010072440561A6
:1019F0008280011122CE0010A147F3B74730232681
:101A0000F4FE0100724405618280011122CE0010B3
:101A100093070008F3A747302326F4FE0100724421
:101A200005618280011122CE001093070008F3B7F0
:101A300047302326F4FE01007244056182800111C3
:101A400022CE0010856793870780F3A747302326AF
:101A5000F4FE0100724405618280011122CE001063
:101A6000856793870780F3B747302326F4FE01008C
:101A7000724405618280797122D60018232EA4FC5D
:101A80008327C4FD0547B317F7002326F4FE8327F9
:101A9000C4FEF3A747302324F4FE0100325445610D
:101AA0008280797122D60018232EA4FC8327C4FDDE
:101AB0000547B317F7002326F4FE8327C4FEF3B7C8
:101AC00047302324F4FE0100325445618280011125
:101AD00006CE22CC00102326A4FE2324B4FE130538
:101AE0004006EF30205C011106CE22CC00102326E8
:101AF000A4FE2324B4FE1305800CEF30A05A5D71C0
:101B000086C696C49AC29EC022DE2ADC2EDA32D85D
:101B100036D63AD43ED242D046CE72CC76CA7AC8B5
:101B20007EC680081305C012EF30C0571D7186CEE7
:101B300096CC9ACA9EC8A2C6AAC4AEC2B2C036DEAD
:101B40003ADC3EDA42D846D672D476D27AD07ECE0D
:101B500080103D3D2A87B71700800A07938747A664
:101B6000BA979C432326F4FA8327C4FA85C7032532
:101B7000C4FA45332324A4FA832784FA83A7070EE3
:101B80002322F4FA832784FA83A7870D832544FA56
:101B90000D4582970100F640E6425643C64336445F
:101BA000264596450646F2566257D2574258B258D5
:101BB000225E925E025FF24F2561730020307971E0
:101BC00006D622D40018232EA4FC232CB4FCC9333F
:101BD0002A87B71700800A07938747A6BA979C43BE
:101BE0002326F4FEF32720342324F4FE8327C4FEA7
:101BF00095C70325C4FE313B2322A4FE832784FE20
:101C000093F7F73F032744FE9387870E8A07BA9717
:101C10009C438325C4FD0325C4FE82970100B25076
:101C20002254456182801D7186CE96CC9ACA9EC888
:101C3000A2C6AAC4AEC2B2C036DE3ADC3EDA42D890
:101C400046D672D476D27AD07ECE801091332A874F
:101C5000B71700800A07938747A6BA979C432326A5
:101C6000F4FA8327C4FA85C70325C4FA5D31232417
:101C7000A4FA832784FA83A707142322F4FA83277C
:101C800084FA83A78713832544FA1D4582970100B0
:101C9000F640E6425643C643364426459645064638
:101CA000F2566257D2574258B258225E925E025F95
:101CB000F24F256173002030011122CE001023263F
:101CC000A4FE2324B4FE0100724405618280797170
:101CD00006D622D40018232EA4FC232CB4FC4D39A4
:101CE000AA873E85B5392326A4FE0325C4FEEF103E
:101CF000602A2320A4FE2322B4FE032704FE8327A8
:101D000044FE294581453306A70032883338E80070
:101D1000B386B700B307D800BE863287B687BA85C8
:101D20003E860325C4FEEF10402D0100B250225420
:101D300045618280000000000000000000000000FB
:101D40000000000000000000000000000000000093
:101D50000000000000000000000000000000000083
:101D60000000000000000000000000000000000073
:101D70000000000000000000000000000000000063
:101D8000197186DE96DC9ADA9ED8A2D6AAD4AED293
:101D9000B2D0B6CEBACCBECAC2C8C6C6F2C4F6C2AB
:101DA000FAC07EDE0001ED362A87B71700800A07E9
:101DB000938747A6BA979C432326F4FAF327203447
:101DC0002324F4FAF32710342322F4FAF3273034CF
:101DD0002320F4FAF3275030232EF4F88327C4FA93
:101DE000F5CB0325C4FA3536232CA4F8832784FACF
:101DF00093F7F73F232AF4F8832784FA63DE070A70
:101E0000032744F9930700086312F702832784F934
:101E100083A787392326F4F8832784F983A7073912
:101E20008325C4F8032544F982976DA0032744F95C
:101E3000AD4763D7E7008327C4F993F7F7039DEF16
:101E4000832684F9032744F9BA878607BA978E0751
:101E5000B69783A787092326F4F8832684F90327F6
:101E600044F9BA878607BA978E07B69783A70709FA
:101E70008325C4F8032544F98297A9A88327C4F9C8
:101E800013F7F70389476317F704F3277030232804
:101E9000F4F8832784F983A7C70D2326F4F8832752
:101EA00004F99C432324F4F8832784F88325C4F899
:101EB000032544F9829739A8032784F9832744F935
:101EC0009387870E8A07BA979C43832544F9032595
:101ED000C4FA8297F650E6525653C65336542655E6
:101EE00096550656F6466647D6474648B648264EA5
:101EF000964E064FF25F096173002030000000002B
:101F000000000000000000000000000000000000D1
:101F100000000000000000000000000000000000C1
:101F200000000000000000000000000000000000B1
:101F300000000000000000000000000000000000A1
:101F40000000000000000000000000000000000091
:101F50000000000000000000000000000000000081
:101F60000000000000000000000000000000000071
:101F70000000000000001D7186CE96CC9ACA9EC853
:101F8000A2C6AAC4AEC2B2C036DE3ADC3EDA42D83D
:101F900046D672D476D27AD07ECE8010EFF05F9F94
:101FA0002A87B71700800A07938747A6BA979C43EA
:101FB0002326F4FA8327C4FA8DC70325C4FAEFF069
:101FC0005F952324A4FA832784FA83A787212322F9
:101FD000F4FA832784FA83A70721832544FA41452D
:101FE00082970100F640E6425643C64336442645F2
:101FF00096450646F2566257D2574258B258225E6C
:10200000925E025FF24F2561730020301D7186CE13
:1020100096CC9ACA9EC8A2C6AAC4AEC2B2C036DEC8
:102020003ADC3EDA42D846D672D476D27AD07ECE28
:102030008010EFF0FF952A87B71700800A07938773
:1020400047A6BA979C432326F4FA8327C4FA8DC780
:102050000325C4FAEFF0FF8B2324A4FA832784FA24
:1020600083A707232322F4FA832784FA83A78722EE
:10207000832544FA454582970100F640E6425643DF
:10208000C6433644264596450646F2566257D25711
:102090004258B258225E925E025FF24F2561730091
:1020A00020301D7186CE96CC9ACA9EC8A2C6AAC4FC
:1020B000AEC2B2C036DE3ADC3EDA42D846D672D480
:1020C00076D27AD07ECE8010EFF09F8C2A87B71719
:1020D00000800A07938747A6BA979C432326F4FA01
:1020E0008327C4FA8DC70325C4FAEFF09F82232407
:1020F000A4FA832784FA83A787242322F4FA832768
:1021000084FA83A70724832544FA4945829701006E
:10211000F640E6425643C6433644264596450646B3
:10212000F2566257D2574258B258225E925E025F10
:10213000F24F2561730020301D7186CE96CC9ACA6D
:102140009EC8A2C6AAC4AEC2B2C036DE3ADC3EDA2F
:1021500042D846D672D476D27AD07ECE8010EFF0B6
:102160003F832A87B71700800A07938747A6BA9745
:102170009C432326F4FA8327C4FA8DC70325C4FAA7
:10218000EFF02FF92324A4FA832784FA83A70726E4
:102190002322F4FA832784FA83A78725832544FA28
:1021A0004D4582970100F640E6425643C643364409
:1021B000264596450646F2566257D2574258B258BF
:1021C000225E925E025FF24F2561730020301D7126
:1021D00086CE96CC9ACA9EC8A2C6AAC4AEC2B2C0C7
:1021E00036DE3ADC3EDA42D846D672D476D27AD09F
:1021F0007ECE8010EFF0CFF92A87B71700800A074C
:10220000938747A6BA979C432326F4FA8327C4FAF8
:102210008DC70325C4FAEFF0CFEF2324A4FA832758
:1022200084FA83A787272322F4FA832784FA83A7D3
:102230000727832544FA514582970100F640E6427C
:102240005643C6433644264596450646F2566257DF
:10225000D2574258B258225E925E025FF24F256119
:10226000730020301D7186CE96CC9ACA9EC8A2C635
:10227000AAC4AEC2B2C036DE3ADC3EDA42D846D696
:1022800072D476D27AD07ECE8010EFF06FF02A87AB
:10229000B71700800A07938747A6BA979C4323265F
:1022A000F4FA8327C4FA8DC70325C4FAEFF06FE66A
:1022B0002324A4FA832784FA83A707292322F4FA84
:1022C000832784FA83A78728832544FA5545829774
:1022D0000100F640E6425643C6433644264596453D
:1022E0000646F2566257D2574258B258225E925E64
:1022F000025FF24F2561730020301D7186CE96CCAF
:102300009ACA9EC8A2C6AAC4AEC2B2C036DE3ADC21
:102310003EDA42D846D672D476D27AD07ECE8010BB
:10232000EFF00FE72A87B71700800A07938747A6C1
:10233000BA979C432326F4FA8327C4FA8DC7032552
:10234000C4FAEFF00FDD2324A4FA832784FA83A7CD
:10235000872A2322F4FA832784FA83A7072A83256E
:1023600044FA594582970100F640E6425643C64377
:102370003644264596450646F2566257D25742588D
:10238000B258225E925E025FF24F256173002030E8
:102390001D7186CE96CC9ACA9EC8A2C6AAC4AEC2E9
:1023A000B2C036DE3ADC3EDA42D846D672D476D2B5
:1023B0007AD07ECE8010EFF0AFDD2A87B71700808D
:1023C0000A07938747A6BA979C432326F4FA8327E4
:1023D000C4FA8DC70325C4FAEFF0AFD32324A4FABF
:1023E000832784FA83A7072C2322F4FA832784FA0D
:1023F00083A7872B832544FA5D4582970100F64029
:10240000E6425643C6433644264596450646F256AE
:102410006257D2574258B258225E925E025FF24F24
:102420002561730020301D7186CE96CC9ACA9EC855
:10243000A2C6AAC4AEC2B2C036DE3ADC3EDA42D888
:1024400046D672D476D27AD07ECE8010EFF04FD4BA
:102450002A87B71700800A07938747A6BA979C4335
:102460002326F4FA8327C4FA8DC70325C4FAEFF0B4
:102470004FCA2324A4FA832784FA83A7872D232213
:10248000F4FA832784FA83A7072D832544FA61454C
:1024900082970100F640E6425643C643364426453D
:1024A00096450646F2566257D2574258B258225EB7
:1024B000925E025FF24F2561730020301D7186CE5F
:1024C00096CC9ACA9EC8A2C6AAC4AEC2B2C036DE14
:1024D0003ADC3EDA42D846D672D476D27AD07ECE74
:1024E0008010EFF0EFCA2A87B71700800A0793879A
:1024F00047A6BA979C432326F4FA8327C4FA8DC7CC
:102500000325C4FAEFF0EFC02324A4FA832784FA4A
:1025100083A7072F2322F4FA832784FA83A7872E21
:10252000832544FA654582970100F640E64256430A
:10253000C6433644264596450646F2566257D2575C
:102540004258B258225E925E025FF24F25617300DC
:1025500020301D7186CE96CC9ACA9EC8A2C6AAC447
:10256000AEC2B2C036DE3ADC3EDA42D846D672D4CB
:1025700076D27AD07ECE8010EFF08FC12A87B7173F
:1025800000800A07938747A6BA979C432326F4FA4C
:102590008327C4FA8DC70325C4FAEFF08FB723242D
:1025A000A4FA832784FA83A787302322F4FA8327A7
:1025B00084FA83A70730832544FA6945829701008E
:1025C000F640E6425643C6433644264596450646FF
:1025D000F2566257D2574258B258225E925E025F5C
:1025E000F24F2561730020301D7186CE96CC9ACAB9
:1025F0009EC8A2C6AAC4AEC2B2C036DE3ADC3EDA7B
:1026000042D846D672D476D27AD07ECE8010EFF001
:102610002FB82A87B71700800A07938747A6BA976B
:102620009C432326F4FA8327C4FA8DC70325C4FAF2
:10263000EFF02FAE2324A4FA832784FA83A707326E
:102640002322F4FA832784FA83A78731832544FA67
:102650006D4582970100F640E6425643C643364434
:10266000264596450646F2566257D2574258B2580A
:10267000225E925E025FF24F2561730020301D7171
:1026800086CE96CC9ACA9EC8A2C6AAC4AEC2B2C012
:1026900036DE3ADC3EDA42D846D672D476D27AD0EA
:1026A0007ECE8010EFF0CFAE2A87B71700800A07E2
:1026B000938747A6BA979C432326F4FA8327C4FA44
:1026C0008DC70325C4FAEFF0CFA42324A4FA8327EF
:1026D00084FA83A787332322F4FA832784FA83A713
:1026E0000733832544FA714582970100F640E6429C
:1026F0005643C6433644264596450646F25662572B
:10270000D2574258B258225E925E025FF24F256164
:10271000730020301D7186CE96CC9ACA9EC8A2C680
:10272000AAC4AEC2B2C036DE3ADC3EDA42D846D6E1
:1027300072D476D27AD07ECE8010EFF06FA52A8741
:10274000B71700800A07938747A6BA979C432326AA
:10275000F4FA8327C4FA8DC70325C4FAEFF06F9B00
:102760002324A4FA832784FA83A707352322F4FAC3
:10277000832784FA83A78734832544FA7545829793
:102780000100F640E6425643C64336442645964588
:102790000646F2566257D2574258B258225E925EAF
:1027A000025FF24F2561730020301D7186CE96CCFA
:1027B0009ACA9EC8A2C6AAC4AEC2B2C036DE3ADC6D
:1027C0003EDA42D846D672D476D27AD07ECE801007
:1027D000EFF00F9C2A87B71700800A07938747A658
:1027E000BA979C432326F4FA8327C4FA8DC703259E
:1027F000C4FAEFF00F922324A4FA832784FA83A764
:1028000087362322F4FA832784FA83A707368325A1
:1028100044FA794582970100F640E6425643C643A2
:102820003644264596450646F2566257D2574258D8
:10283000B258225E925E025FF24F25617300203033
:102840001D7186CE96CC9ACA9EC8A2C6AAC4AEC234
:10285000B2C036DE3ADC3EDA42D846D672D476D200
:102860007AD07ECE8010EFF0AF922A87B717008023
:102870000A07938747A6BA979C432326F4FA83272F
:10288000C4FA8DC70325C4FAEFF0AF882324A4FA55
:10289000832784FA83A707382322F4FA832784FA4C
:1028A00083A78737832544FA7D4582970100F64048
:1028B000E6425643C6433644264596450646F256FA
:1028C0006257D2574258B258225E925E025FF24F70
:1028D000256173002030011122CE0010F327503003
:1028E0002326F4FE8327C4FE93F7F7032326F4FE82
:1028F0000327C4FE8D476303F7020327C4FE8D47F9
:1029000063E2E7020327C4FE8547630BF700032752
:10291000C4FE89476318F7008D4731A0914721A075
:10292000854711A081473E85724405618280797197
:1029300022D60018232EA4FC232CB4FCF3275030FD
:102940002326F4FE8327C4FE93F707FC2326F4FE18
:10295000832784FD2324F4FE0327C4FD91476305E8
:10296000F7040327C4FD914763E8E7060327C4FD86
:102970008D4763E3E7060327C4FD8947637BF700C0
:102980008327C4FDA1C70327C4FD85476309F70258
:10299000A1A0832784FE739077308327C4FE93E73A
:1029A0002700739057300DA8832784FE73907730EB
:1029B0008327C4FE93E737007390573031A88327ED
:1029C00084FE93E717007390573039A0832784FE65
:1029D000F19B7390573001000100325445618280B1
:1029E000011122CE00102326A4FE0327C4FEFD47BA
:1029F00063C6E7020327C4FE8D476349F7028327B6
:102A0000C4FE05473317F700C57793878788F98F8A
:102A1000B337F00093F7F70F81EB09A80327C4FE43
:102A2000930700086314F700854719A00100814748
:102A30003E85724405618280797106D622D40018E1
:102A4000232EA4FC232CB4FC232AC4FC232604FE3E
:102A50008327C4FD99E3FD5749A8032784FDFD475B
:102A600063E0E708832784FD13972700B707012059
:102A70009387473ABA979C438287832744FD81C74F
:102A8000EFE0BFF28DA0EFE0DFF3B1A8832744FDB4
:102A900081C7EFE09FF481A8EFE0BFF5A9A08327ED
:102AA00044FD81C7EFE07FF63DA8EFE0BFF725A822
:102AB000832744FD81C7EFE09FF835A0EFE0FFF9E1
:102AC0001DA0832744FD99C7832784FD3E85EFE041
:102AD0009FFA11A8832784FD3E85EFE09FFC21A08B
:102AE000FD572326F4FE8327C4FE3E85B2502254B0
:102AF00045618280797122D60018232EA4FC232CF4
:102B0000B4FC232AC4FC8327C4FD2326F4FE032738
:102B100084FDAD4763C2E702832744FD91CF0327BD
:102B2000C4FE832784FD9387870E8A07BA970327FD
:102B300044FD98C3814711A0FD573E85325445613D
:102B40008280797106D622D40018232EA4FC832714
:102B5000C4FD2322F4FE832744FEDC43DDEF23265D
:102B600004FEB9A0832644FE0327C4FEBA87860765
:102B7000BA978E07B69723A80708832644FE032733
:102B8000C4FEBA878607BA978E07B69723AA0708A6
:102B9000832644FE0327C4FEBA878607BA978E07AA
:102BA000B69723AC07088327C4FE85072326F4FEC7
:102BB0000327C4FEFD47E3D7E7FA232404FE1DA044
:102BC000032744FE832784FE9387870E8A07BA97DC
:102BD000372701201307E7AC98C3832784FE8507B6
:102BE0002324F4FE032784FEAD47E3DBE7FCF32751
:102BF00050302320F4FEB7070120938747130327A3
:102C000004FE6318F700B7270120938507D8014514
:102C1000393B832744FE0547D8C30100B2502254F4
:102C200045618280797106D622D40018232EA4FC37
:102C3000232CB4FC232AC4FC2328D4FC232604FE22
:102C40008327C4FD2324F4FE032584FD513BAA877A
:102C500099E3D5575DA2032784FD93070008631706
:102C6000F7009539AA8799C3CD5741AA832744FD18
:102C7000B9CF032784FD93070008631FF70083275C
:102C800084FE032744FD23A8E738832784FE032717
:102C900004FD23ACE73885A2832684FE032784FD48
:102CA000BA878607BA978E07B697032744FD23A8ED
:102CB000E708832684FE032784FDBA878607BA9730
:102CC0008E07B697032704FD23ACE7082DA2032740
:102CD00084FD930700086301F70C032784FD930725
:102CE000000863C7E710032784FDFD4763C2E710B0
:102CF000032784FDC1476350F70C032784FDAD47CC
:102D0000630BF70A032784FDAD4763C3E70E032770
:102D100084FD8D476308F700032784FD9D4763000A
:102D2000F704F9A0832684FE032784FDBA8786076B
:102D3000BA978E07B697372701201307E7BB23A85A
:102D4000E708832684FE032784FDBA878607BA979F
:102D50008E07B697032704FD23AAE70869A88326F0
:102D600084FE032784FDBA878607BA978E07B69735
:102D7000372701201307E7CC23A8E708832684FE22
:102D8000032784FDBA878607BA978E07B69703276D
:102D900004FD23AAE70885A0832784FE37270120A6
:102DA000130787CB23A8E738832784FE032704FD76
:102DB00023ACE73889A0832684FE032784FDBA87E5
:102DC0008607BA978E07B69737270120130767AE95
:102DD00023A8E708832684FE032784FDBA87860795
:102DE000BA978E07B697032704FD23AAE70821A008
:102DF000D1572326F4FE8327C4FE3E85B2502254C9
:102E000045618280011106CE22CC00102326A4FE4B
:102E10002324B4FE832784FE0546BE850325C4FE15
:102E20002139AA873E85F240624405618280011102
:102E300006CE22CC00102326A4FE2324B4FE832732
:102E400084FE0146BE850325C4FEFD36AA873E8565
:102E5000F240624405618280011106CE22CC00104E
:102E60002326A4FE8D3CAA873E85F240624405617C
:102E70008280011106CE22CC00102326A4FE23243A
:102E8000B4FE832784FE91EBB7270120938507D8F2
:102E9000032584FE693C814705A0032784FE8547FE
:102EA000631BF700B757012093850710032584FEA5
:102EB000BD3C814711A0FD573E85F240624405614B
:102EC0008280011122CE00102326A4FE2324B4FE0A
:102ED0002322C4FE81473E85724405618280397198
:102EE00022DE80002326A4FC014581452324A4FE84
:102EF0002326B4FEF32500B82322B4FEF32500B048
:102F00002320B4FEF32500B8232EB4FC032544FE91
:102F10008325C4FDE310B5FE832544FE2E88814839
:102F2000931708000147832504FE2E868146B3656A
:102F3000C7002324B4FED58F2326F4FE032784FE86
:102F40008327C4FE3A85BE857254216182807971DF
:102F500006D622D44AD24ED00018232EA4FC8327B2
:102F6000C4FD81E70149814921A80325C4FDEFE0A3
:102F7000BF972326A4FE8327C4FE3E89FD87BE8912
:102F80004A87CE873A85BE85B2502254125982595B
:102F900045618280797106D622D40018232EA4FCC4
:102FA000814701482320F4FE232204FF0325C4FDAA
:102FB000EFE03F962326A4FE8327C4FE8DC7832718
:102FC000C4FE83A7C7132324F4FE832784FE81CF86
:102FD000832784FE9C43F847930704FE3E8685457D
:102FE000032584FE0297032704FE832744FE3A85C7
:102FF000BE85B250225445618280797106D622D4B2
:1030000026D20018232EA4FC2328B4FC232AC4FCB7
:10301000FD572326F4FE0325C4FDEFE09F8F2324F4
:10302000A4FE832784FE8DCF832784FE83A7C71346
:103030002322F4FE832744FE85C7832744FE9C4356
:10304000A44B0325C4FDEFE0FF87AA87032604FDF8
:10305000832644FDBE85032544FE82942326A4FED8
:103060008327C4FE3E85B25022549254456182802B
:10307000011122CE00102326A4FEB71700809387EB
:10308000C7A63E85724405618280011122CE0010E0
:103090002326A4FE9D473E8572440561828001116E
:1030A00022CE00102326A4FEB71700809387C7A660
:1030B0003E85724405618280011122CE00102326D4
:1030C000A4FE8D473E85724405618280797106D6E3
:1030D00022D40018232EA4FC232CB4FCFD57232655
:1030E000F4FE0325C4FDEFE0DF822324A4FE832742
:1030F00084FE9DC7832784FE83A7C70D2322F4FE89
:10310000832744FE91CF832744FE9C43F8479307CF
:1031100084FD3E868D45032544FE02972326A4FEAA
:103120008327C4FE3E85B250225445618280797166
:1031300006D622D40018232EA4FC232CB4FCFD5761
:103140002326F4FE0325C4FDEFE0AFFC2324A4FEF8
:10315000832784FE9DC7832784FE83A7C70D232270
:10316000F4FE832744FE91CF832744FE9C43F84717
:10317000930784FD3E868945032544FE0297232656
:10318000A4FE8327C4FE3E85B2502254456182804E
:10319000797106D622D40018232EA4FC232CB4FC6B
:1031A000232604FE0325C4FDEFE0AFF62324A4FE8E
:1031B000832784FE9DC7832784FE83A7C70D232210
:1031C000F4FE832744FE91CF832744FE9C43F847B7
:1031D000930784FD3E869145032544FE02972326EE
:1031E000A4FE8327C4FE3E85B250225445618280EE
:1031F000011106CE22CC00102326A4FE0325C4FE16
:10320000EFE02FF1AA873E85F2406244056182809B
:10321000797106D622D40018232EA4FC232CB4FCEA
:10322000232AC4FC0325C4FDEFE0AFEE2326A4FE51
:103230008327C4FE99CB032644FD832584FD032503
:10324000C4FEEFF03F8BAA8711A0FD573E85B25018
:10325000225445618280011122CE00102326A4FE53
:103260002324B4FE832784FE83D7070013F7370097
:103270008D476314F700914711A089473E8572443A
:1032800005618280797122D60018232EA4FCF327D1
:1032900010342326F4FE8327C4FE3E853254456154
:1032A0008280011122CE00102326A4FE2324B4FE26
:1032B000832784FE7390173481473E8572440561ED
:1032C0008280011106CE22CC00102326A4FE032505
:1032D000C4FEEFE0AFE6AA873E85F2406244056196
:1032E0008280011122CE00102326A4FE0327C4FEF3
:1032F000B7070080938707466315F700B707000CF0
:1033000011A081473E85724405618280011122CE61
:1033100000102326A4FE0327C4FEB707008093876E
:1033200007466315F7009307500311A081473E85B8
:10333000724405618280011122CE00102326A4FE72
:103340000327C4FEB7070080938707466314F7007E
:103350009D4711A081473E8572440561828001111D
:1033600022CE00102326A4FE2324B4FE832784FE4D
:1033700091E7B70700809387070911A081473E8531
:10338000724405618280011122CE00102326A4FE22
:103390002324B4FE832784FE99E3AD4711A081471F
:1033A0003E85724405618280011122CE00102326E1
:1033B000A4FE8327C4FE99E3814711A0FD573E85F3
:1033C000724405618280797106D622D40018232EBA
:1033D000A4FC232CB4FC0325C4FD21372326A4FE22
:1033E000832784FD1397C7008327C4FE3E97B70742
:1033F00020009107BA979C433E85B2502254456104
:103400008280797106D622D40018232EA4FC232CA6
:10341000B4FC232AC4FC0325C4FDE1352326A4FE05
:10342000832784FD1397C7008327C4FE3E97B70701
:1034300020009107BA973E87832744FD1CC30100F3
:10344000B250225445618280797106D622D4001888
:10345000232EA4FC232CB4FC232AC4FC0325C4FD86
:1034600049352326A4FE832784FD1397C7008327AD
:10347000C4FE3E97B7072000BA973E87832744FDD6
:103480001CC381473E85B2502254456182807971C8
:1034900006D622D40018232EA4FC232CB4FC03252A
:1034A000C4FD81352326A4FE832784FD1397C7001E
:1034B0008327C4FE3E97B7072000BA979C433E85FA
:1034C000B250225445618280797106D622D4001808
:1034D000232EA4FC232CB4FC232AC4FC0325C4FD06
:1034E00009352326A4FE0325C4FDB135AA8723246C
:1034F000F4FE832784FE85C7032744FD832784FECB
:10350000637FF700832784FD8A073E878327C4FEF5
:10351000BA973E87832744FD1CC3814711A0FD57FE
:103520003E85B250225445618280797106D622D4FC
:103530000018232EA4FC232CB4FC0325C4FD553312
:103540002326A4FE832784FD8A073E878327C4FEA3
:10355000BA979C433E85B25022544561828079716E
:1035600006D622D40018232EA4FC232CB4FC232A34
:10357000C4FC2328D4FC0325C4FDA5332326A4FEC4
:10358000832784FD139777008327C4FEBA97032708
:1035900044FD15870A073E978967BA979C43232401
:1035A000F4FE832704FD81CF832744FDFD8B05476F
:1035B000B317F7003E87832784FED98F29A8832776
:1035C00044FDFD8B0547B317F70093C7F7FF3E8710
:1035D000832784FEF98F032784FD93167700032742
:1035E000C4FE3697832644FD95868A06BA960967F7
:1035F00036971CC381473E85B25022544561828074
:10360000011106CE22CC00102326A4FE2324B4FEF2
:103610001305C012EF101029797106D622D40018B4
:10362000232EA4FC232CB4FC832784FD2326F4FE44
:10363000EFE00FB6AA873E85853B2324A4FE8325B1
:1036400084FE0325C4FE41332322A4FE0325C4FEC9
:103650007539AA872320F4FE032744FE832704FE3E
:103660006372F7040327C4FE832744FE8A07BA97D0
:103670009C478DCB0327C4FE832744FE8A07BA9755
:1036800003A88700032644FE8326C4FE032744FEC6
:10369000BA878607BA978E07B69783A7070FBE85A6
:1036A00032850298032644FE832584FE0325C4FE4A
:1036B000893B0100B250225445618280397106DE97
:1036C00022DC80002326A4FC8327C4FC2322F4FEF2
:1036D000832744FEDC4363960712232604FE11AAC7
:1036E0000325C4FC25312320A4FE8325C4FE032525
:1036F000C4FCB531232EA4FC8325C4FE0325C4FCE1
:103700005931232CA4FC8327C4FD9C439C430325EF
:10371000C4FD8297232404FE85A88146032684FEE7
:103720008325C4FE032544FE1D3D032784FE832715
:1037300004FE6356F7040146832584FE0325C4FC7A
:103740006133032744FE832784FE8A07BA9723A4A4
:103750000700832644FE032784FEBA878607BA97AC
:103760008E07B69723A6070E832644FE032784FE02
:10377000BA878607BA978E07B69723A8070E8327BE
:1037800084FE85072324F4FE032784FE9307F03F7D
:10379000E3D5E7F801468325C4FE0325C4FC6D315B
:1037A0008327C4FD9C43DC4F832644FE01468325CA
:1037B00084FD0325C4FD82978327C4FD9C43D84F15
:1037C000832644FEB737012013868761832584FD55
:1037D0000325C4FD02978327C4FD9C43DC53832546
:1037E00084FD0325C4FD82978327C4FE8507232615
:1037F000F4FE8327C4FEE355F0EE832744FE05471D
:10380000D8C30100F250625421618280797106D6DA
:1038100022D40018232EA4FC232CB4FC232AC4FC9D
:103820002328D4FC8327C4FD2326F4FE0325C4FDEE
:10383000EFF0DFAD2A87832784FD63C4E700FD57DF
:1038400041A0832744FD95CF0946832584FD0325A8
:10385000C4FD9D390327C4FE832784FD8A07BA97D8
:10386000032744FD98C78326C4FE032784FDBA8737
:103870008607BA978E07B697032704FD23A8E70E9D
:103880003DA80546832584FD0325C4FD353903275E
:10389000C4FE832784FD8A07BA97373701201307B0
:1038A000076098C78326C4FE032784FDBA8786076E
:1038B000BA978E07B697032704FD23A6E70E814724
:1038C0003E85B250225445618280797106D622D459
:1038D0000018232EA4FC232CB4FC8327C4FD23262C
:1038E000F4FE0325C4FDEFF07FA22A87832784FD21
:1038F00063C4E700FD5721A8EFE08F89AA878546BA
:10390000032684FDBE850325C4FE913981473E858B
:10391000B250225445618280797106D622D40018B3
:10392000232EA4FC232CB4FC8327C4FD2326F4FE01
:103930000325C4FDEFF09F9D2A87832784FD63C480
:10394000E700FD5721A8EFE0AF84AA878146032650
:1039500084FDBE850325C4FE193181473E85B250E2
:10396000225445618280011106CE22CC001023260C
:10397000A4FE2324B4FEEFE0AF81AA87032684FED1
:10398000BE850325C4FEEFF03FACAA873E85F2401A
:10399000624405618280011106CE22CC00102326EC
:1039A000A4FEEFD0FFFEAA87BE850325C4FEEFF07C
:1039B0001FAEAA873E85F24062440561828079711C
:1039C00006D622D40018232EA4FC232CB4FC232AD0
:1039D000C4FC232204FE8327C4FD2324F4FE032514
:1039E000C4FDEFF0BF922A87832744FD63C8E70038
:1039F000FD572322F4FE832744FE91A8232604FECC
:103A000091A08327C4FE8DC78546032644FD8325E8
:103A1000C4FE032584FEA136AA8713F71700832767
:103A2000C4FE3317F700832744FED98F2322F4FE08
:103A30008327C4FE85072326F4FE832784FD858320
:103A4000232CF4FC832784FDCDFF832744FE3E8591
:103A5000B250225445618280797106D622D4001872
:103A6000232EA4FC232CB4FC232AC4FC232204FE12
:103A70008327C4FD2324F4FE0325C4FDEFF01F8932
:103A80002A87832744FD63C8E700FD572322F4FEFD
:103A9000832744FE99A8232604FE99A08327C4FE09
:103AA00095C78146032644FD8325C4FE032584FE75
:103AB000EFF0FFAAAA8713F717008327C4FE331776
:103AC000F700832744FED98F2322F4FE8327C4FE08
:103AD00085072326F4FE832784FD8583232CF4FCAD
:103AE000832784FDC5FF832744FE3E85B2502254C0
:103AF00045618280797106D622D40018232EA4FC59
:103B0000232CB4FC232AC4FC232404FE232604FE15
:103B100091A08327C4FE8DC7032644FD8325C4FEE0
:103B20000325C4FDEFF05F92AA8713F717008327E0
:103B3000C4FE3317F700832784FED98F2324F4FEB5
:103B40008327C4FE85072326F4FE832784FD85830F
:103B5000232CF4FC832784FDCDFF832784FE3E8540
:103B6000B250225445618280011106CE22CC001051
:103B70002326A4FE2324B4FE832584FE0325C4FE4D
:103B8000EFF0FF9081473E85F240624405618280FC
:103B9000011122CE00102326A4FEB70700809387D0
:103BA000C7063E85724405618280011122CE001055
:103BB0002326A4FE938701823E857244056182809C
:103BC000011122CE00102326A4FE81473E857244B7
:103BD00005618280411122C60008B7170120938732
:103BE00047F63E85324441018280397106DE22DC8F
:103BF00080002326A4FC0325C4FC593F2326A4FEF1
:103C00000325C4FC753F2324A4FE0325C4FC713F97
:103C10002322A4FEC1372320A4FE832704FE9C4355
:103C2000832584FE032544FE8297232EA4FC0327CC
:103C3000C4FDB7070040F98F99E3FD5725A08327FE
:103C4000C4FD63C40700FD5731A80325C4FEEF106F
:103C50006032AA873E878327C4FD93F7F703850761
:103C6000B357F7023E85F250625421618280011100
:103C700006CE22CC00102326A4FE2324B4FE032566
:103C8000C4FEA537AA873E85F24062440561828062
:103C9000011122CE00102326A4FEB70700809387CF
:103CA00007063E85724405618280011122CE001014
:103CB0002326A4FE938701823E857244056182809B
:103CC000011122CE00102326A4FE91473E857244A6
:103CD00005618280411122C60008B7170120938731
:103CE00047F63E85324441018280397106DE22DC8E
:103CF00080002326A4FC0325C4FC593F2326A4FEF0
:103D00000325C4FC753F2324A4FE0325C4FC713F96
:103D10002322A4FEC1372320A4FE832704FE9C4354
:103D2000832584FE032544FE8297232EA4FC0327CB
:103D3000C4FDB7070040F98F99E3FD5721A88327F9
:103D4000C4FD63C40700FD5731A00325C4FEEF1076
:103D50006022AA873E85F25062542161828001115F
:103D600006CE22CC00102326A4FE2324B4FE032575
:103D7000C4FEA53FAA873E85F24062440561828069
:103D8000011122CE00102326A4FEB71700809387CE
:103D900087A33E85724405618280011122CE001006
:103DA0002326A4FEB7170080938747A43E8572445C
:103DB00005618280011122CE00102326A4FE938784
:103DC00001823E85724405618280011122CE00107D
:103DD0002326A4FEB1473E857244056182804111CD
:103DE00022C60008938701823E85324441018280C9
:103DF000411122C60008A1473E853244410182801C
:103E0000411122C60008B727F400938707403E857A
:103E1000324441018280411122C60008B787001058
:103E20003E85324441018280411122C60008B71705
:103E30000120938747F63E8532444101828001117B
:103E400022CE00102326A4FE2324B4FE832784FE62
:103E50009C470327C4FE6369F700832784FEDC4781
:103E60000327C4FE63F4E700FD5729A8832784FED7
:103E700098438327C4FE3307F702832784FEDC437D
:103E8000B357F7023E85724405618280397106DEC0
:103E900022DC80002326A4FC8327C4FC3E85F53D5C
:103EA0002326A4FEB13F2324A4FE99372322A4FE97
:103EB0009D372320A4FE032704FE832744FEBA97E0
:103EC000232EF4FC8327C4FCDC433E85EF10600600
:103ED0008327C4FD9843C167F98F91CB8327C4FD25
:103EE0009843C177FD177D8F8327C4FD98C383272F
:103EF000C4FE91CB8327C4FD9843B70702005D8FB2
:103F00008327C4FD98C38327C4FC9C43D8438327DD
:103F1000C4FC832584FE3E8502978327C4FC9C470E
:103F20003E85EF1000010100F25062542161828051
:103F30001D7186CEA2CC80102326A4FA0325C4FAD4
:103F4000A93D2326A4FE0325C4FA1D3D2324A4FE77
:103F50000325C4FA713D2322A4FE0325C4FA41358A
:103F60002320A4FE0325C4FA8D35232EA4FC0325AB
:103F7000C4FA8935232CA4FC453D232AA4FC8327BD
:103F800044FD9C43832544FE032504FE8297232899
:103F9000A4FC832744FD9C438325C4FD032584FDA5
:103FA00082972326A4FC032704FDC1677D8FC16788
:103FB0006378F700032584FEEF00D07BAA87E1A891
:103FC000032704FDB70702007D8FB7070200636572
:103FD000F7008327C4FE19A0832784FE3E85EF00E7
:103FE00070792324A4FC032704FDB70704007D8F08
:103FF000B70704006365F700832784FC69A883275B
:1040000004FD9D8B85072322F4FC832704FD93F791
:10401000073F9183850786072320F4FC032704FDCF
:104020008567938707C07D8F9307F03F63E4E700C0
:10403000FD5795A0032704FD8567938707C0F98F77
:10404000A9830547B317F700232EF4FA032784FC4E
:10405000832744FC3347F702832704FC3307F70226
:104060008327C4FBB347F702232CF4FA8327C4FC4D
:1040700013F707109307F00F63F5E700832784FB1E
:1040800019A8032784FB8327C4FC93F7F70385074C
:104090008607B357F7023E85F64066442561828065
:1040A000397106DE22DC80002326A4FC2324B4FC24
:1040B000FD572326F4FEB707008093C7F7FF23249C
:1040C000F4FE930730042322F4FEADA08326C4FC43
:1040D000832744FE13975700B707012093870753A0
:1040E000BA97BE853685A13B2320A4FE032704FE94
:1040F000FD57630CF702032704FE832784FC1D8F02
:104100009357F7413D8FB307F740232EF4FC032765
:10411000C4FD832784FE635AF700832744FE2326C9
:10412000F4FE8327C4FD2324F4FE832744FEFD17F9
:104130002322F4FE832744FEE3DA07F88327C4FE34
:104140003E85F250625421618280797106D622D474
:104150000018232EA4FC232CB4FC232AC4FC8327A0
:10416000C4FD9C4313F787FF8327C4FD98C38327AF
:10417000C4FD9843832744FD9C4B9D8B5D8F832713
:10418000C4FD98C38327C4FD9C4313F7F7C083275E
:10419000C4FD98C38327C4FD9843832744FDDC4BAB
:1041A000920793F7073F5D8F8327C4FD98C383274A
:1041B000C4FD9843FD779387F73F7D8F8327C4FD28
:1041C00098C38327C4FD9843832744FD9C4F93964F
:1041D000A7008567938707C0F58F5D8F8327C4FD90
:1041E00098C3832744FDDC4F63DB0702832784FDEC
:1041F0009C4313E70710832784FD98C3832784FD1E
:104200009C4313F707FC832784FD98C3832784FD11
:104210009C4313E71700832784FD98C32DA88327A9
:1042200084FD9C4313F7F7EF832784FD98C383270E
:1042300084FD9C4313F707FC832784FD98C38327E1
:1042400084FD9843832744FDDC4F93F7F7035D8F8C
:10425000832784FD98C38327C4FD9843B707FCFFD9
:10426000FD177D8F8327C4FD98C3930704FE3E8608
:104270008545B71700801385C7A6EFD06FCA032600
:1042800004FE832644FE114581453307A6003A8883
:104290003338C800B387B600B306F800B6872324C6
:1042A000E4FE2326F4FE19A8930704FE3E86854506
:1042B000B71700801385C7A6EFD08FC6032704FE6B
:1042C000832744FE8326C4FE3E8663ECC600832615
:1042D000C4FE3E86E39AC6FC832684FEBA87E3F5D5
:1042E000F6FC01008327C4FD9C43E3DD07FE0100CB
:1042F0000100B2502254456182805D7186C6A2C41D
:104300008008232EA4FA232CB4FA0325C4FBEFF073
:10431000DFA82326A4FE0325C4FBEFF07FA62324F9
:10432000A4FE0325C4FBEFF0BFAC2322A4FE0325AB
:10433000C4FBEFF09FA92320A4FEEFF0DFAD232EF6
:10434000A4FC0327C4FD832744FEBA97232CF4FC66
:104350000327C4FD832704FEBA97232AF4FC83278E
:1043600084FD9843C167F98F91CB832784FD9843DF
:10437000C177FD177D8F832784FD98C3832784FD34
:104380009843B7070200F98F81C78327C4FE19A09D
:10439000832784FE3E85EF00F03D2328A4FC0327FD
:1043A00004FDBA878607BA9713D7F7410D8BBA97E2
:1043B00089873E87832784FB63CBE702032704FDBD
:1043C000BA878A07BA9713D7F7410D8BBA978987AF
:1043D0003E87832784FB634CF700832784FD984343
:1043E000B70704005D8F832784FD98C3B1A08325A0
:1043F00084FB032504FD6D312326A4FC0327C4FCA4
:10440000FD576302F7028327C4FC13975700B707D1
:10441000012093870753BA973E86832544FD0325E1
:1044200084FD253311A8832784FD9843B707040032
:104430005D8F832784FD98C3832784FD9843C167DC
:104440005D8F832784FD98C30325C4FBEFF05FAE27
:10445000AA873E85B640264461618280411122C60A
:104460000008B78700103E8532444101828079718F
:1044700006D622D40018232EA4FC232CB4FCF93F2A
:10448000AA872326F4FE032784FD8327C4FEBA9758
:104490009C433E85B250225445618280797106D694
:1044A00022D40018232EA4FC232CB4FC232AC4FC01
:1044B0007537AA872326F4FE032784FD8327C4FECD
:1044C000BA973E87832744FD1CC33E85B2502254D1
:1044D00045618280011122CE00102326A4FE03270D
:1044E000C4FE9387C1816315F700B727011011A09F
:1044F00081473E85724405618280011122CE001001
:104500002326A4FE0327C4FE9387C1816317F70007
:10451000B70700809387074611A081473E85724404
:1045200005618280011122CE00102326A4FE2324DF
:10453000B4FE0327C4FE9387C1816317F700832766
:1045400084FE99E3A14715AE0327C4FE9387C1817A
:104550006319F700032784FE85476314F700A54716
:1045600029AE0327C4FE9387C1816319F70003278F
:1045700084FE89476314F700A94701A60327C4FEF8
:104580009387C1816319F700032784FE8D47631465
:10459000F700AD47DDA40327C4FE9387C1816319EB
:1045A000F700032784FE91476314F700B147F1A495
:1045B0000327C4FE9387C1816319F700032784FE94
:1045C00095476314F700B5474DAC0327C4FE9387A6
:1045D000C1816319F700032784FE99476314F7002C
:1045E000B94761AC0327C4FE9387C1816319F70003
:1045F000032784FE9D476314F700BD47BDAC032726
:10460000C4FE9387C1816319F700032784FEA14785
:104610006314F700C14795A40327C4FE9387C181A3
:104620006319F700032784FEA5476314F700C54705
:10463000A9A40327C4FE9387C1816319F700032748
:1046400084FEA9476314F700C94705AC0327C4FEDD
:104650009387C1816319F700032784FEAD47631474
:10466000F700CD4719AC0327C4FE9387C1816319B6
:10467000F700032784FEB1476314F700D147F5AA7A
:104680000327C4FE9387C1816319F700032784FEC3
:10469000B5476314F700D547CDA20327C4FE93871F
:1046A000C1816319F700032784FEB9476314F7003B
:1046B000D947E1A20327C4FE9387C1816319F7009C
:1046C000032784FEBD476314F700DD477DA203275F
:1046D000C4FE9387C1816319F700032784FEC14795
:1046E0006314F700E14751AA0327C4FE9387C181F1
:1046F0006319F700032784FEC5476314F700E547F5
:10470000ADAA0327C4FE9387C1816319F70003276D
:1047100084FEC9476314F700E94785A20327C4FE56
:104720009387C1816319F700032784FECD47631483
:10473000F700ED4799A20327C4FE9387C18163194F
:10474000F700032784FED1476314F700F14735A231
:104750000327C4FE9387C1816319F700032784FEF2
:10476000D5476314F700F54709AA0327C4FE9387CA
:10477000C1816319F700032784FED9476314F7004A
:10478000F947E5A80327C4FE9387C1816319F700A1
:10479000032784FEDD476314F700FD47F9A80327CC
:1047A000C4FE9387C181631AF700032784FEE147A3
:1047B0006315F70093070002C9A00327C4FE93877F
:1047C000C181631AF700032784FEE5476315F700EC
:1047D000930710025DA00327C4FE9387C181631A6B
:1047E000F700032784FEE9476315F70093072002CB
:1047F00069A00327C4FE9387C181631AF7000327CA
:1048000084FEED476315F70093073002BDA0032730
:10481000C4FE9387C181631AF700032784FEF14722
:104820006315F7009307400289A80327C4FE938706
:10483000C1816319F700032784FEF5476314F7006D
:10484000ED4725A80327C4FE9387C1816319F700AC
:10485000032784FEF9476314F700F14739A80327BB
:10486000C4FE9387C1816319F700032784FEFD47C7
:104870006314F700F54711A081473E857244056136
:104880008280797106D622D40018232EA4FC232C12
:10489000B4FC0325C4FDEFF0FFC3AA872326F4FE72
:1048A0008327C4FE91079843832784FD8326C4FE93
:1048B0009106D98F9CC281473E85B25022544561F2
:1048C0008280797106D622D40018232EA4FC232CD2
:1048D000B4FC0325C4FDEFF0FFBFAA872326F4FE36
:1048E0008327C4FE91079C43032784FD1347F7FFEA
:1048F000BA860327C4FE1107F58F1CC381473E8586
:10490000B250225445618280797106D622D40018B3
:10491000232EA4FC0325C4FDEFF0DFBBAA872326CA
:10492000F4FE8327C4FE9C433E85B2502254456169
:104930008280797106D622D40018232EA4FC032588
:10494000C4FDEFF03FB9AA872326F4FE8327C4FEF7
:10495000B1079C433E85B2502254456182807971F3
:1049600006D622D40018232EA4FC232CB4FC032545
:10497000C4FDEFF03FB6AA872326F4FE8327C4FECA
:10498000A1079C43032784FD1347F7FFBA8603273B
:10499000C4FE2107F58F1CC381473E85B2502254C7
:1049A00045618280797106D622D40018232EA4FC9A
:1049B000232CB4FC0325C4FDEFF0DFB1AA87232626
:1049C000F4FE8327C4FEA1079843832784FD832632
:1049D000C4FEA106D98F9CC281473E85B2502254A5
:1049E00045618280797106D622D40018232EA4FC5A
:1049F000232CB4FC0325C4FDEFF0DFADAA872326EA
:104A0000F4FE8327C4FEB1079843832784FD8326E1
:104A1000C4FEB106D98F9CC281473E85B250225454
:104A200045618280797106D622D40018232EA4FC19
:104A3000232CB4FC0325C4FDEFF0DFA9AA872326AD
:104A4000F4FE8327C4FEB1079C43032784FD13476C
:104A5000F7FFBA860327C4FE3107F58F1CC38147D1
:104A60003E85B250225445618280797106D622D4A7
:104A70000018232EA4FC232CB4FC0325C4FDEFF066
:104A80007FA5AA872326F4FE8327C4FEB107984397
:104A9000832784FD8326C4FEB106B98F9CC281475B
:104AA0003E85B250225445618280797106D622D467
:104AB0000018232EA4FC232CB4FC232AC4FC0325B9
:104AC000C4FDEFF03FA1AA872326F4FE8327C4FE8E
:104AD0009387C7039843832784FD8326C4FE938668
:104AE000C603D98F9CC28327C4FE9387870398434C
:104AF000832744FD8326C4FE93868603D98F9CC2F8
:104B000081473E85B250225445618280797106D634
:104B100022D40018232EA4FC232CB4FC0325C4FDAE
:104B2000EFF05F9BAA872326F4FE8327C4FE9387BA
:104B300087039C43032784FD1347F7FFBA860327A7
:104B4000C4FE13078703F58F1CC381473E85B2500F
:104B5000225445618280797106D622D40018232E12
:104B6000A4FC232CB4FC232AC4FC0325C4FDEFF0D1
:104B70007F96AA872326F4FE032744FD9D4763E919
:104B8000E71C832744FD13972700B717012093875D
:104B9000C7DBBA979C4382878327C4FEE1079C4307
:104BA000032784FD1347F7FFBA860327C4FE610776
:104BB000F58F1CC38327C4FE938707029C430327FA
:104BC00084FD1347F7FFBA860327C4FE13070702C5
:104BD000F58F1CC38327C4FE938787029C4303275A
:104BE00084FD1347F7FFBA860327C4FE1307870225
:104BF000F58F1CC38327C4FE938707039C430327B9
:104C000084FD1347F7FFBA860327C4FE1307070383
:104C1000F58F1CC335AA8327C4FEE1079843832779
:104C200084FD8326C4FEE106D98F9CC215A283278A
:104C3000C4FE938707029843832784FD8326C4FE1E
:104C400093860602D98F9CC221A28327C4FEE10766
:104C50009843832784FD8326C4FEE106D98F9CC236
:104C60008327C4FE938707029843832784FD832606
:104C7000C4FE93860602D98F9CC2D9A88327C4FE9E
:104C8000938787029843832784FD8326C4FE9386F7
:104C90008602D98F9CC26DA88327C4FE9387070321
:104CA0009843832784FD8326C4FE93860603D98F09
:104CB0009CC279A88327C4FE9387870298438327E1
:104CC00084FD8326C4FE93868602D98F9CC28327E7
:104CD000C4FE938707039843832784FD8326C4FE7D
:104CE00093860603D98F9CC2A5A08327C4FEE10743
:104CF0009843832784FD8326C4FEE106D98F9CC296
:104D00008327C4FE938707029843832784FD832665
:104D1000C4FE93860602D98F9CC28327C4FE938764
:104D200087029843832784FD8326C4FE93868602E8
:104D3000D98F9CC28327C4FE938707039843832798
:104D400084FD8326C4FE93860603D98F9CC201008E
:104D500081473E85B250225445618280797106D6E2
:104D600022D40018232EA4FC232CB4FC232AC4FC38
:104D70000325C4FDEFF00FF6AA872326F4FE0327D0
:104D800044FD9D4763EAE714832744FD13972700FA
:104D9000B71701209387C7DDBA979C438287832783
:104DA000C4FEF1079843832784FD8326C4FEF106E1
:104DB000D98F9CC215A28327C4FE938747029843CC
:104DC000832784FD8326C4FE93864602D98F9CC226
:104DD00021A28327C4FEF1079843832784FD8326FD
:104DE000C4FEF106D98F9CC28327C4FE9387470275
:104DF0009843832784FD8326C4FE93864602D98F79
:104E00009CC2D9A88327C4FE9387C70298438327EF
:104E100084FD8326C4FE9386C602D98F9CC26DA8EA
:104E20008327C4FE938747039843832784FD832603
:104E3000C4FE93864603D98F9CC279A88327C4FEFB
:104E40009387C7029843832784FD8326C4FE9386F5
:104E5000C602D98F9CC28327C4FE93874703984319
:104E6000832784FD8326C4FE93864603D98F9CC284
:104E7000A5A08327C4FEF1079843832784FD8326DA
:104E8000C4FEF106D98F9CC28327C4FE93874702D4
:104E90009843832784FD8326C4FE93864602D98FD8
:104EA0009CC28327C4FE9387C7029843832784FD4F
:104EB0008326C4FE9386C602D98F9CC28327C4FE74
:104EC000938747039843832784FD8326C4FE9386F4
:104ED0004603D98F9CC2010081473E85B2502254BF
:104EE00045618280011106CE22CC00102326A4FE4B
:104EF0000325C4FEEFF06FE0AA873E85F2406244CE
:104F000005618280797106D622D40018232EA4FC74
:104F1000232CB4FC832584FD0325C4FDEFF08FE032
:104F20002326A4FE8327C4FE3E85B2502254456149
:104F30008280797106D622D40018232EA4FC832700
:104F4000C4FD2326F4FE31A88327C4FE984383279B
:104F5000C4FEDC433E8502978327C4FE9C4723267C
:104F6000F4FE8327C4FEEDF301000100B250225489
:104F700045618280011106CE22CC00102326A4FEBA
:104F80008327C4FE9C439C430325C4FE8297AA87C3
:104F90003E85F240624405618280797106D622D452
:104FA0000018232EA4FC232CB4FC8327C4FDDC436F
:104FB0003E8541378327C4FD9C43DC43832584FD24
:104FC0000325C4FD82972326A4FE8327C4FD9C47A6
:104FD0003E8585378327C4FE3E85B2502254456105
:104FE0008280011106CE22CC00102326A4FE832746
:104FF000C4FE9C439C430325C4FE82972A87AE8748
:105000003A85BE85F240624405618280011106CE78
:1050100022CC00102326A4FE8327C4FE9C43DC433D
:105020000325C4FE82972A87AE873A85BE85F24063
:10503000624405618280011106CE22CC0010232635
:10504000A4FE8327C4FE9C43DC570325C4FE82973D
:10505000AA873E85F240624405618280011122CE1A
:1050600000102326A4FE8327C4FE99EBB717008007
:105070000327C4FE0A07938747A6BA979C4311A04B
:1050800081473E85724405618280011122CE001065
:10509000F32740F12326F4FE8327C4FE3E857244A5
:1050A00005618280011122CE00102326A4FE01009A
:1050B000FDBF000000000000000000000000000034
:1050C00000000000000000000000000000000000E0
:1050D00000000000000000000000000000000000D0
:1050E00000000000000000000000000000000000C0
:1050F00000000000000000000000000000000000B0
:105100006FC0FF9F6FC0BF9F6FC07F9F6FC01FA208
:105110006FC0FF9E6FC0BF9E6FC07F9E6FC0BFB04D
:105120006FC0FF9D6FC0BF9D6FC07F9D6FC03F9DD3
:105130006FC0FF9C6FC0BF9C6FC07F9C6FC03F9CC7
:105140006FC07FE36FC09FEC6FC0BFF56FC0DFFE25
:105150006FD0EF876FD00F916FD02F9A6FD04FA382
:105160006FD06FAC6FD08FB56FD0AFBE6FD0CFC7E1
:105170006FD0EFD06FD00FDA6FD02FE36FD04FEC3E
:10518000011122CE00102326A4FE0327C4FEB70778
:105190000080938707066317F700B727F40093870B
:1051A000074099A00327C4FEB70700809387C7066E
:1051B0006317F700B7A74A049387072035A0032792
:1051C000C4FEB7070080938787076314F700A167C1
:1051D00021A80327C4FEB7070080938747086314FC
:1051E000F700A16711A081473E8572440561828066
:1051F000011106CE22CC00102326A4FE0325C4FEF6
:105200004137AA873E85F2406244056182800111E0
:1052100006CE22CC00102326A4FE2324B4FE0325B0
:10522000C4FEF937AA873E85F24062440561828058
:10523000797106D622D40018232EA4FC232CB4FCAA
:105240008327C4FD3E85193D2326A4FE8327C4FE83
:1052500081CF0325C4FE71332A87AE87832684FD60
:1052600098C2DCC2814711A0FD573E85B25022543E
:1052700045618280797106D622D40018232EA4FCC1
:10528000232CB4FC8327C4FD3E85C93B2326A4FE02
:105290008327C4FE81CF0325C4FE8D3B2A87AE87BA
:1052A000832684FD98C2DCC2814711A0FD573E854C
:1052B000B250225445618280397106DE22DC4ADA1E
:1052C0004ED852D656D48000232CA4FC232EB4FCF6
:1052D0002328C4FC232AD4FC2324E4FC2326F4FC46
:1052E000032784FD8327C4FD032684FC8326C4FC96
:1052F0003A85BE85692D2A87AE87832604FD3386CD
:10530000F602832644FDB386E6023696832604FD24
:10531000B385E602B3BAE6022E8AB3075601BE8A07
:10532000032684FC8326C4FC5285D68509262A8759
:10533000AE873A8ABE8A032684FC8326C4FC0325F2
:1053400084FD8325C4FDE5242A87AE87832604FDDA
:105350003386F602832644FDB386E602369683261C
:1053600004FDB385E602B3B9E6022E89B307360120
:10537000BE8933072A01BA86B3B64601B3873A011C
:10538000BE96B6873A85BE85F25062545259C259CC
:10539000325AA25A21618280397106DE22DC8000F5
:1053A0002326A4FCEFF07FCE2326A4FE930784FDE2
:1053B000BE850325C4FE7D3D930704FEBE850325FF
:1053C000C4FEBD35032504FE832544FE032784FD6A
:1053D0008327C4FD37460F00130606248146E93DA6
:1053E0002A87AE872320E4FE2322F4FE8327C4FC11
:1053F00023A207008327C4FC23A407008327C4FC3F
:1054000023A60700032704FE832744FE8327C4FC4A
:1054100098C38327C4FC9C433E85F25062542161AB
:105420008280AA85814601460145C1A0411122C45E
:1054300006C697070000938747132A8499C38145BE
:105440001D2217C5FFFF0325E5B01C5591C38297A8
:105450002285EF005019411122C426C217B4FFFF64
:105460001304C4E897B4FFFF938444E8058C06C690
:10547000098411E4B24022449244410182807D14A7
:1054800093172400A6979C438297E5B7411122C445
:1054900026C217B4FFFF1304E4E497B4FFFF93841C
:1054A00064E4818C4AC006C6898401496315990267
:1054B00017B4FFFF130404E397B4FFFF938484E25F
:1054C000818C89840149631D9900B2402244924431
:1054D0000249410182801C40050911048297F9B7F5
:1054E0001C40050911048297F9BFAA8817B5FE5F11
:1054F0001305C5591C4191EF17B7FE5F1307C75934
:1055000018C113050000BA8709C51C412324F708F8
:10551000BA87D8437D487D556346E804638D080209
:1055200003A887086300080413152700429510C1DB
:105530000323081005463316E6003363C300232017
:1055400068102320D50889466397D8008326481021
:10555000558E2322C810930617000A07D4C3BA97A2
:105560008CC701458280797156CA5AC85EC662C42A
:1055700006D622D426D24AD04ECE52CC66C22A8B30
:10558000AE8A97BBFE5F938B6B50054C83A40B00D8
:1055900081CCC04083A984081309F4FF0A04338A2C
:1055A00089002694635F0900B25022549254025934
:1055B000F249624AD24A424BB24B224C924C45616C
:1055C0008280638C0A00639609007D19711A711438
:1055D000D1BF8327CA07E39A57FFD8405C407D17A5
:1055E0006318270323A22401EDD383AC440063880E
:1055F000090083A6091033172C01F98E89EE8297D2
:10560000D84083A70B00E31397F9E380F4FCBDBFF8
:1056100023220400D1BF83A649108325CAFF758FBA
:1056200001E75A858297E9BF2E858297D1BFAA8864
:10563000AE873288368546836396062097C6FFFF7D
:105640009386068163FFC50A41676375E60A1307FF
:10565000F00F3337C7000E073355E600AA9683C60E
:105660000600130500023697B306E540630BE5001C
:10567000B395D70033D7E8003318D600D98D3393CC
:10568000D80093580801B3D61503131608014182B8
:105690009357030133F715033685B305D602420746
:1056A000D98F63FCB700C2971385F6FF63E7070144
:1056B00063F5B7001385E6FFC2978D8F33F71703A5
:1056C000420313530301B3D7170342073363670041
:1056D000B306F6023E86637BD30042931386F7FF40
:1056E000636603016374D3001386E7FF4205518D9F
:1056F00081455DA8370500014147E36FA6F4614786
:10570000A1BF01E605473358C7024167637FE80838
:105710001307F00F6373070121453357A800BA96AA
:1057200003C70600130600022A97B306E640631576
:10573000E608B38707418545935808011316080109
:10574000418213570301B3F61703B3D71703C206F9
:10575000558F330EF6023E85637CC7014297138551
:10576000F7FF636707016375C7011385E7FF42977A
:105770003307C741B377170342031353030133576A
:105780001703C20733E36700B306E6023A86637B7A
:10579000D30042931306F7FF636603016374D300DB
:1057A0001306E7FF4205518D82803707000141450E
:1057B000E365E8F6614595B73318D80033D5E700BF
:1057C0003393D800B397D70033D7E8009358080134
:1057D0003366F7003377150393170801C183935598
:1057E00006013355150342074D8FB386A702AA85DC
:1057F000637CD70042979305F5FF636707016375E4
:10580000D7009305E5FF4297B306D74033F7160359
:1058100042064182B3D6160342073385D702B367E7
:10582000C700368763FCA700C2971387F6FF63E7BC
:10583000070163F5A7001387E6FFC297C205898FAA
:10584000D98DDDBD63E2D514416763FFE60213071E
:10585000F00FB335D7008E0533D5B60017B7FFFF6D
:105860001307075F2A9703470700130500022E97C7
:10587000B305E5406311E5020545E3E7F6F233B50C
:10588000C800134515000DB737070001C145E3E512
:10589000E6FCE145D1B73358E600B396B60033686D
:1058A000D80033D3E700935E0801B376D303B397F0
:1058B000B70033D7E800331EB6003366F7009317FE
:1058C0000801C183135706013353D303C206558F12
:1058D000338F67021A85637CE70142971305F3FF54
:1058E000636707016375E7011305E3FF4297330719
:1058F000E741B376D7033357D703C2063383E702B2
:1059000093170601C183D58F3A8663FC6700C2975F
:105910001306F7FF63E7070163F567001306E7FF68
:10592000C2974205C16E518D9386FEFF13560E013C
:1059300013580501B38767403373D500B376DE0093
:10594000330ED302B306D80213570E013303C3023A
:1059500036931A973308C8026373D7007698935624
:105960000701369863E00703E39407D9C167FD1781
:105970007D8F4207337EFE00B398B8007297814551
:10598000E3F4E8E27D15ADB38145014531BD2A83DD
:105990003288B6872E876395061C97B6FFFF9386DD
:1059A000264B63F6C50AC168637C16099308F00F9D
:1059B00063F3C800A147B358F600C69683C6060035
:1059C000B69793060002B388F640638CF600B39551
:1059D0001501B357F3003318160133E7B700331539
:1059E000130193550801B377B702131608014182DA
:1059F000935605013357B702C207DD8E3307E6021F
:105A000063F8E600C29663E5060163F3E600C2961A
:105A1000998EB3F7B60242054181B3D6B602C207EA
:105A20005D8DB306D6026378D500429563650501A6
:105A30006373D5004295158D3355150181458280DC
:105A4000B7080001C147E36816F7E147ADB701E6C3
:105A500005473358C70241676373E8081307F00F1F
:105A600063730701A1473357F800BA9603C60600CF
:105A70003E9693070002B388C7406399C706B38573
:105A800005419356080193170801C1831356050178
:105A900033F7D502B3D5D5024207518FB385B7028C
:105AA0006378B7004297636507016373B700429755
:105AB000B305B74033F7D50242054181B3D5D502CE
:105AC000B385B702931707015D8D6378B5004295E2
:105AD000636505016373B50042950D8DB1BF37074E
